
bingo-6.elf:     file format elf32-littlearm

Sections:
Idx Name          Size      VMA       LMA       File off  Algn
  0 .isr_vector   000001d8  08000000  08000000  00010000  2**0
                  CONTENTS, ALLOC, LOAD, READONLY, DATA
  1 .text         00007bb8  080001d8  080001d8  000101d8  2**3
                  CONTENTS, ALLOC, LOAD, READONLY, CODE
  2 .rodata       00000254  08007d90  08007d90  00017d90  2**2
                  CONTENTS, ALLOC, LOAD, READONLY, DATA
  3 .ARM.extab    00000000  08007fe4  08007fe4  00020454  2**0
                  CONTENTS
  4 .ARM          00000008  08007fe4  08007fe4  00017fe4  2**2
                  CONTENTS, ALLOC, LOAD, READONLY, DATA
  5 .preinit_array 00000000  08007fec  08007fec  00020454  2**0
                  CONTENTS, ALLOC, LOAD, DATA
  6 .init_array   00000004  08007fec  08007fec  00017fec  2**2
                  CONTENTS, ALLOC, LOAD, DATA
  7 .fini_array   00000004  08007ff0  08007ff0  00017ff0  2**2
                  CONTENTS, ALLOC, LOAD, DATA
  8 .data         00000454  20000000  08007ff4  00020000  2**2
                  CONTENTS, ALLOC, LOAD, DATA
  9 .bss          00001508  20000454  08008448  00020454  2**2
                  ALLOC
 10 ._user_heap_stack 00000604  2000195c  08008448  0002195c  2**0
                  ALLOC
 11 .ARM.attributes 00000030  00000000  00000000  00020454  2**0
                  CONTENTS, READONLY
 12 .debug_line   0003addd  00000000  00000000  00020484  2**0
                  CONTENTS, READONLY, DEBUGGING, OCTETS
 13 .debug_info   0003fa7a  00000000  00000000  0005b261  2**0
                  CONTENTS, READONLY, DEBUGGING, OCTETS
 14 .debug_abbrev 0000747c  00000000  00000000  0009acdb  2**0
                  CONTENTS, READONLY, DEBUGGING, OCTETS
 15 .debug_aranges 00001908  00000000  00000000  000a2158  2**3
                  CONTENTS, READONLY, DEBUGGING, OCTETS
 16 .debug_str    000fd14e  00000000  00000000  000a3a60  2**0
                  CONTENTS, READONLY, DEBUGGING, OCTETS
 17 .debug_ranges 00005010  00000000  00000000  001a0bb0  2**3
                  CONTENTS, READONLY, DEBUGGING, OCTETS
 18 .debug_loc    000291cf  00000000  00000000  001a5bc0  2**0
                  CONTENTS, READONLY, DEBUGGING, OCTETS
 19 .debug_macro  00029db2  00000000  00000000  001ced8f  2**0
                  CONTENTS, READONLY, DEBUGGING, OCTETS
 20 .comment      00000050  00000000  00000000  001f8b41  2**0
                  CONTENTS, READONLY
 21 .debug_frame  00004834  00000000  00000000  001f8b94  2**2
                  CONTENTS, READONLY, DEBUGGING, OCTETS

Disassembly of section .text:

080001d8 <__do_global_dtors_aux>:
 80001d8:	b510      	push	{r4, lr}
 80001da:	4c05      	ldr	r4, [pc, #20]	; (80001f0 <__do_global_dtors_aux+0x18>)
 80001dc:	7823      	ldrb	r3, [r4, #0]
 80001de:	b933      	cbnz	r3, 80001ee <__do_global_dtors_aux+0x16>
 80001e0:	4b04      	ldr	r3, [pc, #16]	; (80001f4 <__do_global_dtors_aux+0x1c>)
 80001e2:	b113      	cbz	r3, 80001ea <__do_global_dtors_aux+0x12>
 80001e4:	4804      	ldr	r0, [pc, #16]	; (80001f8 <__do_global_dtors_aux+0x20>)
 80001e6:	f3af 8000 	nop.w
 80001ea:	2301      	movs	r3, #1
 80001ec:	7023      	strb	r3, [r4, #0]
 80001ee:	bd10      	pop	{r4, pc}
 80001f0:	20000454 	.word	0x20000454
 80001f4:	00000000 	.word	0x00000000
 80001f8:	08007d78 	.word	0x08007d78

080001fc <frame_dummy>:
 80001fc:	b508      	push	{r3, lr}
 80001fe:	4b03      	ldr	r3, [pc, #12]	; (800020c <frame_dummy+0x10>)
 8000200:	b11b      	cbz	r3, 800020a <frame_dummy+0xe>
 8000202:	4903      	ldr	r1, [pc, #12]	; (8000210 <frame_dummy+0x14>)
 8000204:	4803      	ldr	r0, [pc, #12]	; (8000214 <frame_dummy+0x18>)
 8000206:	f3af 8000 	nop.w
 800020a:	bd08      	pop	{r3, pc}
 800020c:	00000000 	.word	0x00000000
 8000210:	20000458 	.word	0x20000458
 8000214:	08007d78 	.word	0x08007d78

08000218 <__aeabi_uldivmod>:
 8000218:	b953      	cbnz	r3, 8000230 <__aeabi_uldivmod+0x18>
 800021a:	b94a      	cbnz	r2, 8000230 <__aeabi_uldivmod+0x18>
 800021c:	2900      	cmp	r1, #0
 800021e:	bf08      	it	eq
 8000220:	2800      	cmpeq	r0, #0
 8000222:	bf1c      	itt	ne
 8000224:	f04f 31ff 	movne.w	r1, #4294967295
 8000228:	f04f 30ff 	movne.w	r0, #4294967295
 800022c:	f000 b974 	b.w	8000518 <__aeabi_idiv0>
 8000230:	f1ad 0c08 	sub.w	ip, sp, #8
 8000234:	e96d ce04 	strd	ip, lr, [sp, #-16]!
 8000238:	f000 f806 	bl	8000248 <__udivmoddi4>
 800023c:	f8dd e004 	ldr.w	lr, [sp, #4]
 8000240:	e9dd 2302 	ldrd	r2, r3, [sp, #8]
 8000244:	b004      	add	sp, #16
 8000246:	4770      	bx	lr

08000248 <__udivmoddi4>:
 8000248:	e92d 47f0 	stmdb	sp!, {r4, r5, r6, r7, r8, r9, sl, lr}
 800024c:	9d08      	ldr	r5, [sp, #32]
 800024e:	4604      	mov	r4, r0
 8000250:	468e      	mov	lr, r1
 8000252:	2b00      	cmp	r3, #0
 8000254:	d14d      	bne.n	80002f2 <__udivmoddi4+0xaa>
 8000256:	428a      	cmp	r2, r1
 8000258:	4694      	mov	ip, r2
 800025a:	d969      	bls.n	8000330 <__udivmoddi4+0xe8>
 800025c:	fab2 f282 	clz	r2, r2
 8000260:	b152      	cbz	r2, 8000278 <__udivmoddi4+0x30>
 8000262:	fa01 f302 	lsl.w	r3, r1, r2
 8000266:	f1c2 0120 	rsb	r1, r2, #32
 800026a:	fa20 f101 	lsr.w	r1, r0, r1
 800026e:	fa0c fc02 	lsl.w	ip, ip, r2
 8000272:	ea41 0e03 	orr.w	lr, r1, r3
 8000276:	4094      	lsls	r4, r2
 8000278:	ea4f 481c 	mov.w	r8, ip, lsr #16
 800027c:	0c21      	lsrs	r1, r4, #16
 800027e:	fbbe f6f8 	udiv	r6, lr, r8
 8000282:	fa1f f78c 	uxth.w	r7, ip
 8000286:	fb08 e316 	mls	r3, r8, r6, lr
 800028a:	ea41 4303 	orr.w	r3, r1, r3, lsl #16
 800028e:	fb06 f107 	mul.w	r1, r6, r7
 8000292:	4299      	cmp	r1, r3
 8000294:	d90a      	bls.n	80002ac <__udivmoddi4+0x64>
 8000296:	eb1c 0303 	adds.w	r3, ip, r3
 800029a:	f106 30ff 	add.w	r0, r6, #4294967295
 800029e:	f080 811f 	bcs.w	80004e0 <__udivmoddi4+0x298>
 80002a2:	4299      	cmp	r1, r3
 80002a4:	f240 811c 	bls.w	80004e0 <__udivmoddi4+0x298>
 80002a8:	3e02      	subs	r6, #2
 80002aa:	4463      	add	r3, ip
 80002ac:	1a5b      	subs	r3, r3, r1
 80002ae:	b2a4      	uxth	r4, r4
 80002b0:	fbb3 f0f8 	udiv	r0, r3, r8
 80002b4:	fb08 3310 	mls	r3, r8, r0, r3
 80002b8:	ea44 4403 	orr.w	r4, r4, r3, lsl #16
 80002bc:	fb00 f707 	mul.w	r7, r0, r7
 80002c0:	42a7      	cmp	r7, r4
 80002c2:	d90a      	bls.n	80002da <__udivmoddi4+0x92>
 80002c4:	eb1c 0404 	adds.w	r4, ip, r4
 80002c8:	f100 33ff 	add.w	r3, r0, #4294967295
 80002cc:	f080 810a 	bcs.w	80004e4 <__udivmoddi4+0x29c>
 80002d0:	42a7      	cmp	r7, r4
 80002d2:	f240 8107 	bls.w	80004e4 <__udivmoddi4+0x29c>
 80002d6:	4464      	add	r4, ip
 80002d8:	3802      	subs	r0, #2
 80002da:	ea40 4006 	orr.w	r0, r0, r6, lsl #16
 80002de:	1be4      	subs	r4, r4, r7
 80002e0:	2600      	movs	r6, #0
 80002e2:	b11d      	cbz	r5, 80002ec <__udivmoddi4+0xa4>
 80002e4:	40d4      	lsrs	r4, r2
 80002e6:	2300      	movs	r3, #0
 80002e8:	e9c5 4300 	strd	r4, r3, [r5]
 80002ec:	4631      	mov	r1, r6
 80002ee:	e8bd 87f0 	ldmia.w	sp!, {r4, r5, r6, r7, r8, r9, sl, pc}
 80002f2:	428b      	cmp	r3, r1
 80002f4:	d909      	bls.n	800030a <__udivmoddi4+0xc2>
 80002f6:	2d00      	cmp	r5, #0
 80002f8:	f000 80ef 	beq.w	80004da <__udivmoddi4+0x292>
 80002fc:	2600      	movs	r6, #0
 80002fe:	e9c5 0100 	strd	r0, r1, [r5]
 8000302:	4630      	mov	r0, r6
 8000304:	4631      	mov	r1, r6
 8000306:	e8bd 87f0 	ldmia.w	sp!, {r4, r5, r6, r7, r8, r9, sl, pc}
 800030a:	fab3 f683 	clz	r6, r3
 800030e:	2e00      	cmp	r6, #0
 8000310:	d14a      	bne.n	80003a8 <__udivmoddi4+0x160>
 8000312:	428b      	cmp	r3, r1
 8000314:	d302      	bcc.n	800031c <__udivmoddi4+0xd4>
 8000316:	4282      	cmp	r2, r0
 8000318:	f200 80f9 	bhi.w	800050e <__udivmoddi4+0x2c6>
 800031c:	1a84      	subs	r4, r0, r2
 800031e:	eb61 0303 	sbc.w	r3, r1, r3
 8000322:	2001      	movs	r0, #1
 8000324:	469e      	mov	lr, r3
 8000326:	2d00      	cmp	r5, #0
 8000328:	d0e0      	beq.n	80002ec <__udivmoddi4+0xa4>
 800032a:	e9c5 4e00 	strd	r4, lr, [r5]
 800032e:	e7dd      	b.n	80002ec <__udivmoddi4+0xa4>
 8000330:	b902      	cbnz	r2, 8000334 <__udivmoddi4+0xec>
 8000332:	deff      	udf	#255	; 0xff
 8000334:	fab2 f282 	clz	r2, r2
 8000338:	2a00      	cmp	r2, #0
 800033a:	f040 8092 	bne.w	8000462 <__udivmoddi4+0x21a>
 800033e:	eba1 010c 	sub.w	r1, r1, ip
 8000342:	ea4f 471c 	mov.w	r7, ip, lsr #16
 8000346:	fa1f fe8c 	uxth.w	lr, ip
 800034a:	2601      	movs	r6, #1
 800034c:	0c20      	lsrs	r0, r4, #16
 800034e:	fbb1 f3f7 	udiv	r3, r1, r7
 8000352:	fb07 1113 	mls	r1, r7, r3, r1
 8000356:	ea40 4101 	orr.w	r1, r0, r1, lsl #16
 800035a:	fb0e f003 	mul.w	r0, lr, r3
 800035e:	4288      	cmp	r0, r1
 8000360:	d908      	bls.n	8000374 <__udivmoddi4+0x12c>
 8000362:	eb1c 0101 	adds.w	r1, ip, r1
 8000366:	f103 38ff 	add.w	r8, r3, #4294967295
 800036a:	d202      	bcs.n	8000372 <__udivmoddi4+0x12a>
 800036c:	4288      	cmp	r0, r1
 800036e:	f200 80cb 	bhi.w	8000508 <__udivmoddi4+0x2c0>
 8000372:	4643      	mov	r3, r8
 8000374:	1a09      	subs	r1, r1, r0
 8000376:	b2a4      	uxth	r4, r4
 8000378:	fbb1 f0f7 	udiv	r0, r1, r7
 800037c:	fb07 1110 	mls	r1, r7, r0, r1
 8000380:	ea44 4401 	orr.w	r4, r4, r1, lsl #16
 8000384:	fb0e fe00 	mul.w	lr, lr, r0
 8000388:	45a6      	cmp	lr, r4
 800038a:	d908      	bls.n	800039e <__udivmoddi4+0x156>
 800038c:	eb1c 0404 	adds.w	r4, ip, r4
 8000390:	f100 31ff 	add.w	r1, r0, #4294967295
 8000394:	d202      	bcs.n	800039c <__udivmoddi4+0x154>
 8000396:	45a6      	cmp	lr, r4
 8000398:	f200 80bb 	bhi.w	8000512 <__udivmoddi4+0x2ca>
 800039c:	4608      	mov	r0, r1
 800039e:	eba4 040e 	sub.w	r4, r4, lr
 80003a2:	ea40 4003 	orr.w	r0, r0, r3, lsl #16
 80003a6:	e79c      	b.n	80002e2 <__udivmoddi4+0x9a>
 80003a8:	f1c6 0720 	rsb	r7, r6, #32
 80003ac:	40b3      	lsls	r3, r6
 80003ae:	fa22 fc07 	lsr.w	ip, r2, r7
 80003b2:	ea4c 0c03 	orr.w	ip, ip, r3
 80003b6:	fa20 f407 	lsr.w	r4, r0, r7
 80003ba:	fa01 f306 	lsl.w	r3, r1, r6
 80003be:	431c      	orrs	r4, r3
 80003c0:	40f9      	lsrs	r1, r7
 80003c2:	ea4f 491c 	mov.w	r9, ip, lsr #16
 80003c6:	fa00 f306 	lsl.w	r3, r0, r6
 80003ca:	fbb1 f8f9 	udiv	r8, r1, r9
 80003ce:	0c20      	lsrs	r0, r4, #16
 80003d0:	fa1f fe8c 	uxth.w	lr, ip
 80003d4:	fb09 1118 	mls	r1, r9, r8, r1
 80003d8:	ea40 4101 	orr.w	r1, r0, r1, lsl #16
 80003dc:	fb08 f00e 	mul.w	r0, r8, lr
 80003e0:	4288      	cmp	r0, r1
 80003e2:	fa02 f206 	lsl.w	r2, r2, r6
 80003e6:	d90b      	bls.n	8000400 <__udivmoddi4+0x1b8>
 80003e8:	eb1c 0101 	adds.w	r1, ip, r1
 80003ec:	f108 3aff 	add.w	sl, r8, #4294967295
 80003f0:	f080 8088 	bcs.w	8000504 <__udivmoddi4+0x2bc>
 80003f4:	4288      	cmp	r0, r1
 80003f6:	f240 8085 	bls.w	8000504 <__udivmoddi4+0x2bc>
 80003fa:	f1a8 0802 	sub.w	r8, r8, #2
 80003fe:	4461      	add	r1, ip
 8000400:	1a09      	subs	r1, r1, r0
 8000402:	b2a4      	uxth	r4, r4
 8000404:	fbb1 f0f9 	udiv	r0, r1, r9
 8000408:	fb09 1110 	mls	r1, r9, r0, r1
 800040c:	ea44 4101 	orr.w	r1, r4, r1, lsl #16
 8000410:	fb00 fe0e 	mul.w	lr, r0, lr
 8000414:	458e      	cmp	lr, r1
 8000416:	d908      	bls.n	800042a <__udivmoddi4+0x1e2>
 8000418:	eb1c 0101 	adds.w	r1, ip, r1
 800041c:	f100 34ff 	add.w	r4, r0, #4294967295
 8000420:	d26c      	bcs.n	80004fc <__udivmoddi4+0x2b4>
 8000422:	458e      	cmp	lr, r1
 8000424:	d96a      	bls.n	80004fc <__udivmoddi4+0x2b4>
 8000426:	3802      	subs	r0, #2
 8000428:	4461      	add	r1, ip
 800042a:	ea40 4008 	orr.w	r0, r0, r8, lsl #16
 800042e:	fba0 9402 	umull	r9, r4, r0, r2
 8000432:	eba1 010e 	sub.w	r1, r1, lr
 8000436:	42a1      	cmp	r1, r4
 8000438:	46c8      	mov	r8, r9
 800043a:	46a6      	mov	lr, r4
 800043c:	d356      	bcc.n	80004ec <__udivmoddi4+0x2a4>
 800043e:	d053      	beq.n	80004e8 <__udivmoddi4+0x2a0>
 8000440:	b15d      	cbz	r5, 800045a <__udivmoddi4+0x212>
 8000442:	ebb3 0208 	subs.w	r2, r3, r8
 8000446:	eb61 010e 	sbc.w	r1, r1, lr
 800044a:	fa01 f707 	lsl.w	r7, r1, r7
 800044e:	fa22 f306 	lsr.w	r3, r2, r6
 8000452:	40f1      	lsrs	r1, r6
 8000454:	431f      	orrs	r7, r3
 8000456:	e9c5 7100 	strd	r7, r1, [r5]
 800045a:	2600      	movs	r6, #0
 800045c:	4631      	mov	r1, r6
 800045e:	e8bd 87f0 	ldmia.w	sp!, {r4, r5, r6, r7, r8, r9, sl, pc}
 8000462:	f1c2 0320 	rsb	r3, r2, #32
 8000466:	40d8      	lsrs	r0, r3
 8000468:	fa0c fc02 	lsl.w	ip, ip, r2
 800046c:	fa21 f303 	lsr.w	r3, r1, r3
 8000470:	4091      	lsls	r1, r2
 8000472:	4301      	orrs	r1, r0
 8000474:	ea4f 471c 	mov.w	r7, ip, lsr #16
 8000478:	fa1f fe8c 	uxth.w	lr, ip
 800047c:	fbb3 f0f7 	udiv	r0, r3, r7
 8000480:	fb07 3610 	mls	r6, r7, r0, r3
 8000484:	0c0b      	lsrs	r3, r1, #16
 8000486:	ea43 4306 	orr.w	r3, r3, r6, lsl #16
 800048a:	fb00 f60e 	mul.w	r6, r0, lr
 800048e:	429e      	cmp	r6, r3
 8000490:	fa04 f402 	lsl.w	r4, r4, r2
 8000494:	d908      	bls.n	80004a8 <__udivmoddi4+0x260>
 8000496:	eb1c 0303 	adds.w	r3, ip, r3
 800049a:	f100 38ff 	add.w	r8, r0, #4294967295
 800049e:	d22f      	bcs.n	8000500 <__udivmoddi4+0x2b8>
 80004a0:	429e      	cmp	r6, r3
 80004a2:	d92d      	bls.n	8000500 <__udivmoddi4+0x2b8>
 80004a4:	3802      	subs	r0, #2
 80004a6:	4463      	add	r3, ip
 80004a8:	1b9b      	subs	r3, r3, r6
 80004aa:	b289      	uxth	r1, r1
 80004ac:	fbb3 f6f7 	udiv	r6, r3, r7
 80004b0:	fb07 3316 	mls	r3, r7, r6, r3
 80004b4:	ea41 4103 	orr.w	r1, r1, r3, lsl #16
 80004b8:	fb06 f30e 	mul.w	r3, r6, lr
 80004bc:	428b      	cmp	r3, r1
 80004be:	d908      	bls.n	80004d2 <__udivmoddi4+0x28a>
 80004c0:	eb1c 0101 	adds.w	r1, ip, r1
 80004c4:	f106 38ff 	add.w	r8, r6, #4294967295
 80004c8:	d216      	bcs.n	80004f8 <__udivmoddi4+0x2b0>
 80004ca:	428b      	cmp	r3, r1
 80004cc:	d914      	bls.n	80004f8 <__udivmoddi4+0x2b0>
 80004ce:	3e02      	subs	r6, #2
 80004d0:	4461      	add	r1, ip
 80004d2:	1ac9      	subs	r1, r1, r3
 80004d4:	ea46 4600 	orr.w	r6, r6, r0, lsl #16
 80004d8:	e738      	b.n	800034c <__udivmoddi4+0x104>
 80004da:	462e      	mov	r6, r5
 80004dc:	4628      	mov	r0, r5
 80004de:	e705      	b.n	80002ec <__udivmoddi4+0xa4>
 80004e0:	4606      	mov	r6, r0
 80004e2:	e6e3      	b.n	80002ac <__udivmoddi4+0x64>
 80004e4:	4618      	mov	r0, r3
 80004e6:	e6f8      	b.n	80002da <__udivmoddi4+0x92>
 80004e8:	454b      	cmp	r3, r9
 80004ea:	d2a9      	bcs.n	8000440 <__udivmoddi4+0x1f8>
 80004ec:	ebb9 0802 	subs.w	r8, r9, r2
 80004f0:	eb64 0e0c 	sbc.w	lr, r4, ip
 80004f4:	3801      	subs	r0, #1
 80004f6:	e7a3      	b.n	8000440 <__udivmoddi4+0x1f8>
 80004f8:	4646      	mov	r6, r8
 80004fa:	e7ea      	b.n	80004d2 <__udivmoddi4+0x28a>
 80004fc:	4620      	mov	r0, r4
 80004fe:	e794      	b.n	800042a <__udivmoddi4+0x1e2>
 8000500:	4640      	mov	r0, r8
 8000502:	e7d1      	b.n	80004a8 <__udivmoddi4+0x260>
 8000504:	46d0      	mov	r8, sl
 8000506:	e77b      	b.n	8000400 <__udivmoddi4+0x1b8>
 8000508:	3b02      	subs	r3, #2
 800050a:	4461      	add	r1, ip
 800050c:	e732      	b.n	8000374 <__udivmoddi4+0x12c>
 800050e:	4630      	mov	r0, r6
 8000510:	e709      	b.n	8000326 <__udivmoddi4+0xde>
 8000512:	4464      	add	r4, ip
 8000514:	3802      	subs	r0, #2
 8000516:	e742      	b.n	800039e <__udivmoddi4+0x156>

08000518 <__aeabi_idiv0>:
 8000518:	4770      	bx	lr
 800051a:	bf00      	nop

0800051c <Reset_Handler>:

    .section	.text.Reset_Handler
	.weak	Reset_Handler
	.type	Reset_Handler, %function
Reset_Handler:
  ldr   r0, =_estack
 800051c:	480d      	ldr	r0, [pc, #52]	; (8000554 <LoopForever+0x2>)
  mov   sp, r0          /* set stack pointer */
 800051e:	4685      	mov	sp, r0

/* Copy the data segment initializers from flash to SRAM */
  ldr r0, =_sdata
 8000520:	480d      	ldr	r0, [pc, #52]	; (8000558 <LoopForever+0x6>)
  ldr r1, =_edata
 8000522:	490e      	ldr	r1, [pc, #56]	; (800055c <LoopForever+0xa>)
  ldr r2, =_sidata
 8000524:	4a0e      	ldr	r2, [pc, #56]	; (8000560 <LoopForever+0xe>)
  movs r3, #0
 8000526:	2300      	movs	r3, #0
  b	LoopCopyDataInit
 8000528:	e002      	b.n	8000530 <LoopCopyDataInit>

0800052a <CopyDataInit>:

CopyDataInit:
  ldr r4, [r2, r3]
 800052a:	58d4      	ldr	r4, [r2, r3]
  str r4, [r0, r3]
 800052c:	50c4      	str	r4, [r0, r3]
  adds r3, r3, #4
 800052e:	3304      	adds	r3, #4

08000530 <LoopCopyDataInit>:

LoopCopyDataInit:
  adds r4, r0, r3
 8000530:	18c4      	adds	r4, r0, r3
  cmp r4, r1
 8000532:	428c      	cmp	r4, r1
  bcc CopyDataInit
 8000534:	d3f9      	bcc.n	800052a <CopyDataInit>
  
/* Zero fill the bss segment. */
  ldr r2, =_sbss
 8000536:	4a0b      	ldr	r2, [pc, #44]	; (8000564 <LoopForever+0x12>)
  ldr r4, =_ebss
 8000538:	4c0b      	ldr	r4, [pc, #44]	; (8000568 <LoopForever+0x16>)
  movs r3, #0
 800053a:	2300      	movs	r3, #0
  b LoopFillZerobss
 800053c:	e001      	b.n	8000542 <LoopFillZerobss>

0800053e <FillZerobss>:

FillZerobss:
  str  r3, [r2]
 800053e:	6013      	str	r3, [r2, #0]
  adds r2, r2, #4
 8000540:	3204      	adds	r2, #4

08000542 <LoopFillZerobss>:

LoopFillZerobss:
  cmp r2, r4
 8000542:	42a2      	cmp	r2, r4
  bcc FillZerobss
 8000544:	d3fb      	bcc.n	800053e <FillZerobss>

/* Call the clock system intitialization function.*/
    bl  SystemInit
 8000546:	f002 fdf3 	bl	8003130 <SystemInit>
/* Call static constructors */
    bl __libc_init_array
 800054a:	f007 fbdb 	bl	8007d04 <__libc_init_array>
/* Call the application's entry point.*/
	bl	main
 800054e:	f000 fbaf 	bl	8000cb0 <main>

08000552 <LoopForever>:

LoopForever:
    b LoopForever
 8000552:	e7fe      	b.n	8000552 <LoopForever>
  ldr   r0, =_estack
 8000554:	20008000 	.word	0x20008000
  ldr r0, =_sdata
 8000558:	20000000 	.word	0x20000000
  ldr r1, =_edata
 800055c:	20000454 	.word	0x20000454
  ldr r2, =_sidata
 8000560:	08007ff4 	.word	0x08007ff4
  ldr r2, =_sbss
 8000564:	20000454 	.word	0x20000454
  ldr r4, =_ebss
 8000568:	2000195c 	.word	0x2000195c

0800056c <BusFault_Handler>:
 * @retval : None
*/
    .section	.text.Default_Handler,"ax",%progbits
Default_Handler:
Infinite_Loop:
	b	Infinite_Loop
 800056c:	e7fe      	b.n	800056c <BusFault_Handler>
	...

08000570 <ASPEP_start>:

  return (crc == 0U);
}

void ASPEP_start(ASPEP_Handle_t *pHandle)
{
 8000570:	b570      	push	{r4, r5, r6, lr}
 8000572:	4604      	mov	r4, r0
    /* Nothing to do */
  }
  else
  {
#endif
    pHandle->fASPEP_HWInit(pHandle->HWIp);
 8000574:	6940      	ldr	r0, [r0, #20]
 8000576:	6ce3      	ldr	r3, [r4, #76]	; 0x4c
 8000578:	4798      	blx	r3
    pHandle->ASPEP_State = ASPEP_IDLE;
 800057a:	2300      	movs	r3, #0
    pHandle->ASPEP_TL_State = WAITING_PACKET;
    pHandle->syncPacketCount = 0; /* Sync packet counter is reset only at startup*/

    /* Configure UART to receive first packet*/
    pHandle->fASPEP_receive(pHandle->HWIp, pHandle->rxHeader, ASPEP_HEADER_SIZE);
 800057c:	6d65      	ldr	r5, [r4, #84]	; 0x54
    pHandle->ASPEP_State = ASPEP_IDLE;
 800057e:	f8a4 3064 	strh.w	r3, [r4, #100]	; 0x64
    pHandle->syncPacketCount = 0; /* Sync packet counter is reset only at startup*/
 8000582:	f884 3060 	strb.w	r3, [r4, #96]	; 0x60
    pHandle->fASPEP_receive(pHandle->HWIp, pHandle->rxHeader, ASPEP_HEADER_SIZE);
 8000586:	6960      	ldr	r0, [r4, #20]
 8000588:	f104 011c 	add.w	r1, r4, #28
 800058c:	462b      	mov	r3, r5
 800058e:	2204      	movs	r2, #4
#ifdef NULL_PTR_ASP
  }
#endif
}
 8000590:	e8bd 4070 	ldmia.w	sp!, {r4, r5, r6, lr}
    pHandle->fASPEP_receive(pHandle->HWIp, pHandle->rxHeader, ASPEP_HEADER_SIZE);
 8000594:	4718      	bx	r3
 8000596:	bf00      	nop

08000598 <ASPEP_sendBeacon>:

void ASPEP_sendBeacon(ASPEP_Handle_t *pHandle, ASPEP_Capabilities_def *capabilities)
{
 8000598:	b410      	push	{r4}
  {
#endif
    uint32_t *packet = (uint32_t *)pHandle->ctrlBuffer.buffer; //cstat !MISRAC2012-Rule-11.3
    *packet = (BEACON
               | (((uint32_t)capabilities->version) << 4U)
               | (((uint32_t)capabilities->DATA_CRC) << 7U)
 800059a:	780b      	ldrb	r3, [r1, #0]
               | (((uint32_t)capabilities->version) << 4U)
 800059c:	790a      	ldrb	r2, [r1, #4]
               | (((uint32_t)capabilities->RX_maxSize) << 8U)
               | (((uint32_t)capabilities->TXS_maxSize) << 14U)
 800059e:	f891 c002 	ldrb.w	ip, [r1, #2]
  crc = CRC4_Lookup8[crc ^ (uint8_t)(header         & 0xffU)];
 80005a2:	4c1e      	ldr	r4, [pc, #120]	; (800061c <ASPEP_sendBeacon+0x84>)
               | (((uint32_t)capabilities->DATA_CRC) << 7U)
 80005a4:	01db      	lsls	r3, r3, #7
               | (((uint32_t)capabilities->TXA_maxSize) << 21U));
 80005a6:	ea43 1302 	orr.w	r3, r3, r2, lsl #4
               | (((uint32_t)capabilities->RX_maxSize) << 8U)
 80005aa:	784a      	ldrb	r2, [r1, #1]
               | (((uint32_t)capabilities->TXA_maxSize) << 21U));
 80005ac:	ea43 2302 	orr.w	r3, r3, r2, lsl #8
 80005b0:	78ca      	ldrb	r2, [r1, #3]
 80005b2:	ea43 338c 	orr.w	r3, r3, ip, lsl #14
 80005b6:	ea43 5342 	orr.w	r3, r3, r2, lsl #21
  crc = CRC4_Lookup8[crc ^ (uint8_t)(header         & 0xffU)];
 80005ba:	b2da      	uxtb	r2, r3
 80005bc:	f042 0205 	orr.w	r2, r2, #5
  header &= 0x0fffffffU;
 80005c0:	f023 4170 	bic.w	r1, r3, #4026531840	; 0xf0000000
  crc = CRC4_Lookup8[crc ^ (uint8_t)((header >> 8U) & 0xffU)];
 80005c4:	5ca2      	ldrb	r2, [r4, r2]
 80005c6:	ea82 2211 	eor.w	r2, r2, r1, lsr #8
 80005ca:	b2d2      	uxtb	r2, r2
  crc = CRC4_Lookup8[crc ^ (uint8_t)((header >> 16U) & 0xffU)];
 80005cc:	5ca2      	ldrb	r2, [r4, r2]
 80005ce:	ea82 4211 	eor.w	r2, r2, r1, lsr #16
 80005d2:	b2d2      	uxtb	r2, r2
  crc = CRC4_Lookup4[crc ^ (uint8_t)((header >> 24U) & 0x0fU)];
 80005d4:	5ca2      	ldrb	r2, [r4, r2]
 80005d6:	4c12      	ldr	r4, [pc, #72]	; (8000620 <ASPEP_sendBeacon+0x88>)
 80005d8:	ea82 6211 	eor.w	r2, r2, r1, lsr #24
  *headerPtr |= (uint32_t)crc << 28;
 80005dc:	5ca2      	ldrb	r2, [r4, r2]
 80005de:	ea43 7302 	orr.w	r3, r3, r2, lsl #28
 80005e2:	f043 0305 	orr.w	r3, r3, #5
 80005e6:	6203      	str	r3, [r0, #32]
  \details Disables IRQ interrupts by setting the I-bit in the CPSR.
           Can only be executed in Privileged modes.
 */
__STATIC_FORCEINLINE void __disable_irq(void)
{
  __ASM volatile ("cpsid i" : : : "memory");
 80005e8:	b672      	cpsid	i
  {
#endif
    /* Insert CRC header in the packet to send */
    ASPEP_ComputeHeaderCRC((uint32_t *)txBuffer); //cstat !MISRAC2012-Rule-11.5
    __disable_irq(); /*TODO: Disable High frequency task is enough */
    if (NULL == pHandle->lockBuffer) /* Communication Ip free to send data*/
 80005ea:	6c83      	ldr	r3, [r0, #72]	; 0x48
 80005ec:	b14b      	cbz	r3, 8000602 <ASPEP_sendBeacon+0x6a>
  __ASM volatile ("cpsie i" : : : "memory");
 80005ee:	b662      	cpsie	i
          pHandle->syncBuffer.length = bufferLength;
        }
      }
      else if(ASPEP_CTRL == dataType)
      {
        if (pHandle->ctrlBuffer.state != available)
 80005f0:	f890 3024 	ldrb.w	r3, [r0, #36]	; 0x24
 80005f4:	b913      	cbnz	r3, 80005fc <ASPEP_sendBeacon+0x64>
        {
          result = ASPEP_BUFFER_ERROR;
        }
        else
        {
          pHandle->ctrlBuffer.state = pending;
 80005f6:	2302      	movs	r3, #2
 80005f8:	f880 3024 	strb.w	r3, [r0, #36]	; 0x24
}
 80005fc:	f85d 4b04 	ldr.w	r4, [sp], #4
 8000600:	4770      	bx	lr
    (void)ASPEP_TXframeProcess(pHandle, ASPEP_CTRL, &pHandle->ctrlBuffer, ASPEP_CTRL_SIZE);
 8000602:	f100 0120 	add.w	r1, r0, #32
        pHandle->ctrlBuffer.state = readLock;
 8000606:	2303      	movs	r3, #3
 8000608:	f880 3024 	strb.w	r3, [r0, #36]	; 0x24
        pHandle->lockBuffer = (void *)&pHandle->ctrlBuffer;
 800060c:	6481      	str	r1, [r0, #72]	; 0x48
 800060e:	b662      	cpsie	i
      pHandle->fASPEP_send(pHandle->HWIp, txBuffer, bufferLength);
 8000610:	2204      	movs	r2, #4
 8000612:	6d83      	ldr	r3, [r0, #88]	; 0x58
}
 8000614:	f85d 4b04 	ldr.w	r4, [sp], #4
      pHandle->fASPEP_send(pHandle->HWIp, txBuffer, bufferLength);
 8000618:	6940      	ldr	r0, [r0, #20]
 800061a:	4718      	bx	r3
 800061c:	08007da0 	.word	0x08007da0
 8000620:	08007d90 	.word	0x08007d90

08000624 <ASPEP_sendPing>:
{
 8000624:	b530      	push	{r4, r5, lr}
              | (uint32_t)((uint32_t)cBit << 5U)
 8000626:	ea4f 1c41 	mov.w	ip, r1, lsl #5
    uint8_t Nbit = pHandle->syncPacketCount & 0x1U; /* Keep only LSB */
 800062a:	f890 e060 	ldrb.w	lr, [r0, #96]	; 0x60
    uint8_t ipID = pHandle->liid & 0xFU;
 800062e:	f890 4063 	ldrb.w	r4, [r0, #99]	; 0x63
  crc = CRC4_Lookup4[crc ^ (uint8_t)((header >> 24U) & 0x0fU)];
 8000632:	4d1e      	ldr	r5, [pc, #120]	; (80006ac <ASPEP_sendPing+0x88>)
              | (uint32_t)(((uint32_t) packetNumber) << 12U);
 8000634:	ea4c 1c01 	orr.w	ip, ip, r1, lsl #4
              | (uint32_t)((uint32_t)Nbit << 6U)
 8000638:	f00e 0e01 	and.w	lr, lr, #1
              | (uint32_t)(((uint32_t) packetNumber) << 12U);
 800063c:	ea4c 3c02 	orr.w	ip, ip, r2, lsl #12
 8000640:	ea4c 138e 	orr.w	r3, ip, lr, lsl #6
 8000644:	ea43 13ce 	orr.w	r3, r3, lr, lsl #7
              | (uint32_t)((uint32_t)ipID << 8U)
 8000648:	f004 040f 	and.w	r4, r4, #15
              | (uint32_t)(((uint32_t) packetNumber) << 12U);
 800064c:	ea43 2304 	orr.w	r3, r3, r4, lsl #8
  crc = CRC4_Lookup8[crc ^ (uint8_t)(header         & 0xffU)];
 8000650:	b2da      	uxtb	r2, r3
 8000652:	4c17      	ldr	r4, [pc, #92]	; (80006b0 <ASPEP_sendPing+0x8c>)
 8000654:	f042 0206 	orr.w	r2, r2, #6
              | (uint32_t)(((uint32_t) packetNumber) << 12U);
 8000658:	f043 0106 	orr.w	r1, r3, #6
  crc = CRC4_Lookup8[crc ^ (uint8_t)((header >> 8U) & 0xffU)];
 800065c:	5ca2      	ldrb	r2, [r4, r2]
 800065e:	ea82 2213 	eor.w	r2, r2, r3, lsr #8
 8000662:	b2d2      	uxtb	r2, r2
  crc = CRC4_Lookup8[crc ^ (uint8_t)((header >> 16U) & 0xffU)];
 8000664:	5ca2      	ldrb	r2, [r4, r2]
 8000666:	ea82 4213 	eor.w	r2, r2, r3, lsr #16
 800066a:	b2d2      	uxtb	r2, r2
  crc = CRC4_Lookup4[crc ^ (uint8_t)((header >> 24U) & 0x0fU)];
 800066c:	5ca2      	ldrb	r2, [r4, r2]
 800066e:	ea82 6313 	eor.w	r3, r2, r3, lsr #24
  *headerPtr |= (uint32_t)crc << 28;
 8000672:	5ceb      	ldrb	r3, [r5, r3]
 8000674:	ea41 7303 	orr.w	r3, r1, r3, lsl #28
 8000678:	6203      	str	r3, [r0, #32]
  __ASM volatile ("cpsid i" : : : "memory");
 800067a:	b672      	cpsid	i
    if (NULL == pHandle->lockBuffer) /* Communication Ip free to send data*/
 800067c:	6c83      	ldr	r3, [r0, #72]	; 0x48
 800067e:	b13b      	cbz	r3, 8000690 <ASPEP_sendPing+0x6c>
  __ASM volatile ("cpsie i" : : : "memory");
 8000680:	b662      	cpsie	i
        if (pHandle->ctrlBuffer.state != available)
 8000682:	f890 3024 	ldrb.w	r3, [r0, #36]	; 0x24
 8000686:	b913      	cbnz	r3, 800068e <ASPEP_sendPing+0x6a>
          pHandle->ctrlBuffer.state = pending;
 8000688:	2302      	movs	r3, #2
 800068a:	f880 3024 	strb.w	r3, [r0, #36]	; 0x24
}
 800068e:	bd30      	pop	{r4, r5, pc}
    (void)ASPEP_TXframeProcess(pHandle, ASPEP_CTRL, &pHandle->ctrlBuffer, ASPEP_CTRL_SIZE);
 8000690:	f100 0120 	add.w	r1, r0, #32
        pHandle->ctrlBuffer.state = readLock;
 8000694:	2303      	movs	r3, #3
 8000696:	f880 3024 	strb.w	r3, [r0, #36]	; 0x24
        pHandle->lockBuffer = (void *)&pHandle->ctrlBuffer;
 800069a:	6481      	str	r1, [r0, #72]	; 0x48
 800069c:	b662      	cpsie	i
      pHandle->fASPEP_send(pHandle->HWIp, txBuffer, bufferLength);
 800069e:	2204      	movs	r2, #4
 80006a0:	6d83      	ldr	r3, [r0, #88]	; 0x58
 80006a2:	6940      	ldr	r0, [r0, #20]
}
 80006a4:	e8bd 4030 	ldmia.w	sp!, {r4, r5, lr}
      pHandle->fASPEP_send(pHandle->HWIp, txBuffer, bufferLength);
 80006a8:	4718      	bx	r3
 80006aa:	bf00      	nop
 80006ac:	08007d90 	.word	0x08007d90
 80006b0:	08007da0 	.word	0x08007da0

080006b4 <ASPEP_getBuffer>:
    if (MCTL_SYNC == syncAsync)
 80006b4:	2a0a      	cmp	r2, #10
{
 80006b6:	b410      	push	{r4}
 80006b8:	4603      	mov	r3, r0
    if (MCTL_SYNC == syncAsync)
 80006ba:	d00b      	beq.n	80006d4 <ASPEP_getBuffer+0x20>
      if ((pHandle->asyncBufferA.state > writeLock) && (pHandle->asyncBufferB.state > writeLock))
 80006bc:	f890 2036 	ldrb.w	r2, [r0, #54]	; 0x36
 80006c0:	2a01      	cmp	r2, #1
 80006c2:	d921      	bls.n	8000708 <ASPEP_getBuffer+0x54>
 80006c4:	f890 203e 	ldrb.w	r2, [r0, #62]	; 0x3e
 80006c8:	2a01      	cmp	r2, #1
 80006ca:	d911      	bls.n	80006f0 <ASPEP_getBuffer+0x3c>
        result = false;
 80006cc:	2000      	movs	r0, #0
}
 80006ce:	f85d 4b04 	ldr.w	r4, [sp], #4
 80006d2:	4770      	bx	lr
      if (pHandle->syncBuffer.state <= writeLock) /* Possible values are free or writeLock*/
 80006d4:	f890 202e 	ldrb.w	r2, [r0, #46]	; 0x2e
 80006d8:	2a01      	cmp	r2, #1
 80006da:	d8f7      	bhi.n	80006cc <ASPEP_getBuffer+0x18>
        *buffer = &pHandle->syncBuffer.buffer[ASPEP_HEADER_SIZE];
 80006dc:	6a82      	ldr	r2, [r0, #40]	; 0x28
        pHandle->syncBuffer.state = writeLock;
 80006de:	2401      	movs	r4, #1
        *buffer = &pHandle->syncBuffer.buffer[ASPEP_HEADER_SIZE];
 80006e0:	3204      	adds	r2, #4
 80006e2:	600a      	str	r2, [r1, #0]
        pHandle->syncBuffer.state = writeLock;
 80006e4:	f883 402e 	strb.w	r4, [r3, #46]	; 0x2e
  bool result = true;
 80006e8:	4620      	mov	r0, r4
}
 80006ea:	f85d 4b04 	ldr.w	r4, [sp], #4
 80006ee:	4770      	bx	lr
          *buffer = &pHandle->asyncBufferB.buffer[ASPEP_HEADER_SIZE];
 80006f0:	6b82      	ldr	r2, [r0, #56]	; 0x38
          pHandle->asyncBufferB.state = writeLock;
 80006f2:	2001      	movs	r0, #1
          pHandle->lastRequestedAsyncBuff = &pHandle->asyncBufferB;
 80006f4:	f103 0438 	add.w	r4, r3, #56	; 0x38
          pHandle->asyncBufferB.state = writeLock;
 80006f8:	f883 003e 	strb.w	r0, [r3, #62]	; 0x3e
          *buffer = &pHandle->asyncBufferB.buffer[ASPEP_HEADER_SIZE];
 80006fc:	3204      	adds	r2, #4
          pHandle->lastRequestedAsyncBuff = &pHandle->asyncBufferB;
 80006fe:	641c      	str	r4, [r3, #64]	; 0x40
}
 8000700:	f85d 4b04 	ldr.w	r4, [sp], #4
          *buffer = &pHandle->asyncBufferB.buffer[ASPEP_HEADER_SIZE];
 8000704:	600a      	str	r2, [r1, #0]
}
 8000706:	4770      	bx	lr
          *buffer = &pHandle->asyncBufferA.buffer[ASPEP_HEADER_SIZE];
 8000708:	6b02      	ldr	r2, [r0, #48]	; 0x30
          pHandle->asyncBufferA.state = writeLock;
 800070a:	2001      	movs	r0, #1
          pHandle->lastRequestedAsyncBuff = &pHandle->asyncBufferA;
 800070c:	f103 0430 	add.w	r4, r3, #48	; 0x30
          pHandle->asyncBufferA.state = writeLock;
 8000710:	f883 0036 	strb.w	r0, [r3, #54]	; 0x36
          *buffer = &pHandle->asyncBufferA.buffer[ASPEP_HEADER_SIZE];
 8000714:	3204      	adds	r2, #4
          pHandle->lastRequestedAsyncBuff = &pHandle->asyncBufferA;
 8000716:	641c      	str	r4, [r3, #64]	; 0x40
}
 8000718:	f85d 4b04 	ldr.w	r4, [sp], #4
          *buffer = &pHandle->asyncBufferA.buffer[ASPEP_HEADER_SIZE];
 800071c:	600a      	str	r2, [r1, #0]
}
 800071e:	4770      	bx	lr

08000720 <ASPEP_sendPacket>:
{
 8000720:	b570      	push	{r4, r5, r6, lr}
    if (ASPEP_CONNECTED == pHandle-> ASPEP_State)
 8000722:	f890 4064 	ldrb.w	r4, [r0, #100]	; 0x64
 8000726:	2c02      	cmp	r4, #2
 8000728:	d002      	beq.n	8000730 <ASPEP_sendPacket+0x10>
      result = ASPEP_NOT_CONNECTED;
 800072a:	2102      	movs	r1, #2
}
 800072c:	4608      	mov	r0, r1
 800072e:	bd70      	pop	{r4, r5, r6, pc}
      tmpHeader = ((uint32_t)((uint32_t)txDataLengthTemp << (uint32_t)4) | (uint32_t)syncAsync);
 8000730:	ea43 1402 	orr.w	r4, r3, r2, lsl #4
      *header = tmpHeader;
 8000734:	f841 4c04 	str.w	r4, [r1, #-4]
      if (1U == pHandle->Capabilities.DATA_CRC)
 8000738:	f890 406c 	ldrb.w	r4, [r0, #108]	; 0x6c
 800073c:	2c01      	cmp	r4, #1
 800073e:	d104      	bne.n	800074a <ASPEP_sendPacket+0x2a>
        packet[txDataLengthTemp] = (uint8_t)0xCA; /* Dummy CRC */
 8000740:	f64f 64ca 	movw	r4, #65226	; 0xfeca
 8000744:	528c      	strh	r4, [r1, r2]
        txDataLengthTemp += (uint16_t)ASPEP_DATACRC_SIZE;
 8000746:	3202      	adds	r2, #2
 8000748:	b292      	uxth	r2, r2
      if (MCTL_SYNC == syncAsync)
 800074a:	2b0a      	cmp	r3, #10
 800074c:	d103      	bne.n	8000756 <ASPEP_sendPacket+0x36>
        if (pSupHandle->MCP_PacketAvailable)
 800074e:	7c04      	ldrb	r4, [r0, #16]
 8000750:	b394      	cbz	r4, 80007b8 <ASPEP_sendPacket+0x98>
          pSupHandle->MCP_PacketAvailable = false; /* CMD from master is processed*/
 8000752:	2400      	movs	r4, #0
 8000754:	7404      	strb	r4, [r0, #16]
  uint32_t header = *headerPtr;
 8000756:	f851 4c04 	ldr.w	r4, [r1, #-4]
  crc = CRC4_Lookup8[crc ^ (uint8_t)(header         & 0xffU)];
 800075a:	4d35      	ldr	r5, [pc, #212]	; (8000830 <ASPEP_sendPacket+0x110>)
 800075c:	b2e6      	uxtb	r6, r4
  crc = CRC4_Lookup8[crc ^ (uint8_t)((header >> 8U) & 0xffU)];
 800075e:	f3c4 2e07 	ubfx	lr, r4, #8, #8
 8000762:	5dae      	ldrb	r6, [r5, r6]
 8000764:	ea8e 0e06 	eor.w	lr, lr, r6
        result = ASPEP_TXframeProcess(pHandle, syncAsync, header, txDataLengthTemp + (uint16_t)ASPEP_HEADER_SIZE);
 8000768:	3204      	adds	r2, #4
  crc = CRC4_Lookup8[crc ^ (uint8_t)((header >> 16U) & 0xffU)];
 800076a:	f815 600e 	ldrb.w	r6, [r5, lr]
 800076e:	f3c4 4e07 	ubfx	lr, r4, #16, #8
 8000772:	ea8e 0e06 	eor.w	lr, lr, r6
      header--; /* Header ues 4*8 bits on top of txBuffer*/
 8000776:	f1a1 0c04 	sub.w	ip, r1, #4
  crc = CRC4_Lookup4[crc ^ (uint8_t)((header >> 24U) & 0x0fU)];
 800077a:	f815 e00e 	ldrb.w	lr, [r5, lr]
 800077e:	f3c4 6503 	ubfx	r5, r4, #24, #4
 8000782:	ea8e 0e05 	eor.w	lr, lr, r5
 8000786:	4d2b      	ldr	r5, [pc, #172]	; (8000834 <ASPEP_sendPacket+0x114>)
  *headerPtr |= (uint32_t)crc << 28;
 8000788:	f815 500e 	ldrb.w	r5, [r5, lr]
 800078c:	ea44 7405 	orr.w	r4, r4, r5, lsl #28
        result = ASPEP_TXframeProcess(pHandle, syncAsync, header, txDataLengthTemp + (uint16_t)ASPEP_HEADER_SIZE);
 8000790:	b292      	uxth	r2, r2
  *headerPtr |= (uint32_t)crc << 28;
 8000792:	f841 4c04 	str.w	r4, [r1, #-4]
  __ASM volatile ("cpsid i" : : : "memory");
 8000796:	b672      	cpsid	i
    if (NULL == pHandle->lockBuffer) /* Communication Ip free to send data*/
 8000798:	6c81      	ldr	r1, [r0, #72]	; 0x48
 800079a:	b1e1      	cbz	r1, 80007d6 <ASPEP_sendPacket+0xb6>
  __ASM volatile ("cpsie i" : : : "memory");
 800079c:	b662      	cpsie	i
      if (MCTL_ASYNC == dataType)
 800079e:	2b09      	cmp	r3, #9
 80007a0:	d00d      	beq.n	80007be <ASPEP_sendPacket+0x9e>
      else if (MCTL_SYNC == dataType)
 80007a2:	2b0a      	cmp	r3, #10
 80007a4:	d02e      	beq.n	8000804 <ASPEP_sendPacket+0xe4>
      else if(ASPEP_CTRL == dataType)
 80007a6:	2b00      	cmp	r3, #0
 80007a8:	d132      	bne.n	8000810 <ASPEP_sendPacket+0xf0>
        if (pHandle->ctrlBuffer.state != available)
 80007aa:	f890 1024 	ldrb.w	r1, [r0, #36]	; 0x24
 80007ae:	bb69      	cbnz	r1, 800080c <ASPEP_sendPacket+0xec>
          pHandle->ctrlBuffer.state = pending;
 80007b0:	2302      	movs	r3, #2
 80007b2:	f880 3024 	strb.w	r3, [r0, #36]	; 0x24
 80007b6:	e7b9      	b.n	800072c <ASPEP_sendPacket+0xc>
          result = MCTL_SYNC_NOT_EXPECTED;
 80007b8:	2101      	movs	r1, #1
}
 80007ba:	4608      	mov	r0, r1
 80007bc:	bd70      	pop	{r4, r5, r6, pc}
        if (txBuffer != (uint8_t *)pHandle->lastRequestedAsyncBuff->buffer)
 80007be:	6c03      	ldr	r3, [r0, #64]	; 0x40
        if (NULL == pHandle->asyncNextBuffer)
 80007c0:	6c44      	ldr	r4, [r0, #68]	; 0x44
        if (txBuffer != (uint8_t *)pHandle->lastRequestedAsyncBuff->buffer)
 80007c2:	6819      	ldr	r1, [r3, #0]
          result = ASPEP_BUFFER_ERROR;
 80007c4:	458c      	cmp	ip, r1
 80007c6:	bf14      	ite	ne
 80007c8:	2103      	movne	r1, #3
 80007ca:	2100      	moveq	r1, #0
        if (NULL == pHandle->asyncNextBuffer)
 80007cc:	b36c      	cbz	r4, 800082a <ASPEP_sendPacket+0x10a>
        pHandle->lastRequestedAsyncBuff->state = pending;
 80007ce:	2002      	movs	r0, #2
 80007d0:	7198      	strb	r0, [r3, #6]
        pHandle->lastRequestedAsyncBuff->length = bufferLength;
 80007d2:	809a      	strh	r2, [r3, #4]
 80007d4:	e7aa      	b.n	800072c <ASPEP_sendPacket+0xc>
      if (MCTL_ASYNC == dataType)
 80007d6:	2b09      	cmp	r3, #9
 80007d8:	d022      	beq.n	8000820 <ASPEP_sendPacket+0x100>
      else if (MCTL_SYNC == dataType)
 80007da:	2b0a      	cmp	r3, #10
        pHandle->syncBuffer.state = readLock;
 80007dc:	f04f 0103 	mov.w	r1, #3
        pHandle->lockBuffer = (void *) &pHandle->syncBuffer;
 80007e0:	bf0b      	itete	eq
 80007e2:	f100 0328 	addeq.w	r3, r0, #40	; 0x28
        pHandle->lockBuffer = (void *)&pHandle->ctrlBuffer;
 80007e6:	f100 0320 	addne.w	r3, r0, #32
        pHandle->syncBuffer.state = readLock;
 80007ea:	f880 102e 	strbeq.w	r1, [r0, #46]	; 0x2e
        pHandle->ctrlBuffer.state = readLock;
 80007ee:	f880 1024 	strbne.w	r1, [r0, #36]	; 0x24
        pHandle->lockBuffer = (void *)&pHandle->ctrlBuffer;
 80007f2:	6483      	str	r3, [r0, #72]	; 0x48
 80007f4:	b662      	cpsie	i
      pHandle->fASPEP_send(pHandle->HWIp, txBuffer, bufferLength);
 80007f6:	6d83      	ldr	r3, [r0, #88]	; 0x58
 80007f8:	6940      	ldr	r0, [r0, #20]
 80007fa:	4661      	mov	r1, ip
 80007fc:	4798      	blx	r3
 80007fe:	2100      	movs	r1, #0
}
 8000800:	4608      	mov	r0, r1
 8000802:	bd70      	pop	{r4, r5, r6, pc}
        if (pHandle -> syncBuffer.state != writeLock)
 8000804:	f890 302e 	ldrb.w	r3, [r0, #46]	; 0x2e
 8000808:	2b01      	cmp	r3, #1
 800080a:	d003      	beq.n	8000814 <ASPEP_sendPacket+0xf4>
          result = ASPEP_BUFFER_ERROR;
 800080c:	2103      	movs	r1, #3
 800080e:	e78d      	b.n	800072c <ASPEP_sendPacket+0xc>
  uint8_t result = ASPEP_OK;
 8000810:	2100      	movs	r1, #0
 8000812:	e78b      	b.n	800072c <ASPEP_sendPacket+0xc>
          pHandle->syncBuffer.state = pending;
 8000814:	2302      	movs	r3, #2
 8000816:	f880 302e 	strb.w	r3, [r0, #46]	; 0x2e
          pHandle->syncBuffer.length = bufferLength;
 800081a:	8582      	strh	r2, [r0, #44]	; 0x2c
  uint8_t result = ASPEP_OK;
 800081c:	2100      	movs	r1, #0
 800081e:	e785      	b.n	800072c <ASPEP_sendPacket+0xc>
        pHandle->lastRequestedAsyncBuff->state = readLock;
 8000820:	6c03      	ldr	r3, [r0, #64]	; 0x40
 8000822:	2103      	movs	r1, #3
 8000824:	7199      	strb	r1, [r3, #6]
        pHandle->lockBuffer = (void *)pHandle->lastRequestedAsyncBuff;
 8000826:	6483      	str	r3, [r0, #72]	; 0x48
 8000828:	e7e4      	b.n	80007f4 <ASPEP_sendPacket+0xd4>
          pHandle->asyncNextBuffer = pHandle->lastRequestedAsyncBuff;
 800082a:	6443      	str	r3, [r0, #68]	; 0x44
 800082c:	e7cf      	b.n	80007ce <ASPEP_sendPacket+0xae>
 800082e:	bf00      	nop
 8000830:	08007da0 	.word	0x08007da0
 8000834:	08007d90 	.word	0x08007d90

08000838 <ASPEP_HWDataTransmittedIT>:
/* ASPEP_HWDataTransmittedIT is called as soon as previous packet transfer is completed */
/* pHandle->lockBuffer is set before packet transmission and is never read here after */
/* therefore, there is no need to protect this ISR against another higher priority ISR (HF Task)*/

void ASPEP_HWDataTransmittedIT(ASPEP_Handle_t *pHandle)
{
 8000838:	b510      	push	{r4, lr}
  }
  else
  {
#endif
    /* First free previous readLock buffer */
    if (pHandle->ctrlBuffer.state == readLock)
 800083a:	f890 3024 	ldrb.w	r3, [r0, #36]	; 0x24
 800083e:	2b03      	cmp	r3, #3
{
 8000840:	4604      	mov	r4, r0
    if (pHandle->ctrlBuffer.state == readLock)
 8000842:	d013      	beq.n	800086c <ASPEP_HWDataTransmittedIT+0x34>
      pHandle->ctrlBuffer.state = available;
    }
    else /* if previous buffer was not ASPEP_CTRL, then the buffer locked is a MCTL_Buff_t */
    {
      MCTL_Buff_t *tempBuff = (MCTL_Buff_t *)pHandle->lockBuffer; //cstat !MISRAC2012-Rule-11.5
      tempBuff->state = available;
 8000844:	6c82      	ldr	r2, [r0, #72]	; 0x48
 8000846:	2100      	movs	r1, #0
 8000848:	7191      	strb	r1, [r2, #6]
    }
    if (pHandle->syncBuffer.state == pending)
 800084a:	f890 202e 	ldrb.w	r2, [r0, #46]	; 0x2e
 800084e:	2a02      	cmp	r2, #2
 8000850:	d013      	beq.n	800087a <ASPEP_HWDataTransmittedIT+0x42>
      pHandle->lockBuffer = (void *)&pHandle->syncBuffer;
      pHandle->fASPEP_send(pHandle->HWIp, pHandle->syncBuffer.buffer, pHandle->syncBuffer.length);
      pHandle->syncBuffer.state = readLock;
    }
    /* Second prepare transfer of pending buffer */
    else if (pHandle->ctrlBuffer.state == pending)
 8000852:	2b02      	cmp	r3, #2
 8000854:	d11d      	bne.n	8000892 <ASPEP_HWDataTransmittedIT+0x5a>
    {
      pHandle->lockBuffer = (void *)(&pHandle ->ctrlBuffer);
 8000856:	f100 0120 	add.w	r1, r0, #32
      pHandle->fASPEP_send(pHandle ->HWIp, pHandle->ctrlBuffer.buffer, ASPEP_CTRL_SIZE);
 800085a:	6d83      	ldr	r3, [r0, #88]	; 0x58
      pHandle->lockBuffer = (void *)(&pHandle ->ctrlBuffer);
 800085c:	6481      	str	r1, [r0, #72]	; 0x48
      pHandle->fASPEP_send(pHandle ->HWIp, pHandle->ctrlBuffer.buffer, ASPEP_CTRL_SIZE);
 800085e:	2204      	movs	r2, #4
 8000860:	6940      	ldr	r0, [r0, #20]
 8000862:	4798      	blx	r3
      pHandle->ctrlBuffer.state = readLock;
 8000864:	2303      	movs	r3, #3
 8000866:	f884 3024 	strb.w	r3, [r4, #36]	; 0x24
      __enable_irq();
    }
#ifdef NULL_PTR_ASP
  }
#endif
}
 800086a:	bd10      	pop	{r4, pc}
    if (pHandle->syncBuffer.state == pending)
 800086c:	f890 302e 	ldrb.w	r3, [r0, #46]	; 0x2e
      pHandle->ctrlBuffer.state = available;
 8000870:	2200      	movs	r2, #0
    if (pHandle->syncBuffer.state == pending)
 8000872:	2b02      	cmp	r3, #2
      pHandle->ctrlBuffer.state = available;
 8000874:	f880 2024 	strb.w	r2, [r0, #36]	; 0x24
    if (pHandle->syncBuffer.state == pending)
 8000878:	d10b      	bne.n	8000892 <ASPEP_HWDataTransmittedIT+0x5a>
      pHandle->lockBuffer = (void *)&pHandle->syncBuffer;
 800087a:	f104 0028 	add.w	r0, r4, #40	; 0x28
      pHandle->fASPEP_send(pHandle->HWIp, pHandle->syncBuffer.buffer, pHandle->syncBuffer.length);
 800087e:	6da3      	ldr	r3, [r4, #88]	; 0x58
      pHandle->lockBuffer = (void *)&pHandle->syncBuffer;
 8000880:	64a0      	str	r0, [r4, #72]	; 0x48
      pHandle->fASPEP_send(pHandle->HWIp, pHandle->syncBuffer.buffer, pHandle->syncBuffer.length);
 8000882:	8da2      	ldrh	r2, [r4, #44]	; 0x2c
 8000884:	6aa1      	ldr	r1, [r4, #40]	; 0x28
 8000886:	6960      	ldr	r0, [r4, #20]
 8000888:	4798      	blx	r3
      pHandle->syncBuffer.state = readLock;
 800088a:	2303      	movs	r3, #3
 800088c:	f884 302e 	strb.w	r3, [r4, #46]	; 0x2e
}
 8000890:	bd10      	pop	{r4, pc}
  __ASM volatile ("cpsid i" : : : "memory");
 8000892:	b672      	cpsid	i
      if (pHandle->asyncNextBuffer != NULL)
 8000894:	6c63      	ldr	r3, [r4, #68]	; 0x44
 8000896:	b1cb      	cbz	r3, 80008cc <ASPEP_HWDataTransmittedIT+0x94>
        pHandle->asyncNextBuffer->state = readLock;
 8000898:	2203      	movs	r2, #3
        pHandle->lockBuffer = (void *)pHandle->asyncNextBuffer;
 800089a:	64a3      	str	r3, [r4, #72]	; 0x48
        pHandle->asyncNextBuffer->state = readLock;
 800089c:	719a      	strb	r2, [r3, #6]
        pHandle->fASPEP_send(pHandle ->HWIp, pHandle->asyncNextBuffer->buffer, pHandle->asyncNextBuffer->length);
 800089e:	6819      	ldr	r1, [r3, #0]
 80008a0:	889a      	ldrh	r2, [r3, #4]
 80008a2:	6960      	ldr	r0, [r4, #20]
 80008a4:	6da3      	ldr	r3, [r4, #88]	; 0x58
 80008a6:	4798      	blx	r3
        if ((pHandle->asyncBufferA.state == pending) || (pHandle->asyncBufferB.state == pending))
 80008a8:	f894 3036 	ldrb.w	r3, [r4, #54]	; 0x36
 80008ac:	2b02      	cmp	r3, #2
 80008ae:	d007      	beq.n	80008c0 <ASPEP_HWDataTransmittedIT+0x88>
 80008b0:	f894 303e 	ldrb.w	r3, [r4, #62]	; 0x3e
 80008b4:	2b02      	cmp	r3, #2
 80008b6:	d003      	beq.n	80008c0 <ASPEP_HWDataTransmittedIT+0x88>
          pHandle->asyncNextBuffer = NULL;
 80008b8:	2300      	movs	r3, #0
 80008ba:	6463      	str	r3, [r4, #68]	; 0x44
  __ASM volatile ("cpsie i" : : : "memory");
 80008bc:	b662      	cpsie	i
}
 80008be:	bd10      	pop	{r4, pc}
          uint32_t temp = (uint32_t)&pHandle->asyncBufferA + (uint32_t)&pHandle->asyncBufferB
 80008c0:	6c62      	ldr	r2, [r4, #68]	; 0x44
 80008c2:	0063      	lsls	r3, r4, #1
 80008c4:	3368      	adds	r3, #104	; 0x68
 80008c6:	1a9b      	subs	r3, r3, r2
          pHandle->asyncNextBuffer = (MCTL_Buff_t *) temp; //cstat !MISRAC2012-Rule-11.4
 80008c8:	6463      	str	r3, [r4, #68]	; 0x44
        {
 80008ca:	e7f7      	b.n	80008bc <ASPEP_HWDataTransmittedIT+0x84>
        pHandle->lockBuffer = NULL;
 80008cc:	64a3      	str	r3, [r4, #72]	; 0x48
 80008ce:	e7f5      	b.n	80008bc <ASPEP_HWDataTransmittedIT+0x84>

080008d0 <ASPEP_RXframeProcess>:

uint8_t *ASPEP_RXframeProcess(MCTL_Handle_t *pSupHandle, uint16_t *packetLength)
{
 80008d0:	e92d 43f8 	stmdb	sp!, {r3, r4, r5, r6, r7, r8, r9, lr}
    uint32_t packetHeader = *((uint32_t *)pHandle->rxHeader); //cstat !MISRAC2012-Rule-11.3
    uint16_t packetNumber;
    bool validCRCData = true;

    *packetLength = 0;
    if (pHandle->NewPacketAvailable)
 80008d4:	f890 3061 	ldrb.w	r3, [r0, #97]	; 0x61
    uint32_t packetHeader = *((uint32_t *)pHandle->rxHeader); //cstat !MISRAC2012-Rule-11.3
 80008d8:	69c2      	ldr	r2, [r0, #28]
    *packetLength = 0;
 80008da:	2500      	movs	r5, #0
{
 80008dc:	4604      	mov	r4, r0
    *packetLength = 0;
 80008de:	800d      	strh	r5, [r1, #0]
    if (pHandle->NewPacketAvailable)
 80008e0:	b193      	cbz	r3, 8000908 <ASPEP_RXframeProcess+0x38>
    {
      pHandle->NewPacketAvailable = false; /* Consumes new packet*/
      switch (pHandle->ASPEP_State)
 80008e2:	f890 6064 	ldrb.w	r6, [r0, #100]	; 0x64
      pHandle->NewPacketAvailable = false; /* Consumes new packet*/
 80008e6:	f880 5061 	strb.w	r5, [r0, #97]	; 0x61
      switch (pHandle->ASPEP_State)
 80008ea:	2e01      	cmp	r6, #1
 80008ec:	d054      	beq.n	8000998 <ASPEP_RXframeProcess+0xc8>
 80008ee:	2e02      	cmp	r6, #2
 80008f0:	d03e      	beq.n	8000970 <ASPEP_RXframeProcess+0xa0>
 80008f2:	2e00      	cmp	r6, #0
 80008f4:	d033      	beq.n	800095e <ASPEP_RXframeProcess+0x8e>

        default:
          break;
      }
      /* The valid received packet is now safely consumes, we are ready to receive a new packet */
      pHandle->fASPEP_receive(pHandle->HWIp, pHandle->rxHeader, ASPEP_HEADER_SIZE);
 80008f6:	6d63      	ldr	r3, [r4, #84]	; 0x54
 80008f8:	6960      	ldr	r0, [r4, #20]
 80008fa:	2204      	movs	r2, #4
 80008fc:	f104 011c 	add.w	r1, r4, #28
 8000900:	4798      	blx	r3
    }
#ifdef NULL_PTR_ASP
  }
#endif
  return (result);
}
 8000902:	4628      	mov	r0, r5
 8000904:	e8bd 83f8 	ldmia.w	sp!, {r3, r4, r5, r6, r7, r8, r9, pc}
    else if (pHandle->badPacketFlag > ASPEP_OK)
 8000908:	f890 5062 	ldrb.w	r5, [r0, #98]	; 0x62
 800090c:	2d00      	cmp	r5, #0
 800090e:	d0f8      	beq.n	8000902 <ASPEP_RXframeProcess+0x32>
  *packet = NACK | (uint32_t)(((uint32_t) errorInfo) << 8U) | (uint32_t)(((uint32_t) errorInfo) << 16U);
 8000910:	042b      	lsls	r3, r5, #16
 8000912:	ea43 2505 	orr.w	r5, r3, r5, lsl #8
  crc = CRC4_Lookup8[crc ^ (uint8_t)((header >> 8U) & 0xffU)];
 8000916:	f3c5 2307 	ubfx	r3, r5, #8, #8
 800091a:	4995      	ldr	r1, [pc, #596]	; (8000b70 <ASPEP_RXframeProcess+0x2a0>)
  crc = CRC4_Lookup4[crc ^ (uint8_t)((header >> 24U) & 0x0fU)];
 800091c:	4895      	ldr	r0, [pc, #596]	; (8000b74 <ASPEP_RXframeProcess+0x2a4>)
  crc = CRC4_Lookup8[crc ^ (uint8_t)((header >> 8U) & 0xffU)];
 800091e:	f083 0309 	eor.w	r3, r3, #9
  crc = CRC4_Lookup8[crc ^ (uint8_t)((header >> 16U) & 0xffU)];
 8000922:	5cca      	ldrb	r2, [r1, r3]
  *packet = NACK | (uint32_t)(((uint32_t) errorInfo) << 8U) | (uint32_t)(((uint32_t) errorInfo) << 16U);
 8000924:	f045 030f 	orr.w	r3, r5, #15
  crc = CRC4_Lookup8[crc ^ (uint8_t)((header >> 16U) & 0xffU)];
 8000928:	ea82 4515 	eor.w	r5, r2, r5, lsr #16
  crc = CRC4_Lookup4[crc ^ (uint8_t)((header >> 24U) & 0x0fU)];
 800092c:	5d4a      	ldrb	r2, [r1, r5]
  *headerPtr |= (uint32_t)crc << 28;
 800092e:	5c82      	ldrb	r2, [r0, r2]
 8000930:	ea43 7302 	orr.w	r3, r3, r2, lsl #28
 8000934:	6223      	str	r3, [r4, #32]
  __ASM volatile ("cpsid i" : : : "memory");
 8000936:	b672      	cpsid	i
    if (NULL == pHandle->lockBuffer) /* Communication Ip free to send data*/
 8000938:	6ca3      	ldr	r3, [r4, #72]	; 0x48
 800093a:	2b00      	cmp	r3, #0
 800093c:	d03a      	beq.n	80009b4 <ASPEP_RXframeProcess+0xe4>
  __ASM volatile ("cpsie i" : : : "memory");
 800093e:	b662      	cpsie	i
        if (pHandle->ctrlBuffer.state != available)
 8000940:	f894 3024 	ldrb.w	r3, [r4, #36]	; 0x24
 8000944:	b913      	cbnz	r3, 800094c <ASPEP_RXframeProcess+0x7c>
          pHandle->ctrlBuffer.state = pending;
 8000946:	2302      	movs	r3, #2
 8000948:	f884 3024 	strb.w	r3, [r4, #36]	; 0x24
      pHandle->badPacketFlag = ASPEP_OK;
 800094c:	2500      	movs	r5, #0
      pHandle->fASPEP_HWSync(pHandle->HWIp);
 800094e:	6960      	ldr	r0, [r4, #20]
 8000950:	6d23      	ldr	r3, [r4, #80]	; 0x50
      pHandle->badPacketFlag = ASPEP_OK;
 8000952:	f884 5062 	strb.w	r5, [r4, #98]	; 0x62
      pHandle->fASPEP_HWSync(pHandle->HWIp);
 8000956:	4798      	blx	r3
}
 8000958:	4628      	mov	r0, r5
 800095a:	e8bd 83f8 	ldmia.w	sp!, {r3, r4, r5, r6, r7, r8, r9, pc}
          if (BEACON == pHandle->rxPacketType)
 800095e:	6e83      	ldr	r3, [r0, #104]	; 0x68
 8000960:	2b05      	cmp	r3, #5
 8000962:	f000 8095 	beq.w	8000a90 <ASPEP_RXframeProcess+0x1c0>
          else if (PING == pHandle->rxPacketType)
 8000966:	2b06      	cmp	r3, #6
 8000968:	f000 80d7 	beq.w	8000b1a <ASPEP_RXframeProcess+0x24a>
  uint8_t *result = NULL;
 800096c:	4635      	mov	r5, r6
 800096e:	e7c2      	b.n	80008f6 <ASPEP_RXframeProcess+0x26>
          if (BEACON == pHandle->rxPacketType)
 8000970:	6e83      	ldr	r3, [r0, #104]	; 0x68
 8000972:	2b05      	cmp	r3, #5
 8000974:	d05f      	beq.n	8000a36 <ASPEP_RXframeProcess+0x166>
          else if (PING == pHandle->rxPacketType)
 8000976:	2b06      	cmp	r3, #6
 8000978:	f000 80d6 	beq.w	8000b28 <ASPEP_RXframeProcess+0x258>
          else if (DATA_PACKET == pHandle->rxPacketType)
 800097c:	2b09      	cmp	r3, #9
 800097e:	d1ba      	bne.n	80008f6 <ASPEP_RXframeProcess+0x26>
              pHandle->syncPacketCount++; /* this counter is incremented at each valid data packet received from master */
 8000980:	f890 3060 	ldrb.w	r3, [r0, #96]	; 0x60
              *packetLength = pHandle->rxLength;
 8000984:	f8b0 205c 	ldrh.w	r2, [r0, #92]	; 0x5c
              result = pHandle->rxBuffer;
 8000988:	69a5      	ldr	r5, [r4, #24]
              pHandle->syncPacketCount++; /* this counter is incremented at each valid data packet received from master */
 800098a:	3301      	adds	r3, #1
              pSupHandle->MCP_PacketAvailable = true; /* Will be consumed in ASPEP_sendPacket */
 800098c:	2001      	movs	r0, #1
              pHandle->syncPacketCount++; /* this counter is incremented at each valid data packet received from master */
 800098e:	f884 3060 	strb.w	r3, [r4, #96]	; 0x60
              pSupHandle->MCP_PacketAvailable = true; /* Will be consumed in ASPEP_sendPacket */
 8000992:	7420      	strb	r0, [r4, #16]
              *packetLength = pHandle->rxLength;
 8000994:	800a      	strh	r2, [r1, #0]
              result = pHandle->rxBuffer;
 8000996:	e7ae      	b.n	80008f6 <ASPEP_RXframeProcess+0x26>
          if (BEACON == pHandle->rxPacketType)
 8000998:	6e83      	ldr	r3, [r0, #104]	; 0x68
 800099a:	2b05      	cmp	r3, #5
 800099c:	d016      	beq.n	80009cc <ASPEP_RXframeProcess+0xfc>
          else if (PING == pHandle->rxPacketType)
 800099e:	2b06      	cmp	r3, #6
 80009a0:	d1a9      	bne.n	80008f6 <ASPEP_RXframeProcess+0x26>
            ASPEP_sendPing(pHandle, ASPEP_PING_CFG, packetNumber);
 80009a2:	f3c2 320f 	ubfx	r2, r2, #12, #16
 80009a6:	4631      	mov	r1, r6
 80009a8:	f7ff fe3c 	bl	8000624 <ASPEP_sendPing>
            pHandle->ASPEP_State = ASPEP_CONNECTED;
 80009ac:	2302      	movs	r3, #2
 80009ae:	f884 3064 	strb.w	r3, [r4, #100]	; 0x64
 80009b2:	e7a0      	b.n	80008f6 <ASPEP_RXframeProcess+0x26>
  (void)ASPEP_TXframeProcess(pHandle, ASPEP_CTRL, &pHandle->ctrlBuffer, ASPEP_CTRL_SIZE);
 80009b4:	f104 0120 	add.w	r1, r4, #32
        pHandle->ctrlBuffer.state = readLock;
 80009b8:	2303      	movs	r3, #3
 80009ba:	f884 3024 	strb.w	r3, [r4, #36]	; 0x24
        pHandle->lockBuffer = (void *)&pHandle->ctrlBuffer;
 80009be:	64a1      	str	r1, [r4, #72]	; 0x48
 80009c0:	b662      	cpsie	i
      pHandle->fASPEP_send(pHandle->HWIp, txBuffer, bufferLength);
 80009c2:	2204      	movs	r2, #4
 80009c4:	6da3      	ldr	r3, [r4, #88]	; 0x58
 80009c6:	6960      	ldr	r0, [r4, #20]
 80009c8:	4798      	blx	r3
  return (result);
 80009ca:	e7bf      	b.n	800094c <ASPEP_RXframeProcess+0x7c>
  MasterCapabilities.DATA_CRC = pHandle->rxHeader[0] >> 7U ;      /*Bit 7 */
 80009cc:	7f03      	ldrb	r3, [r0, #28]
  MasterCapabilities.RX_maxSize =  pHandle->rxHeader[1] &0x3FU; /*Bits 8 to  13*/
 80009ce:	7f40      	ldrb	r0, [r0, #29]
  pHandle->Capabilities.RX_maxSize = MIN(pHandle->Capabilities.RX_maxSize, MasterCapabilities.RX_maxSize);
 80009d0:	f894 106d 	ldrb.w	r1, [r4, #109]	; 0x6d
  pHandle->Capabilities.DATA_CRC = MIN(pHandle->Capabilities.DATA_CRC ,MasterCapabilities.DATA_CRC);
 80009d4:	f894 506c 	ldrb.w	r5, [r4, #108]	; 0x6c
  pHandle->Capabilities.TXS_maxSize = MIN(pHandle->Capabilities.TXS_maxSize, MasterCapabilities.TXS_maxSize);
 80009d8:	f894 606e 	ldrb.w	r6, [r4, #110]	; 0x6e
  pHandle->Capabilities.TXA_maxSize = MIN(pHandle->Capabilities.TXA_maxSize, MasterCapabilities.TXA_maxSize);
 80009dc:	f894 706f 	ldrb.w	r7, [r4, #111]	; 0x6f
  MasterCapabilities.RX_maxSize =  pHandle->rxHeader[1] &0x3FU; /*Bits 8 to  13*/
 80009e0:	f000 003f 	and.w	r0, r0, #63	; 0x3f
  MasterCapabilities.DATA_CRC = pHandle->rxHeader[0] >> 7U ;      /*Bit 7 */
 80009e4:	09db      	lsrs	r3, r3, #7
  pHandle->Capabilities.RX_maxSize = MIN(pHandle->Capabilities.RX_maxSize, MasterCapabilities.RX_maxSize);
 80009e6:	4281      	cmp	r1, r0
  MasterCapabilities.TXS_maxSize = (uint8_t)((packetHeader&0x01FC000U)  >> 14); /*Bits 14 to 20 */
 80009e8:	f3c2 3c86 	ubfx	ip, r2, #14, #7
  pHandle->Capabilities.RX_maxSize = MIN(pHandle->Capabilities.RX_maxSize, MasterCapabilities.RX_maxSize);
 80009ec:	bf28      	it	cs
 80009ee:	4601      	movcs	r1, r0
  pHandle->Capabilities.DATA_CRC = MIN(pHandle->Capabilities.DATA_CRC ,MasterCapabilities.DATA_CRC);
 80009f0:	42ab      	cmp	r3, r5
 80009f2:	4698      	mov	r8, r3
  MasterCapabilities.TXA_maxSize = (uint8_t)((packetHeader&0xFE00000U) >> 21); /*Bits 21 to 27  */
 80009f4:	f3c2 5e46 	ubfx	lr, r2, #21, #7
  pHandle->Capabilities.DATA_CRC = MIN(pHandle->Capabilities.DATA_CRC ,MasterCapabilities.DATA_CRC);
 80009f8:	bf28      	it	cs
 80009fa:	46a8      	movcs	r8, r5
  pHandle->Capabilities.TXS_maxSize = MIN(pHandle->Capabilities.TXS_maxSize, MasterCapabilities.TXS_maxSize);
 80009fc:	45b4      	cmp	ip, r6
  pHandle->Capabilities.DATA_CRC = MIN(pHandle->Capabilities.DATA_CRC ,MasterCapabilities.DATA_CRC);
 80009fe:	f884 806c 	strb.w	r8, [r4, #108]	; 0x6c
  pHandle->Capabilities.TXS_maxSize = MIN(pHandle->Capabilities.TXS_maxSize, MasterCapabilities.TXS_maxSize);
 8000a02:	46e0      	mov	r8, ip
 8000a04:	bf28      	it	cs
 8000a06:	46b0      	movcs	r8, r6
  pHandle->Capabilities.TXA_maxSize = MIN(pHandle->Capabilities.TXA_maxSize, MasterCapabilities.TXA_maxSize);
 8000a08:	45be      	cmp	lr, r7
  pHandle->Capabilities.TXS_maxSize = MIN(pHandle->Capabilities.TXS_maxSize, MasterCapabilities.TXS_maxSize);
 8000a0a:	f884 806e 	strb.w	r8, [r4, #110]	; 0x6e
  pHandle->Capabilities.TXA_maxSize = MIN(pHandle->Capabilities.TXA_maxSize, MasterCapabilities.TXA_maxSize);
 8000a0e:	46f0      	mov	r8, lr
 8000a10:	bf28      	it	cs
 8000a12:	46b8      	movcs	r8, r7
  if ((MasterCapabilities.DATA_CRC != pHandle->Capabilities.DATA_CRC)
 8000a14:	42ab      	cmp	r3, r5
  pHandle->Capabilities.RX_maxSize = MIN(pHandle->Capabilities.RX_maxSize, MasterCapabilities.RX_maxSize);
 8000a16:	f884 106d 	strb.w	r1, [r4, #109]	; 0x6d
  pHandle->Capabilities.TXA_maxSize = MIN(pHandle->Capabilities.TXA_maxSize, MasterCapabilities.TXA_maxSize);
 8000a1a:	f884 806f 	strb.w	r8, [r4, #111]	; 0x6f
  if ((MasterCapabilities.DATA_CRC != pHandle->Capabilities.DATA_CRC)
 8000a1e:	f240 8088 	bls.w	8000b32 <ASPEP_RXframeProcess+0x262>
              pHandle->ASPEP_State = ASPEP_IDLE;
 8000a22:	2300      	movs	r3, #0
 8000a24:	f884 3064 	strb.w	r3, [r4, #100]	; 0x64
            ASPEP_sendBeacon(pHandle, &pHandle->Capabilities);
 8000a28:	f104 016c 	add.w	r1, r4, #108	; 0x6c
 8000a2c:	4620      	mov	r0, r4
 8000a2e:	f7ff fdb3 	bl	8000598 <ASPEP_sendBeacon>
  uint8_t *result = NULL;
 8000a32:	2500      	movs	r5, #0
 8000a34:	e75f      	b.n	80008f6 <ASPEP_RXframeProcess+0x26>
  MasterCapabilities.DATA_CRC = pHandle->rxHeader[0] >> 7U ;      /*Bit 7 */
 8000a36:	7f03      	ldrb	r3, [r0, #28]
  MasterCapabilities.RX_maxSize =  pHandle->rxHeader[1] &0x3FU; /*Bits 8 to  13*/
 8000a38:	7f40      	ldrb	r0, [r0, #29]
  pHandle->Capabilities.RX_maxSize = MIN(pHandle->Capabilities.RX_maxSize, MasterCapabilities.RX_maxSize);
 8000a3a:	f894 106d 	ldrb.w	r1, [r4, #109]	; 0x6d
  pHandle->Capabilities.DATA_CRC = MIN(pHandle->Capabilities.DATA_CRC ,MasterCapabilities.DATA_CRC);
 8000a3e:	f894 606c 	ldrb.w	r6, [r4, #108]	; 0x6c
  pHandle->Capabilities.TXS_maxSize = MIN(pHandle->Capabilities.TXS_maxSize, MasterCapabilities.TXS_maxSize);
 8000a42:	f894 c06e 	ldrb.w	ip, [r4, #110]	; 0x6e
  pHandle->Capabilities.TXA_maxSize = MIN(pHandle->Capabilities.TXA_maxSize, MasterCapabilities.TXA_maxSize);
 8000a46:	f894 706f 	ldrb.w	r7, [r4, #111]	; 0x6f
  MasterCapabilities.RX_maxSize =  pHandle->rxHeader[1] &0x3FU; /*Bits 8 to  13*/
 8000a4a:	f000 003f 	and.w	r0, r0, #63	; 0x3f
  MasterCapabilities.DATA_CRC = pHandle->rxHeader[0] >> 7U ;      /*Bit 7 */
 8000a4e:	09db      	lsrs	r3, r3, #7
  pHandle->Capabilities.RX_maxSize = MIN(pHandle->Capabilities.RX_maxSize, MasterCapabilities.RX_maxSize);
 8000a50:	4281      	cmp	r1, r0
 8000a52:	bf28      	it	cs
 8000a54:	4601      	movcs	r1, r0
  MasterCapabilities.TXS_maxSize = (uint8_t)((packetHeader&0x01FC000U)  >> 14); /*Bits 14 to 20 */
 8000a56:	f3c2 3e86 	ubfx	lr, r2, #14, #7
  pHandle->Capabilities.DATA_CRC = MIN(pHandle->Capabilities.DATA_CRC ,MasterCapabilities.DATA_CRC);
 8000a5a:	42b3      	cmp	r3, r6
 8000a5c:	4699      	mov	r9, r3
  MasterCapabilities.TXA_maxSize = (uint8_t)((packetHeader&0xFE00000U) >> 21); /*Bits 21 to 27  */
 8000a5e:	f3c2 5846 	ubfx	r8, r2, #21, #7
  pHandle->Capabilities.DATA_CRC = MIN(pHandle->Capabilities.DATA_CRC ,MasterCapabilities.DATA_CRC);
 8000a62:	bf28      	it	cs
 8000a64:	46b1      	movcs	r9, r6
  pHandle->Capabilities.TXS_maxSize = MIN(pHandle->Capabilities.TXS_maxSize, MasterCapabilities.TXS_maxSize);
 8000a66:	45e6      	cmp	lr, ip
  pHandle->Capabilities.DATA_CRC = MIN(pHandle->Capabilities.DATA_CRC ,MasterCapabilities.DATA_CRC);
 8000a68:	f884 906c 	strb.w	r9, [r4, #108]	; 0x6c
  pHandle->Capabilities.TXS_maxSize = MIN(pHandle->Capabilities.TXS_maxSize, MasterCapabilities.TXS_maxSize);
 8000a6c:	46f1      	mov	r9, lr
 8000a6e:	bf28      	it	cs
 8000a70:	46e1      	movcs	r9, ip
  pHandle->Capabilities.TXA_maxSize = MIN(pHandle->Capabilities.TXA_maxSize, MasterCapabilities.TXA_maxSize);
 8000a72:	45b8      	cmp	r8, r7
  pHandle->Capabilities.TXS_maxSize = MIN(pHandle->Capabilities.TXS_maxSize, MasterCapabilities.TXS_maxSize);
 8000a74:	f884 906e 	strb.w	r9, [r4, #110]	; 0x6e
  pHandle->Capabilities.TXA_maxSize = MIN(pHandle->Capabilities.TXA_maxSize, MasterCapabilities.TXA_maxSize);
 8000a78:	46c1      	mov	r9, r8
 8000a7a:	bf28      	it	cs
 8000a7c:	46b9      	movcs	r9, r7
  if ((MasterCapabilities.DATA_CRC != pHandle->Capabilities.DATA_CRC)
 8000a7e:	42b3      	cmp	r3, r6
  pHandle->Capabilities.RX_maxSize = MIN(pHandle->Capabilities.RX_maxSize, MasterCapabilities.RX_maxSize);
 8000a80:	f884 106d 	strb.w	r1, [r4, #109]	; 0x6d
  pHandle->Capabilities.TXA_maxSize = MIN(pHandle->Capabilities.TXA_maxSize, MasterCapabilities.TXA_maxSize);
 8000a84:	f884 906f 	strb.w	r9, [r4, #111]	; 0x6f
  if ((MasterCapabilities.DATA_CRC != pHandle->Capabilities.DATA_CRC)
 8000a88:	d964      	bls.n	8000b54 <ASPEP_RXframeProcess+0x284>
 8000a8a:	f884 5064 	strb.w	r5, [r4, #100]	; 0x64
 8000a8e:	e7cb      	b.n	8000a28 <ASPEP_RXframeProcess+0x158>
  MasterCapabilities.RX_maxSize =  pHandle->rxHeader[1] &0x3FU; /*Bits 8 to  13*/
 8000a90:	7f65      	ldrb	r5, [r4, #29]
  MasterCapabilities.DATA_CRC = pHandle->rxHeader[0] >> 7U ;      /*Bit 7 */
 8000a92:	7f00      	ldrb	r0, [r0, #28]
  pHandle->Capabilities.RX_maxSize = MIN(pHandle->Capabilities.RX_maxSize, MasterCapabilities.RX_maxSize);
 8000a94:	f894 306d 	ldrb.w	r3, [r4, #109]	; 0x6d
  pHandle->Capabilities.DATA_CRC = MIN(pHandle->Capabilities.DATA_CRC ,MasterCapabilities.DATA_CRC);
 8000a98:	f894 c06c 	ldrb.w	ip, [r4, #108]	; 0x6c
  pHandle->Capabilities.TXS_maxSize = MIN(pHandle->Capabilities.TXS_maxSize, MasterCapabilities.TXS_maxSize);
 8000a9c:	f894 e06e 	ldrb.w	lr, [r4, #110]	; 0x6e
  pHandle->Capabilities.TXA_maxSize = MIN(pHandle->Capabilities.TXA_maxSize, MasterCapabilities.TXA_maxSize);
 8000aa0:	f894 806f 	ldrb.w	r8, [r4, #111]	; 0x6f
  MasterCapabilities.RX_maxSize =  pHandle->rxHeader[1] &0x3FU; /*Bits 8 to  13*/
 8000aa4:	f005 053f 	and.w	r5, r5, #63	; 0x3f
  MasterCapabilities.DATA_CRC = pHandle->rxHeader[0] >> 7U ;      /*Bit 7 */
 8000aa8:	09c0      	lsrs	r0, r0, #7
  pHandle->Capabilities.RX_maxSize = MIN(pHandle->Capabilities.RX_maxSize, MasterCapabilities.RX_maxSize);
 8000aaa:	42ab      	cmp	r3, r5
  MasterCapabilities.TXS_maxSize = (uint8_t)((packetHeader&0x01FC000U)  >> 14); /*Bits 14 to 20 */
 8000aac:	f3c2 3786 	ubfx	r7, r2, #14, #7
  pHandle->Capabilities.RX_maxSize = MIN(pHandle->Capabilities.RX_maxSize, MasterCapabilities.RX_maxSize);
 8000ab0:	bf28      	it	cs
 8000ab2:	462b      	movcs	r3, r5
  pHandle->Capabilities.DATA_CRC = MIN(pHandle->Capabilities.DATA_CRC ,MasterCapabilities.DATA_CRC);
 8000ab4:	4560      	cmp	r0, ip
 8000ab6:	4601      	mov	r1, r0
  MasterCapabilities.TXA_maxSize = (uint8_t)((packetHeader&0xFE00000U) >> 21); /*Bits 21 to 27  */
 8000ab8:	f3c2 5946 	ubfx	r9, r2, #21, #7
  pHandle->Capabilities.DATA_CRC = MIN(pHandle->Capabilities.DATA_CRC ,MasterCapabilities.DATA_CRC);
 8000abc:	bf28      	it	cs
 8000abe:	4661      	movcs	r1, ip
  pHandle->Capabilities.TXS_maxSize = MIN(pHandle->Capabilities.TXS_maxSize, MasterCapabilities.TXS_maxSize);
 8000ac0:	4577      	cmp	r7, lr
  pHandle->Capabilities.DATA_CRC = MIN(pHandle->Capabilities.DATA_CRC ,MasterCapabilities.DATA_CRC);
 8000ac2:	f884 106c 	strb.w	r1, [r4, #108]	; 0x6c
  pHandle->Capabilities.TXS_maxSize = MIN(pHandle->Capabilities.TXS_maxSize, MasterCapabilities.TXS_maxSize);
 8000ac6:	4639      	mov	r1, r7
 8000ac8:	bf28      	it	cs
 8000aca:	4671      	movcs	r1, lr
  pHandle->Capabilities.TXA_maxSize = MIN(pHandle->Capabilities.TXA_maxSize, MasterCapabilities.TXA_maxSize);
 8000acc:	45c1      	cmp	r9, r8
 8000ace:	464e      	mov	r6, r9
 8000ad0:	bf28      	it	cs
 8000ad2:	4646      	movcs	r6, r8
  if ((MasterCapabilities.DATA_CRC != pHandle->Capabilities.DATA_CRC)
 8000ad4:	4560      	cmp	r0, ip
  pHandle->Capabilities.RX_maxSize = MIN(pHandle->Capabilities.RX_maxSize, MasterCapabilities.RX_maxSize);
 8000ad6:	f884 306d 	strb.w	r3, [r4, #109]	; 0x6d
  pHandle->Capabilities.TXS_maxSize = MIN(pHandle->Capabilities.TXS_maxSize, MasterCapabilities.TXS_maxSize);
 8000ada:	f884 106e 	strb.w	r1, [r4, #110]	; 0x6e
  pHandle->Capabilities.TXA_maxSize = MIN(pHandle->Capabilities.TXA_maxSize, MasterCapabilities.TXA_maxSize);
 8000ade:	f884 606f 	strb.w	r6, [r4, #111]	; 0x6f
  if ((MasterCapabilities.DATA_CRC != pHandle->Capabilities.DATA_CRC)
 8000ae2:	d8a1      	bhi.n	8000a28 <ASPEP_RXframeProcess+0x158>
   || (MasterCapabilities.RX_maxSize > pHandle->Capabilities.RX_maxSize)
 8000ae4:	429d      	cmp	r5, r3
 8000ae6:	d89f      	bhi.n	8000a28 <ASPEP_RXframeProcess+0x158>
   || (pHandle->Capabilities.TXS_maxSize != MasterCapabilities.TXS_maxSize )
 8000ae8:	4577      	cmp	r7, lr
 8000aea:	d89d      	bhi.n	8000a28 <ASPEP_RXframeProcess+0x158>
   || (pHandle->Capabilities.TXA_maxSize != MasterCapabilities.TXA_maxSize )
 8000aec:	45c1      	cmp	r9, r8
 8000aee:	d89b      	bhi.n	8000a28 <ASPEP_RXframeProcess+0x158>
   || (MasterCapabilities.version != pHandle->Capabilities.version) )
 8000af0:	f894 0070 	ldrb.w	r0, [r4, #112]	; 0x70
 8000af4:	f3c2 1202 	ubfx	r2, r2, #4, #3
 8000af8:	4290      	cmp	r0, r2
 8000afa:	d195      	bne.n	8000a28 <ASPEP_RXframeProcess+0x158>
              pSupHandle->txSyncMaxPayload = (pHandle->Capabilities.TXS_maxSize + (uint16_t)1U) * (uint16_t)32U;
 8000afc:	1c4a      	adds	r2, r1, #1
              pHandle->maxRXPayload = (pHandle->Capabilities.RX_maxSize + (uint16_t)1U) * (uint16_t)32U;
 8000afe:	3301      	adds	r3, #1
              pSupHandle->txSyncMaxPayload = (pHandle->Capabilities.TXS_maxSize + (uint16_t)1U) * (uint16_t)32U;
 8000b00:	b2d2      	uxtb	r2, r2
              pHandle->maxRXPayload = (pHandle->Capabilities.RX_maxSize + (uint16_t)1U) * (uint16_t)32U;
 8000b02:	b2db      	uxtb	r3, r3
              pSupHandle->txSyncMaxPayload = (pHandle->Capabilities.TXS_maxSize + (uint16_t)1U) * (uint16_t)32U;
 8000b04:	0152      	lsls	r2, r2, #5
              pSupHandle->txAsyncMaxPayload = (pHandle->Capabilities.TXA_maxSize) * (uint16_t)64U;
 8000b06:	01b6      	lsls	r6, r6, #6
              pHandle->maxRXPayload = (pHandle->Capabilities.RX_maxSize + (uint16_t)1U) * (uint16_t)32U;
 8000b08:	015b      	lsls	r3, r3, #5
              pHandle->ASPEP_State = ASPEP_CONFIGURED;
 8000b0a:	2101      	movs	r1, #1
              pSupHandle->txSyncMaxPayload = (pHandle->Capabilities.TXS_maxSize + (uint16_t)1U) * (uint16_t)32U;
 8000b0c:	81a2      	strh	r2, [r4, #12]
              pSupHandle->txAsyncMaxPayload = (pHandle->Capabilities.TXA_maxSize) * (uint16_t)64U;
 8000b0e:	81e6      	strh	r6, [r4, #14]
              pHandle->maxRXPayload = (pHandle->Capabilities.RX_maxSize + (uint16_t)1U) * (uint16_t)32U;
 8000b10:	f8a4 305e 	strh.w	r3, [r4, #94]	; 0x5e
              pHandle->ASPEP_State = ASPEP_CONFIGURED;
 8000b14:	f884 1064 	strb.w	r1, [r4, #100]	; 0x64
 8000b18:	e786      	b.n	8000a28 <ASPEP_RXframeProcess+0x158>
            ASPEP_sendPing(pHandle, ASPEP_PING_RESET, packetNumber);
 8000b1a:	f3c2 320f 	ubfx	r2, r2, #12, #16
 8000b1e:	4631      	mov	r1, r6
 8000b20:	f7ff fd80 	bl	8000624 <ASPEP_sendPing>
  uint8_t *result = NULL;
 8000b24:	4635      	mov	r5, r6
 8000b26:	e6e6      	b.n	80008f6 <ASPEP_RXframeProcess+0x26>
            ASPEP_sendPing(pHandle, ASPEP_PING_CFG, packetNumber);
 8000b28:	7f42      	ldrb	r2, [r0, #29]
 8000b2a:	2101      	movs	r1, #1
 8000b2c:	f7ff fd7a 	bl	8000624 <ASPEP_sendPing>
 8000b30:	e6e1      	b.n	80008f6 <ASPEP_RXframeProcess+0x26>
   || (MasterCapabilities.RX_maxSize > pHandle->Capabilities.RX_maxSize)
 8000b32:	4288      	cmp	r0, r1
 8000b34:	f63f af75 	bhi.w	8000a22 <ASPEP_RXframeProcess+0x152>
   || (pHandle->Capabilities.TXS_maxSize != MasterCapabilities.TXS_maxSize )
 8000b38:	45b4      	cmp	ip, r6
 8000b3a:	f63f af72 	bhi.w	8000a22 <ASPEP_RXframeProcess+0x152>
   || (pHandle->Capabilities.TXA_maxSize != MasterCapabilities.TXA_maxSize )
 8000b3e:	45be      	cmp	lr, r7
 8000b40:	f63f af6f 	bhi.w	8000a22 <ASPEP_RXframeProcess+0x152>
   || (MasterCapabilities.version != pHandle->Capabilities.version) )
 8000b44:	f894 3070 	ldrb.w	r3, [r4, #112]	; 0x70
 8000b48:	f3c2 1202 	ubfx	r2, r2, #4, #3
 8000b4c:	4293      	cmp	r3, r2
 8000b4e:	f47f af68 	bne.w	8000a22 <ASPEP_RXframeProcess+0x152>
 8000b52:	e769      	b.n	8000a28 <ASPEP_RXframeProcess+0x158>
   || (MasterCapabilities.RX_maxSize > pHandle->Capabilities.RX_maxSize)
 8000b54:	4288      	cmp	r0, r1
 8000b56:	d898      	bhi.n	8000a8a <ASPEP_RXframeProcess+0x1ba>
   || (pHandle->Capabilities.TXS_maxSize != MasterCapabilities.TXS_maxSize )
 8000b58:	45e6      	cmp	lr, ip
 8000b5a:	d896      	bhi.n	8000a8a <ASPEP_RXframeProcess+0x1ba>
   || (pHandle->Capabilities.TXA_maxSize != MasterCapabilities.TXA_maxSize )
 8000b5c:	45b8      	cmp	r8, r7
 8000b5e:	d894      	bhi.n	8000a8a <ASPEP_RXframeProcess+0x1ba>
   || (MasterCapabilities.version != pHandle->Capabilities.version) )
 8000b60:	f894 5070 	ldrb.w	r5, [r4, #112]	; 0x70
 8000b64:	f3c2 1202 	ubfx	r2, r2, #4, #3
              pHandle->ASPEP_State = ASPEP_IDLE;
 8000b68:	1aab      	subs	r3, r5, r2
 8000b6a:	425d      	negs	r5, r3
 8000b6c:	415d      	adcs	r5, r3
 8000b6e:	e78c      	b.n	8000a8a <ASPEP_RXframeProcess+0x1ba>
 8000b70:	08007da0 	.word	0x08007da0
 8000b74:	08007d90 	.word	0x08007d90

08000b78 <ASPEP_HWDataReceivedIT>:

/* This function is called once DMA has transfered the configure number of byte*/
void ASPEP_HWDataReceivedIT(ASPEP_Handle_t *pHandle)
{
 8000b78:	b510      	push	{r4, lr}
    /* Upon reception of a Newpacket the DMA will be re-configured only once the answer has been sent.
      * This is mandatory to avoid a race condition in case of a new packet is received while executing ASPEP_
      * RXframeProcess
      * If the packet received contains an error in the header, the HW IP will be re-synchronised first, and DMA will be
      * configured after.*/
    switch (pHandle->ASPEP_TL_State)
 8000b7a:	f890 3065 	ldrb.w	r3, [r0, #101]	; 0x65
{
 8000b7e:	4604      	mov	r4, r0
    switch (pHandle->ASPEP_TL_State)
 8000b80:	b13b      	cbz	r3, 8000b92 <ASPEP_HWDataReceivedIT+0x1a>
 8000b82:	2b01      	cmp	r3, #1
 8000b84:	d104      	bne.n	8000b90 <ASPEP_HWDataReceivedIT+0x18>
        break;
      }

      case WAITING_PAYLOAD:
      {
        pHandle->ASPEP_TL_State = WAITING_PACKET;
 8000b86:	2200      	movs	r2, #0
 8000b88:	f880 2065 	strb.w	r2, [r0, #101]	; 0x65
        /* Payload received, */
        pHandle->NewPacketAvailable = true;
 8000b8c:	f880 3061 	strb.w	r3, [r0, #97]	; 0x61
        break;
    }
#ifdef NULL_PTR_ASP
  }
#endif
}
 8000b90:	bd10      	pop	{r4, pc}
        if (ASPEP_CheckHeaderCRC(*(uint32_t *)pHandle->rxHeader) == true) //cstat !MISRAC2012-Rule-11.3
 8000b92:	69c1      	ldr	r1, [r0, #28]
  crc = CRC4_Lookup8[crc ^ (uint8_t)(header         & 0xffU)];
 8000b94:	4a1e      	ldr	r2, [pc, #120]	; (8000c10 <ASPEP_HWDataReceivedIT+0x98>)
 8000b96:	b2cb      	uxtb	r3, r1
  crc = CRC4_Lookup8[crc ^ (uint8_t)((header >> 8U) & 0xffU)];
 8000b98:	5cd3      	ldrb	r3, [r2, r3]
 8000b9a:	ea83 2311 	eor.w	r3, r3, r1, lsr #8
 8000b9e:	b2db      	uxtb	r3, r3
  crc = CRC4_Lookup8[crc ^ (uint8_t)((header >> 16U) & 0xffU)];
 8000ba0:	5cd3      	ldrb	r3, [r2, r3]
 8000ba2:	ea83 4311 	eor.w	r3, r3, r1, lsr #16
 8000ba6:	b2db      	uxtb	r3, r3
  crc = CRC4_Lookup8[crc ^ (uint8_t)((header >> 24U) & 0xffU)];
 8000ba8:	5cd3      	ldrb	r3, [r2, r3]
 8000baa:	ea83 6111 	eor.w	r1, r3, r1, lsr #24
        if (ASPEP_CheckHeaderCRC(*(uint32_t *)pHandle->rxHeader) == true) //cstat !MISRAC2012-Rule-11.3
 8000bae:	5c53      	ldrb	r3, [r2, r1]
 8000bb0:	b95b      	cbnz	r3, 8000bca <ASPEP_HWDataReceivedIT+0x52>
          pHandle->rxPacketType = (ASPEP_packetType)(((uint32_t)pHandle->rxHeader[0]) & ID_MASK);
 8000bb2:	7f03      	ldrb	r3, [r0, #28]
 8000bb4:	f003 030f 	and.w	r3, r3, #15
 8000bb8:	2b06      	cmp	r3, #6
 8000bba:	6683      	str	r3, [r0, #104]	; 0x68
          switch (pHandle->rxPacketType)
 8000bbc:	d809      	bhi.n	8000bd2 <ASPEP_HWDataReceivedIT+0x5a>
 8000bbe:	2b04      	cmp	r3, #4
 8000bc0:	d81e      	bhi.n	8000c00 <ASPEP_HWDataReceivedIT+0x88>
              pHandle->badPacketFlag = ASPEP_BAD_PACKET_TYPE;
 8000bc2:	2301      	movs	r3, #1
 8000bc4:	f884 3062 	strb.w	r3, [r4, #98]	; 0x62
}
 8000bc8:	bd10      	pop	{r4, pc}
          pHandle->badPacketFlag = ASPEP_BAD_CRC_HEADER;
 8000bca:	2304      	movs	r3, #4
 8000bcc:	f880 3062 	strb.w	r3, [r0, #98]	; 0x62
}
 8000bd0:	bd10      	pop	{r4, pc}
 8000bd2:	2b09      	cmp	r3, #9
 8000bd4:	d1f5      	bne.n	8000bc2 <ASPEP_HWDataReceivedIT+0x4a>
              pHandle->rxLength = (uint16_t)((*((uint16_t *)pHandle->rxHeader) & 0x1FFF0U) >> (uint16_t)4);
 8000bd6:	8b83      	ldrh	r3, [r0, #28]
 8000bd8:	091b      	lsrs	r3, r3, #4
 8000bda:	f8a0 305c 	strh.w	r3, [r0, #92]	; 0x5c
              if (0U == pHandle->rxLength) /* data packet with length 0 is a valid packet */
 8000bde:	b17b      	cbz	r3, 8000c00 <ASPEP_HWDataReceivedIT+0x88>
              else if (pHandle->rxLength <= pHandle->maxRXPayload)
 8000be0:	f8b0 205e 	ldrh.w	r2, [r0, #94]	; 0x5e
 8000be4:	429a      	cmp	r2, r3
 8000be6:	d30f      	bcc.n	8000c08 <ASPEP_HWDataReceivedIT+0x90>
                pHandle->fASPEP_receive(pHandle->HWIp, pHandle->rxBuffer,  /* need to read + 2 bytes CRC*/
 8000be8:	f890 206c 	ldrb.w	r2, [r0, #108]	; 0x6c
 8000bec:	6981      	ldr	r1, [r0, #24]
 8000bee:	6940      	ldr	r0, [r0, #20]
 8000bf0:	eb03 0242 	add.w	r2, r3, r2, lsl #1
 8000bf4:	6d63      	ldr	r3, [r4, #84]	; 0x54
 8000bf6:	4798      	blx	r3
                pHandle->ASPEP_TL_State = WAITING_PAYLOAD;
 8000bf8:	2301      	movs	r3, #1
 8000bfa:	f884 3065 	strb.w	r3, [r4, #101]	; 0x65
}
 8000bfe:	bd10      	pop	{r4, pc}
              pHandle->NewPacketAvailable = true;
 8000c00:	2301      	movs	r3, #1
 8000c02:	f884 3061 	strb.w	r3, [r4, #97]	; 0x61
}
 8000c06:	bd10      	pop	{r4, pc}
                pHandle->badPacketFlag = ASPEP_BAD_PACKET_SIZE;
 8000c08:	2302      	movs	r3, #2
 8000c0a:	f880 3062 	strb.w	r3, [r0, #98]	; 0x62
}
 8000c0e:	bd10      	pop	{r4, pc}
 8000c10:	08007da0 	.word	0x08007da0

08000c14 <ASPEP_HWDMAReset>:

/* Called after debugger has stopped the MCU*/
void ASPEP_HWDMAReset(ASPEP_Handle_t *pHandle)
{
 8000c14:	4601      	mov	r1, r0
  {
#endif
    /* We must reset the RX state machine to be sure to not be in Waiting packet state */
    /* Otherwise the arrival of a new packet will trigger a NewPacketAvailable despite */
    /* the fact that bytes have been lost because of overrun (debugger paused for instance) */
    pHandle->ASPEP_TL_State = WAITING_PACKET;
 8000c16:	2200      	movs	r2, #0
 8000c18:	f880 2065 	strb.w	r2, [r0, #101]	; 0x65
    pHandle->fASPEP_receive(pHandle->HWIp, pHandle->rxHeader, ASPEP_HEADER_SIZE);
 8000c1c:	6d43      	ldr	r3, [r0, #84]	; 0x54
 8000c1e:	6940      	ldr	r0, [r0, #20]
 8000c20:	2204      	movs	r2, #4
 8000c22:	311c      	adds	r1, #28
 8000c24:	4718      	bx	r3
 8000c26:	bf00      	nop

08000c28 <SystemClock_Config>:
/**
  * @brief System Clock Configuration
  * @retval None
  */
void SystemClock_Config(void)
{
 8000c28:	b500      	push	{lr}
 8000c2a:	b095      	sub	sp, #84	; 0x54
  RCC_OscInitTypeDef RCC_OscInitStruct = {0};
 8000c2c:	2238      	movs	r2, #56	; 0x38
 8000c2e:	2100      	movs	r1, #0
 8000c30:	a806      	add	r0, sp, #24
 8000c32:	f007 f899 	bl	8007d68 <memset>
  RCC_ClkInitTypeDef RCC_ClkInitStruct = {0};
 8000c36:	2000      	movs	r0, #0
 8000c38:	e9cd 0000 	strd	r0, r0, [sp]
 8000c3c:	e9cd 0002 	strd	r0, r0, [sp, #8]
 8000c40:	9004      	str	r0, [sp, #16]

  /** Configure the main internal regulator output voltage
  */
  HAL_PWREx_ControlVoltageScaling(PWR_REGULATOR_VOLTAGE_SCALE1_BOOST);
 8000c42:	f003 fba9 	bl	8004398 <HAL_PWREx_ControlVoltageScaling>

  /** Initializes the RCC Oscillators according to the specified parameters
  * in the RCC_OscInitTypeDef structure.
  */
  RCC_OscInitStruct.OscillatorType = RCC_OSCILLATORTYPE_HSE;
 8000c46:	ed9f 7b14 	vldr	d7, [pc, #80]	; 8000c98 <SystemClock_Config+0x70>
  RCC_OscInitStruct.HSEState = RCC_HSE_ON;
  RCC_OscInitStruct.PLL.PLLState = RCC_PLL_ON;
 8000c4a:	2302      	movs	r3, #2
  RCC_OscInitStruct.PLL.PLLSource = RCC_PLLSOURCE_HSE;
  RCC_OscInitStruct.PLL.PLLM = RCC_PLLM_DIV2;
  RCC_OscInitStruct.PLL.PLLN = 85;
 8000c4c:	2255      	movs	r2, #85	; 0x55
 8000c4e:	e9cd 320f 	strd	r3, r2, [sp, #60]	; 0x3c
  RCC_OscInitStruct.PLL.PLLSource = RCC_PLLSOURCE_HSE;
 8000c52:	2103      	movs	r1, #3
  RCC_OscInitStruct.PLL.PLLP = RCC_PLLP_DIV8;
 8000c54:	2208      	movs	r2, #8
  RCC_OscInitStruct.PLL.PLLQ = RCC_PLLQ_DIV2;
  RCC_OscInitStruct.PLL.PLLR = RCC_PLLR_DIV2;
  if (HAL_RCC_OscConfig(&RCC_OscInitStruct) != HAL_OK)
 8000c56:	a806      	add	r0, sp, #24
  RCC_OscInitStruct.OscillatorType = RCC_OSCILLATORTYPE_HSE;
 8000c58:	ed8d 7b06 	vstr	d7, [sp, #24]
  RCC_OscInitStruct.PLL.PLLSource = RCC_PLLSOURCE_HSE;
 8000c5c:	e9cd 310d 	strd	r3, r1, [sp, #52]	; 0x34
  RCC_OscInitStruct.PLL.PLLQ = RCC_PLLQ_DIV2;
 8000c60:	e9cd 2311 	strd	r2, r3, [sp, #68]	; 0x44
  RCC_OscInitStruct.PLL.PLLR = RCC_PLLR_DIV2;
 8000c64:	9313      	str	r3, [sp, #76]	; 0x4c
  if (HAL_RCC_OscConfig(&RCC_OscInitStruct) != HAL_OK)
 8000c66:	f003 fc1d 	bl	80044a4 <HAL_RCC_OscConfig>
 8000c6a:	b108      	cbz	r0, 8000c70 <SystemClock_Config+0x48>
  __ASM volatile ("cpsid i" : : : "memory");
 8000c6c:	b672      	cpsid	i
void Error_Handler(void)
{
  /* USER CODE BEGIN Error_Handler_Debug */
  /* User can add his own implementation to report the HAL error return state */
  __disable_irq();
  while (1)
 8000c6e:	e7fe      	b.n	8000c6e <SystemClock_Config+0x46>
  RCC_ClkInitStruct.ClockType = RCC_CLOCKTYPE_HCLK|RCC_CLOCKTYPE_SYSCLK
 8000c70:	ed9f 7b0b 	vldr	d7, [pc, #44]	; 8000ca0 <SystemClock_Config+0x78>
 8000c74:	ed8d 7b00 	vstr	d7, [sp]
 8000c78:	ed9f 7b0b 	vldr	d7, [pc, #44]	; 8000ca8 <SystemClock_Config+0x80>
 8000c7c:	4603      	mov	r3, r0
  if (HAL_RCC_ClockConfig(&RCC_ClkInitStruct, FLASH_LATENCY_4) != HAL_OK)
 8000c7e:	2104      	movs	r1, #4
 8000c80:	4668      	mov	r0, sp
  RCC_ClkInitStruct.ClockType = RCC_CLOCKTYPE_HCLK|RCC_CLOCKTYPE_SYSCLK
 8000c82:	ed8d 7b02 	vstr	d7, [sp, #8]
  RCC_ClkInitStruct.APB2CLKDivider = RCC_HCLK_DIV1;
 8000c86:	9304      	str	r3, [sp, #16]
  if (HAL_RCC_ClockConfig(&RCC_ClkInitStruct, FLASH_LATENCY_4) != HAL_OK)
 8000c88:	f003 fe90 	bl	80049ac <HAL_RCC_ClockConfig>
 8000c8c:	b108      	cbz	r0, 8000c92 <SystemClock_Config+0x6a>
 8000c8e:	b672      	cpsid	i
  while (1)
 8000c90:	e7fe      	b.n	8000c90 <SystemClock_Config+0x68>
}
 8000c92:	b015      	add	sp, #84	; 0x54
 8000c94:	f85d fb04 	ldr.w	pc, [sp], #4
 8000c98:	00000001 	.word	0x00000001
 8000c9c:	00010000 	.word	0x00010000
 8000ca0:	0000000f 	.word	0x0000000f
 8000ca4:	00000003 	.word	0x00000003
	...

08000cb0 <main>:
{
 8000cb0:	e92d 4880 	stmdb	sp!, {r7, fp, lr}
  GPIO_InitTypeDef GPIO_InitStruct = {0};
 8000cb4:	2400      	movs	r4, #0
{
 8000cb6:	b0ab      	sub	sp, #172	; 0xac
  HAL_Init();
 8000cb8:	f002 fa6a 	bl	8003190 <HAL_Init>
  SystemClock_Config();
 8000cbc:	f7ff ffb4 	bl	8000c28 <SystemClock_Config>
  GPIO_InitTypeDef GPIO_InitStruct = {0};
 8000cc0:	e9cd 441a 	strd	r4, r4, [sp, #104]	; 0x68
 8000cc4:	e9cd 441c 	strd	r4, r4, [sp, #112]	; 0x70
  __HAL_RCC_GPIOC_CLK_ENABLE();
 8000cc8:	4dad      	ldr	r5, [pc, #692]	; (8000f80 <main+0x2d0>)
  GPIO_InitTypeDef GPIO_InitStruct = {0};
 8000cca:	941e      	str	r4, [sp, #120]	; 0x78
  __HAL_RCC_GPIOC_CLK_ENABLE();
 8000ccc:	6ceb      	ldr	r3, [r5, #76]	; 0x4c
  HAL_GPIO_WritePin(M1_BEMF_DIVIDER_GPIO_Port, M1_BEMF_DIVIDER_Pin, GPIO_PIN_RESET);
 8000cce:	48ad      	ldr	r0, [pc, #692]	; (8000f84 <main+0x2d4>)
  __HAL_RCC_GPIOC_CLK_ENABLE();
 8000cd0:	f043 0304 	orr.w	r3, r3, #4
 8000cd4:	64eb      	str	r3, [r5, #76]	; 0x4c
 8000cd6:	6ceb      	ldr	r3, [r5, #76]	; 0x4c
 8000cd8:	f003 0304 	and.w	r3, r3, #4
 8000cdc:	9305      	str	r3, [sp, #20]
 8000cde:	9b05      	ldr	r3, [sp, #20]
  __HAL_RCC_GPIOF_CLK_ENABLE();
 8000ce0:	6ceb      	ldr	r3, [r5, #76]	; 0x4c
 8000ce2:	f043 0320 	orr.w	r3, r3, #32
 8000ce6:	64eb      	str	r3, [r5, #76]	; 0x4c
 8000ce8:	6ceb      	ldr	r3, [r5, #76]	; 0x4c
 8000cea:	f003 0320 	and.w	r3, r3, #32
 8000cee:	9306      	str	r3, [sp, #24]
 8000cf0:	9b06      	ldr	r3, [sp, #24]
  __HAL_RCC_GPIOG_CLK_ENABLE();
 8000cf2:	6ceb      	ldr	r3, [r5, #76]	; 0x4c
 8000cf4:	f043 0340 	orr.w	r3, r3, #64	; 0x40
 8000cf8:	64eb      	str	r3, [r5, #76]	; 0x4c
 8000cfa:	6ceb      	ldr	r3, [r5, #76]	; 0x4c
 8000cfc:	f003 0340 	and.w	r3, r3, #64	; 0x40
 8000d00:	9307      	str	r3, [sp, #28]
 8000d02:	9b07      	ldr	r3, [sp, #28]
  __HAL_RCC_GPIOA_CLK_ENABLE();
 8000d04:	6ceb      	ldr	r3, [r5, #76]	; 0x4c
 8000d06:	f043 0301 	orr.w	r3, r3, #1
 8000d0a:	64eb      	str	r3, [r5, #76]	; 0x4c
 8000d0c:	6ceb      	ldr	r3, [r5, #76]	; 0x4c
 8000d0e:	f003 0301 	and.w	r3, r3, #1
 8000d12:	9308      	str	r3, [sp, #32]
 8000d14:	9b08      	ldr	r3, [sp, #32]
  __HAL_RCC_GPIOB_CLK_ENABLE();
 8000d16:	6ceb      	ldr	r3, [r5, #76]	; 0x4c
 8000d18:	f043 0302 	orr.w	r3, r3, #2
 8000d1c:	64eb      	str	r3, [r5, #76]	; 0x4c
 8000d1e:	6ceb      	ldr	r3, [r5, #76]	; 0x4c
 8000d20:	f003 0302 	and.w	r3, r3, #2
  HAL_GPIO_WritePin(M1_BEMF_DIVIDER_GPIO_Port, M1_BEMF_DIVIDER_Pin, GPIO_PIN_RESET);
 8000d24:	4622      	mov	r2, r4
  __HAL_RCC_GPIOB_CLK_ENABLE();
 8000d26:	9309      	str	r3, [sp, #36]	; 0x24
  HAL_GPIO_WritePin(M1_BEMF_DIVIDER_GPIO_Port, M1_BEMF_DIVIDER_Pin, GPIO_PIN_RESET);
 8000d28:	2120      	movs	r1, #32
  __HAL_RCC_GPIOB_CLK_ENABLE();
 8000d2a:	9b09      	ldr	r3, [sp, #36]	; 0x24
  HAL_GPIO_WritePin(M1_BEMF_DIVIDER_GPIO_Port, M1_BEMF_DIVIDER_Pin, GPIO_PIN_RESET);
 8000d2c:	f003 fb2e 	bl	800438c <HAL_GPIO_WritePin>
  GPIO_InitStruct.Pin = GPIO_PIN_14|GPIO_PIN_15|GPIO_PIN_6|GPIO_PIN_11;
 8000d30:	f64c 0240 	movw	r2, #51264	; 0xc840
 8000d34:	2303      	movs	r3, #3
  HAL_GPIO_Init(GPIOC, &GPIO_InitStruct);
 8000d36:	4894      	ldr	r0, [pc, #592]	; (8000f88 <main+0x2d8>)
  GPIO_InitStruct.Pull = GPIO_NOPULL;
 8000d38:	941c      	str	r4, [sp, #112]	; 0x70
  HAL_GPIO_Init(GPIOC, &GPIO_InitStruct);
 8000d3a:	a91a      	add	r1, sp, #104	; 0x68
  GPIO_InitStruct.Pin = GPIO_PIN_14|GPIO_PIN_15|GPIO_PIN_6|GPIO_PIN_11;
 8000d3c:	e9cd 231a 	strd	r2, r3, [sp, #104]	; 0x68
  HAL_GPIO_Init(GPIOC, &GPIO_InitStruct);
 8000d40:	f003 fa2c 	bl	800419c <HAL_GPIO_Init>
  GPIO_InitStruct.Pin = GPIO_PIN_10;
 8000d44:	f44f 6280 	mov.w	r2, #1024	; 0x400
 8000d48:	2303      	movs	r3, #3
  HAL_GPIO_Init(GPIOG, &GPIO_InitStruct);
 8000d4a:	4890      	ldr	r0, [pc, #576]	; (8000f8c <main+0x2dc>)
  GPIO_InitStruct.Pull = GPIO_NOPULL;
 8000d4c:	941c      	str	r4, [sp, #112]	; 0x70
  HAL_GPIO_Init(GPIOG, &GPIO_InitStruct);
 8000d4e:	a91a      	add	r1, sp, #104	; 0x68
  GPIO_InitStruct.Pin = GPIO_PIN_10;
 8000d50:	e9cd 231a 	strd	r2, r3, [sp, #104]	; 0x68
  HAL_GPIO_Init(GPIOG, &GPIO_InitStruct);
 8000d54:	f003 fa22 	bl	800419c <HAL_GPIO_Init>
  GPIO_InitStruct.Pin = GPIO_PIN_1|GPIO_PIN_2|GPIO_PIN_3|GPIO_PIN_5
 8000d58:	f648 02ee 	movw	r2, #35054	; 0x88ee
 8000d5c:	2303      	movs	r3, #3
  HAL_GPIO_Init(GPIOA, &GPIO_InitStruct);
 8000d5e:	a91a      	add	r1, sp, #104	; 0x68
 8000d60:	f04f 4090 	mov.w	r0, #1207959552	; 0x48000000
  GPIO_InitStruct.Pin = GPIO_PIN_1|GPIO_PIN_2|GPIO_PIN_3|GPIO_PIN_5
 8000d64:	e9cd 231a 	strd	r2, r3, [sp, #104]	; 0x68
  GPIO_InitStruct.Pull = GPIO_NOPULL;
 8000d68:	941c      	str	r4, [sp, #112]	; 0x70
  HAL_GPIO_Init(GPIOA, &GPIO_InitStruct);
 8000d6a:	f003 fa17 	bl	800419c <HAL_GPIO_Init>
  GPIO_InitStruct.Pin = GPIO_PIN_0|GPIO_PIN_1|GPIO_PIN_2|GPIO_PIN_10
 8000d6e:	f247 72c7 	movw	r2, #30663	; 0x77c7
 8000d72:	2303      	movs	r3, #3
  HAL_GPIO_Init(GPIOB, &GPIO_InitStruct);
 8000d74:	4883      	ldr	r0, [pc, #524]	; (8000f84 <main+0x2d4>)
  GPIO_InitStruct.Pull = GPIO_NOPULL;
 8000d76:	941c      	str	r4, [sp, #112]	; 0x70
  HAL_GPIO_Init(GPIOB, &GPIO_InitStruct);
 8000d78:	a91a      	add	r1, sp, #104	; 0x68
  GPIO_InitStruct.Pin = GPIO_PIN_0|GPIO_PIN_1|GPIO_PIN_2|GPIO_PIN_10
 8000d7a:	e9cd 231a 	strd	r2, r3, [sp, #104]	; 0x68
  HAL_GPIO_Init(GPIOB, &GPIO_InitStruct);
 8000d7e:	f003 fa0d 	bl	800419c <HAL_GPIO_Init>
  GPIO_InitStruct.Pin = Start_Stop_Pin;
 8000d82:	f44f 6280 	mov.w	r2, #1024	; 0x400
 8000d86:	f44f 1304 	mov.w	r3, #2162688	; 0x210000
  HAL_GPIO_Init(Start_Stop_GPIO_Port, &GPIO_InitStruct);
 8000d8a:	487f      	ldr	r0, [pc, #508]	; (8000f88 <main+0x2d8>)
  GPIO_InitStruct.Pull = GPIO_NOPULL;
 8000d8c:	941c      	str	r4, [sp, #112]	; 0x70
  HAL_GPIO_Init(Start_Stop_GPIO_Port, &GPIO_InitStruct);
 8000d8e:	a91a      	add	r1, sp, #104	; 0x68
  GPIO_InitStruct.Pin = Start_Stop_Pin;
 8000d90:	e9cd 231a 	strd	r2, r3, [sp, #104]	; 0x68
  HAL_GPIO_Init(Start_Stop_GPIO_Port, &GPIO_InitStruct);
 8000d94:	f003 fa02 	bl	800419c <HAL_GPIO_Init>
  GPIO_InitStruct.Pin = M1_BEMF_DIVIDER_Pin;
 8000d98:	2220      	movs	r2, #32
 8000d9a:	2301      	movs	r3, #1
 8000d9c:	e9cd 231a 	strd	r2, r3, [sp, #104]	; 0x68
  HAL_GPIO_Init(M1_BEMF_DIVIDER_GPIO_Port, &GPIO_InitStruct);
 8000da0:	4878      	ldr	r0, [pc, #480]	; (8000f84 <main+0x2d4>)
  GPIO_InitStruct.Pin = M1_BEMF_DIVIDER_Pin;
 8000da2:	2202      	movs	r2, #2
 8000da4:	2300      	movs	r3, #0
  HAL_GPIO_Init(M1_BEMF_DIVIDER_GPIO_Port, &GPIO_InitStruct);
 8000da6:	a91a      	add	r1, sp, #104	; 0x68
  GPIO_InitStruct.Pin = M1_BEMF_DIVIDER_Pin;
 8000da8:	e9cd 231c 	strd	r2, r3, [sp, #112]	; 0x70
  HAL_GPIO_Init(M1_BEMF_DIVIDER_GPIO_Port, &GPIO_InitStruct);
 8000dac:	f003 f9f6 	bl	800419c <HAL_GPIO_Init>
  __HAL_RCC_DMAMUX1_CLK_ENABLE();
 8000db0:	6cab      	ldr	r3, [r5, #72]	; 0x48
 8000db2:	f043 0304 	orr.w	r3, r3, #4
 8000db6:	64ab      	str	r3, [r5, #72]	; 0x48
 8000db8:	6cab      	ldr	r3, [r5, #72]	; 0x48
 8000dba:	f003 0304 	and.w	r3, r3, #4
 8000dbe:	9303      	str	r3, [sp, #12]
 8000dc0:	9b03      	ldr	r3, [sp, #12]
  __HAL_RCC_DMA1_CLK_ENABLE();
 8000dc2:	6cab      	ldr	r3, [r5, #72]	; 0x48
 8000dc4:	f043 0301 	orr.w	r3, r3, #1
 8000dc8:	64ab      	str	r3, [r5, #72]	; 0x48
 8000dca:	6cab      	ldr	r3, [r5, #72]	; 0x48
  hadc1.Instance = ADC1;
 8000dcc:	4d70      	ldr	r5, [pc, #448]	; (8000f90 <main+0x2e0>)
  ADC_MultiModeTypeDef multimode = {0};
 8000dce:	940e      	str	r4, [sp, #56]	; 0x38
  __HAL_RCC_DMA1_CLK_ENABLE();
 8000dd0:	f003 0301 	and.w	r3, r3, #1
  ADC_InjectionConfTypeDef sConfigInjected = {0};
 8000dd4:	4621      	mov	r1, r4
  __HAL_RCC_DMA1_CLK_ENABLE();
 8000dd6:	9304      	str	r3, [sp, #16]
  ADC_InjectionConfTypeDef sConfigInjected = {0};
 8000dd8:	223c      	movs	r2, #60	; 0x3c
 8000dda:	a81a      	add	r0, sp, #104	; 0x68
  __HAL_RCC_DMA1_CLK_ENABLE();
 8000ddc:	9b04      	ldr	r3, [sp, #16]
  ADC_MultiModeTypeDef multimode = {0};
 8000dde:	e9cd 440f 	strd	r4, r4, [sp, #60]	; 0x3c
  ADC_InjectionConfTypeDef sConfigInjected = {0};
 8000de2:	f006 ffc1 	bl	8007d68 <memset>
  ADC_ChannelConfTypeDef sConfig = {0};
 8000de6:	4621      	mov	r1, r4
 8000de8:	2220      	movs	r2, #32
 8000dea:	a812      	add	r0, sp, #72	; 0x48
 8000dec:	f006 ffbc 	bl	8007d68 <memset>
  hadc1.Init.DataAlign = ADC_DATAALIGN_LEFT;
 8000df0:	f44f 4700 	mov.w	r7, #32768	; 0x8000
  hadc1.Init.Resolution = ADC_RESOLUTION_12B;
 8000df4:	e9c5 4401 	strd	r4, r4, [r5, #4]
  hadc1.Init.ScanConvMode = ADC_SCAN_DISABLE;
 8000df8:	e9c5 4404 	strd	r4, r4, [r5, #16]
  hadc1.Init.ExternalTrigConvEdge = ADC_EXTERNALTRIGCONVEDGE_NONE;
 8000dfc:	e9c5 440b 	strd	r4, r4, [r5, #44]	; 0x2c
  hadc1.Init.LowPowerAutoWait = DISABLE;
 8000e00:	83ac      	strh	r4, [r5, #28]
  hadc1.Init.DiscontinuousConvMode = DISABLE;
 8000e02:	f885 4024 	strb.w	r4, [r5, #36]	; 0x24
  hadc1.Init.DMAContinuousRequests = DISABLE;
 8000e06:	f885 4038 	strb.w	r4, [r5, #56]	; 0x38
  hadc1.Init.Overrun = ADC_OVR_DATA_PRESERVED;
 8000e0a:	63ec      	str	r4, [r5, #60]	; 0x3c
  hadc1.Init.OversamplingMode = DISABLE;
 8000e0c:	f885 4040 	strb.w	r4, [r5, #64]	; 0x40
  hadc1.Instance = ADC1;
 8000e10:	f04f 43a0 	mov.w	r3, #1342177280	; 0x50000000
  hadc1.Init.EOCSelection = ADC_EOC_SINGLE_CONV;
 8000e14:	2404      	movs	r4, #4
  hadc1.Init.NbrOfConversion = 1;
 8000e16:	2601      	movs	r6, #1
  if (HAL_ADC_Init(&hadc1) != HAL_OK)
 8000e18:	4628      	mov	r0, r5
  hadc1.Instance = ADC1;
 8000e1a:	602b      	str	r3, [r5, #0]
  hadc1.Init.DataAlign = ADC_DATAALIGN_LEFT;
 8000e1c:	60ef      	str	r7, [r5, #12]
  hadc1.Init.EOCSelection = ADC_EOC_SINGLE_CONV;
 8000e1e:	61ac      	str	r4, [r5, #24]
  hadc1.Init.NbrOfConversion = 1;
 8000e20:	622e      	str	r6, [r5, #32]
  if (HAL_ADC_Init(&hadc1) != HAL_OK)
 8000e22:	f002 f9d7 	bl	80031d4 <HAL_ADC_Init>
 8000e26:	b108      	cbz	r0, 8000e2c <main+0x17c>
 8000e28:	b672      	cpsid	i
  while (1)
 8000e2a:	e7fe      	b.n	8000e2a <main+0x17a>
  multimode.Mode = ADC_MODE_INDEPENDENT;
 8000e2c:	900e      	str	r0, [sp, #56]	; 0x38
  if (HAL_ADCEx_MultiModeConfigChannel(&hadc1, &multimode) != HAL_OK)
 8000e2e:	a90e      	add	r1, sp, #56	; 0x38
 8000e30:	4628      	mov	r0, r5
 8000e32:	f003 f839 	bl	8003ea8 <HAL_ADCEx_MultiModeConfigChannel>
 8000e36:	b108      	cbz	r0, 8000e3c <main+0x18c>
 8000e38:	b672      	cpsid	i
  while (1)
 8000e3a:	e7fe      	b.n	8000e3a <main+0x18a>
  sConfigInjected.InjectedRank = ADC_INJECTED_RANK_1;
 8000e3c:	4b55      	ldr	r3, [pc, #340]	; (8000f94 <main+0x2e4>)
  sConfigInjected.InjectedDiscontinuousConvMode = DISABLE;
 8000e3e:	f8ad 008c 	strh.w	r0, [sp, #140]	; 0x8c
  sConfigInjected.InjectedOffset = 0;
 8000e42:	e9cd 401e 	strd	r4, r0, [sp, #120]	; 0x78
  sConfigInjected.QueueInjectedContext = DISABLE;
 8000e46:	f88d 008e 	strb.w	r0, [sp, #142]	; 0x8e
  sConfigInjected.InjecOversamplingMode = DISABLE;
 8000e4a:	f88d 0098 	strb.w	r0, [sp, #152]	; 0x98
  sConfigInjected.InjectedRank = ADC_INJECTED_RANK_1;
 8000e4e:	f04f 0909 	mov.w	r9, #9
  sConfigInjected.InjectedSingleDiff = ADC_SINGLE_ENDED;
 8000e52:	f04f 087f 	mov.w	r8, #127	; 0x7f
  sConfigInjected.ExternalTrigInjecConv = ADC_EXTERNALTRIGINJEC_T1_TRGO;
 8000e56:	f04f 0a80 	mov.w	sl, #128	; 0x80
 8000e5a:	f44f 7b80 	mov.w	fp, #256	; 0x100
  if (HAL_ADCEx_InjectedConfigChannel(&hadc1, &sConfigInjected) != HAL_OK)
 8000e5e:	a91a      	add	r1, sp, #104	; 0x68
 8000e60:	4628      	mov	r0, r5
  sConfigInjected.InjectedRank = ADC_INJECTED_RANK_1;
 8000e62:	e9cd 391a 	strd	r3, r9, [sp, #104]	; 0x68
  sConfigInjected.ExternalTrigInjecConv = ADC_EXTERNALTRIGINJEC_T1_TRGO;
 8000e66:	e9cd ab24 	strd	sl, fp, [sp, #144]	; 0x90
  sConfigInjected.InjectedSamplingTime = ADC_SAMPLETIME_47CYCLES_5;
 8000e6a:	941c      	str	r4, [sp, #112]	; 0x70
  sConfigInjected.InjectedNbrOfConversion = 1;
 8000e6c:	9622      	str	r6, [sp, #136]	; 0x88
  sConfigInjected.InjectedSingleDiff = ADC_SINGLE_ENDED;
 8000e6e:	f8cd 8074 	str.w	r8, [sp, #116]	; 0x74
  if (HAL_ADCEx_InjectedConfigChannel(&hadc1, &sConfigInjected) != HAL_OK)
 8000e72:	f002 fd1f 	bl	80038b4 <HAL_ADCEx_InjectedConfigChannel>
 8000e76:	b108      	cbz	r0, 8000e7c <main+0x1cc>
 8000e78:	b672      	cpsid	i
  while (1)
 8000e7a:	e7fe      	b.n	8000e7a <main+0x1ca>
  sConfig.Channel = ADC_CHANNEL_1;
 8000e7c:	4a46      	ldr	r2, [pc, #280]	; (8000f98 <main+0x2e8>)
 8000e7e:	2306      	movs	r3, #6
 8000e80:	e9cd 2312 	strd	r2, r3, [sp, #72]	; 0x48
 8000e84:	2204      	movs	r2, #4
 8000e86:	237f      	movs	r3, #127	; 0x7f
 8000e88:	e9cd 2314 	strd	r2, r3, [sp, #80]	; 0x50
  if (HAL_ADC_ConfigChannel(&hadc1, &sConfig) != HAL_OK)
 8000e8c:	a912      	add	r1, sp, #72	; 0x48
  sConfig.Channel = ADC_CHANNEL_1;
 8000e8e:	2204      	movs	r2, #4
 8000e90:	2300      	movs	r3, #0
  if (HAL_ADC_ConfigChannel(&hadc1, &sConfig) != HAL_OK)
 8000e92:	4628      	mov	r0, r5
  sConfig.Channel = ADC_CHANNEL_1;
 8000e94:	e9cd 2316 	strd	r2, r3, [sp, #88]	; 0x58
  if (HAL_ADC_ConfigChannel(&hadc1, &sConfig) != HAL_OK)
 8000e98:	f002 faa0 	bl	80033dc <HAL_ADC_ConfigChannel>
 8000e9c:	4601      	mov	r1, r0
 8000e9e:	b108      	cbz	r0, 8000ea4 <main+0x1f4>
 8000ea0:	b672      	cpsid	i
  while (1)
 8000ea2:	e7fe      	b.n	8000ea2 <main+0x1f2>
  hadc2.Instance = ADC2;
 8000ea4:	4d3d      	ldr	r5, [pc, #244]	; (8000f9c <main+0x2ec>)
  ADC_InjectionConfTypeDef sConfigInjected = {0};
 8000ea6:	9001      	str	r0, [sp, #4]
 8000ea8:	223c      	movs	r2, #60	; 0x3c
 8000eaa:	a81a      	add	r0, sp, #104	; 0x68
 8000eac:	f006 ff5c 	bl	8007d68 <memset>
  hadc2.Init.ClockPrescaler = ADC_CLOCK_ASYNC_DIV1;
 8000eb0:	9901      	ldr	r1, [sp, #4]
  hadc2.Instance = ADC2;
 8000eb2:	4b3b      	ldr	r3, [pc, #236]	; (8000fa0 <main+0x2f0>)
  hadc2.Init.LowPowerAutoWait = DISABLE;
 8000eb4:	83a9      	strh	r1, [r5, #28]
  if (HAL_ADC_Init(&hadc2) != HAL_OK)
 8000eb6:	4628      	mov	r0, r5
  hadc2.Instance = ADC2;
 8000eb8:	602b      	str	r3, [r5, #0]
  hadc2.Init.Resolution = ADC_RESOLUTION_12B;
 8000eba:	e9c5 1101 	strd	r1, r1, [r5, #4]
  hadc2.Init.ScanConvMode = ADC_SCAN_DISABLE;
 8000ebe:	e9c5 1104 	strd	r1, r1, [r5, #16]
  hadc2.Init.DataAlign = ADC_DATAALIGN_LEFT;
 8000ec2:	60ef      	str	r7, [r5, #12]
  hadc2.Init.EOCSelection = ADC_EOC_SINGLE_CONV;
 8000ec4:	61ac      	str	r4, [r5, #24]
  hadc2.Init.NbrOfConversion = 1;
 8000ec6:	622e      	str	r6, [r5, #32]
  hadc2.Init.DiscontinuousConvMode = DISABLE;
 8000ec8:	f885 1024 	strb.w	r1, [r5, #36]	; 0x24
  hadc2.Init.DMAContinuousRequests = DISABLE;
 8000ecc:	f885 1038 	strb.w	r1, [r5, #56]	; 0x38
  hadc2.Init.Overrun = ADC_OVR_DATA_PRESERVED;
 8000ed0:	63e9      	str	r1, [r5, #60]	; 0x3c
  hadc2.Init.OversamplingMode = DISABLE;
 8000ed2:	f885 1040 	strb.w	r1, [r5, #64]	; 0x40
  if (HAL_ADC_Init(&hadc2) != HAL_OK)
 8000ed6:	f002 f97d 	bl	80031d4 <HAL_ADC_Init>
 8000eda:	4603      	mov	r3, r0
 8000edc:	b108      	cbz	r0, 8000ee2 <main+0x232>
 8000ede:	b672      	cpsid	i
  while (1)
 8000ee0:	e7fe      	b.n	8000ee0 <main+0x230>
  sConfigInjected.InjectedOffset = 0;
 8000ee2:	e9cd 431e 	strd	r4, r3, [sp, #120]	; 0x78
  sConfigInjected.InjectedDiscontinuousConvMode = DISABLE;
 8000ee6:	f8ad 308c 	strh.w	r3, [sp, #140]	; 0x8c
  sConfigInjected.QueueInjectedContext = DISABLE;
 8000eea:	f88d 308e 	strb.w	r3, [sp, #142]	; 0x8e
  sConfigInjected.InjecOversamplingMode = DISABLE;
 8000eee:	f88d 3098 	strb.w	r3, [sp, #152]	; 0x98
  if (HAL_ADCEx_InjectedConfigChannel(&hadc2, &sConfigInjected) != HAL_OK)
 8000ef2:	4628      	mov	r0, r5
  sConfigInjected.InjectedChannel = ADC_CHANNEL_17;
 8000ef4:	4b2b      	ldr	r3, [pc, #172]	; (8000fa4 <main+0x2f4>)
  sConfigInjected.InjectedSamplingTime = ADC_SAMPLETIME_47CYCLES_5;
 8000ef6:	941c      	str	r4, [sp, #112]	; 0x70
  if (HAL_ADCEx_InjectedConfigChannel(&hadc2, &sConfigInjected) != HAL_OK)
 8000ef8:	a91a      	add	r1, sp, #104	; 0x68
  sConfigInjected.ExternalTrigInjecConv = ADC_EXTERNALTRIGINJEC_T1_TRGO;
 8000efa:	e9cd ab24 	strd	sl, fp, [sp, #144]	; 0x90
  sConfigInjected.InjectedRank = ADC_INJECTED_RANK_1;
 8000efe:	f8cd 906c 	str.w	r9, [sp, #108]	; 0x6c
  sConfigInjected.InjectedSingleDiff = ADC_SINGLE_ENDED;
 8000f02:	f8cd 8074 	str.w	r8, [sp, #116]	; 0x74
  sConfigInjected.InjectedNbrOfConversion = 1;
 8000f06:	9622      	str	r6, [sp, #136]	; 0x88
  sConfigInjected.InjectedChannel = ADC_CHANNEL_17;
 8000f08:	931a      	str	r3, [sp, #104]	; 0x68
  if (HAL_ADCEx_InjectedConfigChannel(&hadc2, &sConfigInjected) != HAL_OK)
 8000f0a:	f002 fcd3 	bl	80038b4 <HAL_ADCEx_InjectedConfigChannel>
 8000f0e:	4604      	mov	r4, r0
 8000f10:	b108      	cbz	r0, 8000f16 <main+0x266>
 8000f12:	b672      	cpsid	i
  while (1)
 8000f14:	e7fe      	b.n	8000f14 <main+0x264>
  htim1.Instance = TIM1;
 8000f16:	4d24      	ldr	r5, [pc, #144]	; (8000fa8 <main+0x2f8>)
  TIM_MasterConfigTypeDef sMasterConfig = {0};
 8000f18:	900a      	str	r0, [sp, #40]	; 0x28
  TIM_ClockConfigTypeDef sClockSourceConfig = {0};
 8000f1a:	e9cd 000e 	strd	r0, r0, [sp, #56]	; 0x38
 8000f1e:	e9cd 0010 	strd	r0, r0, [sp, #64]	; 0x40
  TIM_OC_InitTypeDef sConfigOC = {0};
 8000f22:	e9cd 0012 	strd	r0, r0, [sp, #72]	; 0x48
 8000f26:	e9cd 0014 	strd	r0, r0, [sp, #80]	; 0x50
 8000f2a:	e9cd 0016 	strd	r0, r0, [sp, #88]	; 0x58
  TIM_MasterConfigTypeDef sMasterConfig = {0};
 8000f2e:	e9cd 000b 	strd	r0, r0, [sp, #44]	; 0x2c
  TIM_OC_InitTypeDef sConfigOC = {0};
 8000f32:	9018      	str	r0, [sp, #96]	; 0x60
  TIM_BreakDeadTimeConfigTypeDef sBreakDeadTimeConfig = {0};
 8000f34:	4601      	mov	r1, r0
 8000f36:	2234      	movs	r2, #52	; 0x34
 8000f38:	a81a      	add	r0, sp, #104	; 0x68
 8000f3a:	f006 ff15 	bl	8007d68 <memset>
  htim1.Instance = TIM1;
 8000f3e:	4b1b      	ldr	r3, [pc, #108]	; (8000fac <main+0x2fc>)
 8000f40:	602b      	str	r3, [r5, #0]
  if (HAL_TIM_Base_Init(&htim1) != HAL_OK)
 8000f42:	4628      	mov	r0, r5
  htim1.Init.Period = (PWM_PERIOD_CYCLES);
 8000f44:	f44f 5326 	mov.w	r3, #10624	; 0x2980
  htim1.Init.CounterMode = TIM_COUNTERMODE_UP;
 8000f48:	e9c5 4401 	strd	r4, r4, [r5, #4]
  htim1.Init.RepetitionCounter = (REP_COUNTER);
 8000f4c:	e9c5 4404 	strd	r4, r4, [r5, #16]
  htim1.Init.AutoReloadPreload = TIM_AUTORELOAD_PRELOAD_DISABLE;
 8000f50:	61ac      	str	r4, [r5, #24]
  htim1.Init.Period = (PWM_PERIOD_CYCLES);
 8000f52:	60eb      	str	r3, [r5, #12]
  if (HAL_TIM_Base_Init(&htim1) != HAL_OK)
 8000f54:	f004 f86e 	bl	8005034 <HAL_TIM_Base_Init>
 8000f58:	b108      	cbz	r0, 8000f5e <main+0x2ae>
 8000f5a:	b672      	cpsid	i
  while (1)
 8000f5c:	e7fe      	b.n	8000f5c <main+0x2ac>
  sClockSourceConfig.ClockSource = TIM_CLOCKSOURCE_INTERNAL;
 8000f5e:	f44f 5380 	mov.w	r3, #4096	; 0x1000
  if (HAL_TIM_ConfigClockSource(&htim1, &sClockSourceConfig) != HAL_OK)
 8000f62:	a90e      	add	r1, sp, #56	; 0x38
 8000f64:	4628      	mov	r0, r5
  sClockSourceConfig.ClockSource = TIM_CLOCKSOURCE_INTERNAL;
 8000f66:	930e      	str	r3, [sp, #56]	; 0x38
  if (HAL_TIM_ConfigClockSource(&htim1, &sClockSourceConfig) != HAL_OK)
 8000f68:	f004 f976 	bl	8005258 <HAL_TIM_ConfigClockSource>
 8000f6c:	b108      	cbz	r0, 8000f72 <main+0x2c2>
 8000f6e:	b672      	cpsid	i
  while (1)
 8000f70:	e7fe      	b.n	8000f70 <main+0x2c0>
  if (HAL_TIM_PWM_Init(&htim1) != HAL_OK)
 8000f72:	4628      	mov	r0, r5
 8000f74:	f004 f8e8 	bl	8005148 <HAL_TIM_PWM_Init>
 8000f78:	b1d0      	cbz	r0, 8000fb0 <main+0x300>
 8000f7a:	b672      	cpsid	i
  while (1)
 8000f7c:	e7fe      	b.n	8000f7c <main+0x2cc>
 8000f7e:	bf00      	nop
 8000f80:	40021000 	.word	0x40021000
 8000f84:	48000400 	.word	0x48000400
 8000f88:	48000800 	.word	0x48000800
 8000f8c:	48001800 	.word	0x48001800
 8000f90:	20000470 	.word	0x20000470
 8000f94:	3ac04000 	.word	0x3ac04000
 8000f98:	04300002 	.word	0x04300002
 8000f9c:	200004dc 	.word	0x200004dc
 8000fa0:	50000100 	.word	0x50000100
 8000fa4:	47520000 	.word	0x47520000
 8000fa8:	20000608 	.word	0x20000608
 8000fac:	40012c00 	.word	0x40012c00
  sMasterConfig.MasterOutputTrigger = TIM_TRGO_OC4REF;
 8000fb0:	2300      	movs	r3, #0
 8000fb2:	2270      	movs	r2, #112	; 0x70
 8000fb4:	e9cd 230a 	strd	r2, r3, [sp, #40]	; 0x28
  if (HAL_TIMEx_MasterConfigSynchronization(&htim1, &sMasterConfig) != HAL_OK)
 8000fb8:	a90a      	add	r1, sp, #40	; 0x28
  sMasterConfig.MasterSlaveMode = TIM_MASTERSLAVEMODE_ENABLE;
 8000fba:	2380      	movs	r3, #128	; 0x80
  if (HAL_TIMEx_MasterConfigSynchronization(&htim1, &sMasterConfig) != HAL_OK)
 8000fbc:	4628      	mov	r0, r5
  sMasterConfig.MasterSlaveMode = TIM_MASTERSLAVEMODE_ENABLE;
 8000fbe:	930c      	str	r3, [sp, #48]	; 0x30
  if (HAL_TIMEx_MasterConfigSynchronization(&htim1, &sMasterConfig) != HAL_OK)
 8000fc0:	f004 fb5c 	bl	800567c <HAL_TIMEx_MasterConfigSynchronization>
 8000fc4:	b108      	cbz	r0, 8000fca <main+0x31a>
 8000fc6:	b672      	cpsid	i
  while (1)
 8000fc8:	e7fe      	b.n	8000fc8 <main+0x318>
  sConfigOC.OCMode = TIM_OCMODE_PWM1;
 8000fca:	2060      	movs	r0, #96	; 0x60
 8000fcc:	2100      	movs	r1, #0
 8000fce:	e9cd 0112 	strd	r0, r1, [sp, #72]	; 0x48
 8000fd2:	2400      	movs	r4, #0
 8000fd4:	2500      	movs	r5, #0
  sConfigOC.OCNIdleState = TIM_OCNIDLESTATE_RESET;
 8000fd6:	2200      	movs	r2, #0
  if (HAL_TIM_PWM_ConfigChannel(&htim1, &sConfigOC, TIM_CHANNEL_1) != HAL_OK)
 8000fd8:	486c      	ldr	r0, [pc, #432]	; (800118c <main+0x4dc>)
  sConfigOC.OCNIdleState = TIM_OCNIDLESTATE_RESET;
 8000fda:	9218      	str	r2, [sp, #96]	; 0x60
  if (HAL_TIM_PWM_ConfigChannel(&htim1, &sConfigOC, TIM_CHANNEL_1) != HAL_OK)
 8000fdc:	a912      	add	r1, sp, #72	; 0x48
  sConfigOC.OCMode = TIM_OCMODE_PWM1;
 8000fde:	e9cd 4514 	strd	r4, r5, [sp, #80]	; 0x50
 8000fe2:	e9cd 4516 	strd	r4, r5, [sp, #88]	; 0x58
  if (HAL_TIM_PWM_ConfigChannel(&htim1, &sConfigOC, TIM_CHANNEL_1) != HAL_OK)
 8000fe6:	f004 fa4b 	bl	8005480 <HAL_TIM_PWM_ConfigChannel>
 8000fea:	b108      	cbz	r0, 8000ff0 <main+0x340>
 8000fec:	b672      	cpsid	i
  while (1)
 8000fee:	e7fe      	b.n	8000fee <main+0x33e>
  if (HAL_TIM_PWM_ConfigChannel(&htim1, &sConfigOC, TIM_CHANNEL_2) != HAL_OK)
 8000ff0:	4866      	ldr	r0, [pc, #408]	; (800118c <main+0x4dc>)
 8000ff2:	2204      	movs	r2, #4
 8000ff4:	a912      	add	r1, sp, #72	; 0x48
 8000ff6:	f004 fa43 	bl	8005480 <HAL_TIM_PWM_ConfigChannel>
 8000ffa:	b108      	cbz	r0, 8001000 <main+0x350>
 8000ffc:	b672      	cpsid	i
  while (1)
 8000ffe:	e7fe      	b.n	8000ffe <main+0x34e>
  if (HAL_TIM_PWM_ConfigChannel(&htim1, &sConfigOC, TIM_CHANNEL_3) != HAL_OK)
 8001000:	4862      	ldr	r0, [pc, #392]	; (800118c <main+0x4dc>)
 8001002:	2208      	movs	r2, #8
 8001004:	a912      	add	r1, sp, #72	; 0x48
 8001006:	f004 fa3b 	bl	8005480 <HAL_TIM_PWM_ConfigChannel>
 800100a:	b108      	cbz	r0, 8001010 <main+0x360>
 800100c:	b672      	cpsid	i
  while (1)
 800100e:	e7fe      	b.n	800100e <main+0x35e>
  if (HAL_TIM_PWM_ConfigChannel(&htim1, &sConfigOC, TIM_CHANNEL_4) != HAL_OK)
 8001010:	485e      	ldr	r0, [pc, #376]	; (800118c <main+0x4dc>)
 8001012:	220c      	movs	r2, #12
 8001014:	a912      	add	r1, sp, #72	; 0x48
 8001016:	f004 fa33 	bl	8005480 <HAL_TIM_PWM_ConfigChannel>
 800101a:	b108      	cbz	r0, 8001020 <main+0x370>
 800101c:	b672      	cpsid	i
  while (1)
 800101e:	e7fe      	b.n	800101e <main+0x36e>
  sBreakDeadTimeConfig.OffStateRunMode = TIM_OSSR_DISABLE;
 8001020:	2200      	movs	r2, #0
 8001022:	f04f 7300 	mov.w	r3, #33554432	; 0x2000000
 8001026:	e9cd 2322 	strd	r2, r3, [sp, #136]	; 0x88
 800102a:	2203      	movs	r2, #3
 800102c:	2300      	movs	r3, #0
 800102e:	e9cd 2324 	strd	r2, r3, [sp, #144]	; 0x90
 8001032:	2200      	movs	r2, #0
 8001034:	237f      	movs	r3, #127	; 0x7f
 8001036:	e9cd 231c 	strd	r2, r3, [sp, #112]	; 0x70
  sBreakDeadTimeConfig.AutomaticOutput = TIM_AUTOMATICOUTPUT_DISABLE;
 800103a:	9026      	str	r0, [sp, #152]	; 0x98
  sBreakDeadTimeConfig.OffStateRunMode = TIM_OSSR_DISABLE;
 800103c:	2200      	movs	r2, #0
 800103e:	f44f 5300 	mov.w	r3, #8192	; 0x2000
  if (HAL_TIMEx_ConfigBreakDeadTime(&htim1, &sBreakDeadTimeConfig) != HAL_OK)
 8001042:	4852      	ldr	r0, [pc, #328]	; (800118c <main+0x4dc>)
 8001044:	a91a      	add	r1, sp, #104	; 0x68
  sBreakDeadTimeConfig.OffStateRunMode = TIM_OSSR_DISABLE;
 8001046:	e9cd 451a 	strd	r4, r5, [sp, #104]	; 0x68
 800104a:	e9cd 4520 	strd	r4, r5, [sp, #128]	; 0x80
 800104e:	e9cd 231e 	strd	r2, r3, [sp, #120]	; 0x78
  if (HAL_TIMEx_ConfigBreakDeadTime(&htim1, &sBreakDeadTimeConfig) != HAL_OK)
 8001052:	f004 fb5d 	bl	8005710 <HAL_TIMEx_ConfigBreakDeadTime>
 8001056:	4604      	mov	r4, r0
 8001058:	b108      	cbz	r0, 800105e <main+0x3ae>
 800105a:	b672      	cpsid	i
  while (1)
 800105c:	e7fe      	b.n	800105c <main+0x3ac>
  htim4.Instance = TIM4;
 800105e:	4d4c      	ldr	r5, [pc, #304]	; (8001190 <main+0x4e0>)
  HAL_TIM_MspPostInit(&htim1);
 8001060:	484a      	ldr	r0, [pc, #296]	; (800118c <main+0x4dc>)
 8001062:	f001 fdf9 	bl	8002c58 <HAL_TIM_MspPostInit>
  htim4.Instance = TIM4;
 8001066:	4b4b      	ldr	r3, [pc, #300]	; (8001194 <main+0x4e4>)
 8001068:	602b      	str	r3, [r5, #0]
  htim4.Init.Prescaler = LF_TIMER_PSC;
 800106a:	2364      	movs	r3, #100	; 0x64
 800106c:	606b      	str	r3, [r5, #4]
  if (HAL_TIM_Base_Init(&htim4) != HAL_OK)
 800106e:	4628      	mov	r0, r5
  htim4.Init.Period = LF_TIMER_ARR;
 8001070:	f64f 73fe 	movw	r3, #65534	; 0xfffe
  TIM_ClockConfigTypeDef sClockSourceConfig = {0};
 8001074:	e9cd 441a 	strd	r4, r4, [sp, #104]	; 0x68
 8001078:	e9cd 441c 	strd	r4, r4, [sp, #112]	; 0x70
  TIM_MasterConfigTypeDef sMasterConfig = {0};
 800107c:	e9cd 4412 	strd	r4, r4, [sp, #72]	; 0x48
  htim4.Init.Period = LF_TIMER_ARR;
 8001080:	e9c5 4302 	strd	r4, r3, [r5, #8]
  TIM_MasterConfigTypeDef sMasterConfig = {0};
 8001084:	9414      	str	r4, [sp, #80]	; 0x50
  htim4.Init.ClockDivision = TIM_CLOCKDIVISION_DIV1;
 8001086:	612c      	str	r4, [r5, #16]
  htim4.Init.AutoReloadPreload = TIM_AUTORELOAD_PRELOAD_DISABLE;
 8001088:	61ac      	str	r4, [r5, #24]
  if (HAL_TIM_Base_Init(&htim4) != HAL_OK)
 800108a:	f003 ffd3 	bl	8005034 <HAL_TIM_Base_Init>
 800108e:	b108      	cbz	r0, 8001094 <main+0x3e4>
 8001090:	b672      	cpsid	i
  while (1)
 8001092:	e7fe      	b.n	8001092 <main+0x3e2>
  sClockSourceConfig.ClockSource = TIM_CLOCKSOURCE_INTERNAL;
 8001094:	f44f 5380 	mov.w	r3, #4096	; 0x1000
  if (HAL_TIM_ConfigClockSource(&htim4, &sClockSourceConfig) != HAL_OK)
 8001098:	a91a      	add	r1, sp, #104	; 0x68
 800109a:	4628      	mov	r0, r5
  sClockSourceConfig.ClockSource = TIM_CLOCKSOURCE_INTERNAL;
 800109c:	931a      	str	r3, [sp, #104]	; 0x68
  if (HAL_TIM_ConfigClockSource(&htim4, &sClockSourceConfig) != HAL_OK)
 800109e:	f004 f8db 	bl	8005258 <HAL_TIM_ConfigClockSource>
 80010a2:	b108      	cbz	r0, 80010a8 <main+0x3f8>
 80010a4:	b672      	cpsid	i
  while (1)
 80010a6:	e7fe      	b.n	80010a6 <main+0x3f6>
  sMasterConfig.MasterSlaveMode = TIM_MASTERSLAVEMODE_ENABLE;
 80010a8:	2380      	movs	r3, #128	; 0x80
  sMasterConfig.MasterOutputTrigger = TIM_TRGO_ENABLE;
 80010aa:	2210      	movs	r2, #16
  if (HAL_TIMEx_MasterConfigSynchronization(&htim4, &sMasterConfig) != HAL_OK)
 80010ac:	a912      	add	r1, sp, #72	; 0x48
 80010ae:	4628      	mov	r0, r5
  sMasterConfig.MasterSlaveMode = TIM_MASTERSLAVEMODE_ENABLE;
 80010b0:	9314      	str	r3, [sp, #80]	; 0x50
  sMasterConfig.MasterOutputTrigger = TIM_TRGO_ENABLE;
 80010b2:	9212      	str	r2, [sp, #72]	; 0x48
  if (HAL_TIMEx_MasterConfigSynchronization(&htim4, &sMasterConfig) != HAL_OK)
 80010b4:	f004 fae2 	bl	800567c <HAL_TIMEx_MasterConfigSynchronization>
 80010b8:	4603      	mov	r3, r0
 80010ba:	b108      	cbz	r0, 80010c0 <main+0x410>
 80010bc:	b672      	cpsid	i
  while (1)
 80010be:	e7fe      	b.n	80010be <main+0x40e>
  huart2.Instance = USART2;
 80010c0:	4c35      	ldr	r4, [pc, #212]	; (8001198 <main+0x4e8>)
 80010c2:	4836      	ldr	r0, [pc, #216]	; (800119c <main+0x4ec>)
  huart2.AdvancedInit.AdvFeatureInit = UART_ADVFEATURE_NO_INIT;
 80010c4:	62a3      	str	r3, [r4, #40]	; 0x28
  huart2.Init.BaudRate = 1843200;
 80010c6:	f44f 11e1 	mov.w	r1, #1843200	; 0x1c2000
 80010ca:	e9c4 0100 	strd	r0, r1, [r4]
  huart2.Init.Mode = UART_MODE_TX_RX;
 80010ce:	220c      	movs	r2, #12
  if (HAL_UART_Init(&huart2) != HAL_OK)
 80010d0:	4620      	mov	r0, r4
  huart2.Init.StopBits = UART_STOPBITS_1;
 80010d2:	e9c4 3302 	strd	r3, r3, [r4, #8]
  huart2.Init.Mode = UART_MODE_TX_RX;
 80010d6:	e9c4 3204 	strd	r3, r2, [r4, #16]
  huart2.Init.OverSampling = UART_OVERSAMPLING_16;
 80010da:	e9c4 3306 	strd	r3, r3, [r4, #24]
  huart2.Init.ClockPrescaler = UART_PRESCALER_DIV1;
 80010de:	e9c4 3308 	strd	r3, r3, [r4, #32]
  if (HAL_UART_Init(&huart2) != HAL_OK)
 80010e2:	f004 fda3 	bl	8005c2c <HAL_UART_Init>
 80010e6:	4601      	mov	r1, r0
 80010e8:	b108      	cbz	r0, 80010ee <main+0x43e>
 80010ea:	b672      	cpsid	i
  while (1)
 80010ec:	e7fe      	b.n	80010ec <main+0x43c>
  if (HAL_UARTEx_SetTxFifoThreshold(&huart2, UART_TXFIFO_THRESHOLD_1_8) != HAL_OK)
 80010ee:	4620      	mov	r0, r4
 80010f0:	f004 fe26 	bl	8005d40 <HAL_UARTEx_SetTxFifoThreshold>
 80010f4:	b108      	cbz	r0, 80010fa <main+0x44a>
 80010f6:	b672      	cpsid	i
  while (1)
 80010f8:	e7fe      	b.n	80010f8 <main+0x448>
  if (HAL_UARTEx_SetRxFifoThreshold(&huart2, UART_RXFIFO_THRESHOLD_1_8) != HAL_OK)
 80010fa:	4827      	ldr	r0, [pc, #156]	; (8001198 <main+0x4e8>)
 80010fc:	2100      	movs	r1, #0
 80010fe:	f004 fe61 	bl	8005dc4 <HAL_UARTEx_SetRxFifoThreshold>
 8001102:	b108      	cbz	r0, 8001108 <main+0x458>
 8001104:	b672      	cpsid	i
  while (1)
 8001106:	e7fe      	b.n	8001106 <main+0x456>
  if (HAL_UARTEx_DisableFifoMode(&huart2) != HAL_OK)
 8001108:	4823      	ldr	r0, [pc, #140]	; (8001198 <main+0x4e8>)
 800110a:	f004 fdfb 	bl	8005d04 <HAL_UARTEx_DisableFifoMode>
 800110e:	4604      	mov	r4, r0
 8001110:	b108      	cbz	r0, 8001116 <main+0x466>
 8001112:	b672      	cpsid	i
  while (1)
 8001114:	e7fe      	b.n	8001114 <main+0x464>
  MX_MotorControl_Init();
 8001116:	f000 fd3b 	bl	8001b90 <MX_MotorControl_Init>
  HAL_NVIC_SetPriority(USART2_IRQn, 3, 1);
 800111a:	2103      	movs	r1, #3
 800111c:	2201      	movs	r2, #1
 800111e:	2026      	movs	r0, #38	; 0x26
 8001120:	f002 ff3a 	bl	8003f98 <HAL_NVIC_SetPriority>
  HAL_NVIC_EnableIRQ(USART2_IRQn);
 8001124:	2026      	movs	r0, #38	; 0x26
 8001126:	f002 ff75 	bl	8004014 <HAL_NVIC_EnableIRQ>
  HAL_NVIC_SetPriority(DMA1_Channel1_IRQn, 3, 0);
 800112a:	4622      	mov	r2, r4
 800112c:	2103      	movs	r1, #3
 800112e:	200b      	movs	r0, #11
 8001130:	f002 ff32 	bl	8003f98 <HAL_NVIC_SetPriority>
  HAL_NVIC_EnableIRQ(DMA1_Channel1_IRQn);
 8001134:	200b      	movs	r0, #11
 8001136:	f002 ff6d 	bl	8004014 <HAL_NVIC_EnableIRQ>
  HAL_NVIC_SetPriority(TIM4_IRQn, 2, 0);
 800113a:	4622      	mov	r2, r4
 800113c:	2102      	movs	r1, #2
 800113e:	201e      	movs	r0, #30
 8001140:	f002 ff2a 	bl	8003f98 <HAL_NVIC_SetPriority>
  HAL_NVIC_EnableIRQ(TIM4_IRQn);
 8001144:	201e      	movs	r0, #30
 8001146:	f002 ff65 	bl	8004014 <HAL_NVIC_EnableIRQ>
  HAL_NVIC_SetPriority(TIM1_BRK_TIM15_IRQn, 1, 0);
 800114a:	4622      	mov	r2, r4
 800114c:	2101      	movs	r1, #1
 800114e:	2018      	movs	r0, #24
 8001150:	f002 ff22 	bl	8003f98 <HAL_NVIC_SetPriority>
  HAL_NVIC_EnableIRQ(TIM1_BRK_TIM15_IRQn);
 8001154:	2018      	movs	r0, #24
 8001156:	f002 ff5d 	bl	8004014 <HAL_NVIC_EnableIRQ>
  HAL_NVIC_SetPriority(TIM1_UP_TIM16_IRQn, 1, 0);
 800115a:	4622      	mov	r2, r4
 800115c:	2101      	movs	r1, #1
 800115e:	2019      	movs	r0, #25
 8001160:	f002 ff1a 	bl	8003f98 <HAL_NVIC_SetPriority>
  HAL_NVIC_EnableIRQ(TIM1_UP_TIM16_IRQn);
 8001164:	2019      	movs	r0, #25
 8001166:	f002 ff55 	bl	8004014 <HAL_NVIC_EnableIRQ>
  HAL_NVIC_SetPriority(ADC1_2_IRQn, 1, 1);
 800116a:	2201      	movs	r2, #1
 800116c:	4611      	mov	r1, r2
 800116e:	2012      	movs	r0, #18
 8001170:	f002 ff12 	bl	8003f98 <HAL_NVIC_SetPriority>
  HAL_NVIC_EnableIRQ(ADC1_2_IRQn);
 8001174:	2012      	movs	r0, #18
 8001176:	f002 ff4d 	bl	8004014 <HAL_NVIC_EnableIRQ>
  HAL_NVIC_SetPriority(EXTI15_10_IRQn, 3, 0);
 800117a:	2028      	movs	r0, #40	; 0x28
 800117c:	4622      	mov	r2, r4
 800117e:	2103      	movs	r1, #3
 8001180:	f002 ff0a 	bl	8003f98 <HAL_NVIC_SetPriority>
  HAL_NVIC_EnableIRQ(EXTI15_10_IRQn);
 8001184:	2028      	movs	r0, #40	; 0x28
 8001186:	f002 ff45 	bl	8004014 <HAL_NVIC_EnableIRQ>
  while (1)
 800118a:	e7fe      	b.n	800118a <main+0x4da>
 800118c:	20000608 	.word	0x20000608
 8001190:	20000654 	.word	0x20000654
 8001194:	40000800 	.word	0x40000800
 8001198:	200006a0 	.word	0x200006a0
 800119c:	40004400 	.word	0x40004400

080011a0 <Error_Handler>:
 80011a0:	b672      	cpsid	i
  while (1)
 80011a2:	e7fe      	b.n	80011a2 <Error_Handler+0x2>

080011a4 <MC_StartMotor1>:
  *
  * @retval returns true if the command is successfully executed, false otherwise.
  */
__weak bool MC_StartMotor1(void)
{
	return MCI_StartMotor( pMCI[M1] );
 80011a4:	4b01      	ldr	r3, [pc, #4]	; (80011ac <MC_StartMotor1+0x8>)
 80011a6:	6818      	ldr	r0, [r3, #0]
 80011a8:	f000 b86e 	b.w	8001288 <MCI_StartMotor>
 80011ac:	200018f8 	.word	0x200018f8

080011b0 <MC_StopMotor1>:
  *
  * @retval returns true if the command is successfully executed, false otherwise.
  */
__weak bool MC_StopMotor1(void)
{
	return MCI_StopMotor( pMCI[M1] );
 80011b0:	4b01      	ldr	r3, [pc, #4]	; (80011b8 <MC_StopMotor1+0x8>)
 80011b2:	6818      	ldr	r0, [r3, #0]
 80011b4:	f000 b87e 	b.w	80012b4 <MCI_StopMotor>
 80011b8:	200018f8 	.word	0x200018f8

080011bc <MC_GetSTMStateMotor1>:
/**
 * @brief returns the current state of Motor 1 state machine
 */
__weak MCI_State_t  MC_GetSTMStateMotor1(void)
{
	return MCI_GetSTMState( pMCI[M1] );
 80011bc:	4b01      	ldr	r3, [pc, #4]	; (80011c4 <MC_GetSTMStateMotor1+0x8>)
 80011be:	6818      	ldr	r0, [r3, #0]
 80011c0:	f000 b85c 	b.w	800127c <MCI_GetSTMState>
 80011c4:	200018f8 	.word	0x200018f8

080011c8 <MC_APP_BootHook>:
   */

/* USER CODE BEGIN BootHook */

/* USER CODE END BootHook */
}
 80011c8:	4770      	bx	lr
 80011ca:	bf00      	nop

080011cc <MC_APP_PostMediumFrequencyHook_M1>:
 80011cc:	4770      	bx	lr
 80011ce:	bf00      	nop

080011d0 <MCI_Init>:
    pHandle->pSTC = pSTC;
    pHandle->pSixStepVars = pSixStepVars;
    pHandle->pPWM = pPWMHandle;

    /* Buffer related initialization */
    pHandle->lastCommand = MCI_NOCOMMANDSYET;
 80011d0:	f04f 0c00 	mov.w	ip, #0
    pHandle->pSixStepVars = pSixStepVars;
 80011d4:	e9c0 1200 	strd	r1, r2, [r0]
    pHandle->pPWM = pPWMHandle;
 80011d8:	6083      	str	r3, [r0, #8]
    pHandle->lastCommand = MCI_NOCOMMANDSYET;
 80011da:	f880 c00c 	strb.w	ip, [r0, #12]
    pHandle->hFinalSpeed = 0;
 80011de:	f8c0 c00e 	str.w	ip, [r0, #14]
    pHandle->hFinalTorque = 0;
    pHandle->hDurationms = 0;
 80011e2:	f8a0 c012 	strh.w	ip, [r0, #18]
    pHandle->CommandState = MCI_BUFFER_EMPTY;
 80011e6:	f880 c01a 	strb.w	ip, [r0, #26]
    pHandle->DirectCommand = MCI_NO_COMMAND;
 80011ea:	f8a0 c014 	strh.w	ip, [r0, #20]
    pHandle->State = IDLE;
    pHandle->CurrentFaults = MC_NO_FAULTS;
 80011ee:	f8c0 c016 	str.w	ip, [r0, #22]
    pHandle->PastFaults = MC_NO_FAULTS;
#ifdef NULL_PTR_MC_INT
  }
#endif
}
 80011f2:	4770      	bx	lr

080011f4 <MCI_ExecSpeedRamp>:
  }
  else
  {
#endif

    if ((hFinalSpeed * pHandle->hFinalSpeed) >= 0)
 80011f4:	89c3      	ldrh	r3, [r0, #14]
 80011f6:	fb13 f301 	smulbb	r3, r3, r1
 80011fa:	2b00      	cmp	r3, #0
 80011fc:	db09      	blt.n	8001212 <MCI_ExecSpeedRamp+0x1e>
    {
      pHandle->lastCommand = MCI_CMD_EXECSPEEDRAMP;
 80011fe:	f04f 0c01 	mov.w	ip, #1
      pHandle->hFinalSpeed = hFinalSpeed;
      pHandle->hDurationms = hDurationms;
      pHandle->CommandState = MCI_COMMAND_NOT_ALREADY_EXECUTED;
 8001202:	f240 3301 	movw	r3, #769	; 0x301
      pHandle->lastCommand = MCI_CMD_EXECSPEEDRAMP;
 8001206:	f880 c00c 	strb.w	ip, [r0, #12]
      pHandle->hFinalSpeed = hFinalSpeed;
 800120a:	81c1      	strh	r1, [r0, #14]
      pHandle->hDurationms = hDurationms;
 800120c:	8242      	strh	r2, [r0, #18]
      pHandle->CommandState = MCI_COMMAND_NOT_ALREADY_EXECUTED;
 800120e:	8343      	strh	r3, [r0, #26]
 8001210:	4770      	bx	lr
      pHandle->LastModalitySetByUser = MCM_SPEED_MODE;
    }
    else
    {
      pHandle->DirectCommand = MCI_STOP;
 8001212:	f04f 0c05 	mov.w	ip, #5
      pHandle->hFinalSpeed = hFinalSpeed;
      pHandle->hDurationms = hDurationms;
      pHandle->CommandState = MCI_COMMAND_NOT_ALREADY_EXECUTED;
 8001216:	f240 3301 	movw	r3, #769	; 0x301
      pHandle->DirectCommand = MCI_STOP;
 800121a:	f880 c014 	strb.w	ip, [r0, #20]
      pHandle->hFinalSpeed = hFinalSpeed;
 800121e:	81c1      	strh	r1, [r0, #14]
      pHandle->hDurationms = hDurationms;
 8001220:	8242      	strh	r2, [r0, #18]
      pHandle->CommandState = MCI_COMMAND_NOT_ALREADY_EXECUTED;
 8001222:	8343      	strh	r3, [r0, #26]
      pHandle->LastModalitySetByUser = MCM_SPEED_MODE;
    }
#ifdef NULL_PTR_MC_INT
  }
#endif
}
 8001224:	4770      	bx	lr
 8001226:	bf00      	nop

08001228 <MCI_FaultProcessing>:
 * @retval State_t New state machine state after fault processing
 */
__weak void MCI_FaultProcessing(MCI_Handle_t *pHandle, uint16_t hSetErrors, uint16_t hResetErrors)
{
  /* Set current errors */
  pHandle->CurrentFaults = (pHandle->CurrentFaults | hSetErrors ) & (~hResetErrors);
 8001228:	8ac3      	ldrh	r3, [r0, #22]
  pHandle->PastFaults |= hSetErrors;
 800122a:	f8b0 c018 	ldrh.w	ip, [r0, #24]
  pHandle->CurrentFaults = (pHandle->CurrentFaults | hSetErrors ) & (~hResetErrors);
 800122e:	430b      	orrs	r3, r1
 8001230:	ea23 0302 	bic.w	r3, r3, r2
  pHandle->PastFaults |= hSetErrors;
 8001234:	ea41 010c 	orr.w	r1, r1, ip
  pHandle->CurrentFaults = (pHandle->CurrentFaults | hSetErrors ) & (~hResetErrors);
 8001238:	82c3      	strh	r3, [r0, #22]
  pHandle->PastFaults |= hSetErrors;
 800123a:	8301      	strh	r1, [r0, #24]

  return;
}
 800123c:	4770      	bx	lr
 800123e:	bf00      	nop

08001240 <MCI_ExecBufferedCommands>:
    /* Nothing to do */
  }
  else
  {
#endif
    if ( pHandle->CommandState == MCI_COMMAND_NOT_ALREADY_EXECUTED )
 8001240:	7e83      	ldrb	r3, [r0, #26]
 8001242:	2b01      	cmp	r3, #1
 8001244:	d000      	beq.n	8001248 <MCI_ExecBufferedCommands+0x8>
 8001246:	4770      	bx	lr
{
 8001248:	b510      	push	{r4, lr}
    {
      bool commandHasBeenExecuted = false;
      switch (pHandle->lastCommand)
 800124a:	7b03      	ldrb	r3, [r0, #12]
 800124c:	2b01      	cmp	r3, #1
 800124e:	4604      	mov	r4, r0
 8001250:	d002      	beq.n	8001258 <MCI_ExecBufferedCommands+0x18>
      {
        pHandle->CommandState = MCI_COMMAND_EXECUTED_SUCCESFULLY;
      }
      else
      {
        pHandle->CommandState = MCI_COMMAND_EXECUTED_UNSUCCESFULLY;
 8001252:	2303      	movs	r3, #3
 8001254:	76a3      	strb	r3, [r4, #26]
      }
    }
#ifdef NULL_PTR_MC_INT
  }
#endif
}
 8001256:	bd10      	pop	{r4, pc}
          pHandle->pSixStepVars->bDriveInput = INTERNAL;
 8001258:	6843      	ldr	r3, [r0, #4]
 800125a:	2200      	movs	r2, #0
 800125c:	711a      	strb	r2, [r3, #4]
          STC_SetControlMode(pHandle->pSTC, MCM_SPEED_MODE);
 800125e:	6800      	ldr	r0, [r0, #0]
 8001260:	2103      	movs	r1, #3
 8001262:	f006 fb5b 	bl	800791c <STC_SetControlMode>
          commandHasBeenExecuted = STC_ExecRamp(pHandle->pSTC, pHandle->hFinalSpeed, pHandle->hDurationms);
 8001266:	8a62      	ldrh	r2, [r4, #18]
 8001268:	f9b4 100e 	ldrsh.w	r1, [r4, #14]
 800126c:	6820      	ldr	r0, [r4, #0]
 800126e:	f006 fb5b 	bl	8007928 <STC_ExecRamp>
      if (commandHasBeenExecuted)
 8001272:	2800      	cmp	r0, #0
 8001274:	d0ed      	beq.n	8001252 <MCI_ExecBufferedCommands+0x12>
        pHandle->CommandState = MCI_COMMAND_EXECUTED_SUCCESFULLY;
 8001276:	2302      	movs	r3, #2
 8001278:	76a3      	strb	r3, [r4, #26]
}
 800127a:	bd10      	pop	{r4, pc}

0800127c <MCI_GetSTMState>:
  * @retval State_t It returns the current state of the related pSTM object.
  */
__weak MCI_State_t  MCI_GetSTMState(MCI_Handle_t *pHandle)
{
  return (pHandle->State);
}
 800127c:	7d40      	ldrb	r0, [r0, #21]
 800127e:	4770      	bx	lr

08001280 <MCI_GetOccurredFaults>:
  * \n\link Fault_generation_error_codes Returned error codes are listed here \endlink
  */
__weak uint16_t MCI_GetOccurredFaults(MCI_Handle_t *pHandle)
{
  return ((uint16_t)pHandle->PastFaults);
}
 8001280:	8b00      	ldrh	r0, [r0, #24]
 8001282:	4770      	bx	lr

08001284 <MCI_GetCurrentFaults>:
  * \n\link Fault_generation_error_codes Returned error codes are listed here \endlink
  */
__weak uint16_t MCI_GetCurrentFaults(MCI_Handle_t *pHandle)
{
  return ((uint16_t)pHandle->CurrentFaults);
}
 8001284:	8ac0      	ldrh	r0, [r0, #22]
 8001286:	4770      	bx	lr

08001288 <MCI_StartMotor>:
{
 8001288:	b510      	push	{r4, lr}
 800128a:	4604      	mov	r4, r0
  if ((IDLE == MCI_GetSTMState(pHandle)) &&
 800128c:	f7ff fff6 	bl	800127c <MCI_GetSTMState>
 8001290:	b108      	cbz	r0, 8001296 <MCI_StartMotor+0xe>
    RetVal = false;
 8001292:	2000      	movs	r0, #0
}
 8001294:	bd10      	pop	{r4, pc}
      (MC_NO_FAULTS == MCI_GetOccurredFaults(pHandle)) &&
 8001296:	4620      	mov	r0, r4
 8001298:	f7ff fff2 	bl	8001280 <MCI_GetOccurredFaults>
  if ((IDLE == MCI_GetSTMState(pHandle)) &&
 800129c:	2800      	cmp	r0, #0
 800129e:	d1f8      	bne.n	8001292 <MCI_StartMotor+0xa>
      (MC_NO_FAULTS == MCI_GetCurrentFaults(pHandle)))
 80012a0:	4620      	mov	r0, r4
 80012a2:	f7ff ffef 	bl	8001284 <MCI_GetCurrentFaults>
      (MC_NO_FAULTS == MCI_GetOccurredFaults(pHandle)) &&
 80012a6:	2800      	cmp	r0, #0
 80012a8:	d1f3      	bne.n	8001292 <MCI_StartMotor+0xa>
    pHandle->DirectCommand = MCI_START;
 80012aa:	2001      	movs	r0, #1
 80012ac:	7520      	strb	r0, [r4, #20]
    pHandle->CommandState = MCI_COMMAND_NOT_ALREADY_EXECUTED;
 80012ae:	76a0      	strb	r0, [r4, #26]
}
 80012b0:	bd10      	pop	{r4, pc}
 80012b2:	bf00      	nop

080012b4 <MCI_StopMotor>:
{
 80012b4:	b538      	push	{r3, r4, r5, lr}
 80012b6:	4605      	mov	r5, r0
  State = MCI_GetSTMState(pHandle);
 80012b8:	f7ff ffe0 	bl	800127c <MCI_GetSTMState>
  if (IDLE == State  || ICLWAIT == State)
 80012bc:	b150      	cbz	r0, 80012d4 <MCI_StopMotor+0x20>
 80012be:	f1b0 040c 	subs.w	r4, r0, #12
  if ((MC_NO_FAULTS == MCI_GetOccurredFaults(pHandle)) &&
 80012c2:	4628      	mov	r0, r5
  if (IDLE == State  || ICLWAIT == State)
 80012c4:	bf18      	it	ne
 80012c6:	2401      	movne	r4, #1
  if ((MC_NO_FAULTS == MCI_GetOccurredFaults(pHandle)) &&
 80012c8:	f7ff ffda 	bl	8001280 <MCI_GetOccurredFaults>
 80012cc:	b140      	cbz	r0, 80012e0 <MCI_StopMotor+0x2c>
    RetVal = false;
 80012ce:	2400      	movs	r4, #0
}
 80012d0:	4620      	mov	r0, r4
 80012d2:	bd38      	pop	{r3, r4, r5, pc}
    status = false;
 80012d4:	4604      	mov	r4, r0
  if ((MC_NO_FAULTS == MCI_GetOccurredFaults(pHandle)) &&
 80012d6:	4628      	mov	r0, r5
 80012d8:	f7ff ffd2 	bl	8001280 <MCI_GetOccurredFaults>
 80012dc:	2800      	cmp	r0, #0
 80012de:	d1f6      	bne.n	80012ce <MCI_StopMotor+0x1a>
      (MC_NO_FAULTS == MCI_GetCurrentFaults(pHandle)) &&
 80012e0:	4628      	mov	r0, r5
 80012e2:	f7ff ffcf 	bl	8001284 <MCI_GetCurrentFaults>
  if ((MC_NO_FAULTS == MCI_GetOccurredFaults(pHandle)) &&
 80012e6:	2800      	cmp	r0, #0
 80012e8:	d1f1      	bne.n	80012ce <MCI_StopMotor+0x1a>
      (MC_NO_FAULTS == MCI_GetCurrentFaults(pHandle)) &&
 80012ea:	2c00      	cmp	r4, #0
 80012ec:	d0ef      	beq.n	80012ce <MCI_StopMotor+0x1a>
    pHandle->DirectCommand = MCI_STOP;
 80012ee:	2305      	movs	r3, #5
 80012f0:	752b      	strb	r3, [r5, #20]
    RetVal = true;
 80012f2:	e7ed      	b.n	80012d0 <MCI_StopMotor+0x1c>

080012f4 <MCI_FaultAcknowledged>:
{
 80012f4:	b510      	push	{r4, lr}
 80012f6:	4604      	mov	r4, r0
  if ((FAULT_OVER == MCI_GetSTMState(pHandle)) && (MC_NO_FAULTS == MCI_GetCurrentFaults(pHandle)))
 80012f8:	f7ff ffc0 	bl	800127c <MCI_GetSTMState>
 80012fc:	280b      	cmp	r0, #11
 80012fe:	d001      	beq.n	8001304 <MCI_FaultAcknowledged+0x10>
    RetVal = false;
 8001300:	2000      	movs	r0, #0
}
 8001302:	bd10      	pop	{r4, pc}
  if ((FAULT_OVER == MCI_GetSTMState(pHandle)) && (MC_NO_FAULTS == MCI_GetCurrentFaults(pHandle)))
 8001304:	4620      	mov	r0, r4
 8001306:	f7ff ffbd 	bl	8001284 <MCI_GetCurrentFaults>
 800130a:	2800      	cmp	r0, #0
 800130c:	d1f8      	bne.n	8001300 <MCI_FaultAcknowledged+0xc>
    pHandle->DirectCommand = MCI_ACK_FAULTS;
 800130e:	2302      	movs	r3, #2
 8001310:	7523      	strb	r3, [r4, #20]
    pHandle->PastFaults = MC_NO_FAULTS;
 8001312:	8320      	strh	r0, [r4, #24]
    RetVal = true;
 8001314:	2001      	movs	r0, #1
}
 8001316:	bd10      	pop	{r4, pc}

08001318 <MCI_GetFaultState>:
  */
__weak uint32_t MCI_GetFaultState(MCI_Handle_t *pHandle)
{
  uint32_t LocalFaultState;

  LocalFaultState = (uint32_t)(pHandle->PastFaults);
 8001318:	8b03      	ldrh	r3, [r0, #24]
  LocalFaultState |= (uint32_t)(pHandle->CurrentFaults) << 16;
 800131a:	8ac0      	ldrh	r0, [r0, #22]

  return (LocalFaultState);
}
 800131c:	ea43 4000 	orr.w	r0, r3, r0, lsl #16
 8001320:	4770      	bx	lr
 8001322:	bf00      	nop

08001324 <MCI_GetControlMode>:
#ifdef NULL_PTR_MC_INT
  return ((MC_NULL == pHandle) ? MCM_TORQUE_MODE : pHandle->LastModalitySetByUser);
#else
  return (pHandle->LastModalitySetByUser);
#endif
}
 8001324:	7ec0      	ldrb	r0, [r0, #27]
 8001326:	4770      	bx	lr

08001328 <MCI_GetImposedMotorDirection>:
    /* Nothing to do */
  }
  else
  {
#endif
    switch (pHandle->lastCommand)
 8001328:	7b03      	ldrb	r3, [r0, #12]
 800132a:	2b01      	cmp	r3, #1
 800132c:	d001      	beq.n	8001332 <MCI_GetImposedMotorDirection+0xa>
  int16_t retVal = 1;
 800132e:	2001      	movs	r0, #1
    }
#ifdef NULL_PTR_MC_INT
  }
#endif
  return (retVal);
}
 8001330:	4770      	bx	lr
        if (pHandle->hFinalSpeed < 0)
 8001332:	f9b0 300e 	ldrsh.w	r3, [r0, #14]
          retVal = -1;
 8001336:	2b00      	cmp	r3, #0
 8001338:	bfac      	ite	ge
 800133a:	2001      	movge	r0, #1
 800133c:	f04f 30ff 	movlt.w	r0, #4294967295
 8001340:	4770      	bx	lr
 8001342:	bf00      	nop

08001344 <MCI_GetLastRampFinalSpeed>:
  }
  return (retVal);
#else
  return (pHandle->hFinalSpeed);
#endif
}
 8001344:	f9b0 000e 	ldrsh.w	r0, [r0, #14]
 8001348:	4770      	bx	lr
 800134a:	bf00      	nop

0800134c <MCI_GetLastRampFinalDuration>:
  }
  return (retVal);
#else
  return (pHandle->hDurationms);
#endif
}
 800134c:	8a40      	ldrh	r0, [r0, #18]
 800134e:	4770      	bx	lr

08001350 <MCI_StopRamp>:
    /* Nothing to do */
  }
  else
  {
#endif
    STC_StopRamp(pHandle->pSTC);
 8001350:	6800      	ldr	r0, [r0, #0]
 8001352:	f006 bb33 	b.w	80079bc <STC_StopRamp>
 8001356:	bf00      	nop

08001358 <MCI_GetAvrgMecSpeedUnit>:
  *         the unit defined by #SPEED_UNIT and related to the sensor actually
  *         used by FOC algorithm
  * @param  pHandle Pointer on the component instance to work on.
  */
__weak int16_t MCI_GetAvrgMecSpeedUnit(MCI_Handle_t *pHandle)
{
 8001358:	b508      	push	{r3, lr}
    temp_speed = 0;
  }
  else
  {
#endif
    SpeednPosFdbk_Handle_t * SpeedSensor = STC_GetSpeedSensor(pHandle->pSTC);
 800135a:	6800      	ldr	r0, [r0, #0]
 800135c:	f006 fab8 	bl	80078d0 <STC_GetSpeedSensor>
    temp_speed = SPD_GetAvrgMecSpeedUnit(SpeedSensor);
#ifdef NULL_PTR_MC_INT
  }
#endif
  return (temp_speed);
}
 8001360:	e8bd 4008 	ldmia.w	sp!, {r3, lr}
    temp_speed = SPD_GetAvrgMecSpeedUnit(SpeedSensor);
 8001364:	f006 bb7a 	b.w	8007a5c <SPD_GetAvrgMecSpeedUnit>

08001368 <MCI_GetMecSpeedRefUnit>:
__weak int16_t MCI_GetMecSpeedRefUnit(MCI_Handle_t *pHandle)
{
#ifdef NULL_PTR_MC_INT
  return ((MC_NULL == pHandle) ? 0 : STC_GetMecSpeedRefUnit(pHandle->pSTC));
#else
  return (STC_GetMecSpeedRefUnit(pHandle->pSTC));
 8001368:	6800      	ldr	r0, [r0, #0]
 800136a:	f006 bac9 	b.w	8007900 <STC_GetMecSpeedRefUnit>
 800136e:	bf00      	nop

08001370 <MCI_GetDutyCycleRef>:
  * @param  pHandle Pointer on the component instance to work on.
  * @retval uint16_t Teref
  */
__weak uint16_t MCI_GetDutyCycleRef( MCI_Handle_t * pHandle )
{
  return ( pHandle->pSixStepVars->DutyCycleRef );
 8001370:	6843      	ldr	r3, [r0, #4]
}
 8001372:	8818      	ldrh	r0, [r3, #0]
 8001374:	4770      	bx	lr
 8001376:	bf00      	nop

08001378 <SixStep_Clear>:
  *         It does not clear speed sensor.
  * @param  bMotor related motor it can be M1 or M2
  * @retval none
  */
__weak void SixStep_Clear(uint8_t bMotor)
{
 8001378:	b570      	push	{r4, r5, r6, lr}
  /* USER CODE BEGIN SixStep_Clear 0 */

  /* USER CODE END SixStep_Clear 0 */

  STC_Clear(pSTC[bMotor]);
 800137a:	4e0f      	ldr	r6, [pc, #60]	; (80013b8 <SixStep_Clear+0x40>)
  SixStepVars[bMotor].DutyCycleRef = STC_GetDutyCycleRef(pSTC[bMotor]);
  BADC_SpeedMeasureOff(&Bemf_ADC_M1);
 800137c:	4d0f      	ldr	r5, [pc, #60]	; (80013bc <SixStep_Clear+0x44>)
{
 800137e:	4604      	mov	r4, r0
  STC_Clear(pSTC[bMotor]);
 8001380:	f856 0020 	ldr.w	r0, [r6, r0, lsl #2]
 8001384:	f006 faa8 	bl	80078d8 <STC_Clear>
  SixStepVars[bMotor].DutyCycleRef = STC_GetDutyCycleRef(pSTC[bMotor]);
 8001388:	f856 0024 	ldr.w	r0, [r6, r4, lsl #2]
 800138c:	f006 fac2 	bl	8007914 <STC_GetDutyCycleRef>
 8001390:	4b0b      	ldr	r3, [pc, #44]	; (80013c0 <SixStep_Clear+0x48>)
 8001392:	4602      	mov	r2, r0
 8001394:	f823 2034 	strh.w	r2, [r3, r4, lsl #3]
  BADC_SpeedMeasureOff(&Bemf_ADC_M1);
 8001398:	4628      	mov	r0, r5
 800139a:	f004 fea3 	bl	80060e4 <BADC_SpeedMeasureOff>
  BADC_Stop( &Bemf_ADC_M1 );
 800139e:	4628      	mov	r0, r5
 80013a0:	f004 fef8 	bl	8006194 <BADC_Stop>
  BADC_Clear( &Bemf_ADC_M1 );
 80013a4:	4628      	mov	r0, r5
 80013a6:	f004 fe57 	bl	8006058 <BADC_Clear>
  PWMC_SwitchOffPWM(pwmcHandle[bMotor]);
 80013aa:	4b06      	ldr	r3, [pc, #24]	; (80013c4 <SixStep_Clear+0x4c>)
 80013ac:	f853 0024 	ldr.w	r0, [r3, r4, lsl #2]

  /* USER CODE BEGIN SixStep_Clear 1 */

  /* USER CODE END SixStep_Clear 1 */
}
 80013b0:	e8bd 4070 	ldmia.w	sp!, {r4, r5, r6, lr}
  PWMC_SwitchOffPWM(pwmcHandle[bMotor]);
 80013b4:	f005 bd30 	b.w	8006e18 <PWMC_SwitchOffPWM>
 80013b8:	20000368 	.word	0x20000368
 80013bc:	20000000 	.word	0x20000000
 80013c0:	20000758 	.word	0x20000758
 80013c4:	20000768 	.word	0x20000768

080013c8 <MCboot>:
  if (MC_NULL == pMCIList)
 80013c8:	2800      	cmp	r0, #0
 80013ca:	d046      	beq.n	800145a <MCboot+0x92>
{
 80013cc:	e92d 43f8 	stmdb	sp!, {r3, r4, r5, r6, r7, r8, r9, lr}
    pwmcHandle[M1] = &PWM_Handle_M1._Super;
 80013d0:	4e22      	ldr	r6, [pc, #136]	; (800145c <MCboot+0x94>)
    bMCBootCompleted = (uint8_t )0;
 80013d2:	f8df 80b8 	ldr.w	r8, [pc, #184]	; 800148c <MCboot+0xc4>
    STC_Init(pSTC[M1],&PIDSpeedHandle_M1, &Bemf_ADC_M1._Super);
 80013d6:	4d22      	ldr	r5, [pc, #136]	; (8001460 <MCboot+0x98>)
 80013d8:	4604      	mov	r4, r0
    pwmcHandle[M1] = &PWM_Handle_M1._Super;
 80013da:	4822      	ldr	r0, [pc, #136]	; (8001464 <MCboot+0x9c>)
 80013dc:	6030      	str	r0, [r6, #0]
    bMCBootCompleted = (uint8_t )0;
 80013de:	2700      	movs	r7, #0
 80013e0:	f888 7000 	strb.w	r7, [r8]
    SixPwm_Init(&PWM_Handle_M1);
 80013e4:	f005 fd6a 	bl	8006ebc <SixPwm_Init>
    ASPEP_start(&aspepOverUartA);
 80013e8:	481f      	ldr	r0, [pc, #124]	; (8001468 <MCboot+0xa0>)
 80013ea:	f7ff f8c1 	bl	8000570 <ASPEP_start>
    PID_HandleInit(&PIDSpeedHandle_M1);
 80013ee:	481f      	ldr	r0, [pc, #124]	; (800146c <MCboot+0xa4>)
 80013f0:	f005 fc84 	bl	8006cfc <PID_HandleInit>
    BADC_Init (&Bemf_ADC_M1);
 80013f4:	481e      	ldr	r0, [pc, #120]	; (8001470 <MCboot+0xa8>)
 80013f6:	f004 fd2d 	bl	8005e54 <BADC_Init>
    STC_Init(pSTC[M1],&PIDSpeedHandle_M1, &Bemf_ADC_M1._Super);
 80013fa:	4a1d      	ldr	r2, [pc, #116]	; (8001470 <MCboot+0xa8>)
 80013fc:	491b      	ldr	r1, [pc, #108]	; (800146c <MCboot+0xa4>)
 80013fe:	6828      	ldr	r0, [r5, #0]
 8001400:	f006 fa4c 	bl	800789c <STC_Init>
    VSS_Init(&VirtualSpeedSensorM1);
 8001404:	481b      	ldr	r0, [pc, #108]	; (8001474 <MCboot+0xac>)
 8001406:	f006 fb71 	bl	8007aec <VSS_Init>
    RUC_Init(&RevUpControlM1,pSTC[M1],&VirtualSpeedSensorM1);
 800140a:	4a1a      	ldr	r2, [pc, #104]	; (8001474 <MCboot+0xac>)
 800140c:	6829      	ldr	r1, [r5, #0]
 800140e:	481a      	ldr	r0, [pc, #104]	; (8001478 <MCboot+0xb0>)
 8001410:	f006 f940 	bl	8007694 <RUC_Init>
    RVBS_Init(&BusVoltageSensor_M1);
 8001414:	4819      	ldr	r0, [pc, #100]	; (800147c <MCboot+0xb4>)
 8001416:	f006 f8d7 	bl	80075c8 <RVBS_Init>
    NTC_Init(&TempSensor_M1);
 800141a:	4819      	ldr	r0, [pc, #100]	; (8001480 <MCboot+0xb8>)
 800141c:	f005 fc2e 	bl	8006c7c <NTC_Init>
    SixStep_Clear(M1);
 8001420:	4638      	mov	r0, r7
 8001422:	f7ff ffa9 	bl	8001378 <SixStep_Clear>
    MCI_Init(&Mci[M1], pSTC[M1], &SixStepVars[M1], pwmcHandle[M1] );
 8001426:	6833      	ldr	r3, [r6, #0]
    SixStepVars[M1].bDriveInput = EXTERNAL;
 8001428:	4a16      	ldr	r2, [pc, #88]	; (8001484 <MCboot+0xbc>)
    MCI_Init(&Mci[M1], pSTC[M1], &SixStepVars[M1], pwmcHandle[M1] );
 800142a:	4e17      	ldr	r6, [pc, #92]	; (8001488 <MCboot+0xc0>)
 800142c:	6829      	ldr	r1, [r5, #0]
    SixStepVars[M1].bDriveInput = EXTERNAL;
 800142e:	f04f 0901 	mov.w	r9, #1
 8001432:	f882 9004 	strb.w	r9, [r2, #4]
    MCI_Init(&Mci[M1], pSTC[M1], &SixStepVars[M1], pwmcHandle[M1] );
 8001436:	4630      	mov	r0, r6
 8001438:	f7ff feca 	bl	80011d0 <MCI_Init>
    MCI_ExecSpeedRamp(&Mci[M1],
 800143c:	6828      	ldr	r0, [r5, #0]
 800143e:	f006 fafb 	bl	8007a38 <STC_GetMecSpeedRefUnitDefault>
 8001442:	463a      	mov	r2, r7
 8001444:	4601      	mov	r1, r0
 8001446:	4630      	mov	r0, r6
 8001448:	f7ff fed4 	bl	80011f4 <MCI_ExecSpeedRamp>
    pMCIList[M1] = &Mci[M1];
 800144c:	6026      	str	r6, [r4, #0]
    MC_APP_BootHook();
 800144e:	f7ff febb 	bl	80011c8 <MC_APP_BootHook>
    bMCBootCompleted = 1U;
 8001452:	f888 9000 	strb.w	r9, [r8]
}
 8001456:	e8bd 83f8 	ldmia.w	sp!, {r3, r4, r5, r6, r7, r8, r9, pc}
 800145a:	4770      	bx	lr
 800145c:	20000768 	.word	0x20000768
 8001460:	20000368 	.word	0x20000368
 8001464:	20000234 	.word	0x20000234
 8001468:	200003d0 	.word	0x200003d0
 800146c:	20000208 	.word	0x20000208
 8001470:	20000000 	.word	0x20000000
 8001474:	20000330 	.word	0x20000330
 8001478:	20000280 	.word	0x20000280
 800147c:	200001dc 	.word	0x200001dc
 8001480:	20000308 	.word	0x20000308
 8001484:	20000758 	.word	0x20000758
 8001488:	20000730 	.word	0x20000730
 800148c:	20000760 	.word	0x20000760

08001490 <SixStep_InitAdditionalMethods>:
__weak void SixStep_InitAdditionalMethods(uint8_t bMotor)
{
  /* USER CODE BEGIN FOC_InitAdditionalMethods 0 */

  /* USER CODE END FOC_InitAdditionalMethods 0 */
}
 8001490:	4770      	bx	lr
 8001492:	bf00      	nop

08001494 <SixStep_CalcSpeedRef>:
  *         in oTSC parameters
  * @param  bMotor related motor it can be M1 or M2
  * @retval none
  */
__weak void SixStep_CalcSpeedRef(uint8_t bMotor)
{
 8001494:	b538      	push	{r3, r4, r5, lr}

  /* USER CODE BEGIN FOC_CalcCurrRef 0 */

  /* USER CODE END FOC_CalcCurrRef 0 */
  if(SixStepVars[bMotor].bDriveInput == INTERNAL)
 8001496:	4d07      	ldr	r5, [pc, #28]	; (80014b4 <SixStep_CalcSpeedRef+0x20>)
 8001498:	eb05 03c0 	add.w	r3, r5, r0, lsl #3
 800149c:	791b      	ldrb	r3, [r3, #4]
 800149e:	b103      	cbz	r3, 80014a2 <SixStep_CalcSpeedRef+0xe>
    /* Nothing to do */
  }
  /* USER CODE BEGIN FOC_CalcCurrRef 1 */

  /* USER CODE END FOC_CalcCurrRef 1 */
}
 80014a0:	bd38      	pop	{r3, r4, r5, pc}
    SixStepVars[bMotor].DutyCycleRef = STC_CalcSpeedReference(pSTC[bMotor]);
 80014a2:	4b05      	ldr	r3, [pc, #20]	; (80014b8 <SixStep_CalcSpeedRef+0x24>)
 80014a4:	4604      	mov	r4, r0
 80014a6:	f853 0020 	ldr.w	r0, [r3, r0, lsl #2]
 80014aa:	f006 fa8d 	bl	80079c8 <STC_CalcSpeedReference>
 80014ae:	f825 0034 	strh.w	r0, [r5, r4, lsl #3]
}
 80014b2:	bd38      	pop	{r3, r4, r5, pc}
 80014b4:	20000758 	.word	0x20000758
 80014b8:	20000368 	.word	0x20000368

080014bc <TSK_SetChargeBootCapDelayM1>:
  * @param  hTickCount number of ticks to be counted
  * @retval void
  */
__weak void TSK_SetChargeBootCapDelayM1(uint16_t hTickCount)
{
   hBootCapDelayCounterM1 = hTickCount;
 80014bc:	4b01      	ldr	r3, [pc, #4]	; (80014c4 <TSK_SetChargeBootCapDelayM1+0x8>)
 80014be:	8018      	strh	r0, [r3, #0]
}
 80014c0:	4770      	bx	lr
 80014c2:	bf00      	nop
 80014c4:	20000762 	.word	0x20000762

080014c8 <TSK_ChargeBootCapDelayHasElapsedM1>:
  * @retval bool true if time has elapsed, false otherwise
  */
__weak bool TSK_ChargeBootCapDelayHasElapsedM1(void)
{
  bool retVal = false;
  if (((uint16_t)0) == hBootCapDelayCounterM1)
 80014c8:	4b03      	ldr	r3, [pc, #12]	; (80014d8 <TSK_ChargeBootCapDelayHasElapsedM1+0x10>)
 80014ca:	8818      	ldrh	r0, [r3, #0]
 80014cc:	b280      	uxth	r0, r0
  {
    retVal = true;
  }
  return (retVal);
}
 80014ce:	fab0 f080 	clz	r0, r0
 80014d2:	0940      	lsrs	r0, r0, #5
 80014d4:	4770      	bx	lr
 80014d6:	bf00      	nop
 80014d8:	20000762 	.word	0x20000762

080014dc <TSK_SetStopPermanencyTimeM1>:
  * @param  hTickCount number of ticks to be counted
  * @retval void
  */
__weak void TSK_SetStopPermanencyTimeM1(uint16_t hTickCount)
{
  hStopPermanencyCounterM1 = hTickCount;
 80014dc:	4b01      	ldr	r3, [pc, #4]	; (80014e4 <TSK_SetStopPermanencyTimeM1+0x8>)
 80014de:	8018      	strh	r0, [r3, #0]
}
 80014e0:	4770      	bx	lr
 80014e2:	bf00      	nop
 80014e4:	20000766 	.word	0x20000766

080014e8 <TSK_StopPermanencyTimeHasElapsedM1>:
  * @retval bool true if time is elapsed, false otherwise
  */
__weak bool TSK_StopPermanencyTimeHasElapsedM1(void)
{
  bool retVal = false;
  if (((uint16_t)0) == hStopPermanencyCounterM1)
 80014e8:	4b03      	ldr	r3, [pc, #12]	; (80014f8 <TSK_StopPermanencyTimeHasElapsedM1+0x10>)
 80014ea:	8818      	ldrh	r0, [r3, #0]
 80014ec:	b280      	uxth	r0, r0
  {
    retVal = true;
  }
  return (retVal);
}
 80014ee:	fab0 f080 	clz	r0, r0
 80014f2:	0940      	lsrs	r0, r0, #5
 80014f4:	4770      	bx	lr
 80014f6:	bf00      	nop
 80014f8:	20000766 	.word	0x20000766

080014fc <TSK_MediumFrequencyTaskM1>:
{
 80014fc:	b570      	push	{r4, r5, r6, lr}
  if (MCI_GetCurrentFaults(&Mci[M1]) == MC_NO_FAULTS)
 80014fe:	4ca5      	ldr	r4, [pc, #660]	; (8001794 <TSK_MediumFrequencyTaskM1+0x298>)
  (void)BADC_CalcAvrgMecSpeedUnit(&Bemf_ADC_M1, &wAux);
 8001500:	48a5      	ldr	r0, [pc, #660]	; (8001798 <TSK_MediumFrequencyTaskM1+0x29c>)
{
 8001502:	b082      	sub	sp, #8
  int16_t wAux = 0;
 8001504:	2300      	movs	r3, #0
  (void)BADC_CalcAvrgMecSpeedUnit(&Bemf_ADC_M1, &wAux);
 8001506:	a901      	add	r1, sp, #4
  int16_t wAux = 0;
 8001508:	f8ad 3004 	strh.w	r3, [sp, #4]
  (void)BADC_CalcAvrgMecSpeedUnit(&Bemf_ADC_M1, &wAux);
 800150c:	f005 f83e 	bl	800658c <BADC_CalcAvrgMecSpeedUnit>
  if (MCI_GetCurrentFaults(&Mci[M1]) == MC_NO_FAULTS)
 8001510:	4620      	mov	r0, r4
 8001512:	f7ff feb7 	bl	8001284 <MCI_GetCurrentFaults>
 8001516:	b118      	cbz	r0, 8001520 <TSK_MediumFrequencyTaskM1+0x24>
    Mci[M1].State = FAULT_NOW;
 8001518:	230a      	movs	r3, #10
 800151a:	7563      	strb	r3, [r4, #21]
}
 800151c:	b002      	add	sp, #8
 800151e:	bd70      	pop	{r4, r5, r6, pc}
    if (MCI_GetOccurredFaults(&Mci[M1]) == MC_NO_FAULTS)
 8001520:	4620      	mov	r0, r4
 8001522:	f7ff fead 	bl	8001280 <MCI_GetOccurredFaults>
 8001526:	bb68      	cbnz	r0, 8001584 <TSK_MediumFrequencyTaskM1+0x88>
      switch (Mci[M1].State)
 8001528:	7d63      	ldrb	r3, [r4, #21]
 800152a:	2b13      	cmp	r3, #19
 800152c:	d8f6      	bhi.n	800151c <TSK_MediumFrequencyTaskM1+0x20>
 800152e:	a201      	add	r2, pc, #4	; (adr r2, 8001534 <TSK_MediumFrequencyTaskM1+0x38>)
 8001530:	f852 f023 	ldr.w	pc, [r2, r3, lsl #2]
 8001534:	080016bd 	.word	0x080016bd
 8001538:	0800151d 	.word	0x0800151d
 800153c:	0800151d 	.word	0x0800151d
 8001540:	0800151d 	.word	0x0800151d
 8001544:	0800166b 	.word	0x0800166b
 8001548:	0800151d 	.word	0x0800151d
 800154c:	08001635 	.word	0x08001635
 8001550:	0800151d 	.word	0x0800151d
 8001554:	08001611 	.word	0x08001611
 8001558:	0800151d 	.word	0x0800151d
 800155c:	08001585 	.word	0x08001585
 8001560:	08001605 	.word	0x08001605
 8001564:	0800151d 	.word	0x0800151d
 8001568:	0800151d 	.word	0x0800151d
 800156c:	0800151d 	.word	0x0800151d
 8001570:	0800151d 	.word	0x0800151d
 8001574:	080015ad 	.word	0x080015ad
 8001578:	0800151d 	.word	0x0800151d
 800157c:	0800151d 	.word	0x0800151d
 8001580:	0800158d 	.word	0x0800158d
      Mci[M1].State = FAULT_OVER;
 8001584:	230b      	movs	r3, #11
 8001586:	7563      	strb	r3, [r4, #21]
}
 8001588:	b002      	add	sp, #8
 800158a:	bd70      	pop	{r4, r5, r6, pc}
          if (MCI_STOP == Mci[M1].DirectCommand)
 800158c:	7d23      	ldrb	r3, [r4, #20]
 800158e:	2b05      	cmp	r3, #5
 8001590:	f000 80b0 	beq.w	80016f4 <TSK_MediumFrequencyTaskM1+0x1f8>
            if(! RUC_Exec(&RevUpControlM1))
 8001594:	4881      	ldr	r0, [pc, #516]	; (800179c <TSK_MediumFrequencyTaskM1+0x2a0>)
 8001596:	f006 f8f3 	bl	8007780 <RUC_Exec>
 800159a:	4602      	mov	r2, r0
 800159c:	2800      	cmp	r0, #0
 800159e:	f040 80c9 	bne.w	8001734 <TSK_MediumFrequencyTaskM1+0x238>
              MCI_FaultProcessing(&Mci[M1], MC_START_UP, 0);
 80015a2:	487c      	ldr	r0, [pc, #496]	; (8001794 <TSK_MediumFrequencyTaskM1+0x298>)
 80015a4:	2110      	movs	r1, #16
 80015a6:	f7ff fe3f 	bl	8001228 <MCI_FaultProcessing>
 80015aa:	e7b7      	b.n	800151c <TSK_MediumFrequencyTaskM1+0x20>
          if (MCI_STOP == Mci[M1].DirectCommand)
 80015ac:	7d23      	ldrb	r3, [r4, #20]
 80015ae:	2b05      	cmp	r3, #5
 80015b0:	f000 80a0 	beq.w	80016f4 <TSK_MediumFrequencyTaskM1+0x1f8>
            if (TSK_ChargeBootCapDelayHasElapsedM1())
 80015b4:	f7ff ff88 	bl	80014c8 <TSK_ChargeBootCapDelayHasElapsedM1>
 80015b8:	2800      	cmp	r0, #0
 80015ba:	d0af      	beq.n	800151c <TSK_MediumFrequencyTaskM1+0x20>
              SixPwm_SwitchOffPWM(pwmcHandle[M1]);
 80015bc:	4d78      	ldr	r5, [pc, #480]	; (80017a0 <TSK_MediumFrequencyTaskM1+0x2a4>)
              STC_SetSpeedSensor( pSTC[M1], &VirtualSpeedSensorM1._Super );
 80015be:	4e79      	ldr	r6, [pc, #484]	; (80017a4 <TSK_MediumFrequencyTaskM1+0x2a8>)
              SixPwm_SwitchOffPWM(pwmcHandle[M1]);
 80015c0:	6828      	ldr	r0, [r5, #0]
 80015c2:	f005 ff9f 	bl	8007504 <SixPwm_SwitchOffPWM>
              SixStepVars[M1].bDriveInput = EXTERNAL;
 80015c6:	4b78      	ldr	r3, [pc, #480]	; (80017a8 <TSK_MediumFrequencyTaskM1+0x2ac>)
              STC_SetSpeedSensor( pSTC[M1], &VirtualSpeedSensorM1._Super );
 80015c8:	4978      	ldr	r1, [pc, #480]	; (80017ac <TSK_MediumFrequencyTaskM1+0x2b0>)
 80015ca:	6830      	ldr	r0, [r6, #0]
              SixStepVars[M1].bDriveInput = EXTERNAL;
 80015cc:	2201      	movs	r2, #1
 80015ce:	711a      	strb	r2, [r3, #4]
              STC_SetSpeedSensor( pSTC[M1], &VirtualSpeedSensorM1._Super );
 80015d0:	f006 f97a 	bl	80078c8 <STC_SetSpeedSensor>
              BADC_Clear(&Bemf_ADC_M1);
 80015d4:	4870      	ldr	r0, [pc, #448]	; (8001798 <TSK_MediumFrequencyTaskM1+0x29c>)
 80015d6:	f004 fd3f 	bl	8006058 <BADC_Clear>
              SixStep_Clear( M1 );
 80015da:	2000      	movs	r0, #0
 80015dc:	f7ff fecc 	bl	8001378 <SixStep_Clear>
              BADC_SetDirection(&Bemf_ADC_M1, MCI_GetImposedMotorDirection( &Mci[M1]));
 80015e0:	486c      	ldr	r0, [pc, #432]	; (8001794 <TSK_MediumFrequencyTaskM1+0x298>)
 80015e2:	f7ff fea1 	bl	8001328 <MCI_GetImposedMotorDirection>
 80015e6:	b2c1      	uxtb	r1, r0
 80015e8:	486b      	ldr	r0, [pc, #428]	; (8001798 <TSK_MediumFrequencyTaskM1+0x29c>)
 80015ea:	f005 f887 	bl	80066fc <BADC_SetDirection>
              BADC_SetSamplingPoint(&Bemf_ADC_M1, &PWM_Handle_M1._Super, pSTC[M1] );
 80015ee:	6832      	ldr	r2, [r6, #0]
 80015f0:	496f      	ldr	r1, [pc, #444]	; (80017b0 <TSK_MediumFrequencyTaskM1+0x2b4>)
 80015f2:	4869      	ldr	r0, [pc, #420]	; (8001798 <TSK_MediumFrequencyTaskM1+0x29c>)
 80015f4:	f004 fdf0 	bl	80061d8 <BADC_SetSamplingPoint>
                Mci[M1].State = START;
 80015f8:	2304      	movs	r3, #4
              PWMC_SwitchOnPWM(pwmcHandle[M1]);
 80015fa:	6828      	ldr	r0, [r5, #0]
                Mci[M1].State = START;
 80015fc:	7563      	strb	r3, [r4, #21]
              PWMC_SwitchOnPWM(pwmcHandle[M1]);
 80015fe:	f005 fc0d 	bl	8006e1c <PWMC_SwitchOnPWM>
 8001602:	e78b      	b.n	800151c <TSK_MediumFrequencyTaskM1+0x20>
          if (MCI_ACK_FAULTS == Mci[M1].DirectCommand)
 8001604:	7d23      	ldrb	r3, [r4, #20]
 8001606:	2b02      	cmp	r3, #2
 8001608:	d188      	bne.n	800151c <TSK_MediumFrequencyTaskM1+0x20>
            Mci[M1].DirectCommand = MCI_NO_COMMAND;
 800160a:	2300      	movs	r3, #0
 800160c:	82a3      	strh	r3, [r4, #20]
 800160e:	e785      	b.n	800151c <TSK_MediumFrequencyTaskM1+0x20>
          if (TSK_StopPermanencyTimeHasElapsedM1())
 8001610:	f7ff ff6a 	bl	80014e8 <TSK_StopPermanencyTimeHasElapsedM1>
 8001614:	2800      	cmp	r0, #0
 8001616:	d081      	beq.n	800151c <TSK_MediumFrequencyTaskM1+0x20>
            STC_SetSpeedSensor(pSTC[M1], &VirtualSpeedSensorM1._Super);  	/*  sensor-less */
 8001618:	4b62      	ldr	r3, [pc, #392]	; (80017a4 <TSK_MediumFrequencyTaskM1+0x2a8>)
 800161a:	4964      	ldr	r1, [pc, #400]	; (80017ac <TSK_MediumFrequencyTaskM1+0x2b0>)
 800161c:	6818      	ldr	r0, [r3, #0]
 800161e:	f006 f953 	bl	80078c8 <STC_SetSpeedSensor>
            VSS_Clear(&VirtualSpeedSensorM1); /* Reset measured speed in IDLE */
 8001622:	4862      	ldr	r0, [pc, #392]	; (80017ac <TSK_MediumFrequencyTaskM1+0x2b0>)
 8001624:	f006 fa54 	bl	8007ad0 <VSS_Clear>
            BADC_Clear(&Bemf_ADC_M1);
 8001628:	485b      	ldr	r0, [pc, #364]	; (8001798 <TSK_MediumFrequencyTaskM1+0x29c>)
 800162a:	f004 fd15 	bl	8006058 <BADC_Clear>
            Mci[M1].DirectCommand = MCI_NO_COMMAND;
 800162e:	2300      	movs	r3, #0
 8001630:	82a3      	strh	r3, [r4, #20]
 8001632:	e773      	b.n	800151c <TSK_MediumFrequencyTaskM1+0x20>
          if (MCI_STOP == Mci[M1].DirectCommand)
 8001634:	7d23      	ldrb	r3, [r4, #20]
 8001636:	2b05      	cmp	r3, #5
 8001638:	d05c      	beq.n	80016f4 <TSK_MediumFrequencyTaskM1+0x1f8>
            BADC_SetSamplingPoint(&Bemf_ADC_M1, &PWM_Handle_M1._Super, pSTC[M1] );
 800163a:	4c57      	ldr	r4, [pc, #348]	; (8001798 <TSK_MediumFrequencyTaskM1+0x29c>)
 800163c:	4d59      	ldr	r5, [pc, #356]	; (80017a4 <TSK_MediumFrequencyTaskM1+0x2a8>)
            MCI_ExecBufferedCommands(&Mci[M1]);
 800163e:	4855      	ldr	r0, [pc, #340]	; (8001794 <TSK_MediumFrequencyTaskM1+0x298>)
 8001640:	f7ff fdfe 	bl	8001240 <MCI_ExecBufferedCommands>
            SixStep_CalcSpeedRef( M1 );
 8001644:	2000      	movs	r0, #0
 8001646:	f7ff ff25 	bl	8001494 <SixStep_CalcSpeedRef>
            BADC_SetSamplingPoint(&Bemf_ADC_M1, &PWM_Handle_M1._Super, pSTC[M1] );
 800164a:	682a      	ldr	r2, [r5, #0]
 800164c:	4958      	ldr	r1, [pc, #352]	; (80017b0 <TSK_MediumFrequencyTaskM1+0x2b4>)
 800164e:	4620      	mov	r0, r4
 8001650:	f004 fdc2 	bl	80061d8 <BADC_SetSamplingPoint>
            (void) BADC_CalcRunDemagTime (&Bemf_ADC_M1, pSTC[M1] );
 8001654:	6829      	ldr	r1, [r5, #0]
 8001656:	4620      	mov	r0, r4
 8001658:	f005 f8a6 	bl	80067a8 <BADC_CalcRunDemagTime>
            PWMC_ForceFastDemagTime (pwmcHandle[M1], Bemf_ADC_M1.DemagCounterThreshold);
 800165c:	4b50      	ldr	r3, [pc, #320]	; (80017a0 <TSK_MediumFrequencyTaskM1+0x2a4>)
 800165e:	f8b4 11cc 	ldrh.w	r1, [r4, #460]	; 0x1cc
 8001662:	6818      	ldr	r0, [r3, #0]
 8001664:	f005 fbe2 	bl	8006e2c <PWMC_ForceFastDemagTime>
 8001668:	e758      	b.n	800151c <TSK_MediumFrequencyTaskM1+0x20>
          if (MCI_STOP == Mci[M1].DirectCommand)
 800166a:	7d23      	ldrb	r3, [r4, #20]
 800166c:	2b05      	cmp	r3, #5
 800166e:	d041      	beq.n	80016f4 <TSK_MediumFrequencyTaskM1+0x1f8>
            if(! RUC_Exec(&RevUpControlM1))
 8001670:	484a      	ldr	r0, [pc, #296]	; (800179c <TSK_MediumFrequencyTaskM1+0x2a0>)
 8001672:	f006 f885 	bl	8007780 <RUC_Exec>
 8001676:	4602      	mov	r2, r0
 8001678:	2800      	cmp	r0, #0
 800167a:	d149      	bne.n	8001710 <TSK_MediumFrequencyTaskM1+0x214>
              MCI_FaultProcessing(&Mci[M1], MC_START_UP, 0);
 800167c:	4845      	ldr	r0, [pc, #276]	; (8001794 <TSK_MediumFrequencyTaskM1+0x298>)
 800167e:	2110      	movs	r1, #16
 8001680:	f7ff fdd2 	bl	8001228 <MCI_FaultProcessing>
           (void) VSS_CalcAvrgMecSpeedUnit(&VirtualSpeedSensorM1, &hForcedMecSpeedUnit);
 8001684:	4849      	ldr	r0, [pc, #292]	; (80017ac <TSK_MediumFrequencyTaskM1+0x2b0>)
 8001686:	f10d 0106 	add.w	r1, sp, #6
 800168a:	f006 fa87 	bl	8007b9c <VSS_CalcAvrgMecSpeedUnit>
           if (true == RUC_FirstAccelerationStageReached(&RevUpControlM1))
 800168e:	4843      	ldr	r0, [pc, #268]	; (800179c <TSK_MediumFrequencyTaskM1+0x2a0>)
 8001690:	f006 f8c6 	bl	8007820 <RUC_FirstAccelerationStageReached>
 8001694:	2800      	cmp	r0, #0
 8001696:	f43f af41 	beq.w	800151c <TSK_MediumFrequencyTaskM1+0x20>
             BADC_SpeedMeasureOn(&Bemf_ADC_M1);
 800169a:	483f      	ldr	r0, [pc, #252]	; (8001798 <TSK_MediumFrequencyTaskM1+0x29c>)
 800169c:	f004 fd12 	bl	80060c4 <BADC_SpeedMeasureOn>
             ObserverConverged = BADC_IsObserverConverged( &Bemf_ADC_M1);
 80016a0:	483d      	ldr	r0, [pc, #244]	; (8001798 <TSK_MediumFrequencyTaskM1+0x29c>)
 80016a2:	f005 f82f 	bl	8006704 <BADC_IsObserverConverged>
 80016a6:	4605      	mov	r5, r0
              (void)VSS_SetStartTransition(&VirtualSpeedSensorM1, ObserverConverged);
 80016a8:	4629      	mov	r1, r5
 80016aa:	4840      	ldr	r0, [pc, #256]	; (80017ac <TSK_MediumFrequencyTaskM1+0x2b0>)
 80016ac:	f006 fb18 	bl	8007ce0 <VSS_SetStartTransition>
            if (ObserverConverged)
 80016b0:	2d00      	cmp	r5, #0
 80016b2:	f43f af33 	beq.w	800151c <TSK_MediumFrequencyTaskM1+0x20>
              Mci[M1].State = SWITCH_OVER;
 80016b6:	2313      	movs	r3, #19
 80016b8:	7563      	strb	r3, [r4, #21]
 80016ba:	e72f      	b.n	800151c <TSK_MediumFrequencyTaskM1+0x20>
          if ((MCI_START == Mci[M1].DirectCommand) || (MCI_MEASURE_OFFSETS == Mci[M1].DirectCommand))
 80016bc:	7d23      	ldrb	r3, [r4, #20]
 80016be:	f003 03fd 	and.w	r3, r3, #253	; 0xfd
 80016c2:	2b01      	cmp	r3, #1
 80016c4:	f47f af2a 	bne.w	800151c <TSK_MediumFrequencyTaskM1+0x20>
              RUC_Clear(&RevUpControlM1, MCI_GetImposedMotorDirection(&Mci[M1]));
 80016c8:	4832      	ldr	r0, [pc, #200]	; (8001794 <TSK_MediumFrequencyTaskM1+0x298>)
 80016ca:	f7ff fe2d 	bl	8001328 <MCI_GetImposedMotorDirection>
 80016ce:	4601      	mov	r1, r0
 80016d0:	4832      	ldr	r0, [pc, #200]	; (800179c <TSK_MediumFrequencyTaskM1+0x2a0>)
 80016d2:	f006 f805 	bl	80076e0 <RUC_Clear>
              RUC_UpdatePulse(&RevUpControlM1, &BusVoltageSensor_M1._Super);
 80016d6:	4937      	ldr	r1, [pc, #220]	; (80017b4 <TSK_MediumFrequencyTaskM1+0x2b8>)
 80016d8:	4830      	ldr	r0, [pc, #192]	; (800179c <TSK_MediumFrequencyTaskM1+0x2a0>)
 80016da:	f006 f843 	bl	8007764 <RUC_UpdatePulse>
             SixPwm_TurnOnLowSides(pwmcHandle[M1],M1_CHARGE_BOOT_CAP_DUTY_CYCLES);
 80016de:	4b30      	ldr	r3, [pc, #192]	; (80017a0 <TSK_MediumFrequencyTaskM1+0x2a4>)
 80016e0:	2100      	movs	r1, #0
 80016e2:	6818      	ldr	r0, [r3, #0]
 80016e4:	f005 feac 	bl	8007440 <SixPwm_TurnOnLowSides>
             TSK_SetChargeBootCapDelayM1(CHARGE_BOOT_CAP_TICKS);
 80016e8:	2014      	movs	r0, #20
 80016ea:	f7ff fee7 	bl	80014bc <TSK_SetChargeBootCapDelayM1>
             Mci[M1].State = CHARGE_BOOT_CAP;
 80016ee:	2310      	movs	r3, #16
 80016f0:	7563      	strb	r3, [r4, #21]
 80016f2:	e713      	b.n	800151c <TSK_MediumFrequencyTaskM1+0x20>
  SixPwm_SwitchOffPWM(pwmcHandle[motor]);
 80016f4:	4b2a      	ldr	r3, [pc, #168]	; (80017a0 <TSK_MediumFrequencyTaskM1+0x2a4>)
 80016f6:	6818      	ldr	r0, [r3, #0]
 80016f8:	f005 ff04 	bl	8007504 <SixPwm_SwitchOffPWM>
  SixStep_Clear(motor);
 80016fc:	2000      	movs	r0, #0
 80016fe:	f7ff fe3b 	bl	8001378 <SixStep_Clear>
  TSK_SetStopPermanencyTimeM1(STOPPERMANENCY_TICKS);
 8001702:	f44f 7048 	mov.w	r0, #800	; 0x320
 8001706:	f7ff fee9 	bl	80014dc <TSK_SetStopPermanencyTimeM1>
  Mci[motor].State = STOP;
 800170a:	2308      	movs	r3, #8
 800170c:	7563      	strb	r3, [r4, #21]
  return;
 800170e:	e705      	b.n	800151c <TSK_MediumFrequencyTaskM1+0x20>
            (void) BADC_CalcRevUpDemagTime (&Bemf_ADC_M1, pSTC[M1] );
 8001710:	4d24      	ldr	r5, [pc, #144]	; (80017a4 <TSK_MediumFrequencyTaskM1+0x2a8>)
 8001712:	4e21      	ldr	r6, [pc, #132]	; (8001798 <TSK_MediumFrequencyTaskM1+0x29c>)
 8001714:	6829      	ldr	r1, [r5, #0]
 8001716:	4630      	mov	r0, r6
 8001718:	f005 f826 	bl	8006768 <BADC_CalcRevUpDemagTime>
             PWMC_ForceFastDemagTime (pwmcHandle[M1], Bemf_ADC_M1.DemagCounterThreshold);
 800171c:	4b20      	ldr	r3, [pc, #128]	; (80017a0 <TSK_MediumFrequencyTaskM1+0x2a4>)
 800171e:	f8b6 11cc 	ldrh.w	r1, [r6, #460]	; 0x1cc
 8001722:	6818      	ldr	r0, [r3, #0]
 8001724:	f005 fb82 	bl	8006e2c <PWMC_ForceFastDemagTime>
             SixStepVars[M1].DutyCycleRef = STC_CalcSpeedReference( pSTC[M1] );
 8001728:	6828      	ldr	r0, [r5, #0]
 800172a:	f006 f94d 	bl	80079c8 <STC_CalcSpeedReference>
 800172e:	4b1e      	ldr	r3, [pc, #120]	; (80017a8 <TSK_MediumFrequencyTaskM1+0x2ac>)
 8001730:	8018      	strh	r0, [r3, #0]
 8001732:	e7a7      	b.n	8001684 <TSK_MediumFrequencyTaskM1+0x188>
              LoopClosed = VSS_CalcAvrgMecSpeedUnit(&VirtualSpeedSensorM1, &hForcedMecSpeedUnit);
 8001734:	481d      	ldr	r0, [pc, #116]	; (80017ac <TSK_MediumFrequencyTaskM1+0x2b0>)
 8001736:	f10d 0106 	add.w	r1, sp, #6
 800173a:	f006 fa2f 	bl	8007b9c <VSS_CalcAvrgMecSpeedUnit>
 800173e:	4605      	mov	r5, r0
              tempBool = VSS_TransitionEnded(&VirtualSpeedSensorM1);
 8001740:	481a      	ldr	r0, [pc, #104]	; (80017ac <TSK_MediumFrequencyTaskM1+0x2b0>)
 8001742:	f006 fadb 	bl	8007cfc <VSS_TransitionEnded>
              LoopClosed = LoopClosed || tempBool;
 8001746:	b30d      	cbz	r5, 800178c <TSK_MediumFrequencyTaskM1+0x290>
                                    (((int32_t)SixStepVars[M1].DutyCycleRef * (int16_t)PID_GetKIDivisor(&PIDSpeedHandle_M1))
 8001748:	4b17      	ldr	r3, [pc, #92]	; (80017a8 <TSK_MediumFrequencyTaskM1+0x2ac>)
 800174a:	481b      	ldr	r0, [pc, #108]	; (80017b8 <TSK_MediumFrequencyTaskM1+0x2bc>)
 800174c:	881e      	ldrh	r6, [r3, #0]
                STC_SetSpeedSensor(pSTC[M1], &Bemf_ADC_M1._Super); /*Observer has converged*/
 800174e:	4d15      	ldr	r5, [pc, #84]	; (80017a4 <TSK_MediumFrequencyTaskM1+0x2a8>)
                                    (((int32_t)SixStepVars[M1].DutyCycleRef * (int16_t)PID_GetKIDivisor(&PIDSpeedHandle_M1))
 8001750:	f005 faf2 	bl	8006d38 <PID_GetKIDivisor>
 8001754:	b201      	sxth	r1, r0
                PID_SetIntegralTerm(&PIDSpeedHandle_M1,
 8001756:	fb06 f101 	mul.w	r1, r6, r1
 800175a:	4817      	ldr	r0, [pc, #92]	; (80017b8 <TSK_MediumFrequencyTaskM1+0x2bc>)
 800175c:	f005 fae2 	bl	8006d24 <PID_SetIntegralTerm>
                STC_SetSpeedSensor(pSTC[M1], &Bemf_ADC_M1._Super); /*Observer has converged*/
 8001760:	490d      	ldr	r1, [pc, #52]	; (8001798 <TSK_MediumFrequencyTaskM1+0x29c>)
 8001762:	6828      	ldr	r0, [r5, #0]
 8001764:	f006 f8b0 	bl	80078c8 <STC_SetSpeedSensor>
                SixStep_InitAdditionalMethods(M1);
 8001768:	2000      	movs	r0, #0
 800176a:	f7ff fe91 	bl	8001490 <SixStep_InitAdditionalMethods>
                SixStep_CalcSpeedRef( M1 );
 800176e:	2000      	movs	r0, #0
 8001770:	f7ff fe90 	bl	8001494 <SixStep_CalcSpeedRef>
                BADC_SetLoopClosed(&Bemf_ADC_M1);
 8001774:	4808      	ldr	r0, [pc, #32]	; (8001798 <TSK_MediumFrequencyTaskM1+0x29c>)
 8001776:	f005 f839 	bl	80067ec <BADC_SetLoopClosed>
                STC_ForceSpeedReferenceToCurrentSpeed(pSTC[M1]); /* Init the reference speed to current speed */
 800177a:	6828      	ldr	r0, [r5, #0]
 800177c:	f006 f960 	bl	8007a40 <STC_ForceSpeedReferenceToCurrentSpeed>
                MCI_ExecBufferedCommands(&Mci[M1]); /* Exec the speed ramp after changing of the speed sensor */
 8001780:	4804      	ldr	r0, [pc, #16]	; (8001794 <TSK_MediumFrequencyTaskM1+0x298>)
 8001782:	f7ff fd5d 	bl	8001240 <MCI_ExecBufferedCommands>
                Mci[M1].State = RUN;
 8001786:	2306      	movs	r3, #6
 8001788:	7563      	strb	r3, [r4, #21]
 800178a:	e6c7      	b.n	800151c <TSK_MediumFrequencyTaskM1+0x20>
              LoopClosed = LoopClosed || tempBool;
 800178c:	2800      	cmp	r0, #0
 800178e:	d1db      	bne.n	8001748 <TSK_MediumFrequencyTaskM1+0x24c>
 8001790:	e6c4      	b.n	800151c <TSK_MediumFrequencyTaskM1+0x20>
 8001792:	bf00      	nop
 8001794:	20000730 	.word	0x20000730
 8001798:	20000000 	.word	0x20000000
 800179c:	20000280 	.word	0x20000280
 80017a0:	20000768 	.word	0x20000768
 80017a4:	20000368 	.word	0x20000368
 80017a8:	20000758 	.word	0x20000758
 80017ac:	20000330 	.word	0x20000330
 80017b0:	20000234 	.word	0x20000234
 80017b4:	200001dc 	.word	0x200001dc
 80017b8:	20000208 	.word	0x20000208

080017bc <MC_Scheduler>:
  if (((uint8_t)1) == bMCBootCompleted)
 80017bc:	4b1d      	ldr	r3, [pc, #116]	; (8001834 <MC_Scheduler+0x78>)
 80017be:	781b      	ldrb	r3, [r3, #0]
 80017c0:	2b01      	cmp	r3, #1
 80017c2:	d000      	beq.n	80017c6 <MC_Scheduler+0xa>
 80017c4:	4770      	bx	lr
{
 80017c6:	b570      	push	{r4, r5, r6, lr}
    if(hMFTaskCounterM1 > 0u)
 80017c8:	4c1b      	ldr	r4, [pc, #108]	; (8001838 <MC_Scheduler+0x7c>)
 80017ca:	8823      	ldrh	r3, [r4, #0]
 80017cc:	b193      	cbz	r3, 80017f4 <MC_Scheduler+0x38>
      hMFTaskCounterM1--;
 80017ce:	3b01      	subs	r3, #1
 80017d0:	8023      	strh	r3, [r4, #0]
    if(hBootCapDelayCounterM1 > 0U)
 80017d2:	4a1a      	ldr	r2, [pc, #104]	; (800183c <MC_Scheduler+0x80>)
 80017d4:	8813      	ldrh	r3, [r2, #0]
 80017d6:	b29b      	uxth	r3, r3
 80017d8:	b11b      	cbz	r3, 80017e2 <MC_Scheduler+0x26>
      hBootCapDelayCounterM1--;
 80017da:	8813      	ldrh	r3, [r2, #0]
 80017dc:	3b01      	subs	r3, #1
 80017de:	b29b      	uxth	r3, r3
 80017e0:	8013      	strh	r3, [r2, #0]
    if(hStopPermanencyCounterM1 > 0U)
 80017e2:	4a17      	ldr	r2, [pc, #92]	; (8001840 <MC_Scheduler+0x84>)
 80017e4:	8813      	ldrh	r3, [r2, #0]
 80017e6:	b29b      	uxth	r3, r3
 80017e8:	b11b      	cbz	r3, 80017f2 <MC_Scheduler+0x36>
      hStopPermanencyCounterM1--;
 80017ea:	8813      	ldrh	r3, [r2, #0]
 80017ec:	3b01      	subs	r3, #1
 80017ee:	b29b      	uxth	r3, r3
 80017f0:	8013      	strh	r3, [r2, #0]
}
 80017f2:	bd70      	pop	{r4, r5, r6, pc}
      MCP_Over_UartA.rxBuffer = MCP_Over_UartA.pTransportLayer->fRXPacketProcess(MCP_Over_UartA.pTransportLayer,
 80017f4:	4d13      	ldr	r5, [pc, #76]	; (8001844 <MC_Scheduler+0x88>)
      TSK_MediumFrequencyTaskM1();
 80017f6:	f7ff fe81 	bl	80014fc <TSK_MediumFrequencyTaskM1>
      MC_APP_PostMediumFrequencyHook_M1();
 80017fa:	f7ff fce7 	bl	80011cc <MC_APP_PostMediumFrequencyHook_M1>
      MCP_Over_UartA.rxBuffer = MCP_Over_UartA.pTransportLayer->fRXPacketProcess(MCP_Over_UartA.pTransportLayer,
 80017fe:	4629      	mov	r1, r5
 8001800:	f851 0b0c 	ldr.w	r0, [r1], #12
 8001804:	6883      	ldr	r3, [r0, #8]
 8001806:	4798      	blx	r3
 8001808:	6068      	str	r0, [r5, #4]
      if ( 0U == MCP_Over_UartA.rxBuffer)
 800180a:	b130      	cbz	r0, 800181a <MC_Scheduler+0x5e>
        if (0U == MCP_Over_UartA.pTransportLayer->fGetBuffer(MCP_Over_UartA.pTransportLayer,
 800180c:	4629      	mov	r1, r5
 800180e:	220a      	movs	r2, #10
 8001810:	f851 0b08 	ldr.w	r0, [r1], #8
 8001814:	6803      	ldr	r3, [r0, #0]
 8001816:	4798      	blx	r3
 8001818:	b910      	cbnz	r0, 8001820 <MC_Scheduler+0x64>
      hMFTaskCounterM1 = (uint16_t)MF_TASK_OCCURENCE_TICKS;
 800181a:	2301      	movs	r3, #1
 800181c:	8023      	strh	r3, [r4, #0]
 800181e:	e7d8      	b.n	80017d2 <MC_Scheduler+0x16>
          MCP_ReceivedPacket(&MCP_Over_UartA);
 8001820:	4628      	mov	r0, r5
 8001822:	f004 fff1 	bl	8006808 <MCP_ReceivedPacket>
          MCP_Over_UartA.pTransportLayer->fSendPacket(MCP_Over_UartA.pTransportLayer, MCP_Over_UartA.txBuffer,
 8001826:	6828      	ldr	r0, [r5, #0]
 8001828:	89ea      	ldrh	r2, [r5, #14]
 800182a:	6846      	ldr	r6, [r0, #4]
 800182c:	68a9      	ldr	r1, [r5, #8]
 800182e:	230a      	movs	r3, #10
 8001830:	47b0      	blx	r6
 8001832:	e7f2      	b.n	800181a <MC_Scheduler+0x5e>
 8001834:	20000760 	.word	0x20000760
 8001838:	20000764 	.word	0x20000764
 800183c:	20000762 	.word	0x20000762
 8001840:	20000766 	.word	0x20000766
 8001844:	200003ac 	.word	0x200003ac

08001848 <TSK_HighFrequencyTask>:
  * subsystem (see the state machine(s)).
  *
  * @retval Number of the  motor instance which FOC loop was executed.
  */
__weak uint8_t TSK_HighFrequencyTask(void)
{
 8001848:	e92d 43f0 	stmdb	sp!, {r4, r5, r6, r7, r8, r9, lr}
  /* USER CODE END HighFrequencyTask 0 */

  uint8_t bMotorNbr = 0;
  uint16_t hSixStepReturn;

  if((START == Mci[M1].State) || (SWITCH_OVER == Mci[M1].State )) /*  only for sensor-less*/
 800184c:	4d48      	ldr	r5, [pc, #288]	; (8001970 <TSK_HighFrequencyTask+0x128>)
 800184e:	7d6b      	ldrb	r3, [r5, #21]
 8001850:	2b04      	cmp	r3, #4
{
 8001852:	b083      	sub	sp, #12
  if((START == Mci[M1].State) || (SWITCH_OVER == Mci[M1].State )) /*  only for sensor-less*/
 8001854:	d07e      	beq.n	8001954 <TSK_HighFrequencyTask+0x10c>
 8001856:	2b13      	cmp	r3, #19
 8001858:	d056      	beq.n	8001908 <TSK_HighFrequencyTask+0xc0>
      PWMC_SetAlignFlag(&PWM_Handle_M1._Super, 0);
    }
    int16_t hObsAngle = SPD_GetElAngle(&VirtualSpeedSensorM1._Super);
    (void)VSS_CalcElAngle(&VirtualSpeedSensorM1, &hObsAngle);
  }
  (void)BADC_CalcElAngle (&Bemf_ADC_M1);
 800185a:	4e46      	ldr	r6, [pc, #280]	; (8001974 <TSK_HighFrequencyTask+0x12c>)
 800185c:	4630      	mov	r0, r6
 800185e:	f004 ff55 	bl	800670c <BADC_CalcElAngle>
inline uint16_t SixStep_StatorController(void)
{
  uint16_t hCodeError = MC_NO_ERROR;
  int16_t hElAngle, hSpeed, hDirection;
  SpeednPosFdbk_Handle_t *speedHandle;
  speedHandle = STC_GetSpeedSensor(pSTC[M1]);
 8001862:	4b45      	ldr	r3, [pc, #276]	; (8001978 <TSK_HighFrequencyTask+0x130>)
 8001864:	6818      	ldr	r0, [r3, #0]
 8001866:	f006 f833 	bl	80078d0 <STC_GetSpeedSensor>
 800186a:	4607      	mov	r7, r0
  if(false == BADC_IsObserverConverged(&Bemf_ADC_M1))
 800186c:	4630      	mov	r0, r6
 800186e:	f004 ff49 	bl	8006704 <BADC_IsObserverConverged>
 8001872:	2800      	cmp	r0, #0
 8001874:	d143      	bne.n	80018fe <TSK_HighFrequencyTask+0xb6>
  {
    hElAngle = SPD_GetElAngle(speedHandle);
 8001876:	4638      	mov	r0, r7
 8001878:	f006 f8ec 	bl	8007a54 <SPD_GetElAngle>
 800187c:	4604      	mov	r4, r0
  }
  else
  {
    hElAngle = SPD_GetElAngle(&Bemf_ADC_M1._Super);
  }
  hSpeed = SPD_GetAvrgMecSpeedUnit(speedHandle);
 800187e:	4638      	mov	r0, r7
 8001880:	f006 f8ec 	bl	8007a5c <SPD_GetAvrgMecSpeedUnit>
 8001884:	4607      	mov	r7, r0
  hDirection = RUC_GetDirection(&RevUpControlM1);
 8001886:	483d      	ldr	r0, [pc, #244]	; (800197c <TSK_HighFrequencyTask+0x134>)
 8001888:	f006 f804 	bl	8007894 <RUC_GetDirection>
  if ((RUN == Mci[M1].State))
 800188c:	7d6b      	ldrb	r3, [r5, #21]
 800188e:	2b06      	cmp	r3, #6
  hDirection = RUC_GetDirection(&RevUpControlM1);
 8001890:	4680      	mov	r8, r0
  if ((RUN == Mci[M1].State))
 8001892:	d056      	beq.n	8001942 <TSK_HighFrequencyTask+0xfa>
  {
    RCM_ExecNextConv();
  }
  PWMC_SetPhaseVoltage( pwmcHandle[M1], SixStepVars[M1].DutyCycleRef );
 8001894:	4b3a      	ldr	r3, [pc, #232]	; (8001980 <TSK_HighFrequencyTask+0x138>)
 8001896:	f8df 90fc 	ldr.w	r9, [pc, #252]	; 8001994 <TSK_HighFrequencyTask+0x14c>
 800189a:	6818      	ldr	r0, [r3, #0]
 800189c:	f8b9 1000 	ldrh.w	r1, [r9]
 80018a0:	f005 fb44 	bl	8006f2c <PWMC_SetPhaseVoltage>
  if (hDirection > 0)
 80018a4:	f1b8 0f00 	cmp.w	r8, #0
  {
    SixStepVars[M1].qElAngle = hElAngle + S16_90_PHASE_SHIFT;
 80018a8:	bfcc      	ite	gt
 80018aa:	f504 4380 	addgt.w	r3, r4, #16384	; 0x4000
  }
  else
  {
    SixStepVars[M1].qElAngle = hElAngle - S16_90_PHASE_SHIFT;
 80018ae:	f5a4 4380 	suble.w	r3, r4, #16384	; 0x4000
  }
  PWM_Handle_M1._Super.hElAngle = SixStepVars[M1].qElAngle;
 80018b2:	4c34      	ldr	r4, [pc, #208]	; (8001984 <TSK_HighFrequencyTask+0x13c>)
    SixStepVars[M1].qElAngle = hElAngle - S16_90_PHASE_SHIFT;
 80018b4:	b21b      	sxth	r3, r3
  SixPwm_LoadNextStep( &PWM_Handle_M1, hDirection );
 80018b6:	4641      	mov	r1, r8
 80018b8:	4620      	mov	r0, r4
 80018ba:	f8a9 3006 	strh.w	r3, [r9, #6]
  PWM_Handle_M1._Super.hElAngle = SixStepVars[M1].qElAngle;
 80018be:	8623      	strh	r3, [r4, #48]	; 0x30
  SixPwm_LoadNextStep( &PWM_Handle_M1, hDirection );
 80018c0:	f005 fb7e 	bl	8006fc0 <SixPwm_LoadNextStep>
  if (true == SixPwm_ApplyNextStep(&PWM_Handle_M1))
 80018c4:	4620      	mov	r0, r4
 80018c6:	f005 fb33 	bl	8006f30 <SixPwm_ApplyNextStep>
  {
    if(START == Mci[M1].State)  /*  only for sensor-less*/
 80018ca:	7d6b      	ldrb	r3, [r5, #21]
  if (true == SixPwm_ApplyNextStep(&PWM_Handle_M1))
 80018cc:	b108      	cbz	r0, 80018d2 <TSK_HighFrequencyTask+0x8a>
    if(START == Mci[M1].State)  /*  only for sensor-less*/
 80018ce:	2b04      	cmp	r3, #4
 80018d0:	d03a      	beq.n	8001948 <TSK_HighFrequencyTask+0x100>
    {
      BADC_SetLfTimerRevUp(&Bemf_ADC_M1, hSpeed);
    }
  }
	if ((RUN == Mci[M1].State) && (true == Bemf_ADC_M1.ZcDetected))
 80018d2:	2b06      	cmp	r3, #6
 80018d4:	d028      	beq.n	8001928 <TSK_HighFrequencyTask+0xe0>
	{
	  RCM_ReadOngoingConv();
	}
    BADC_Start( &Bemf_ADC_M1, PWM_Handle_M1._Super.Step );
 80018d6:	f894 102d 	ldrb.w	r1, [r4, #45]	; 0x2d
 80018da:	4826      	ldr	r0, [pc, #152]	; (8001974 <TSK_HighFrequencyTask+0x12c>)
 80018dc:	f004 fc0e 	bl	80060fc <BADC_Start>
    BADC_CalcAvrgElSpeedDpp (&Bemf_ADC_M1); /*  Only in case of Sensor-less */
 80018e0:	4824      	ldr	r0, [pc, #144]	; (8001974 <TSK_HighFrequencyTask+0x12c>)
 80018e2:	f004 ff21 	bl	8006728 <BADC_CalcAvrgElSpeedDpp>
  GLOBAL_TIMESTAMP++;
 80018e6:	4a28      	ldr	r2, [pc, #160]	; (8001988 <TSK_HighFrequencyTask+0x140>)
  if (0U == MCPA_UART_A.Mark)
 80018e8:	4828      	ldr	r0, [pc, #160]	; (800198c <TSK_HighFrequencyTask+0x144>)
  GLOBAL_TIMESTAMP++;
 80018ea:	6813      	ldr	r3, [r2, #0]
  if (0U == MCPA_UART_A.Mark)
 80018ec:	f890 1029 	ldrb.w	r1, [r0, #41]	; 0x29
  GLOBAL_TIMESTAMP++;
 80018f0:	3301      	adds	r3, #1
 80018f2:	6013      	str	r3, [r2, #0]
  if (0U == MCPA_UART_A.Mark)
 80018f4:	b9f9      	cbnz	r1, 8001936 <TSK_HighFrequencyTask+0xee>
}
 80018f6:	2000      	movs	r0, #0
 80018f8:	b003      	add	sp, #12
 80018fa:	e8bd 83f0 	ldmia.w	sp!, {r4, r5, r6, r7, r8, r9, pc}
    hElAngle = SPD_GetElAngle(&Bemf_ADC_M1._Super);
 80018fe:	4630      	mov	r0, r6
 8001900:	f006 f8a8 	bl	8007a54 <SPD_GetElAngle>
 8001904:	4604      	mov	r4, r0
 8001906:	e7ba      	b.n	800187e <TSK_HighFrequencyTask+0x36>
        PWMC_SetAlignFlag(&PWM_Handle_M1._Super, 0);
 8001908:	481e      	ldr	r0, [pc, #120]	; (8001984 <TSK_HighFrequencyTask+0x13c>)
 800190a:	2100      	movs	r1, #0
 800190c:	f005 fa8c 	bl	8006e28 <PWMC_SetAlignFlag>
    int16_t hObsAngle = SPD_GetElAngle(&VirtualSpeedSensorM1._Super);
 8001910:	481f      	ldr	r0, [pc, #124]	; (8001990 <TSK_HighFrequencyTask+0x148>)
 8001912:	f006 f89f 	bl	8007a54 <SPD_GetElAngle>
    (void)VSS_CalcElAngle(&VirtualSpeedSensorM1, &hObsAngle);
 8001916:	f10d 0106 	add.w	r1, sp, #6
    int16_t hObsAngle = SPD_GetElAngle(&VirtualSpeedSensorM1._Super);
 800191a:	4603      	mov	r3, r0
    (void)VSS_CalcElAngle(&VirtualSpeedSensorM1, &hObsAngle);
 800191c:	481c      	ldr	r0, [pc, #112]	; (8001990 <TSK_HighFrequencyTask+0x148>)
    int16_t hObsAngle = SPD_GetElAngle(&VirtualSpeedSensorM1._Super);
 800191e:	f8ad 3006 	strh.w	r3, [sp, #6]
    (void)VSS_CalcElAngle(&VirtualSpeedSensorM1, &hObsAngle);
 8001922:	f006 f8e7 	bl	8007af4 <VSS_CalcElAngle>
 8001926:	e798      	b.n	800185a <TSK_HighFrequencyTask+0x12>
	if ((RUN == Mci[M1].State) && (true == Bemf_ADC_M1.ZcDetected))
 8001928:	f896 31c4 	ldrb.w	r3, [r6, #452]	; 0x1c4
 800192c:	2b00      	cmp	r3, #0
 800192e:	d0d2      	beq.n	80018d6 <TSK_HighFrequencyTask+0x8e>
	  RCM_ReadOngoingConv();
 8001930:	f001 f86c 	bl	8002a0c <RCM_ReadOngoingConv>
 8001934:	e7cf      	b.n	80018d6 <TSK_HighFrequencyTask+0x8e>
    MCPA_dataLog (&MCPA_UART_A);
 8001936:	f005 f827 	bl	8006988 <MCPA_dataLog>
}
 800193a:	2000      	movs	r0, #0
 800193c:	b003      	add	sp, #12
 800193e:	e8bd 83f0 	ldmia.w	sp!, {r4, r5, r6, r7, r8, r9, pc}
    RCM_ExecNextConv();
 8001942:	f001 f813 	bl	800296c <RCM_ExecNextConv>
 8001946:	e7a5      	b.n	8001894 <TSK_HighFrequencyTask+0x4c>
      BADC_SetLfTimerRevUp(&Bemf_ADC_M1, hSpeed);
 8001948:	480a      	ldr	r0, [pc, #40]	; (8001974 <TSK_HighFrequencyTask+0x12c>)
 800194a:	4639      	mov	r1, r7
 800194c:	f004 feee 	bl	800672c <BADC_SetLfTimerRevUp>
	if ((RUN == Mci[M1].State) && (true == Bemf_ADC_M1.ZcDetected))
 8001950:	7d6b      	ldrb	r3, [r5, #21]
 8001952:	e7be      	b.n	80018d2 <TSK_HighFrequencyTask+0x8a>
      if (0U == RUC_IsAlignStageNow(&RevUpControlM1))
 8001954:	4809      	ldr	r0, [pc, #36]	; (800197c <TSK_HighFrequencyTask+0x134>)
 8001956:	f005 ff55 	bl	8007804 <RUC_IsAlignStageNow>
 800195a:	2800      	cmp	r0, #0
 800195c:	d0d4      	beq.n	8001908 <TSK_HighFrequencyTask+0xc0>
        PWMC_SetAlignFlag(&PWM_Handle_M1._Super, RUC_GetDirection(&RevUpControlM1));
 800195e:	4807      	ldr	r0, [pc, #28]	; (800197c <TSK_HighFrequencyTask+0x134>)
 8001960:	f005 ff98 	bl	8007894 <RUC_GetDirection>
 8001964:	4601      	mov	r1, r0
 8001966:	4807      	ldr	r0, [pc, #28]	; (8001984 <TSK_HighFrequencyTask+0x13c>)
 8001968:	f005 fa5e 	bl	8006e28 <PWMC_SetAlignFlag>
 800196c:	e7d0      	b.n	8001910 <TSK_HighFrequencyTask+0xc8>
 800196e:	bf00      	nop
 8001970:	20000730 	.word	0x20000730
 8001974:	20000000 	.word	0x20000000
 8001978:	20000368 	.word	0x20000368
 800197c:	20000280 	.word	0x20000280
 8001980:	20000768 	.word	0x20000768
 8001984:	20000234 	.word	0x20000234
 8001988:	20001958 	.word	0x20001958
 800198c:	20000380 	.word	0x20000380
 8001990:	20000330 	.word	0x20000330
 8001994:	20000758 	.word	0x20000758

08001998 <TSK_SafetyTask_PWMOFF>:
  * @param  bMotor Motor reference number defined
  *         \link Motors_reference_number here \endlink
  * @retval None
  */
__weak void TSK_SafetyTask_PWMOFF(uint8_t bMotor)
{
 8001998:	b570      	push	{r4, r5, r6, lr}

  /* USER CODE END TSK_SafetyTask_PWMOFF 0 */
  uint16_t CodeReturn = MC_NO_ERROR;
  uint16_t errMask[NBR_OF_MOTORS] = {VBUS_TEMP_ERR_MASK};

  CodeReturn |= errMask[bMotor] & NTC_CalcAvTemp(pTemperatureSensor[bMotor]); /* check for fault if FW protection is activated. It returns MC_OVER_TEMP or MC_NO_ERROR */
 800199a:	4b1f      	ldr	r3, [pc, #124]	; (8001a18 <TSK_SafetyTask_PWMOFF+0x80>)
  CodeReturn |= PWMC_CheckOverCurrent(pwmcHandle[bMotor]);                    /* check for fault. It return MC_BREAK_IN or MC_NO_FAULTS
 800199c:	4e1f      	ldr	r6, [pc, #124]	; (8001a1c <TSK_SafetyTask_PWMOFF+0x84>)
{
 800199e:	b082      	sub	sp, #8
 80019a0:	4604      	mov	r4, r0
  CodeReturn |= errMask[bMotor] & NTC_CalcAvTemp(pTemperatureSensor[bMotor]); /* check for fault if FW protection is activated. It returns MC_OVER_TEMP or MC_NO_ERROR */
 80019a2:	f853 0020 	ldr.w	r0, [r3, r0, lsl #2]
 80019a6:	f005 f97b 	bl	8006ca0 <NTC_CalcAvTemp>
 80019aa:	4605      	mov	r5, r0
  CodeReturn |= PWMC_CheckOverCurrent(pwmcHandle[bMotor]);                    /* check for fault. It return MC_BREAK_IN or MC_NO_FAULTS
 80019ac:	f856 0024 	ldr.w	r0, [r6, r4, lsl #2]
 80019b0:	f005 fa38 	bl	8006e24 <PWMC_CheckOverCurrent>
  CodeReturn |= errMask[bMotor] & NTC_CalcAvTemp(pTemperatureSensor[bMotor]); /* check for fault if FW protection is activated. It returns MC_OVER_TEMP or MC_NO_ERROR */
 80019b4:	f025 0508 	bic.w	r5, r5, #8
  CodeReturn |= PWMC_CheckOverCurrent(pwmcHandle[bMotor]);                    /* check for fault. It return MC_BREAK_IN or MC_NO_FAULTS
 80019b8:	4328      	orrs	r0, r5
 80019ba:	b285      	uxth	r5, r0
                                                                                 (for STM32F30x can return MC_OVER_VOLT in case of HW Overvoltage) */
  if(M1 == bMotor)
 80019bc:	b184      	cbz	r4, 80019e0 <TSK_SafetyTask_PWMOFF+0x48>
  {
    CodeReturn |= errMask[bMotor] & RVBS_CalcAvVbus(&BusVoltageSensor_M1);
  }
  MCI_FaultProcessing(&Mci[bMotor], CodeReturn, ~CodeReturn); /* process faults */
 80019be:	4818      	ldr	r0, [pc, #96]	; (8001a20 <TSK_SafetyTask_PWMOFF+0x88>)
 80019c0:	ebc4 03c4 	rsb	r3, r4, r4, lsl #3
 80019c4:	43ea      	mvns	r2, r5
 80019c6:	eb00 0083 	add.w	r0, r0, r3, lsl #2
 80019ca:	b292      	uxth	r2, r2
 80019cc:	4629      	mov	r1, r5
 80019ce:	9001      	str	r0, [sp, #4]
 80019d0:	f7ff fc2a 	bl	8001228 <MCI_FaultProcessing>

  if (MCI_GetFaultState(&Mci[bMotor]) != (uint32_t)MC_NO_FAULTS)
 80019d4:	9801      	ldr	r0, [sp, #4]
 80019d6:	f7ff fc9f 	bl	8001318 <MCI_GetFaultState>
 80019da:	b948      	cbnz	r0, 80019f0 <TSK_SafetyTask_PWMOFF+0x58>
  }

  /* USER CODE BEGIN TSK_SafetyTask_PWMOFF 3 */

  /* USER CODE END TSK_SafetyTask_PWMOFF 3 */
}
 80019dc:	b002      	add	sp, #8
 80019de:	bd70      	pop	{r4, r5, r6, pc}
    CodeReturn |= errMask[bMotor] & RVBS_CalcAvVbus(&BusVoltageSensor_M1);
 80019e0:	4810      	ldr	r0, [pc, #64]	; (8001a24 <TSK_SafetyTask_PWMOFF+0x8c>)
 80019e2:	f005 fe23 	bl	800762c <RVBS_CalcAvVbus>
 80019e6:	f020 0008 	bic.w	r0, r0, #8
 80019ea:	4305      	orrs	r5, r0
 80019ec:	b2ad      	uxth	r5, r5
 80019ee:	e7e6      	b.n	80019be <TSK_SafetyTask_PWMOFF+0x26>
    PWMC_SwitchOffPWM(pwmcHandle[bMotor]);
 80019f0:	f856 0024 	ldr.w	r0, [r6, r4, lsl #2]
 80019f4:	f005 fa10 	bl	8006e18 <PWMC_SwitchOffPWM>
    if (MCPA_UART_A.Mark != 0)
 80019f8:	480b      	ldr	r0, [pc, #44]	; (8001a28 <TSK_SafetyTask_PWMOFF+0x90>)
 80019fa:	f890 3029 	ldrb.w	r3, [r0, #41]	; 0x29
 80019fe:	b943      	cbnz	r3, 8001a12 <TSK_SafetyTask_PWMOFF+0x7a>
    SixStep_Clear(bMotor);
 8001a00:	4620      	mov	r0, r4
 8001a02:	f7ff fcb9 	bl	8001378 <SixStep_Clear>
    BADC_Stop( &Bemf_ADC_M1 );
 8001a06:	4809      	ldr	r0, [pc, #36]	; (8001a2c <TSK_SafetyTask_PWMOFF+0x94>)
}
 8001a08:	b002      	add	sp, #8
 8001a0a:	e8bd 4070 	ldmia.w	sp!, {r4, r5, r6, lr}
    BADC_Stop( &Bemf_ADC_M1 );
 8001a0e:	f004 bbc1 	b.w	8006194 <BADC_Stop>
      MCPA_flushDataLog (&MCPA_UART_A);
 8001a12:	f005 f87d 	bl	8006b10 <MCPA_flushDataLog>
 8001a16:	e7f3      	b.n	8001a00 <TSK_SafetyTask_PWMOFF+0x68>
 8001a18:	2000036c 	.word	0x2000036c
 8001a1c:	20000768 	.word	0x20000768
 8001a20:	20000730 	.word	0x20000730
 8001a24:	200001dc 	.word	0x200001dc
 8001a28:	20000380 	.word	0x20000380
 8001a2c:	20000000 	.word	0x20000000

08001a30 <TSK_SafetyTask>:
{
 8001a30:	b508      	push	{r3, lr}
  if (1U == bMCBootCompleted)
 8001a32:	4b06      	ldr	r3, [pc, #24]	; (8001a4c <TSK_SafetyTask+0x1c>)
 8001a34:	781b      	ldrb	r3, [r3, #0]
 8001a36:	2b01      	cmp	r3, #1
 8001a38:	d000      	beq.n	8001a3c <TSK_SafetyTask+0xc>
}
 8001a3a:	bd08      	pop	{r3, pc}
    TSK_SafetyTask_PWMOFF(M1);
 8001a3c:	2000      	movs	r0, #0
 8001a3e:	f7ff ffab 	bl	8001998 <TSK_SafetyTask_PWMOFF>
}
 8001a42:	e8bd 4008 	ldmia.w	sp!, {r3, lr}
    RCM_ExecUserConv();
 8001a46:	f000 bf61 	b.w	800290c <RCM_ExecUserConv>
 8001a4a:	bf00      	nop
 8001a4c:	20000760 	.word	0x20000760

08001a50 <MC_RunMotorControlTasks>:
{
 8001a50:	b508      	push	{r3, lr}
  if (0U == bMCBootCompleted)
 8001a52:	4b04      	ldr	r3, [pc, #16]	; (8001a64 <MC_RunMotorControlTasks+0x14>)
 8001a54:	781b      	ldrb	r3, [r3, #0]
 8001a56:	b903      	cbnz	r3, 8001a5a <MC_RunMotorControlTasks+0xa>
}
 8001a58:	bd08      	pop	{r3, pc}
    MC_Scheduler();
 8001a5a:	f7ff feaf 	bl	80017bc <MC_Scheduler>
    TSK_SafetyTask();
 8001a5e:	f7ff ffe7 	bl	8001a30 <TSK_SafetyTask>
}
 8001a62:	bd08      	pop	{r3, pc}
 8001a64:	20000760 	.word	0x20000760

08001a68 <TSK_HardwareFaultTask>:
  *
  *  This function is to be executed when a general hardware failure has been detected
  * by the microcontroller and is used to put the system in safety condition.
  */
__weak void TSK_HardwareFaultTask(void)
{
 8001a68:	b508      	push	{r3, lr}
  /* USER CODE BEGIN TSK_HardwareFaultTask 0 */

  /* USER CODE END TSK_HardwareFaultTask 0 */
  SixPwm_SwitchOffPWM(pwmcHandle[M1]);
 8001a6a:	4b05      	ldr	r3, [pc, #20]	; (8001a80 <TSK_HardwareFaultTask+0x18>)
 8001a6c:	6818      	ldr	r0, [r3, #0]
 8001a6e:	f005 fd49 	bl	8007504 <SixPwm_SwitchOffPWM>
  MCI_FaultProcessing(&Mci[M1], MC_SW_ERROR, 0);

  /* USER CODE BEGIN TSK_HardwareFaultTask 1 */

  /* USER CODE END TSK_HardwareFaultTask 1 */
}
 8001a72:	e8bd 4008 	ldmia.w	sp!, {r3, lr}
  MCI_FaultProcessing(&Mci[M1], MC_SW_ERROR, 0);
 8001a76:	4803      	ldr	r0, [pc, #12]	; (8001a84 <TSK_HardwareFaultTask+0x1c>)
 8001a78:	2200      	movs	r2, #0
 8001a7a:	2180      	movs	r1, #128	; 0x80
 8001a7c:	f7ff bbd4 	b.w	8001228 <MCI_FaultProcessing>
 8001a80:	20000768 	.word	0x20000768
 8001a84:	20000730 	.word	0x20000730

08001a88 <UI_HandleStartStopButton_cb>:

__weak void UI_HandleStartStopButton_cb (void)
{
 8001a88:	b508      	push	{r3, lr}
/* USER CODE BEGIN START_STOP_BTN */
  if (IDLE == MC_GetSTMStateMotor1())
 8001a8a:	f7ff fb97 	bl	80011bc <MC_GetSTMStateMotor1>
 8001a8e:	b918      	cbnz	r0, 8001a98 <UI_HandleStartStopButton_cb+0x10>
  else
  {
    (void)MC_StopMotor1();
  }
/* USER CODE END START_STOP_BTN */
}
 8001a90:	e8bd 4008 	ldmia.w	sp!, {r3, lr}
    (void)MC_StartMotor1();
 8001a94:	f7ff bb86 	b.w	80011a4 <MC_StartMotor1>
}
 8001a98:	e8bd 4008 	ldmia.w	sp!, {r3, lr}
    (void)MC_StopMotor1();
 8001a9c:	f7ff bb88 	b.w	80011b0 <MC_StopMotor1>

08001aa0 <mc_lock_pins>:

 /**
  * @brief  Locks GPIO pins used for Motor Control to prevent accidental reconfiguration
  */
__weak void mc_lock_pins (void)
{
 8001aa0:	b430      	push	{r4, r5}
  * @retval None
  */
__STATIC_INLINE void LL_GPIO_LockPin(GPIO_TypeDef *GPIOx, uint32_t PinMask)
{
  __IO uint32_t temp;
  WRITE_REG(GPIOx->LCKR, GPIO_LCKR_LCKK | PinMask);
 8001aa2:	4936      	ldr	r1, [pc, #216]	; (8001b7c <mc_lock_pins+0xdc>)
 8001aa4:	4a36      	ldr	r2, [pc, #216]	; (8001b80 <mc_lock_pins+0xe0>)
 8001aa6:	61ca      	str	r2, [r1, #28]
  WRITE_REG(GPIOx->LCKR, PinMask);
 8001aa8:	2010      	movs	r0, #16
 8001aaa:	61c8      	str	r0, [r1, #28]
 8001aac:	b08c      	sub	sp, #48	; 0x30
  WRITE_REG(GPIOx->LCKR, GPIO_LCKR_LCKK | PinMask);
 8001aae:	61ca      	str	r2, [r1, #28]
  /* Read LCKR register. This read is mandatory to complete key lock sequence */
  temp = READ_REG(GPIOx->LCKR);
 8001ab0:	69cc      	ldr	r4, [r1, #28]
 8001ab2:	940b      	str	r4, [sp, #44]	; 0x2c
  WRITE_REG(GPIOx->LCKR, GPIO_LCKR_LCKK | PinMask);
 8001ab4:	f04f 4390 	mov.w	r3, #1207959552	; 0x48000000
  (void) temp;
 8001ab8:	9c0b      	ldr	r4, [sp, #44]	; 0x2c
  WRITE_REG(GPIOx->LCKR, GPIO_LCKR_LCKK | PinMask);
 8001aba:	61da      	str	r2, [r3, #28]
  WRITE_REG(GPIOx->LCKR, PinMask);
 8001abc:	61d8      	str	r0, [r3, #28]
  WRITE_REG(GPIOx->LCKR, GPIO_LCKR_LCKK | PinMask);
 8001abe:	61da      	str	r2, [r3, #28]
  temp = READ_REG(GPIOx->LCKR);
 8001ac0:	69da      	ldr	r2, [r3, #28]
 8001ac2:	920a      	str	r2, [sp, #40]	; 0x28
  WRITE_REG(GPIOx->LCKR, PinMask);
 8001ac4:	f44f 7080 	mov.w	r0, #256	; 0x100
  WRITE_REG(GPIOx->LCKR, GPIO_LCKR_LCKK | PinMask);
 8001ac8:	4a2e      	ldr	r2, [pc, #184]	; (8001b84 <mc_lock_pins+0xe4>)
  (void) temp;
 8001aca:	9c0a      	ldr	r4, [sp, #40]	; 0x28
  WRITE_REG(GPIOx->LCKR, GPIO_LCKR_LCKK | PinMask);
 8001acc:	61da      	str	r2, [r3, #28]
  WRITE_REG(GPIOx->LCKR, PinMask);
 8001ace:	61d8      	str	r0, [r3, #28]
  WRITE_REG(GPIOx->LCKR, GPIO_LCKR_LCKK | PinMask);
 8001ad0:	61da      	str	r2, [r3, #28]
  temp = READ_REG(GPIOx->LCKR);
 8001ad2:	69da      	ldr	r2, [r3, #28]
 8001ad4:	9209      	str	r2, [sp, #36]	; 0x24
  WRITE_REG(GPIOx->LCKR, PinMask);
 8001ad6:	f44f 7000 	mov.w	r0, #512	; 0x200
  WRITE_REG(GPIOx->LCKR, GPIO_LCKR_LCKK | PinMask);
 8001ada:	f44f 3281 	mov.w	r2, #66048	; 0x10200
  (void) temp;
 8001ade:	9c09      	ldr	r4, [sp, #36]	; 0x24
  WRITE_REG(GPIOx->LCKR, GPIO_LCKR_LCKK | PinMask);
 8001ae0:	61da      	str	r2, [r3, #28]
  WRITE_REG(GPIOx->LCKR, PinMask);
 8001ae2:	61d8      	str	r0, [r3, #28]
  WRITE_REG(GPIOx->LCKR, GPIO_LCKR_LCKK | PinMask);
 8001ae4:	61da      	str	r2, [r3, #28]
  temp = READ_REG(GPIOx->LCKR);
 8001ae6:	69da      	ldr	r2, [r3, #28]
 8001ae8:	9208      	str	r2, [sp, #32]
  WRITE_REG(GPIOx->LCKR, PinMask);
 8001aea:	f44f 6080 	mov.w	r0, #1024	; 0x400
  WRITE_REG(GPIOx->LCKR, GPIO_LCKR_LCKK | PinMask);
 8001aee:	f44f 3282 	mov.w	r2, #66560	; 0x10400
  (void) temp;
 8001af2:	9c08      	ldr	r4, [sp, #32]
  WRITE_REG(GPIOx->LCKR, GPIO_LCKR_LCKK | PinMask);
 8001af4:	61da      	str	r2, [r3, #28]
  WRITE_REG(GPIOx->LCKR, PinMask);
 8001af6:	61d8      	str	r0, [r3, #28]
  WRITE_REG(GPIOx->LCKR, GPIO_LCKR_LCKK | PinMask);
 8001af8:	61da      	str	r2, [r3, #28]
  temp = READ_REG(GPIOx->LCKR);
 8001afa:	69da      	ldr	r2, [r3, #28]
 8001afc:	9207      	str	r2, [sp, #28]
  WRITE_REG(GPIOx->LCKR, GPIO_LCKR_LCKK | PinMask);
 8001afe:	f44f 3088 	mov.w	r0, #69632	; 0x11000
  WRITE_REG(GPIOx->LCKR, PinMask);
 8001b02:	f44f 5480 	mov.w	r4, #4096	; 0x1000
  (void) temp;
 8001b06:	9d07      	ldr	r5, [sp, #28]
  WRITE_REG(GPIOx->LCKR, GPIO_LCKR_LCKK | PinMask);
 8001b08:	61d8      	str	r0, [r3, #28]
  WRITE_REG(GPIOx->LCKR, PinMask);
 8001b0a:	61dc      	str	r4, [r3, #28]
  WRITE_REG(GPIOx->LCKR, GPIO_LCKR_LCKK | PinMask);
 8001b0c:	61d8      	str	r0, [r3, #28]
  temp = READ_REG(GPIOx->LCKR);
 8001b0e:	69d8      	ldr	r0, [r3, #28]
  WRITE_REG(GPIOx->LCKR, GPIO_LCKR_LCKK | PinMask);
 8001b10:	4a1d      	ldr	r2, [pc, #116]	; (8001b88 <mc_lock_pins+0xe8>)
  temp = READ_REG(GPIOx->LCKR);
 8001b12:	9006      	str	r0, [sp, #24]
  WRITE_REG(GPIOx->LCKR, PinMask);
 8001b14:	f44f 4400 	mov.w	r4, #32768	; 0x8000
  WRITE_REG(GPIOx->LCKR, GPIO_LCKR_LCKK | PinMask);
 8001b18:	f44f 30c0 	mov.w	r0, #98304	; 0x18000
  (void) temp;
 8001b1c:	9d06      	ldr	r5, [sp, #24]
  WRITE_REG(GPIOx->LCKR, GPIO_LCKR_LCKK | PinMask);
 8001b1e:	61d0      	str	r0, [r2, #28]
  WRITE_REG(GPIOx->LCKR, PinMask);
 8001b20:	61d4      	str	r4, [r2, #28]
  WRITE_REG(GPIOx->LCKR, GPIO_LCKR_LCKK | PinMask);
 8001b22:	61d0      	str	r0, [r2, #28]
  temp = READ_REG(GPIOx->LCKR);
 8001b24:	69d0      	ldr	r0, [r2, #28]
 8001b26:	9005      	str	r0, [sp, #20]
  WRITE_REG(GPIOx->LCKR, PinMask);
 8001b28:	f44f 5400 	mov.w	r4, #8192	; 0x2000
  WRITE_REG(GPIOx->LCKR, GPIO_LCKR_LCKK | PinMask);
 8001b2c:	f44f 3090 	mov.w	r0, #73728	; 0x12000
  (void) temp;
 8001b30:	9d05      	ldr	r5, [sp, #20]
  WRITE_REG(GPIOx->LCKR, GPIO_LCKR_LCKK | PinMask);
 8001b32:	61c8      	str	r0, [r1, #28]
  WRITE_REG(GPIOx->LCKR, PinMask);
 8001b34:	61cc      	str	r4, [r1, #28]
  WRITE_REG(GPIOx->LCKR, GPIO_LCKR_LCKK | PinMask);
 8001b36:	61c8      	str	r0, [r1, #28]
  temp = READ_REG(GPIOx->LCKR);
 8001b38:	69c9      	ldr	r1, [r1, #28]
 8001b3a:	9104      	str	r1, [sp, #16]
  WRITE_REG(GPIOx->LCKR, PinMask);
 8001b3c:	2020      	movs	r0, #32
  WRITE_REG(GPIOx->LCKR, GPIO_LCKR_LCKK | PinMask);
 8001b3e:	4913      	ldr	r1, [pc, #76]	; (8001b8c <mc_lock_pins+0xec>)
  (void) temp;
 8001b40:	9c04      	ldr	r4, [sp, #16]
  WRITE_REG(GPIOx->LCKR, GPIO_LCKR_LCKK | PinMask);
 8001b42:	61d1      	str	r1, [r2, #28]
  WRITE_REG(GPIOx->LCKR, PinMask);
 8001b44:	61d0      	str	r0, [r2, #28]
  WRITE_REG(GPIOx->LCKR, GPIO_LCKR_LCKK | PinMask);
 8001b46:	61d1      	str	r1, [r2, #28]
  temp = READ_REG(GPIOx->LCKR);
 8001b48:	69d1      	ldr	r1, [r2, #28]
 8001b4a:	9103      	str	r1, [sp, #12]
  WRITE_REG(GPIOx->LCKR, PinMask);
 8001b4c:	2001      	movs	r0, #1
  WRITE_REG(GPIOx->LCKR, GPIO_LCKR_LCKK | PinMask);
 8001b4e:	f04f 1101 	mov.w	r1, #65537	; 0x10001
  (void) temp;
 8001b52:	9c03      	ldr	r4, [sp, #12]
  WRITE_REG(GPIOx->LCKR, GPIO_LCKR_LCKK | PinMask);
 8001b54:	61d9      	str	r1, [r3, #28]
  WRITE_REG(GPIOx->LCKR, PinMask);
 8001b56:	61d8      	str	r0, [r3, #28]
  WRITE_REG(GPIOx->LCKR, GPIO_LCKR_LCKK | PinMask);
 8001b58:	61d9      	str	r1, [r3, #28]
  temp = READ_REG(GPIOx->LCKR);
 8001b5a:	69db      	ldr	r3, [r3, #28]
 8001b5c:	9302      	str	r3, [sp, #8]
  WRITE_REG(GPIOx->LCKR, PinMask);
 8001b5e:	f44f 6100 	mov.w	r1, #2048	; 0x800
  WRITE_REG(GPIOx->LCKR, GPIO_LCKR_LCKK | PinMask);
 8001b62:	f44f 3384 	mov.w	r3, #67584	; 0x10800
  (void) temp;
 8001b66:	9802      	ldr	r0, [sp, #8]
  WRITE_REG(GPIOx->LCKR, GPIO_LCKR_LCKK | PinMask);
 8001b68:	61d3      	str	r3, [r2, #28]
  WRITE_REG(GPIOx->LCKR, PinMask);
 8001b6a:	61d1      	str	r1, [r2, #28]
  WRITE_REG(GPIOx->LCKR, GPIO_LCKR_LCKK | PinMask);
 8001b6c:	61d3      	str	r3, [r2, #28]
  temp = READ_REG(GPIOx->LCKR);
 8001b6e:	69d3      	ldr	r3, [r2, #28]
 8001b70:	9301      	str	r3, [sp, #4]
  (void) temp;
 8001b72:	9b01      	ldr	r3, [sp, #4]
LL_GPIO_LockPin(M1_PWM_WL_GPIO_Port, M1_PWM_WL_Pin);
LL_GPIO_LockPin(M1_PWM_UL_GPIO_Port, M1_PWM_UL_Pin);
LL_GPIO_LockPin(M1_BEMF_DIVIDER_GPIO_Port, M1_BEMF_DIVIDER_Pin);
LL_GPIO_LockPin(M1_BUS_VOLTAGE_GPIO_Port, M1_BUS_VOLTAGE_Pin);
LL_GPIO_LockPin(M1_BEMF_W_GPIO_Port, M1_BEMF_W_Pin);
}
 8001b74:	b00c      	add	sp, #48	; 0x30
 8001b76:	bc30      	pop	{r4, r5}
 8001b78:	4770      	bx	lr
 8001b7a:	bf00      	nop
 8001b7c:	48000800 	.word	0x48000800
 8001b80:	00010010 	.word	0x00010010
 8001b84:	00010100 	.word	0x00010100
 8001b88:	48000400 	.word	0x48000400
 8001b8c:	00010020 	.word	0x00010020

08001b90 <MX_MotorControl_Init>:
 *
 * CubeMX calls this function after all peripherals initializations and
 * before the NVIC is configured
 */
__weak void MX_MotorControl_Init(void)
{
 8001b90:	b508      	push	{r3, lr}
  /* Reconfigure the SysTick interrupt to fire every 500 us. */
  (void)HAL_SYSTICK_Config(HAL_RCC_GetHCLKFreq() / SYS_TICK_FREQUENCY);
 8001b92:	f003 f81d 	bl	8004bd0 <HAL_RCC_GetHCLKFreq>
 8001b96:	4b0a      	ldr	r3, [pc, #40]	; (8001bc0 <MX_MotorControl_Init+0x30>)
 8001b98:	fba3 3000 	umull	r3, r0, r3, r0
 8001b9c:	09c0      	lsrs	r0, r0, #7
 8001b9e:	f002 fa47 	bl	8004030 <HAL_SYSTICK_Config>
  HAL_NVIC_SetPriority(SysTick_IRQn, uwTickPrio, 0U);
 8001ba2:	4b08      	ldr	r3, [pc, #32]	; (8001bc4 <MX_MotorControl_Init+0x34>)
 8001ba4:	2200      	movs	r2, #0
 8001ba6:	6819      	ldr	r1, [r3, #0]
 8001ba8:	f04f 30ff 	mov.w	r0, #4294967295
 8001bac:	f002 f9f4 	bl	8003f98 <HAL_NVIC_SetPriority>

  /* Initialize the Motor Control Subsystem */
  MCboot(pMCI);
 8001bb0:	4805      	ldr	r0, [pc, #20]	; (8001bc8 <MX_MotorControl_Init+0x38>)
 8001bb2:	f7ff fc09 	bl	80013c8 <MCboot>
  mc_lock_pins();
}
 8001bb6:	e8bd 4008 	ldmia.w	sp!, {r3, lr}
  mc_lock_pins();
 8001bba:	f7ff bf71 	b.w	8001aa0 <mc_lock_pins>
 8001bbe:	bf00      	nop
 8001bc0:	10624dd3 	.word	0x10624dd3
 8001bc4:	20000450 	.word	0x20000450
 8001bc8:	200018f8 	.word	0x200018f8

08001bcc <RI_SetRegCommandParser>:

static uint8_t RI_SetReg (uint16_t dataID, uint8_t * data, uint16_t *size, int16_t dataAvailable);
static uint8_t RI_GetReg (uint16_t dataID, uint8_t * data, uint16_t *size, int16_t maxSize);
static uint8_t RI_MovString(const char_t * srcString, char_t * destString, uint16_t *size, int16_t maxSize);
__weak uint8_t RI_SetRegCommandParser (MCP_Handle_t * pHandle, uint16_t txSyncFreeSpace)
{
 8001bcc:	e92d 4ff0 	stmdb	sp!, {r4, r5, r6, r7, r8, r9, sl, fp, lr}
  {
#endif
    uint16_t * dataElementID;
    uint8_t * rxData = pHandle->rxBuffer;
    uint8_t * txData = pHandle->txBuffer;
    int16_t rxLength = pHandle->rxLength;
 8001bd0:	f9b0 300c 	ldrsh.w	r3, [r0, #12]
    uint16_t size = 0U;
    uint8_t number_of_item =0;
    pHandle->txLength = 0;
 8001bd4:	2200      	movs	r2, #0
    uint8_t accessResult;
    while (rxLength > 0)
 8001bd6:	4293      	cmp	r3, r2
    uint8_t * txData = pHandle->txBuffer;
 8001bd8:	e9d0 4601 	ldrd	r4, r6, [r0, #4]
{
 8001bdc:	b089      	sub	sp, #36	; 0x24
 8001bde:	4607      	mov	r7, r0
    pHandle->txLength = 0;
 8001be0:	81c2      	strh	r2, [r0, #14]
    while (rxLength > 0)
 8001be2:	dd68      	ble.n	8001cb6 <RI_SetRegCommandParser+0xea>
 8001be4:	eb06 0b01 	add.w	fp, r6, r1
  uint8_t retVal = MCP_CMD_OK;
 8001be8:	9201      	str	r2, [sp, #4]
 8001bea:	f1c6 0901 	rsb	r9, r6, #1
    {
       number_of_item++;
      dataElementID = (uint16_t *) rxData;
      rxLength = rxLength-MCP_ID_SIZE; // We consume 2 byte in the DataID
      rxData = rxData+MCP_ID_SIZE; // Shift buffer to the next data
 8001bee:	4625      	mov	r5, r4
      rxLength = rxLength-MCP_ID_SIZE; // We consume 2 byte in the DataID
 8001bf0:	fa1f fa83 	uxth.w	sl, r3
      accessResult = RI_SetReg (*dataElementID,rxData,&size,rxLength);
 8001bf4:	f835 0b02 	ldrh.w	r0, [r5], #2

    typeID = (uint8_t)dataID & TYPE_MASK;
    motorID = 0U;
    MCI_Handle_t *pMCIN = &Mci[motorID];

    switch (typeID)
 8001bf8:	f000 0138 	and.w	r1, r0, #56	; 0x38
      rxLength = rxLength-MCP_ID_SIZE; // We consume 2 byte in the DataID
 8001bfc:	f1aa 0302 	sub.w	r3, sl, #2
    uint16_t regID = dataID & REG_MASK;
 8001c00:	f020 0207 	bic.w	r2, r0, #7
    switch (typeID)
 8001c04:	3908      	subs	r1, #8
      rxLength = rxLength-MCP_ID_SIZE; // We consume 2 byte in the DataID
 8001c06:	fa1f f883 	uxth.w	r8, r3
    uint16_t regID = dataID & REG_MASK;
 8001c0a:	b292      	uxth	r2, r2
      rxLength = rxLength-MCP_ID_SIZE; // We consume 2 byte in the DataID
 8001c0c:	b21b      	sxth	r3, r3
    switch (typeID)
 8001c0e:	2920      	cmp	r1, #32
 8001c10:	d812      	bhi.n	8001c38 <RI_SetRegCommandParser+0x6c>
 8001c12:	e8df f001 	tbb	[pc, r1]
 8001c16:	118b      	.short	0x118b
 8001c18:	11111111 	.word	0x11111111
 8001c1c:	11751111 	.word	0x11751111
 8001c20:	11111111 	.word	0x11111111
 8001c24:	11a01111 	.word	0x11a01111
 8001c28:	11111111 	.word	0x11111111
 8001c2c:	11551111 	.word	0x11551111
 8001c30:	11111111 	.word	0x11111111
 8001c34:	1111      	.short	0x1111
 8001c36:	27          	.byte	0x27
 8001c37:	00          	.byte	0x00
 8001c38:	2007      	movs	r0, #7
        if ((1U == number_of_item) && (0 == rxLength))
 8001c3a:	eb06 0209 	add.w	r2, r6, r9
 8001c3e:	b2d2      	uxtb	r2, r2
 8001c40:	2a01      	cmp	r2, #1
 8001c42:	d034      	beq.n	8001cae <RI_SetRegCommandParser+0xe2>
        if (txSyncFreeSpace !=0 )
 8001c44:	455e      	cmp	r6, fp
 8001c46:	f000 8095 	beq.w	8001d74 <RI_SetRegCommandParser+0x1a8>
          *txData = accessResult;
 8001c4a:	f806 0b01 	strb.w	r0, [r6], #1
          pHandle->txLength++;
 8001c4e:	89fa      	ldrh	r2, [r7, #14]
 8001c50:	3201      	adds	r2, #1
 8001c52:	81fa      	strh	r2, [r7, #14]
          retVal = (accessResult != MCP_CMD_OK) ? MCP_CMD_NOK : retVal;
 8001c54:	2800      	cmp	r0, #0
 8001c56:	f040 8091 	bne.w	8001d7c <RI_SetRegCommandParser+0x1b0>
    while (rxLength > 0)
 8001c5a:	2b00      	cmp	r3, #0
 8001c5c:	f340 81c1 	ble.w	8001fe2 <RI_SetRegCommandParser+0x416>
 8001c60:	462c      	mov	r4, r5
 8001c62:	e7c4      	b.n	8001bee <RI_SetRegCommandParser+0x22>
        break;
      }

      case TYPE_DATA_RAW:
      {
        uint16_t rawSize = *(uint16_t *) data; //cstat !MISRAC2012-Rule-11.3
 8001c64:	f8b4 c002 	ldrh.w	ip, [r4, #2]
        /* The size consumed by the structure is the structure size + 2 bytes used to store the size*/
        *size = rawSize + 2U;
 8001c68:	f10c 0a02 	add.w	sl, ip, #2
 8001c6c:	fa1f fa8a 	uxth.w	sl, sl
        uint8_t *rawData = data; /* rawData points to the first data (after size extraction) */
        rawData++;
        rawData++;

        if (*size > dataAvailable )
 8001c70:	459a      	cmp	sl, r3
 8001c72:	f300 8100 	bgt.w	8001e76 <RI_SetRegCommandParser+0x2aa>
 8001c76:	f5b2 7fd4 	cmp.w	r2, #424	; 0x1a8
        rawData++;
 8001c7a:	f104 0104 	add.w	r1, r4, #4
          *size = 0;
          retVal = MCP_ERROR_BAD_RAW_FORMAT; /* this error stop the parsing of the CMD buffer */
        }
        else
        {
          switch (regID)
 8001c7e:	f000 8138 	beq.w	8001ef2 <RI_SetRegCommandParser+0x326>
 8001c82:	f240 80d8 	bls.w	8001e36 <RI_SetRegCommandParser+0x26a>
 8001c86:	f5b2 7f0a 	cmp.w	r2, #552	; 0x228
 8001c8a:	f000 814d 	beq.w	8001f28 <RI_SetRegCommandParser+0x35c>
 8001c8e:	f5b2 6fa5 	cmp.w	r2, #1320	; 0x528
 8001c92:	f040 80df 	bne.w	8001e54 <RI_SetRegCommandParser+0x288>
              break;
            }

            case MC_REG_ASYNC_UARTA:
            {
              retVal =  MCPA_cfgLog (&MCPA_UART_A, rawData);
 8001c96:	489f      	ldr	r0, [pc, #636]	; (8001f14 <RI_SetRegCommandParser+0x348>)
 8001c98:	f004 ff68 	bl	8006b6c <MCPA_cfgLog>
        if ((1U == number_of_item) && (0 == rxLength))
 8001c9c:	eb06 0209 	add.w	r2, r6, r9
 8001ca0:	b2d2      	uxtb	r2, r2
      rxLength = (int16_t) (rxLength - size);
 8001ca2:	eba8 030a 	sub.w	r3, r8, sl
        if ((1U == number_of_item) && (0 == rxLength))
 8001ca6:	2a01      	cmp	r2, #1
      rxData = rxData+size;
 8001ca8:	4455      	add	r5, sl
      rxLength = (int16_t) (rxLength - size);
 8001caa:	b21b      	sxth	r3, r3
        if ((1U == number_of_item) && (0 == rxLength))
 8001cac:	d1ca      	bne.n	8001c44 <RI_SetRegCommandParser+0x78>
 8001cae:	2b00      	cmp	r3, #0
 8001cb0:	d1c8      	bne.n	8001c44 <RI_SetRegCommandParser+0x78>
      if (MCP_CMD_OK == retVal)
 8001cb2:	2800      	cmp	r0, #0
 8001cb4:	d15f      	bne.n	8001d76 <RI_SetRegCommandParser+0x1aa>
      pHandle->txLength = 0;
 8001cb6:	2000      	movs	r0, #0
 8001cb8:	81f8      	strh	r0, [r7, #14]
}
 8001cba:	b009      	add	sp, #36	; 0x24
 8001cbc:	e8bd 8ff0 	ldmia.w	sp!, {r4, r5, r6, r7, r8, r9, sl, fp, pc}

  const char_t *tempsrcString = srcString;
  char_t *tempdestString = destString;
  *size= 1U ; /* /0 is the min String size */

  while ((*tempsrcString != (char_t)0) && (*size < maxSize))
 8001cc0:	f994 2002 	ldrsb.w	r2, [r4, #2]
 8001cc4:	2a00      	cmp	r2, #0
 8001cc6:	f000 8188 	beq.w	8001fda <RI_SetRegCommandParser+0x40e>
 8001cca:	2b01      	cmp	r3, #1
 8001ccc:	f340 80ed 	ble.w	8001eaa <RI_SetRegCommandParser+0x2de>
 8001cd0:	1ce1      	adds	r1, r4, #3
 8001cd2:	ea6f 0c04 	mvn.w	ip, r4
 8001cd6:	e002      	b.n	8001cde <RI_SetRegCommandParser+0x112>
 8001cd8:	4293      	cmp	r3, r2
 8001cda:	f340 80c6 	ble.w	8001e6a <RI_SetRegCommandParser+0x29e>
  {
    *tempdestString = *tempsrcString;
    tempdestString++;
 8001cde:	eb0c 0201 	add.w	r2, ip, r1
 8001ce2:	4608      	mov	r0, r1
  while ((*tempsrcString != (char_t)0) && (*size < maxSize))
 8001ce4:	f911 4b01 	ldrsb.w	r4, [r1], #1
 8001ce8:	b292      	uxth	r2, r2
 8001cea:	2c00      	cmp	r4, #0
 8001cec:	d1f4      	bne.n	8001cd8 <RI_SetRegCommandParser+0x10c>
      rxData = rxData+size;
 8001cee:	4611      	mov	r1, r2
      rxLength = (int16_t) (rxLength - size);
 8001cf0:	eba8 0302 	sub.w	r3, r8, r2
  { /* Last string char must be 0 */
    retVal = MCP_ERROR_STRING_FORMAT;
  }
  else
  {
    *tempdestString = (int8_t)0;
 8001cf4:	2200      	movs	r2, #0
 8001cf6:	7002      	strb	r2, [r0, #0]
      rxData = rxData+size;
 8001cf8:	440d      	add	r5, r1
      rxLength = (int16_t) (rxLength - size);
 8001cfa:	b21b      	sxth	r3, r3
        retVal = MCP_ERROR_RO_REG;
 8001cfc:	2004      	movs	r0, #4
 8001cfe:	e79c      	b.n	8001c3a <RI_SetRegCommandParser+0x6e>
        uint16_t regdata16 = *(uint16_t *)data; //cstat !MISRAC2012-Rule-11.3
 8001d00:	f5b2 6f69 	cmp.w	r2, #3728	; 0xe90
 8001d04:	8861      	ldrh	r1, [r4, #2]
        switch (regID)
 8001d06:	d00b      	beq.n	8001d20 <RI_SetRegCommandParser+0x154>
 8001d08:	d856      	bhi.n	8001db8 <RI_SetRegCommandParser+0x1ec>
 8001d0a:	f5b2 7f88 	cmp.w	r2, #272	; 0x110
 8001d0e:	f000 8150 	beq.w	8001fb2 <RI_SetRegCommandParser+0x3e6>
 8001d12:	d942      	bls.n	8001d9a <RI_SetRegCommandParser+0x1ce>
 8001d14:	f5b2 6fba 	cmp.w	r2, #1488	; 0x5d0
 8001d18:	d039      	beq.n	8001d8e <RI_SetRegCommandParser+0x1c2>
 8001d1a:	f5b2 6f65 	cmp.w	r2, #3664	; 0xe50
 8001d1e:	d133      	bne.n	8001d88 <RI_SetRegCommandParser+0x1bc>
      rxLength = (int16_t) (rxLength - size);
 8001d20:	f1aa 0304 	sub.w	r3, sl, #4
 8001d24:	b21b      	sxth	r3, r3
      rxData = rxData+size;
 8001d26:	1d25      	adds	r5, r4, #4
  uint8_t retVal = MCP_CMD_OK;
 8001d28:	2000      	movs	r0, #0
 8001d2a:	e786      	b.n	8001c3a <RI_SetRegCommandParser+0x6e>
        switch (regID)
 8001d2c:	f5b2 6fd9 	cmp.w	r2, #1736	; 0x6c8
 8001d30:	f000 80c1 	beq.w	8001eb6 <RI_SetRegCommandParser+0x2ea>
 8001d34:	d857      	bhi.n	8001de6 <RI_SetRegCommandParser+0x21a>
 8001d36:	2a48      	cmp	r2, #72	; 0x48
 8001d38:	f000 80b7 	beq.w	8001eaa <RI_SetRegCommandParser+0x2de>
 8001d3c:	2a88      	cmp	r2, #136	; 0x88
 8001d3e:	f040 80c4 	bne.w	8001eca <RI_SetRegCommandParser+0x2fe>
            if ((uint8_t)MCM_SPEED_MODE == regdata8)
 8001d42:	78a3      	ldrb	r3, [r4, #2]
 8001d44:	2b03      	cmp	r3, #3
 8001d46:	f000 80c6 	beq.w	8001ed6 <RI_SetRegCommandParser+0x30a>
      rxLength = (int16_t) (rxLength - size);
 8001d4a:	f1aa 0303 	sub.w	r3, sl, #3
 8001d4e:	b21b      	sxth	r3, r3
      rxData = rxData+size;
 8001d50:	1ce5      	adds	r5, r4, #3
  uint8_t retVal = MCP_CMD_OK;
 8001d52:	2000      	movs	r0, #0
 8001d54:	e771      	b.n	8001c3a <RI_SetRegCommandParser+0x6e>
        switch (regID)
 8001d56:	2a58      	cmp	r2, #88	; 0x58
 8001d58:	f000 808f 	beq.w	8001e7a <RI_SetRegCommandParser+0x2ae>
 8001d5c:	2a98      	cmp	r2, #152	; 0x98
 8001d5e:	f000 8092 	beq.w	8001e86 <RI_SetRegCommandParser+0x2ba>
 8001d62:	2a18      	cmp	r2, #24
 8001d64:	f000 8089 	beq.w	8001e7a <RI_SetRegCommandParser+0x2ae>
      rxLength = (int16_t) (rxLength - size);
 8001d68:	f1aa 0306 	sub.w	r3, sl, #6
 8001d6c:	b21b      	sxth	r3, r3
      rxData = rxData+size;
 8001d6e:	1da5      	adds	r5, r4, #6
            retVal = MCP_ERROR_UNKNOWN_REG;
 8001d70:	2005      	movs	r0, #5
            break;
 8001d72:	e762      	b.n	8001c3a <RI_SetRegCommandParser+0x6e>
          retVal = MCP_ERROR_NO_TXSYNC_SPACE;
 8001d74:	2008      	movs	r0, #8
}
 8001d76:	b009      	add	sp, #36	; 0x24
 8001d78:	e8bd 8ff0 	ldmia.w	sp!, {r4, r5, r6, r7, r8, r9, sl, fp, pc}
          if ((accessResult == MCP_ERROR_BAD_DATA_TYPE) || (accessResult == MCP_ERROR_BAD_RAW_FORMAT))
 8001d7c:	2807      	cmp	r0, #7
 8001d7e:	d16f      	bne.n	8001e60 <RI_SetRegCommandParser+0x294>
          retVal = (accessResult != MCP_CMD_OK) ? MCP_CMD_NOK : retVal;
 8001d80:	2001      	movs	r0, #1
}
 8001d82:	b009      	add	sp, #36	; 0x24
 8001d84:	e8bd 8ff0 	ldmia.w	sp!, {r4, r5, r6, r7, r8, r9, sl, fp, pc}
 8001d88:	f5b2 6fb2 	cmp.w	r2, #1424	; 0x590
 8001d8c:	d125      	bne.n	8001dda <RI_SetRegCommandParser+0x20e>
      rxLength = (int16_t) (rxLength - size);
 8001d8e:	f1aa 0304 	sub.w	r3, sl, #4
 8001d92:	b21b      	sxth	r3, r3
      rxData = rxData+size;
 8001d94:	1d25      	adds	r5, r4, #4
            retVal = MCP_ERROR_RO_REG;
 8001d96:	2004      	movs	r0, #4
            break;
 8001d98:	e74f      	b.n	8001c3a <RI_SetRegCommandParser+0x6e>
 8001d9a:	2a90      	cmp	r2, #144	; 0x90
 8001d9c:	f000 8113 	beq.w	8001fc6 <RI_SetRegCommandParser+0x3fa>
 8001da0:	2ad0      	cmp	r2, #208	; 0xd0
 8001da2:	d11a      	bne.n	8001dda <RI_SetRegCommandParser+0x20e>
            PID_SetKI(pPIDSpeed[motorID], (int16_t)regdata16);
 8001da4:	485c      	ldr	r0, [pc, #368]	; (8001f18 <RI_SetRegCommandParser+0x34c>)
 8001da6:	b209      	sxth	r1, r1
 8001da8:	f004 ffb2 	bl	8006d10 <PID_SetKI>
