Archive member included to satisfy reference by file (symbol)

c:/st/stm32cubeide_1.11.0/stm32cubeide/plugins/com.st.stm32cube.ide.mcu.externaltools.gnu-tools-for-stm32.10.3-2021.10.win32_1.0.100.202210260954/tools/bin/../lib/gcc/arm-none-eabi/10.3.1/../../../../arm-none-eabi/lib/thumb/v7e-m+fp/hard\libc_nano.a(lib_a-errno.o)
                              ./Application/User/syscalls.o (__errno)
c:/st/stm32cubeide_1.11.0/stm32cubeide/plugins/com.st.stm32cube.ide.mcu.externaltools.gnu-tools-for-stm32.10.3-2021.10.win32_1.0.100.202210260954/tools/bin/../lib/gcc/arm-none-eabi/10.3.1/../../../../arm-none-eabi/lib/thumb/v7e-m+fp/hard\libc_nano.a(lib_a-exit.o)
                              c:/st/stm32cubeide_1.11.0/stm32cubeide/plugins/com.st.stm32cube.ide.mcu.externaltools.gnu-tools-for-stm32.10.3-2021.10.win32_1.0.100.202210260954/tools/bin/../lib/gcc/arm-none-eabi/10.3.1/../../../../arm-none-eabi/lib/thumb/v7e-m+fp/hard/crt0.o (exit)
c:/st/stm32cubeide_1.11.0/stm32cubeide/plugins/com.st.stm32cube.ide.mcu.externaltools.gnu-tools-for-stm32.10.3-2021.10.win32_1.0.100.202210260954/tools/bin/../lib/gcc/arm-none-eabi/10.3.1/../../../../arm-none-eabi/lib/thumb/v7e-m+fp/hard\libc_nano.a(lib_a-impure.o)
                              c:/st/stm32cubeide_1.11.0/stm32cubeide/plugins/com.st.stm32cube.ide.mcu.externaltools.gnu-tools-for-stm32.10.3-2021.10.win32_1.0.100.202210260954/tools/bin/../lib/gcc/arm-none-eabi/10.3.1/../../../../arm-none-eabi/lib/thumb/v7e-m+fp/hard\libc_nano.a(lib_a-exit.o) (_global_impure_ptr)
c:/st/stm32cubeide_1.11.0/stm32cubeide/plugins/com.st.stm32cube.ide.mcu.externaltools.gnu-tools-for-stm32.10.3-2021.10.win32_1.0.100.202210260954/tools/bin/../lib/gcc/arm-none-eabi/10.3.1/../../../../arm-none-eabi/lib/thumb/v7e-m+fp/hard\libc_nano.a(lib_a-init.o)
                              c:/st/stm32cubeide_1.11.0/stm32cubeide/plugins/com.st.stm32cube.ide.mcu.externaltools.gnu-tools-for-stm32.10.3-2021.10.win32_1.0.100.202210260954/tools/bin/../lib/gcc/arm-none-eabi/10.3.1/../../../../arm-none-eabi/lib/thumb/v7e-m+fp/hard/crt0.o (__libc_init_array)
c:/st/stm32cubeide_1.11.0/stm32cubeide/plugins/com.st.stm32cube.ide.mcu.externaltools.gnu-tools-for-stm32.10.3-2021.10.win32_1.0.100.202210260954/tools/bin/../lib/gcc/arm-none-eabi/10.3.1/../../../../arm-none-eabi/lib/thumb/v7e-m+fp/hard\libc_nano.a(lib_a-memcpy-stub.o)
                              ./Middlewares/MotorControl/mcpa.o (memcpy)
c:/st/stm32cubeide_1.11.0/stm32cubeide/plugins/com.st.stm32cube.ide.mcu.externaltools.gnu-tools-for-stm32.10.3-2021.10.win32_1.0.100.202210260954/tools/bin/../lib/gcc/arm-none-eabi/10.3.1/../../../../arm-none-eabi/lib/thumb/v7e-m+fp/hard\libc_nano.a(lib_a-memset.o)
                              c:/st/stm32cubeide_1.11.0/stm32cubeide/plugins/com.st.stm32cube.ide.mcu.externaltools.gnu-tools-for-stm32.10.3-2021.10.win32_1.0.100.202210260954/tools/bin/../lib/gcc/arm-none-eabi/10.3.1/../../../../arm-none-eabi/lib/thumb/v7e-m+fp/hard/crt0.o (memset)
c:/st/stm32cubeide_1.11.0/stm32cubeide/plugins/com.st.stm32cube.ide.mcu.externaltools.gnu-tools-for-stm32.10.3-2021.10.win32_1.0.100.202210260954/tools/bin/../lib/gcc/arm-none-eabi/10.3.1/thumb/v7e-m+fp/hard\libgcc.a(_aeabi_ldivmod.o)
                              ./Drivers/STM32G4xx_HAL_Driver/stm32g4xx_hal_uart.o (__aeabi_ldivmod)
c:/st/stm32cubeide_1.11.0/stm32cubeide/plugins/com.st.stm32cube.ide.mcu.externaltools.gnu-tools-for-stm32.10.3-2021.10.win32_1.0.100.202210260954/tools/bin/../lib/gcc/arm-none-eabi/10.3.1/thumb/v7e-m+fp/hard\libgcc.a(_aeabi_uldivmod.o)
                              ./Drivers/STM32G4xx_HAL_Driver/stm32g4xx_hal_uart.o (__aeabi_uldivmod)
c:/st/stm32cubeide_1.11.0/stm32cubeide/plugins/com.st.stm32cube.ide.mcu.externaltools.gnu-tools-for-stm32.10.3-2021.10.win32_1.0.100.202210260954/tools/bin/../lib/gcc/arm-none-eabi/10.3.1/thumb/v7e-m+fp/hard\libgcc.a(_udivmoddi4.o)
                              c:/st/stm32cubeide_1.11.0/stm32cubeide/plugins/com.st.stm32cube.ide.mcu.externaltools.gnu-tools-for-stm32.10.3-2021.10.win32_1.0.100.202210260954/tools/bin/../lib/gcc/arm-none-eabi/10.3.1/thumb/v7e-m+fp/hard\libgcc.a(_aeabi_ldivmod.o) (__udivmoddi4)
c:/st/stm32cubeide_1.11.0/stm32cubeide/plugins/com.st.stm32cube.ide.mcu.externaltools.gnu-tools-for-stm32.10.3-2021.10.win32_1.0.100.202210260954/tools/bin/../lib/gcc/arm-none-eabi/10.3.1/thumb/v7e-m+fp/hard\libgcc.a(_dvmd_tls.o)
                              c:/st/stm32cubeide_1.11.0/stm32cubeide/plugins/com.st.stm32cube.ide.mcu.externaltools.gnu-tools-for-stm32.10.3-2021.10.win32_1.0.100.202210260954/tools/bin/../lib/gcc/arm-none-eabi/10.3.1/thumb/v7e-m+fp/hard\libgcc.a(_aeabi_ldivmod.o) (__aeabi_ldiv0)

Discarded input sections

 .text          0x0000000000000000        0x0 c:/st/stm32cubeide_1.11.0/stm32cubeide/plugins/com.st.stm32cube.ide.mcu.externaltools.gnu-tools-for-stm32.10.3-2021.10.win32_1.0.100.202210260954/tools/bin/../lib/gcc/arm-none-eabi/10.3.1/thumb/v7e-m+fp/hard/crti.o
 .data          0x0000000000000000        0x0 c:/st/stm32cubeide_1.11.0/stm32cubeide/plugins/com.st.stm32cube.ide.mcu.externaltools.gnu-tools-for-stm32.10.3-2021.10.win32_1.0.100.202210260954/tools/bin/../lib/gcc/arm-none-eabi/10.3.1/thumb/v7e-m+fp/hard/crti.o
 .bss           0x0000000000000000        0x0 c:/st/stm32cubeide_1.11.0/stm32cubeide/plugins/com.st.stm32cube.ide.mcu.externaltools.gnu-tools-for-stm32.10.3-2021.10.win32_1.0.100.202210260954/tools/bin/../lib/gcc/arm-none-eabi/10.3.1/thumb/v7e-m+fp/hard/crti.o
 .data          0x0000000000000000        0x4 c:/st/stm32cubeide_1.11.0/stm32cubeide/plugins/com.st.stm32cube.ide.mcu.externaltools.gnu-tools-for-stm32.10.3-2021.10.win32_1.0.100.202210260954/tools/bin/../lib/gcc/arm-none-eabi/10.3.1/thumb/v7e-m+fp/hard/crtbegin.o
 .rodata        0x0000000000000000       0x24 c:/st/stm32cubeide_1.11.0/stm32cubeide/plugins/com.st.stm32cube.ide.mcu.externaltools.gnu-tools-for-stm32.10.3-2021.10.win32_1.0.100.202210260954/tools/bin/../lib/gcc/arm-none-eabi/10.3.1/thumb/v7e-m+fp/hard/crtbegin.o
 .text          0x0000000000000000       0x7c c:/st/stm32cubeide_1.11.0/stm32cubeide/plugins/com.st.stm32cube.ide.mcu.externaltools.gnu-tools-for-stm32.10.3-2021.10.win32_1.0.100.202210260954/tools/bin/../lib/gcc/arm-none-eabi/10.3.1/../../../../arm-none-eabi/lib/thumb/v7e-m+fp/hard/crt0.o
 .data          0x0000000000000000        0x0 c:/st/stm32cubeide_1.11.0/stm32cubeide/plugins/com.st.stm32cube.ide.mcu.externaltools.gnu-tools-for-stm32.10.3-2021.10.win32_1.0.100.202210260954/tools/bin/../lib/gcc/arm-none-eabi/10.3.1/../../../../arm-none-eabi/lib/thumb/v7e-m+fp/hard/crt0.o
 .bss           0x0000000000000000        0x0 c:/st/stm32cubeide_1.11.0/stm32cubeide/plugins/com.st.stm32cube.ide.mcu.externaltools.gnu-tools-for-stm32.10.3-2021.10.win32_1.0.100.202210260954/tools/bin/../lib/gcc/arm-none-eabi/10.3.1/../../../../arm-none-eabi/lib/thumb/v7e-m+fp/hard/crt0.o
 .ARM.extab     0x0000000000000000        0x0 c:/st/stm32cubeide_1.11.0/stm32cubeide/plugins/com.st.stm32cube.ide.mcu.externaltools.gnu-tools-for-stm32.10.3-2021.10.win32_1.0.100.202210260954/tools/bin/../lib/gcc/arm-none-eabi/10.3.1/../../../../arm-none-eabi/lib/thumb/v7e-m+fp/hard/crt0.o
 .ARM.exidx     0x0000000000000000       0x10 c:/st/stm32cubeide_1.11.0/stm32cubeide/plugins/com.st.stm32cube.ide.mcu.externaltools.gnu-tools-for-stm32.10.3-2021.10.win32_1.0.100.202210260954/tools/bin/../lib/gcc/arm-none-eabi/10.3.1/../../../../arm-none-eabi/lib/thumb/v7e-m+fp/hard/crt0.o
 .ARM.attributes
                0x0000000000000000       0x1c c:/st/stm32cubeide_1.11.0/stm32cubeide/plugins/com.st.stm32cube.ide.mcu.externaltools.gnu-tools-for-stm32.10.3-2021.10.win32_1.0.100.202210260954/tools/bin/../lib/gcc/arm-none-eabi/10.3.1/../../../../arm-none-eabi/lib/thumb/v7e-m+fp/hard/crt0.o
 .text          0x0000000000000000       0x14 ./Application/Startup/startup_stm32g431cbux.o
 .data          0x0000000000000000        0x0 ./Application/Startup/startup_stm32g431cbux.o
 .bss           0x0000000000000000        0x0 ./Application/Startup/startup_stm32g431cbux.o
 .group         0x0000000000000000        0xc ./Application/User/aspep.o
 .group         0x0000000000000000        0xc ./Application/User/aspep.o
 .group         0x0000000000000000        0xc ./Application/User/aspep.o
Memory Configuration

Name             Origin             Length             Attributes
RAM              0x0000000020000000 0x0000000000008000 xrw
FLASH            0x0000000008000000 0x0000000000020000 xr
*default*        0x0000000000000000 0xffffffffffffffff

Linker script and memory map

LOAD c:/st/stm32cubeide_1.11.0/stm32cubeide/plugins/com.st.stm32cube.ide.mcu.externaltools.gnu-tools-for-stm32.10.3-2021.10.win32_1.0.100.202210260954/tools/bin/../lib/gcc/arm-none-eabi/10.3.1/thumb/v7e-m+fp/hard/crti.o
LOAD c:/st/stm32cubeide_1.11.0/stm32cubeide/plugins/com.st.stm32cube.ide.mcu.externaltools.gnu-tools-for-stm32.10.3-2021.10.win32_1.0.100.202210260954/tools/bin/../lib/gcc/arm-none-eabi/10.3.1/thumb/v7e-m+fp/hard/crtbegin.o
LOAD c:/st/stm32cubeide_1.11.0/stm32cubeide/plugins/com.st.stm32cube.ide.mcu.externaltools.gnu-tools-for-stm32.10.3-2021.10.win32_1.0.100.202210260954/tools/bin/../lib/gcc/arm-none-eabi/10.3.1/../../../../arm-none-eabi/lib/thumb/v7e-m+fp/hard/crt0.o
LOAD ./Application/Startup/startup_stm32g431cbux.o
LOAD ./Application/User/aspep.o
LOAD ./Application/User/main.o
LOAD ./Application/User/mc_api.o
LOAD ./Application/User/mc_app_hooks.o
LOAD ./Application/User/mc_config.o
LOAD ./Application/User/mc_configuration_registers.o
LOAD ./Application/User/mc_interface.o
LOAD ./Application/User/mc_math.o
LOAD ./Application/User/mc_parameters.o
LOAD ./Application/User/mc_tasks.o
LOAD ./Application/User/mcp_config.o
LOAD ./Application/User/motorcontrol.o
LOAD ./Application/User/register_interface.o
LOAD ./Application/User/regular_conversion_manager.o
LOAD ./Application/User/stm32g4xx_hal_msp.o
LOAD ./Application/User/stm32g4xx_it.o
LOAD ./Application/User/stm32g4xx_mc_it.o
LOAD ./Application/User/syscalls.o
LOAD ./Application/User/sysmem.o
LOAD ./Application/User/usart_aspep_driver.o
LOAD ./Drivers/CMSIS/system_stm32g4xx.o
LOAD ./Drivers/STM32G4xx_HAL_Driver/stm32g4xx_hal.o
LOAD ./Drivers/STM32G4xx_HAL_Driver/stm32g4xx_hal_adc.o
LOAD ./Drivers/STM32G4xx_HAL_Driver/stm32g4xx_hal_adc_ex.o
LOAD ./Drivers/STM32G4xx_HAL_Driver/stm32g4xx_hal_cortex.o
LOAD ./Drivers/STM32G4xx_HAL_Driver/stm32g4xx_hal_dma.o
LOAD ./Drivers/STM32G4xx_HAL_Driver/stm32g4xx_hal_dma_ex.o
LOAD ./Drivers/STM32G4xx_HAL_Driver/stm32g4xx_hal_exti.o
LOAD ./Drivers/STM32G4xx_HAL_Driver/stm32g4xx_hal_flash.o
LOAD ./Drivers/STM32G4xx_HAL_Driver/stm32g4xx_hal_flash_ex.o
LOAD ./Drivers/STM32G4xx_HAL_Driver/stm32g4xx_hal_flash_ramfunc.o
LOAD ./Drivers/STM32G4xx_HAL_Driver/stm32g4xx_hal_gpio.o
LOAD ./Drivers/STM32G4xx_HAL_Driver/stm32g4xx_hal_pwr.o
LOAD ./Drivers/STM32G4xx_HAL_Driver/stm32g4xx_hal_pwr_ex.o
LOAD ./Drivers/STM32G4xx_HAL_Driver/stm32g4xx_hal_rcc.o
LOAD ./Drivers/STM32G4xx_HAL_Driver/stm32g4xx_hal_rcc_ex.o
LOAD ./Drivers/STM32G4xx_HAL_Driver/stm32g4xx_hal_tim.o
LOAD ./Drivers/STM32G4xx_HAL_Driver/stm32g4xx_hal_tim_ex.o
LOAD ./Drivers/STM32G4xx_HAL_Driver/stm32g4xx_hal_uart.o
LOAD ./Drivers/STM32G4xx_HAL_Driver/stm32g4xx_hal_uart_ex.o
LOAD ./Drivers/STM32G4xx_HAL_Driver/stm32g4xx_ll_adc.o
LOAD ./Middlewares/MotorControl/bus_voltage_sensor.o
LOAD ./Middlewares/MotorControl/g4xx_bemf_ADC_fdbk.o
LOAD ./Middlewares/MotorControl/mcp_sixstep.o
LOAD ./Middlewares/MotorControl/mcpa.o
LOAD ./Middlewares/MotorControl/ntc_temperature_sensor.o
LOAD ./Middlewares/MotorControl/pid_regulator.o
LOAD ./Middlewares/MotorControl/pwm_common_sixstep.o
LOAD ./Middlewares/MotorControl/pwmc_6pwm.o
LOAD ./Middlewares/MotorControl/r_divider_bus_voltage_sensor.o
LOAD ./Middlewares/MotorControl/revup_ctrl_sixstep.o
LOAD ./Middlewares/MotorControl/speed_ctrl.o
LOAD ./Middlewares/MotorControl/speed_pos_fdbk.o
LOAD ./Middlewares/MotorControl/virtual_speed_sensor.o
START GROUP
LOAD c:/st/stm32cubeide_1.11.0/stm32cubeide/plugins/com.st.stm32cube.ide.mcu.externaltools.gnu-tools-for-stm32.10.3-2021.10.win32_1.0.100.202210260954/tools/bin/../lib/gcc/arm-none-eabi/10.3.1/../../../../arm-none-eabi/lib/thumb/v7e-m+fp/hard\libc_nano.a
LOAD c:/st/stm32cubeide_1.11.0/stm32cubeide/plugins/com.st.stm32cube.ide.mcu.externaltools.gnu-tools-for-stm32.10.3-2021.10.win32_1.0.100.202210260954/tools/bin/../lib/gcc/arm-none-eabi/10.3.1/../../../../arm-none-eabi/lib/thumb/v7e-m+fp/hard\libm.a
END GROUP
START GROUP
LOAD c:/st/stm32cubeide_1.11.0/stm32cubeide/plugins/com.st.stm32cube.ide.mcu.externaltools.gnu-tools-for-stm32.10.3-2021.10.win32_1.0.100.202210260954/tools/bin/../lib/gcc/arm-none-eabi/10.3.1/thumb/v7e-m+fp/hard\libgcc.a
LOAD c:/st/stm32cubeide_1.11.0/stm32cubeide/plugins/com.st.stm32cube.ide.mcu.externaltools.gnu-tools-for-stm32.10.3-2021.10.win32_1.0.100.202210260954/tools/bin/../lib/gcc/arm-none-eabi/10.3.1/../../../../arm-none-eabi/lib/thumb/v7e-m+fp/hard\libc_nano.a
END GROUP
START GROUP
LOAD c:/st/stm32cubeide_1.11.0/stm32cubeide/plugins/com.st.stm32cube.ide.mcu.externaltools.gnu-tools-for-stm32.10.3-2021.10.win32_1.0.100.202210260954/tools/bin/../lib/gcc/arm-none-eabi/10.3.1/thumb/v7e-m+fp/hard\libgcc.a
LOAD c:/st/stm32cubeide_1.11.0/stm32cubeide/plugins/com.st.stm32cube.ide.mcu.externaltools.gnu-tools-for-stm32.10.3-2021.10.win32_1.0.100.202210260954/tools/bin/../lib/gcc/arm-none-eabi/10.3.1/../../../../arm-none-eabi/lib/thumb/v7e-m+fp/hard\libc_nano.a
LOAD c:/st/stm32cubeide_1.11.0/stm32cubeide/plugins/com.st.stm32cube.ide.mcu.externaltools.gnu-tools-for-stm32.10.3-2021.10.win32_1.0.100.202210260954/tools/bin/../lib/gcc/arm-none-eabi/10.3.1/../../../../arm-none-eabi/lib/thumb/v7e-m+fp/hard\libnosys.a
END GROUP
START GROUP
LOAD c:/st/stm32cubeide_1.11.0/stm32cubeide/plugins/com.st.stm32cube.ide.mcu.externaltools.gnu-tools-for-stm32.10.3-2021.10.win32_1.0.100.202210260954/tools/bin/../lib/gcc/arm-none-eabi/10.3.1/thumb/v7e-m+fp/hard\libgcc.a
LOAD c:/st/stm32cubeide_1.11.0/stm32cubeide/plugins/com.st.stm32cube.ide.mcu.externaltools.gnu-tools-for-stm32.10.3-2021.10.win32_1.0.100.202210260954/tools/bin/../lib/gcc/arm-none-eabi/10.3.1/../../../../arm-none-eabi/lib/thumb/v7e-m+fp/hard\libc_nano.a
LOAD c:/st/stm32cubeide_1.11.0/stm32cubeide/plugins/com.st.stm32cube.ide.mcu.externaltools.gnu-tools-for-stm32.10.3-2021.10.win32_1.0.100.202210260954/tools/bin/../lib/gcc/arm-none-eabi/10.3.1/../../../../arm-none-eabi/lib/thumb/v7e-m+fp/hard\libnosys.a
END GROUP
LOAD c:/st/stm32cubeide_1.11.0/stm32cubeide/plugins/com.st.stm32cube.ide.mcu.externaltools.gnu-tools-for-stm32.10.3-2021.10.win32_1.0.100.202210260954/tools/bin/../lib/gcc/arm-none-eabi/10.3.1/thumb/v7e-m+fp/hard/crtend.o
LOAD c:/st/stm32cubeide_1.11.0/stm32cubeide/plugins/com.st.stm32cube.ide.mcu.externaltools.gnu-tools-for-stm32.10.3-2021.10.win32_1.0.100.202210260954/tools/bin/../lib/gcc/arm-none-eabi/10.3.1/thumb/v7e-m+fp/hard/crtn.o
                0x0000000020008000                _estack = (ORIGIN (RAM) + LENGTH (RAM))
                0x0000000000000200                _Min_Heap_Size = 0x200
                0x0000000000000400                _Min_Stack_Size = 0x400

.isr_vector     0x0000000008000000      0x1d8
                0x0000000008000000                . = ALIGN (0x4)
 *(.isr_vector)
 .isr_vector    0x0000000008000000      0x1d8 ./Application/Startup/startup_stm32g431cbux.o
                0x0000000008000000                g_pfnVectors
                0x00000000080001d8                . = ALIGN (0x4)

.text           0x00000000080001d8     0x7b88
                0x00000000080001d8                . = ALIGN (0x4)
 *(.text)
 .text          0x00000000080001d8       0x40 c:/st/stm32cubeide_1.11.0/stm32cubeide/plugins/com.st.stm32cube.ide.mcu.externaltools.gnu-tools-for-stm32.10.3-2021.10.win32_1.0.100.202210260954/tools/bin/../lib/gcc/arm-none-eabi/10.3.1/thumb/v7e-m+fp/hard/crtbegin.o
 .text          0x0000000008000218       0x30 c:/st/stm32cubeide_1.11.0/stm32cubeide/plugins/com.st.stm32cube.ide.mcu.externaltools.gnu-tools-for-stm32.10.3-2021.10.win32_1.0.100.202210260954/tools/bin/../lib/gcc/arm-none-eabi/10.3.1/thumb/v7e-m+fp/hard\libgcc.a(_aeabi_uldivmod.o)
                0x0000000008000218                __aeabi_uldivmod
 .text          0x0000000008000248      0x2d0 c:/st/stm32cubeide_1.11.0/stm32cubeide/plugins/com.st.stm32cube.ide.mcu.externaltools.gnu-tools-for-stm32.10.3-2021.10.win32_1.0.100.202210260954/tools/bin/../lib/gcc/arm-none-eabi/10.3.1/thumb/v7e-m+fp/hard\libgcc.a(_udivmoddi4.o)
                0x0000000008000248                __udivmoddi4
 .text          0x0000000008000518        0x4 c:/st/stm32cubeide_1.11.0/stm32cubeide/plugins/com.st.stm32cube.ide.mcu.externaltools.gnu-tools-for-stm32.10.3-2021.10.win32_1.0.100.202210260954/tools/bin/../lib/gcc/arm-none-eabi/10.3.1/thumb/v7e-m+fp/hard\libgcc.a(_dvmd_tls.o)
                0x0000000008000518                __aeabi_idiv0
                0x0000000008000518                __aeabi_ldiv0
 *(.text*)
 .text.Reset_Handler
                0x000000000800051c       0x50 ./Application/Startup/startup_stm32g431cbux.o
                0x000000000800051c                Reset_Handler
 .text.Default_Handler
                0x000000000800056c        0x2 ./Application/Startup/startup_stm32g431cbux.o
                0x000000000800056c                RTC_Alarm_IRQHandler
                0x000000000800056c                EXTI2_IRQHandler
                0x000000000800056c                TIM8_TRG_COM_IRQHandler
                0x000000000800056c                TIM8_CC_IRQHandler
                0x000000000800056c                DebugMon_Handler
                0x000000000800056c                TIM1_CC_IRQHandler
                0x000000000800056c                USB_HP_IRQHandler
                0x000000000800056c                CORDIC_IRQHandler
                0x000000000800056c                PendSV_Handler
                0x000000000800056c                NMI_Handler
                0x000000000800056c                EXTI3_IRQHandler
                0x000000000800056c                I2C3_ER_IRQHandler
                0x000000000800056c                EXTI0_IRQHandler
                0x000000000800056c                I2C2_EV_IRQHandler
                0x000000000800056c                FPU_IRQHandler
                0x000000000800056c                FDCAN1_IT1_IRQHandler
                0x000000000800056c                UsageFault_Handler
                0x000000000800056c                SPI1_IRQHandler
                0x000000000800056c                TIM6_DAC_IRQHandler
                0x000000000800056c                TIM8_UP_IRQHandler
                0x000000000800056c                DMA2_Channel2_IRQHandler
                0x000000000800056c                DMA1_Channel4_IRQHandler
                0x000000000800056c                USART3_IRQHandler
                0x000000000800056c                DMA2_Channel1_IRQHandler
                0x000000000800056c                I2C1_EV_IRQHandler
                0x000000000800056c                DMA1_Channel6_IRQHandler
                0x000000000800056c                UART4_IRQHandler
                0x000000000800056c                DMA2_Channel4_IRQHandler
                0x000000000800056c                TIM3_IRQHandler
                0x000000000800056c                RCC_IRQHandler
                0x000000000800056c                Default_Handler
                0x000000000800056c                RTC_TAMP_LSECSS_IRQHandler
                0x000000000800056c                FMAC_IRQHandler
                0x000000000800056c                TIM7_IRQHandler
                0x000000000800056c                UCPD1_IRQHandler
                0x000000000800056c                I2C3_EV_IRQHandler
                0x000000000800056c                EXTI9_5_IRQHandler
                0x000000000800056c                RTC_WKUP_IRQHandler
                0x000000000800056c                PVD_PVM_IRQHandler
                0x000000000800056c                SPI2_IRQHandler
                0x000000000800056c                MemManage_Handler
                0x000000000800056c                SVC_Handler
                0x000000000800056c                DMA2_Channel5_IRQHandler
                0x000000000800056c                CRS_IRQHandler
                0x000000000800056c                DMA1_Channel5_IRQHandler
                0x000000000800056c                USB_LP_IRQHandler
                0x000000000800056c                EXTI4_IRQHandler
                0x000000000800056c                RNG_IRQHandler
                0x000000000800056c                TIM1_TRG_COM_TIM17_IRQHandler
                0x000000000800056c                DMA1_Channel3_IRQHandler
                0x000000000800056c                WWDG_IRQHandler
                0x000000000800056c                LPUART1_IRQHandler
                0x000000000800056c                DMA2_Channel6_IRQHandler
                0x000000000800056c                FDCAN1_IT0_IRQHandler
                0x000000000800056c                TIM2_IRQHandler
                0x000000000800056c                COMP1_2_3_IRQHandler
                0x000000000800056c                EXTI1_IRQHandler
                0x000000000800056c                I2C2_ER_IRQHandler
                0x000000000800056c                DMA1_Channel2_IRQHandler
                0x000000000800056c                TIM8_BRK_IRQHandler
                0x000000000800056c                FLASH_IRQHandler
                0x000000000800056c                BusFault_Handler
                0x000000000800056c                USART1_IRQHandler
                0x000000000800056c                SPI3_IRQHandler
                0x000000000800056c                I2C1_ER_IRQHandler
                0x000000000800056c                LPTIM1_IRQHandler
                0x000000000800056c                DMAMUX_OVR_IRQHandler
                0x000000000800056c                USBWakeUp_IRQHandler
                0x000000000800056c                SAI1_IRQHandler
                0x000000000800056c                DMA2_Channel3_IRQHandler
                0x000000000800056c                COMP4_IRQHandler
 *fill*         0x000000000800056e        0x2 
 .text.ASPEP_start
                0x0000000008000570       0x28 ./Application/User/aspep.o
                0x0000000008000570                ASPEP_start
 .text.ASPEP_sendBeacon
                0x0000000008000598       0x8c ./Application/User/aspep.o
                0x0000000008000598                ASPEP_sendBeacon
 .text.ASPEP_sendPing
                0x0000000008000624       0x90 ./Application/User/aspep.o
                0x0000000008000624                ASPEP_sendPing
 .text.ASPEP_getBuffer
                0x00000000080006b4       0x6c ./Application/User/aspep.o
                0x00000000080006b4                ASPEP_getBuffer
 .text.ASPEP_sendPacket
                0x0000000008000720      0x118 ./Application/User/aspep.o
                0x0000000008000720                ASPEP_sendPacket
 .text.ASPEP_HWDataTransmittedIT
                0x0000000008000838       0x98 ./Application/User/aspep.o
                0x0000000008000838                ASPEP_HWDataTransmittedIT
 .text.ASPEP_RXframeProcess
                0x00000000080008d0      0x2a8 ./Application/User/aspep.o
                0x00000000080008d0                ASPEP_RXframeProcess
 .text.ASPEP_HWDataReceivedIT
                0x0000000008000b78       0x9c ./Application/User/aspep.o
                0x0000000008000b78                ASPEP_HWDataReceivedIT
 .text.ASPEP_HWDMAReset
                0x0000000008000c14       0x14 ./Application/User/aspep.o
                0x0000000008000c14                ASPEP_HWDMAReset
 .text.SystemClock_Config
                0x0000000008000c28       0x88 ./Application/User/main.o
                0x0000000008000c28                SystemClock_Config
 .text.startup.main
                0x0000000008000cb0      0x4ac ./Application/User/main.o
                0x0000000008000cb0                main
 .text.Error_Handler
                0x000000000800115c        0x4 ./Application/User/main.o
                0x000000000800115c                Error_Handler
 .text.MC_StartMotor1
                0x0000000008001160        0xc ./Application/User/mc_api.o
                0x0000000008001160                MC_StartMotor1
 .text.MC_StopMotor1
                0x000000000800116c        0xc ./Application/User/mc_api.o
                0x000000000800116c                MC_StopMotor1
 .text.MC_GetSTMStateMotor1
                0x0000000008001178        0xc ./Application/User/mc_api.o
                0x0000000008001178                MC_GetSTMStateMotor1
 .text.MC_APP_BootHook
                0x0000000008001184        0x4 ./Application/User/mc_app_hooks.o
                0x0000000008001184                MC_APP_BootHook
 .text.MC_APP_PostMediumFrequencyHook_M1
                0x0000000008001188        0x4 ./Application/User/mc_app_hooks.o
                0x0000000008001188                MC_APP_PostMediumFrequencyHook_M1
 .text.MCI_Init
                0x000000000800118c       0x24 ./Application/User/mc_interface.o
                0x000000000800118c                MCI_Init
 .text.MCI_ExecSpeedRamp
                0x00000000080011b0       0x34 ./Application/User/mc_interface.o
                0x00000000080011b0                MCI_ExecSpeedRamp
 .text.MCI_FaultProcessing
                0x00000000080011e4       0x18 ./Application/User/mc_interface.o
                0x00000000080011e4                MCI_FaultProcessing
 .text.MCI_ExecBufferedCommands
                0x00000000080011fc       0x3c ./Application/User/mc_interface.o
                0x00000000080011fc                MCI_ExecBufferedCommands
 .text.MCI_GetSTMState
                0x0000000008001238        0x4 ./Application/User/mc_interface.o
                0x0000000008001238                MCI_GetSTMState
 .text.MCI_GetOccurredFaults
                0x000000000800123c        0x4 ./Application/User/mc_interface.o
                0x000000000800123c                MCI_GetOccurredFaults
 .text.MCI_GetCurrentFaults
                0x0000000008001240        0x4 ./Application/User/mc_interface.o
                0x0000000008001240                MCI_GetCurrentFaults
 .text.MCI_StartMotor
                0x0000000008001244       0x2c ./Application/User/mc_interface.o
                0x0000000008001244                MCI_StartMotor
 .text.MCI_StopMotor
                0x0000000008001270       0x40 ./Application/User/mc_interface.o
                0x0000000008001270                MCI_StopMotor
 .text.MCI_FaultAcknowledged
                0x00000000080012b0       0x24 ./Application/User/mc_interface.o
                0x00000000080012b0                MCI_FaultAcknowledged
 .text.MCI_GetFaultState
                0x00000000080012d4        0xc ./Application/User/mc_interface.o
                0x00000000080012d4                MCI_GetFaultState
 .text.MCI_GetControlMode
                0x00000000080012e0        0x4 ./Application/User/mc_interface.o
                0x00000000080012e0                MCI_GetControlMode
 .text.MCI_GetImposedMotorDirection
                0x00000000080012e4       0x1c ./Application/User/mc_interface.o
                0x00000000080012e4                MCI_GetImposedMotorDirection
 .text.MCI_GetLastRampFinalSpeed
                0x0000000008001300        0x8 ./Application/User/mc_interface.o
                0x0000000008001300                MCI_GetLastRampFinalSpeed
 .text.MCI_GetLastRampFinalDuration
                0x0000000008001308        0x4 ./Application/User/mc_interface.o
                0x0000000008001308                MCI_GetLastRampFinalDuration
 .text.MCI_StopRamp
                0x000000000800130c        0x8 ./Application/User/mc_interface.o
                0x000000000800130c                MCI_StopRamp
 .text.MCI_GetAvrgMecSpeedUnit
                0x0000000008001314       0x10 ./Application/User/mc_interface.o
                0x0000000008001314                MCI_GetAvrgMecSpeedUnit
 .text.MCI_GetMecSpeedRefUnit
                0x0000000008001324        0x8 ./Application/User/mc_interface.o
                0x0000000008001324                MCI_GetMecSpeedRefUnit
 .text.MCI_GetDutyCycleRef
                0x000000000800132c        0x8 ./Application/User/mc_interface.o
                0x000000000800132c                MCI_GetDutyCycleRef
 .text.SixStep_Clear
                0x0000000008001334       0x50 ./Application/User/mc_tasks.o
                0x0000000008001334                SixStep_Clear
 .text.MCboot   0x0000000008001384       0xc8 ./Application/User/mc_tasks.o
                0x0000000008001384                MCboot
 .text.SixStep_InitAdditionalMethods
                0x000000000800144c        0x4 ./Application/User/mc_tasks.o
                0x000000000800144c                SixStep_InitAdditionalMethods
 .text.SixStep_CalcSpeedRef
                0x0000000008001450       0x28 ./Application/User/mc_tasks.o
                0x0000000008001450                SixStep_CalcSpeedRef
 .text.TSK_SetChargeBootCapDelayM1
                0x0000000008001478        0xc ./Application/User/mc_tasks.o
                0x0000000008001478                TSK_SetChargeBootCapDelayM1
 .text.TSK_ChargeBootCapDelayHasElapsedM1
                0x0000000008001484       0x14 ./Application/User/mc_tasks.o
                0x0000000008001484                TSK_ChargeBootCapDelayHasElapsedM1
 .text.TSK_SetStopPermanencyTimeM1
                0x0000000008001498        0xc ./Application/User/mc_tasks.o
                0x0000000008001498                TSK_SetStopPermanencyTimeM1
 .text.TSK_StopPermanencyTimeHasElapsedM1
                0x00000000080014a4       0x14 ./Application/User/mc_tasks.o
                0x00000000080014a4                TSK_StopPermanencyTimeHasElapsedM1
 .text.TSK_MediumFrequencyTaskM1
                0x00000000080014b8      0x2c0 ./Application/User/mc_tasks.o
                0x00000000080014b8                TSK_MediumFrequencyTaskM1
 .text.MC_Scheduler
                0x0000000008001778       0x8c ./Application/User/mc_tasks.o
                0x0000000008001778                MC_Scheduler
 .text.TSK_HighFrequencyTask
                0x0000000008001804      0x150 ./Application/User/mc_tasks.o
                0x0000000008001804                TSK_HighFrequencyTask
 .text.TSK_SafetyTask_PWMOFF
                0x0000000008001954       0x98 ./Application/User/mc_tasks.o
                0x0000000008001954                TSK_SafetyTask_PWMOFF
 .text.TSK_SafetyTask
                0x00000000080019ec       0x20 ./Application/User/mc_tasks.o
                0x00000000080019ec                TSK_SafetyTask
 .text.MC_RunMotorControlTasks
                0x0000000008001a0c       0x18 ./Application/User/mc_tasks.o
                0x0000000008001a0c                MC_RunMotorControlTasks
 .text.TSK_HardwareFaultTask
                0x0000000008001a24       0x20 ./Application/User/mc_tasks.o
                0x0000000008001a24                TSK_HardwareFaultTask
 .text.UI_HandleStartStopButton_cb
                0x0000000008001a44       0x18 ./Application/User/mc_tasks.o
                0x0000000008001a44                UI_HandleStartStopButton_cb
 .text.mc_lock_pins
                0x0000000008001a5c      0x104 ./Application/User/mc_tasks.o
                0x0000000008001a5c                mc_lock_pins
 .text.MX_MotorControl_Init
                0x0000000008001b60       0x3c ./Application/User/motorcontrol.o
                0x0000000008001b60                MX_MotorControl_Init
 .text.RI_SetRegCommandParser
                0x0000000008001b9c      0x428 ./Application/User/register_interface.o
                0x0000000008001b9c                RI_SetRegCommandParser
 .text.RI_GetRegCommandParser
                0x0000000008001fc4      0x520 ./Application/User/register_interface.o
                0x0000000008001fc4                RI_GetRegCommandParser
 .text.RI_GetIDSize
                0x00000000080024e4       0x18 ./Application/User/register_interface.o
                0x00000000080024e4                RI_GetIDSize
 .text.RI_GetPtrReg
                0x00000000080024fc       0x84 ./Application/User/register_interface.o
                0x00000000080024fc                RI_GetPtrReg
 .text.RCM_RegisterRegConv
                0x0000000008002580      0x1d0 ./Application/User/regular_conversion_manager.o
                0x0000000008002580                RCM_RegisterRegConv
 .text.RCM_ExecRegularConv
                0x0000000008002750      0x18c ./Application/User/regular_conversion_manager.o
                0x0000000008002750                RCM_ExecRegularConv
 .text.RCM_ExecUserConv
                0x00000000080028dc       0x60 ./Application/User/regular_conversion_manager.o
                0x00000000080028dc                RCM_ExecUserConv
 .text.RCM_ExecNextConv
                0x000000000800293c       0xa0 ./Application/User/regular_conversion_manager.o
                0x000000000800293c                RCM_ExecNextConv
 .text.RCM_ReadOngoingConv
                0x00000000080029dc       0x60 ./Application/User/regular_conversion_manager.o
                0x00000000080029dc                RCM_ReadOngoingConv
 .text.HAL_MspInit
                0x0000000008002a3c       0x40 ./Application/User/stm32g4xx_hal_msp.o
                0x0000000008002a3c                HAL_MspInit
 .text.HAL_ADC_MspInit
                0x0000000008002a7c      0x15c ./Application/User/stm32g4xx_hal_msp.o
                0x0000000008002a7c                HAL_ADC_MspInit
 .text.HAL_TIM_Base_MspInit
                0x0000000008002bd8       0x50 ./Application/User/stm32g4xx_hal_msp.o
                0x0000000008002bd8                HAL_TIM_Base_MspInit
 .text.HAL_TIM_MspPostInit
                0x0000000008002c28       0xb8 ./Application/User/stm32g4xx_hal_msp.o
                0x0000000008002c28                HAL_TIM_MspPostInit
 .text.HAL_UART_MspInit
                0x0000000008002ce0       0xfc ./Application/User/stm32g4xx_hal_msp.o
                0x0000000008002ce0                HAL_UART_MspInit
 .text.ADC1_2_IRQHandler
                0x0000000008002ddc       0x4c ./Application/User/stm32g4xx_mc_it.o
                0x0000000008002ddc                ADC1_2_IRQHandler
 .text.TIM4_IRQHandler
                0x0000000008002e28       0x24 ./Application/User/stm32g4xx_mc_it.o
                0x0000000008002e28                TIM4_IRQHandler
 .text.TIM1_UP_TIM16_IRQHandler
                0x0000000008002e4c       0x10 ./Application/User/stm32g4xx_mc_it.o
                0x0000000008002e4c                TIM1_UP_TIM16_IRQHandler
 .text.TIM1_BRK_TIM15_IRQHandler
                0x0000000008002e5c       0x3c ./Application/User/stm32g4xx_mc_it.o
                0x0000000008002e5c                TIM1_BRK_TIM15_IRQHandler
 .text.DMA1_Channel1_IRQHandler
                0x0000000008002e98       0x1c ./Application/User/stm32g4xx_mc_it.o
                0x0000000008002e98                DMA1_Channel1_IRQHandler
 .text.USART2_IRQHandler
                0x0000000008002eb4       0xe0 ./Application/User/stm32g4xx_mc_it.o
                0x0000000008002eb4                USART2_IRQHandler
 .text.HardFault_Handler
                0x0000000008002f94        0x8 ./Application/User/stm32g4xx_mc_it.o
                0x0000000008002f94                HardFault_Handler
 .text.SysTick_Handler
                0x0000000008002f9c       0x30 ./Application/User/stm32g4xx_mc_it.o
                0x0000000008002f9c                SysTick_Handler
 .text.EXTI15_10_IRQHandler
                0x0000000008002fcc       0x18 ./Application/User/stm32g4xx_mc_it.o
                0x0000000008002fcc                EXTI15_10_IRQHandler
 .text.UASPEP_INIT
                0x0000000008002fe4       0x90 ./Application/User/usart_aspep_driver.o
                0x0000000008002fe4                UASPEP_INIT
 .text.UASPEP_SEND_PACKET
                0x0000000008003074       0x3c ./Application/User/usart_aspep_driver.o
                0x0000000008003074                UASPEP_SEND_PACKET
 .text.UASPEP_RECEIVE_BUFFER
                0x00000000080030b0       0x38 ./Application/User/usart_aspep_driver.o
                0x00000000080030b0                UASPEP_RECEIVE_BUFFER
 .text.UASPEP_IDLE_ENABLE
                0x00000000080030e8       0x18 ./Application/User/usart_aspep_driver.o
                0x00000000080030e8                UASPEP_IDLE_ENABLE
 .text.SystemInit
                0x0000000008003100       0x14 ./Drivers/CMSIS/system_stm32g4xx.o
                0x0000000008003100                SystemInit
 .text.HAL_InitTick
                0x0000000008003114       0x4c ./Drivers/STM32G4xx_HAL_Driver/stm32g4xx_hal.o
                0x0000000008003114                HAL_InitTick
 .text.HAL_Init
                0x0000000008003160       0x20 ./Drivers/STM32G4xx_HAL_Driver/stm32g4xx_hal.o
                0x0000000008003160                HAL_Init
 .text.HAL_IncTick
                0x0000000008003180       0x18 ./Drivers/STM32G4xx_HAL_Driver/stm32g4xx_hal.o
                0x0000000008003180                HAL_IncTick
 .text.HAL_GetTick
                0x0000000008003198        0xc ./Drivers/STM32G4xx_HAL_Driver/stm32g4xx_hal.o
                0x0000000008003198                HAL_GetTick
 .text.HAL_ADC_Init
                0x00000000080031a4      0x208 ./Drivers/STM32G4xx_HAL_Driver/stm32g4xx_hal_adc.o
                0x00000000080031a4                HAL_ADC_Init
 .text.HAL_ADC_ConfigChannel
                0x00000000080033ac      0x4d8 ./Drivers/STM32G4xx_HAL_Driver/stm32g4xx_hal_adc.o
                0x00000000080033ac                HAL_ADC_ConfigChannel
 .text.HAL_ADCEx_InjectedConfigChannel
                0x0000000008003884      0x5f4 ./Drivers/STM32G4xx_HAL_Driver/stm32g4xx_hal_adc_ex.o
                0x0000000008003884                HAL_ADCEx_InjectedConfigChannel
 .text.HAL_ADCEx_MultiModeConfigChannel
                0x0000000008003e78       0xcc ./Drivers/STM32G4xx_HAL_Driver/stm32g4xx_hal_adc_ex.o
                0x0000000008003e78                HAL_ADCEx_MultiModeConfigChannel
 .text.HAL_NVIC_SetPriorityGrouping
                0x0000000008003f44       0x24 ./Drivers/STM32G4xx_HAL_Driver/stm32g4xx_hal_cortex.o
                0x0000000008003f44                HAL_NVIC_SetPriorityGrouping
 .text.HAL_NVIC_SetPriority
                0x0000000008003f68       0x7c ./Drivers/STM32G4xx_HAL_Driver/stm32g4xx_hal_cortex.o
                0x0000000008003f68                HAL_NVIC_SetPriority
 .text.HAL_NVIC_EnableIRQ
                0x0000000008003fe4       0x1c ./Drivers/STM32G4xx_HAL_Driver/stm32g4xx_hal_cortex.o
                0x0000000008003fe4                HAL_NVIC_EnableIRQ
 .text.HAL_SYSTICK_Config
                0x0000000008004000       0x34 ./Drivers/STM32G4xx_HAL_Driver/stm32g4xx_hal_cortex.o
                0x0000000008004000                HAL_SYSTICK_Config
 .text.HAL_SYSTICK_Callback
                0x0000000008004034        0x4 ./Drivers/STM32G4xx_HAL_Driver/stm32g4xx_hal_cortex.o
                0x0000000008004034                HAL_SYSTICK_Callback
 .text.HAL_SYSTICK_IRQHandler
                0x0000000008004038        0x8 ./Drivers/STM32G4xx_HAL_Driver/stm32g4xx_hal_cortex.o
                0x0000000008004038                HAL_SYSTICK_IRQHandler
 .text.HAL_DMA_Init
                0x0000000008004040      0x12c ./Drivers/STM32G4xx_HAL_Driver/stm32g4xx_hal_dma.o
                0x0000000008004040                HAL_DMA_Init
 .text.HAL_GPIO_Init
                0x000000000800416c      0x1f0 ./Drivers/STM32G4xx_HAL_Driver/stm32g4xx_hal_gpio.o
                0x000000000800416c                HAL_GPIO_Init
 .text.HAL_GPIO_WritePin
                0x000000000800435c        0xc ./Drivers/STM32G4xx_HAL_Driver/stm32g4xx_hal_gpio.o
                0x000000000800435c                HAL_GPIO_WritePin
 .text.HAL_PWREx_ControlVoltageScaling
                0x0000000008004368       0xfc ./Drivers/STM32G4xx_HAL_Driver/stm32g4xx_hal_pwr_ex.o
                0x0000000008004368                HAL_PWREx_ControlVoltageScaling
 .text.HAL_PWREx_DisableUCPDDeadBattery
                0x0000000008004464       0x10 ./Drivers/STM32G4xx_HAL_Driver/stm32g4xx_hal_pwr_ex.o
                0x0000000008004464                HAL_PWREx_DisableUCPDDeadBattery
 .text.HAL_RCC_OscConfig
                0x0000000008004474      0x498 ./Drivers/STM32G4xx_HAL_Driver/stm32g4xx_hal_rcc.o
                0x0000000008004474                HAL_RCC_OscConfig
 .text.HAL_RCC_GetSysClockFreq
                0x000000000800490c       0x70 ./Drivers/STM32G4xx_HAL_Driver/stm32g4xx_hal_rcc.o
                0x000000000800490c                HAL_RCC_GetSysClockFreq
 .text.HAL_RCC_ClockConfig
                0x000000000800497c      0x224 ./Drivers/STM32G4xx_HAL_Driver/stm32g4xx_hal_rcc.o
                0x000000000800497c                HAL_RCC_ClockConfig
 .text.HAL_RCC_GetHCLKFreq
                0x0000000008004ba0        0xc ./Drivers/STM32G4xx_HAL_Driver/stm32g4xx_hal_rcc.o
                0x0000000008004ba0                HAL_RCC_GetHCLKFreq
 .text.HAL_RCC_GetPCLK1Freq
                0x0000000008004bac       0x24 ./Drivers/STM32G4xx_HAL_Driver/stm32g4xx_hal_rcc.o
                0x0000000008004bac                HAL_RCC_GetPCLK1Freq
 .text.HAL_RCC_GetPCLK2Freq
                0x0000000008004bd0       0x24 ./Drivers/STM32G4xx_HAL_Driver/stm32g4xx_hal_rcc.o
                0x0000000008004bd0                HAL_RCC_GetPCLK2Freq
 .text.HAL_RCCEx_PeriphCLKConfig
                0x0000000008004bf4      0x298 ./Drivers/STM32G4xx_HAL_Driver/stm32g4xx_hal_rcc_ex.o
                0x0000000008004bf4                HAL_RCCEx_PeriphCLKConfig
 .text.TIM_OC1_SetConfig
                0x0000000008004e8c       0x78 ./Drivers/STM32G4xx_HAL_Driver/stm32g4xx_hal_tim.o
 .text.TIM_OC3_SetConfig
                0x0000000008004f04       0x80 ./Drivers/STM32G4xx_HAL_Driver/stm32g4xx_hal_tim.o
 .text.TIM_OC4_SetConfig
                0x0000000008004f84       0x80 ./Drivers/STM32G4xx_HAL_Driver/stm32g4xx_hal_tim.o
 .text.HAL_TIM_Base_Init
                0x0000000008005004      0x110 ./Drivers/STM32G4xx_HAL_Driver/stm32g4xx_hal_tim.o
                0x0000000008005004                HAL_TIM_Base_Init
 .text.HAL_TIM_PWM_MspInit
                0x0000000008005114        0x4 ./Drivers/STM32G4xx_HAL_Driver/stm32g4xx_hal_tim.o
                0x0000000008005114                HAL_TIM_PWM_MspInit
 .text.HAL_TIM_PWM_Init
                0x0000000008005118      0x110 ./Drivers/STM32G4xx_HAL_Driver/stm32g4xx_hal_tim.o
                0x0000000008005118                HAL_TIM_PWM_Init
 .text.HAL_TIM_ConfigClockSource
                0x0000000008005228      0x1a8 ./Drivers/STM32G4xx_HAL_Driver/stm32g4xx_hal_tim.o
                0x0000000008005228                HAL_TIM_ConfigClockSource
 .text.TIM_OC2_SetConfig
                0x00000000080053d0       0x80 ./Drivers/STM32G4xx_HAL_Driver/stm32g4xx_hal_tim.o
                0x00000000080053d0                TIM_OC2_SetConfig
 .text.HAL_TIM_PWM_ConfigChannel
                0x0000000008005450      0x1fc ./Drivers/STM32G4xx_HAL_Driver/stm32g4xx_hal_tim.o
                0x0000000008005450                HAL_TIM_PWM_ConfigChannel
 .text.HAL_TIMEx_MasterConfigSynchronization
                0x000000000800564c       0x94 ./Drivers/STM32G4xx_HAL_Driver/stm32g4xx_hal_tim_ex.o
                0x000000000800564c                HAL_TIMEx_MasterConfigSynchronization
 .text.HAL_TIMEx_ConfigBreakDeadTime
                0x00000000080056e0       0x9c ./Drivers/STM32G4xx_HAL_Driver/stm32g4xx_hal_tim_ex.o
                0x00000000080056e0                HAL_TIMEx_ConfigBreakDeadTime
 .text.UART_SetConfig
                0x000000000800577c      0x2e0 ./Drivers/STM32G4xx_HAL_Driver/stm32g4xx_hal_uart.o
                0x000000000800577c                UART_SetConfig
 .text.UART_AdvFeatureConfig
                0x0000000008005a5c       0xb0 ./Drivers/STM32G4xx_HAL_Driver/stm32g4xx_hal_uart.o
                0x0000000008005a5c                UART_AdvFeatureConfig
 .text.UART_WaitOnFlagUntilTimeout
                0x0000000008005b0c       0xf0 ./Drivers/STM32G4xx_HAL_Driver/stm32g4xx_hal_uart.o
                0x0000000008005b0c                UART_WaitOnFlagUntilTimeout
 .text.HAL_UART_Init
                0x0000000008005bfc       0xd8 ./Drivers/STM32G4xx_HAL_Driver/stm32g4xx_hal_uart.o
                0x0000000008005bfc                HAL_UART_Init
 .text.HAL_UARTEx_DisableFifoMode
                0x0000000008005cd4       0x3c ./Drivers/STM32G4xx_HAL_Driver/stm32g4xx_hal_uart_ex.o
                0x0000000008005cd4                HAL_UARTEx_DisableFifoMode
 .text.HAL_UARTEx_SetTxFifoThreshold
                0x0000000008005d10       0x84 ./Drivers/STM32G4xx_HAL_Driver/stm32g4xx_hal_uart_ex.o
                0x0000000008005d10                HAL_UARTEx_SetTxFifoThreshold
 .text.HAL_UARTEx_SetRxFifoThreshold
                0x0000000008005d94       0x84 ./Drivers/STM32G4xx_HAL_Driver/stm32g4xx_hal_uart_ex.o
                0x0000000008005d94                HAL_UARTEx_SetRxFifoThreshold
 .text.VBS_GetAvBusVoltage_V
                0x0000000008005e18        0xc ./Middlewares/MotorControl/bus_voltage_sensor.o
                0x0000000008005e18                VBS_GetAvBusVoltage_V
 .text.BADC_Init
                0x0000000008005e24      0x204 ./Middlewares/MotorControl/g4xx_bemf_ADC_fdbk.o
                0x0000000008005e24                BADC_Init
 .text.BADC_Clear
                0x0000000008006028       0x6c ./Middlewares/MotorControl/g4xx_bemf_ADC_fdbk.o
                0x0000000008006028                BADC_Clear
 .text.BADC_SpeedMeasureOn
                0x0000000008006094       0x20 ./Middlewares/MotorControl/g4xx_bemf_ADC_fdbk.o
                0x0000000008006094                BADC_SpeedMeasureOn
 .text.BADC_SpeedMeasureOff
                0x00000000080060b4       0x18 ./Middlewares/MotorControl/g4xx_bemf_ADC_fdbk.o
                0x00000000080060b4                BADC_SpeedMeasureOff
 .text.BADC_Start
                0x00000000080060cc       0x98 ./Middlewares/MotorControl/g4xx_bemf_ADC_fdbk.o
                0x00000000080060cc                BADC_Start
 .text.BADC_Stop
                0x0000000008006164       0x44 ./Middlewares/MotorControl/g4xx_bemf_ADC_fdbk.o
                0x0000000008006164                BADC_Stop
 .text.BADC_SetSamplingPoint
                0x00000000080061a8       0x68 ./Middlewares/MotorControl/g4xx_bemf_ADC_fdbk.o
                0x00000000080061a8                BADC_SetSamplingPoint
 .text.BADC_IsZcDetected
                0x0000000008006210      0x34c ./Middlewares/MotorControl/g4xx_bemf_ADC_fdbk.o
                0x0000000008006210                BADC_IsZcDetected
 .text.BADC_CalcAvrgMecSpeedUnit
                0x000000000800655c      0x118 ./Middlewares/MotorControl/g4xx_bemf_ADC_fdbk.o
                0x000000000800655c                BADC_CalcAvrgMecSpeedUnit
 .text.BADC_LfTim_UP_IRQHandler
                0x0000000008006674       0x58 ./Middlewares/MotorControl/g4xx_bemf_ADC_fdbk.o
                0x0000000008006674                BADC_LfTim_UP_IRQHandler
 .text.BADC_SetDirection
                0x00000000080066cc        0x8 ./Middlewares/MotorControl/g4xx_bemf_ADC_fdbk.o
                0x00000000080066cc                BADC_SetDirection
 .text.BADC_IsObserverConverged
                0x00000000080066d4        0x8 ./Middlewares/MotorControl/g4xx_bemf_ADC_fdbk.o
                0x00000000080066d4                BADC_IsObserverConverged
 .text.BADC_CalcElAngle
                0x00000000080066dc       0x1c ./Middlewares/MotorControl/g4xx_bemf_ADC_fdbk.o
                0x00000000080066dc                BADC_CalcElAngle
 .text.BADC_CalcAvrgElSpeedDpp
                0x00000000080066f8        0x4 ./Middlewares/MotorControl/g4xx_bemf_ADC_fdbk.o
                0x00000000080066f8                BADC_CalcAvrgElSpeedDpp
 .text.BADC_SetLfTimerRevUp
                0x00000000080066fc       0x3c ./Middlewares/MotorControl/g4xx_bemf_ADC_fdbk.o
                0x00000000080066fc                BADC_SetLfTimerRevUp
 .text.BADC_CalcRevUpDemagTime
                0x0000000008006738       0x40 ./Middlewares/MotorControl/g4xx_bemf_ADC_fdbk.o
                0x0000000008006738                BADC_CalcRevUpDemagTime
 .text.BADC_CalcRunDemagTime
                0x0000000008006778       0x44 ./Middlewares/MotorControl/g4xx_bemf_ADC_fdbk.o
                0x0000000008006778                BADC_CalcRunDemagTime
 .text.BADC_SetLoopClosed
                0x00000000080067bc        0x8 ./Middlewares/MotorControl/g4xx_bemf_ADC_fdbk.o
                0x00000000080067bc                BADC_SetLoopClosed
 .text.BADC_GetLastBemfValue
                0x00000000080067c4        0xc ./Middlewares/MotorControl/g4xx_bemf_ADC_fdbk.o
                0x00000000080067c4                BADC_GetLastBemfValue
 .text.BADC_GetBemfZcrFlag
                0x00000000080067d0        0x8 ./Middlewares/MotorControl/g4xx_bemf_ADC_fdbk.o
                0x00000000080067d0                BADC_GetBemfZcrFlag
 .text.MCP_ReceivedPacket
                0x00000000080067d8      0x180 ./Middlewares/MotorControl/mcp_sixstep.o
                0x00000000080067d8                MCP_ReceivedPacket
 .text.MCPA_dataLog
                0x0000000008006958      0x188 ./Middlewares/MotorControl/mcpa.o
                0x0000000008006958                MCPA_dataLog
 .text.MCPA_flushDataLog
                0x0000000008006ae0       0x5c ./Middlewares/MotorControl/mcpa.o
                0x0000000008006ae0                MCPA_flushDataLog
 .text.MCPA_cfgLog
                0x0000000008006b3c       0xec ./Middlewares/MotorControl/mcpa.o
                0x0000000008006b3c                MCPA_cfgLog
 .text.NTC_SetFaultState
                0x0000000008006c28       0x1c ./Middlewares/MotorControl/ntc_temperature_sensor.o
                0x0000000008006c28                NTC_SetFaultState
 .text.NTC_Clear
                0x0000000008006c44        0x8 ./Middlewares/MotorControl/ntc_temperature_sensor.o
                0x0000000008006c44                NTC_Clear
 .text.NTC_Init
                0x0000000008006c4c       0x24 ./Middlewares/MotorControl/ntc_temperature_sensor.o
                0x0000000008006c4c                NTC_Init
 .text.NTC_CalcAvTemp
                0x0000000008006c70       0x38 ./Middlewares/MotorControl/ntc_temperature_sensor.o
                0x0000000008006c70                NTC_CalcAvTemp
 .text.NTC_GetAvTemp_C
                0x0000000008006ca8       0x24 ./Middlewares/MotorControl/ntc_temperature_sensor.o
                0x0000000008006ca8                NTC_GetAvTemp_C
 .text.PID_HandleInit
                0x0000000008006ccc       0x10 ./Middlewares/MotorControl/pid_regulator.o
                0x0000000008006ccc                PID_HandleInit
 .text.PID_SetKP
                0x0000000008006cdc        0x4 ./Middlewares/MotorControl/pid_regulator.o
                0x0000000008006cdc                PID_SetKP
 .text.PID_SetKI
                0x0000000008006ce0        0x4 ./Middlewares/MotorControl/pid_regulator.o
                0x0000000008006ce0                PID_SetKI
 .text.PID_GetKP
                0x0000000008006ce4        0x8 ./Middlewares/MotorControl/pid_regulator.o
                0x0000000008006ce4                PID_GetKP
 .text.PID_GetKI
                0x0000000008006cec        0x8 ./Middlewares/MotorControl/pid_regulator.o
                0x0000000008006cec                PID_GetKI
 .text.PID_SetIntegralTerm
                0x0000000008006cf4        0x4 ./Middlewares/MotorControl/pid_regulator.o
                0x0000000008006cf4                PID_SetIntegralTerm
 .text.PID_GetKPDivisorPOW2
                0x0000000008006cf8        0x4 ./Middlewares/MotorControl/pid_regulator.o
                0x0000000008006cf8                PID_GetKPDivisorPOW2
 .text.PID_SetKPDivisorPOW2
                0x0000000008006cfc        0xc ./Middlewares/MotorControl/pid_regulator.o
                0x0000000008006cfc                PID_SetKPDivisorPOW2
 .text.PID_GetKIDivisor
                0x0000000008006d08        0x4 ./Middlewares/MotorControl/pid_regulator.o
                0x0000000008006d08                PID_GetKIDivisor
 .text.PID_GetKIDivisorPOW2
                0x0000000008006d0c        0x4 ./Middlewares/MotorControl/pid_regulator.o
                0x0000000008006d0c                PID_GetKIDivisorPOW2
 .text.PID_SetLowerIntegralTermLimit
                0x0000000008006d10        0x4 ./Middlewares/MotorControl/pid_regulator.o
                0x0000000008006d10                PID_SetLowerIntegralTermLimit
 .text.PID_SetUpperIntegralTermLimit
                0x0000000008006d14        0x4 ./Middlewares/MotorControl/pid_regulator.o
                0x0000000008006d14                PID_SetUpperIntegralTermLimit
 .text.PID_SetKIDivisorPOW2
                0x0000000008006d18       0x28 ./Middlewares/MotorControl/pid_regulator.o
                0x0000000008006d18                PID_SetKIDivisorPOW2
 .text.PID_SetKD
                0x0000000008006d40        0x4 ./Middlewares/MotorControl/pid_regulator.o
                0x0000000008006d40                PID_SetKD
 .text.PID_GetKD
                0x0000000008006d44        0x8 ./Middlewares/MotorControl/pid_regulator.o
                0x0000000008006d44                PID_GetKD
 .text.PID_GetKDDivisorPOW2
                0x0000000008006d4c        0x4 ./Middlewares/MotorControl/pid_regulator.o
                0x0000000008006d4c                PID_GetKDDivisorPOW2
 .text.PID_SetKDDivisorPOW2
                0x0000000008006d50        0xc ./Middlewares/MotorControl/pid_regulator.o
                0x0000000008006d50                PID_SetKDDivisorPOW2
 .text.PI_Controller
                0x0000000008006d5c       0x8c ./Middlewares/MotorControl/pid_regulator.o
                0x0000000008006d5c                PI_Controller
 .text.PWMC_SwitchOffPWM
                0x0000000008006de8        0x4 ./Middlewares/MotorControl/pwm_common_sixstep.o
                0x0000000008006de8                PWMC_SwitchOffPWM
 .text.PWMC_SwitchOnPWM
                0x0000000008006dec        0x4 ./Middlewares/MotorControl/pwm_common_sixstep.o
                0x0000000008006dec                PWMC_SwitchOnPWM
 .text.PWMC_SetADCTriggerChannel
                0x0000000008006df0        0x4 ./Middlewares/MotorControl/pwm_common_sixstep.o
                0x0000000008006df0                PWMC_SetADCTriggerChannel
 .text.PWMC_CheckOverCurrent
                0x0000000008006df4        0x4 ./Middlewares/MotorControl/pwm_common_sixstep.o
                0x0000000008006df4                PWMC_CheckOverCurrent
 .text.PWMC_SetAlignFlag
                0x0000000008006df8        0x4 ./Middlewares/MotorControl/pwm_common_sixstep.o
                0x0000000008006df8                PWMC_SetAlignFlag
 .text.PWMC_ForceFastDemagTime
                0x0000000008006dfc        0x4 ./Middlewares/MotorControl/pwm_common_sixstep.o
                0x0000000008006dfc                PWMC_ForceFastDemagTime
 .text.PWMC_SetFastDemagState
                0x0000000008006e00        0xc ./Middlewares/MotorControl/pwm_common_sixstep.o
                0x0000000008006e00                PWMC_SetFastDemagState
 .text.PWMC_SetQuasiSynchState
                0x0000000008006e0c       0x10 ./Middlewares/MotorControl/pwm_common_sixstep.o
                0x0000000008006e0c                PWMC_SetQuasiSynchState
 .text.PWMC_GetFastDemagState
                0x0000000008006e1c        0xc ./Middlewares/MotorControl/pwm_common_sixstep.o
                0x0000000008006e1c                PWMC_GetFastDemagState
 .text.PWMC_GetQuasiSynchState
                0x0000000008006e28        0xc ./Middlewares/MotorControl/pwm_common_sixstep.o
                0x0000000008006e28                PWMC_GetQuasiSynchState
 .text.PWMC_ElAngleToStep
                0x0000000008006e34       0x58 ./Middlewares/MotorControl/pwm_common_sixstep.o
                0x0000000008006e34                PWMC_ElAngleToStep
 .text.SixPwm_Init
                0x0000000008006e8c       0x70 ./Middlewares/MotorControl/pwmc_6pwm.o
                0x0000000008006e8c                SixPwm_Init
 .text.PWMC_SetPhaseVoltage
                0x0000000008006efc        0x4 ./Middlewares/MotorControl/pwmc_6pwm.o
                0x0000000008006efc                PWMC_SetPhaseVoltage
 .text.SixPwm_ApplyNextStep
                0x0000000008006f00       0x38 ./Middlewares/MotorControl/pwmc_6pwm.o
                0x0000000008006f00                SixPwm_ApplyNextStep
 .text.SixPwm_ResetOCPolarity
                0x0000000008006f38       0x58 ./Middlewares/MotorControl/pwmc_6pwm.o
                0x0000000008006f38                SixPwm_ResetOCPolarity
 .text.SixPwm_LoadNextStep
                0x0000000008006f90      0x480 ./Middlewares/MotorControl/pwmc_6pwm.o
                0x0000000008006f90                SixPwm_LoadNextStep
 .text.SixPwm_TurnOnLowSides
                0x0000000008007410       0x30 ./Middlewares/MotorControl/pwmc_6pwm.o
                0x0000000008007410                SixPwm_TurnOnLowSides
 .text.SixPwm_SwitchOnPWM
                0x0000000008007440       0x88 ./Middlewares/MotorControl/pwmc_6pwm.o
                0x0000000008007440                SixPwm_SwitchOnPWM
 .text.SixPwm_SetADCTriggerChannel
                0x00000000080074c8        0xc ./Middlewares/MotorControl/pwmc_6pwm.o
                0x00000000080074c8                SixPwm_SetADCTriggerChannel
 .text.SixPwm_SwitchOffPWM
                0x00000000080074d4       0x30 ./Middlewares/MotorControl/pwmc_6pwm.o
                0x00000000080074d4                SixPwm_SwitchOffPWM
 .text.SixPwm_BRK_IRQHandler
                0x0000000008007504       0x1c ./Middlewares/MotorControl/pwmc_6pwm.o
                0x0000000008007504                SixPwm_BRK_IRQHandler
 .text.SixPwm_IsOverCurrentOccurred
                0x0000000008007520       0x28 ./Middlewares/MotorControl/pwmc_6pwm.o
                0x0000000008007520                SixPwm_IsOverCurrentOccurred
 .text.SixPwm_FastDemagFlag
                0x0000000008007548        0x8 ./Middlewares/MotorControl/pwmc_6pwm.o
                0x0000000008007548                SixPwm_FastDemagFlag
 .text.SixPwm_QuasiSynchFlag
                0x0000000008007550        0x8 ./Middlewares/MotorControl/pwmc_6pwm.o
                0x0000000008007550                SixPwm_QuasiSynchFlag
 .text.RVBS_Clear
                0x0000000008007558       0x40 ./Middlewares/MotorControl/r_divider_bus_voltage_sensor.o
                0x0000000008007558                RVBS_Clear
 .text.RVBS_Init
                0x0000000008007598       0x18 ./Middlewares/MotorControl/r_divider_bus_voltage_sensor.o
                0x0000000008007598                RVBS_Init
 .text.RVBS_CheckFaultState
                0x00000000080075b0       0x4c ./Middlewares/MotorControl/r_divider_bus_voltage_sensor.o
                0x00000000080075b0                RVBS_CheckFaultState
 .text.RVBS_CalcAvVbus
                0x00000000080075fc       0x68 ./Middlewares/MotorControl/r_divider_bus_voltage_sensor.o
                0x00000000080075fc                RVBS_CalcAvVbus
 .text.RUC_Init
                0x0000000008007664       0x4c ./Middlewares/MotorControl/revup_ctrl_sixstep.o
                0x0000000008007664                RUC_Init
 .text.RUC_Clear
                0x00000000080076b0       0x84 ./Middlewares/MotorControl/revup_ctrl_sixstep.o
                0x00000000080076b0                RUC_Clear
 .text.RUC_UpdatePulse
                0x0000000008007734       0x1c ./Middlewares/MotorControl/revup_ctrl_sixstep.o
                0x0000000008007734                RUC_UpdatePulse
 .text.RUC_Exec
                0x0000000008007750       0x84 ./Middlewares/MotorControl/revup_ctrl_sixstep.o
                0x0000000008007750                RUC_Exec
 .text.RUC_IsAlignStageNow
                0x00000000080077d4       0x1c ./Middlewares/MotorControl/revup_ctrl_sixstep.o
                0x00000000080077d4                RUC_IsAlignStageNow
 .text.RUC_FirstAccelerationStageReached
                0x00000000080077f0       0x1c ./Middlewares/MotorControl/revup_ctrl_sixstep.o
                0x00000000080077f0                RUC_FirstAccelerationStageReached
 .text.RUC_SetPhase
                0x000000000800780c       0x28 ./Middlewares/MotorControl/revup_ctrl_sixstep.o
                0x000000000800780c                RUC_SetPhase
 .text.RUC_GetPhase
                0x0000000008007834       0x30 ./Middlewares/MotorControl/revup_ctrl_sixstep.o
                0x0000000008007834                RUC_GetPhase
 .text.RUC_GetDirection
                0x0000000008007864        0x8 ./Middlewares/MotorControl/revup_ctrl_sixstep.o
                0x0000000008007864                RUC_GetDirection
 .text.STC_Init
                0x000000000800786c       0x2c ./Middlewares/MotorControl/speed_ctrl.o
                0x000000000800786c                STC_Init
 .text.STC_SetSpeedSensor
                0x0000000008007898        0x8 ./Middlewares/MotorControl/speed_ctrl.o
                0x0000000008007898                STC_SetSpeedSensor
 .text.STC_GetSpeedSensor
                0x00000000080078a0        0x8 ./Middlewares/MotorControl/speed_ctrl.o
                0x00000000080078a0                STC_GetSpeedSensor
 .text.STC_Clear
                0x00000000080078a8       0x28 ./Middlewares/MotorControl/speed_ctrl.o
                0x00000000080078a8                STC_Clear
 .text.STC_GetMecSpeedRefUnit
                0x00000000080078d0       0x14 ./Middlewares/MotorControl/speed_ctrl.o
                0x00000000080078d0                STC_GetMecSpeedRefUnit
 .text.STC_GetDutyCycleRef
                0x00000000080078e4        0x8 ./Middlewares/MotorControl/speed_ctrl.o
                0x00000000080078e4                STC_GetDutyCycleRef
 .text.STC_SetControlMode
                0x00000000080078ec        0xc ./Middlewares/MotorControl/speed_ctrl.o
                0x00000000080078ec                STC_SetControlMode
 .text.STC_ExecRamp
                0x00000000080078f8       0x94 ./Middlewares/MotorControl/speed_ctrl.o
                0x00000000080078f8                STC_ExecRamp
 .text.STC_StopRamp
                0x000000000800798c        0xc ./Middlewares/MotorControl/speed_ctrl.o
                0x000000000800798c                STC_StopRamp
 .text.STC_CalcSpeedReference
                0x0000000008007998       0x70 ./Middlewares/MotorControl/speed_ctrl.o
                0x0000000008007998                STC_CalcSpeedReference
 .text.STC_GetMecSpeedRefUnitDefault
                0x0000000008007a08        0x8 ./Middlewares/MotorControl/speed_ctrl.o
                0x0000000008007a08                STC_GetMecSpeedRefUnitDefault
 .text.STC_ForceSpeedReferenceToCurrentSpeed
                0x0000000008007a10       0x14 ./Middlewares/MotorControl/speed_ctrl.o
                0x0000000008007a10                STC_ForceSpeedReferenceToCurrentSpeed
 .text.SPD_GetElAngle
                0x0000000008007a24        0x8 ./Middlewares/MotorControl/speed_pos_fdbk.o
                0x0000000008007a24                SPD_GetElAngle
 .text.SPD_GetAvrgMecSpeedUnit
                0x0000000008007a2c        0x8 ./Middlewares/MotorControl/speed_pos_fdbk.o
                0x0000000008007a2c                SPD_GetAvrgMecSpeedUnit
 .text.SPD_IsMecSpeedReliable
                0x0000000008007a34       0x6c ./Middlewares/MotorControl/speed_pos_fdbk.o
                0x0000000008007a34                SPD_IsMecSpeedReliable
 .text.VSS_Clear
                0x0000000008007aa0       0x1c ./Middlewares/MotorControl/virtual_speed_sensor.o
                0x0000000008007aa0                VSS_Clear
 .text.VSS_Init
                0x0000000008007abc        0x8 ./Middlewares/MotorControl/virtual_speed_sensor.o
                0x0000000008007abc                VSS_Init
 .text.VSS_CalcElAngle
                0x0000000008007ac4       0xa8 ./Middlewares/MotorControl/virtual_speed_sensor.o
                0x0000000008007ac4                VSS_CalcElAngle
 .text.VSS_CalcAvrgMecSpeedUnit
                0x0000000008007b6c       0xa4 ./Middlewares/MotorControl/virtual_speed_sensor.o
                0x0000000008007b6c                VSS_CalcAvrgMecSpeedUnit
 .text.VSS_SetMecAngle
                0x0000000008007c10       0x10 ./Middlewares/MotorControl/virtual_speed_sensor.o
                0x0000000008007c10                VSS_SetMecAngle
 .text.VSS_SetMecAcceleration
                0x0000000008007c20       0x90 ./Middlewares/MotorControl/virtual_speed_sensor.o
                0x0000000008007c20                VSS_SetMecAcceleration
 .text.VSS_SetStartTransition
                0x0000000008007cb0       0x1c ./Middlewares/MotorControl/virtual_speed_sensor.o
                0x0000000008007cb0                VSS_SetStartTransition
 .text.VSS_TransitionEnded
                0x0000000008007ccc        0x8 ./Middlewares/MotorControl/virtual_speed_sensor.o
                0x0000000008007ccc                VSS_TransitionEnded
 .text.__libc_init_array
                0x0000000008007cd4       0x48 c:/st/stm32cubeide_1.11.0/stm32cubeide/plugins/com.st.stm32cube.ide.mcu.externaltools.gnu-tools-for-stm32.10.3-2021.10.win32_1.0.100.202210260954/tools/bin/../lib/gcc/arm-none-eabi/10.3.1/../../../../arm-none-eabi/lib/thumb/v7e-m+fp/hard\libc_nano.a(lib_a-init.o)
                0x0000000008007cd4                __libc_init_array
 .text.memcpy   0x0000000008007d1c       0x1c c:/st/stm32cubeide_1.11.0/stm32cubeide/plugins/com.st.stm32cube.ide.mcu.externaltools.gnu-tools-for-stm32.10.3-2021.10.win32_1.0.100.202210260954/tools/bin/../lib/gcc/arm-none-eabi/10.3.1/../../../../arm-none-eabi/lib/thumb/v7e-m+fp/hard\libc_nano.a(lib_a-memcpy-stub.o)
                0x0000000008007d1c                memcpy
 .text.memset   0x0000000008007d38       0x10 c:/st/stm32cubeide_1.11.0/stm32cubeide/plugins/com.st.stm32cube.ide.mcu.externaltools.gnu-tools-for-stm32.10.3-2021.10.win32_1.0.100.202210260954/tools/bin/../lib/gcc/arm-none-eabi/10.3.1/../../../../arm-none-eabi/lib/thumb/v7e-m+fp/hard\libc_nano.a(lib_a-memset.o)
                0x0000000008007d38                memset
 *(.glue_7)
 .glue_7        0x0000000008007d48        0x0 linker stubs
 *(.glue_7t)
 .glue_7t       0x0000000008007d48        0x0 linker stubs
 *(.eh_frame)
 .eh_frame      0x0000000008007d48        0x0 c:/st/stm32cubeide_1.11.0/stm32cubeide/plugins/com.st.stm32cube.ide.mcu.externaltools.gnu-tools-for-stm32.10.3-2021.10.win32_1.0.100.202210260954/tools/bin/../lib/gcc/arm-none-eabi/10.3.1/thumb/v7e-m+fp/hard/crtbegin.o
 *(.init)
 .init          0x0000000008007d48        0x4 c:/st/stm32cubeide_1.11.0/stm32cubeide/plugins/com.st.stm32cube.ide.mcu.externaltools.gnu-tools-for-stm32.10.3-2021.10.win32_1.0.100.202210260954/tools/bin/../lib/gcc/arm-none-eabi/10.3.1/thumb/v7e-m+fp/hard/crti.o
                0x0000000008007d48                _init
 .init          0x0000000008007d4c        0x8 c:/st/stm32cubeide_1.11.0/stm32cubeide/plugins/com.st.stm32cube.ide.mcu.externaltools.gnu-tools-for-stm32.10.3-2021.10.win32_1.0.100.202210260954/tools/bin/../lib/gcc/arm-none-eabi/10.3.1/thumb/v7e-m+fp/hard/crtn.o
 *(.fini)
 .fini          0x0000000008007d54        0x4 c:/st/stm32cubeide_1.11.0/stm32cubeide/plugins/com.st.stm32cube.ide.mcu.externaltools.gnu-tools-for-stm32.10.3-2021.10.win32_1.0.100.202210260954/tools/bin/../lib/gcc/arm-none-eabi/10.3.1/thumb/v7e-m+fp/hard/crti.o
                0x0000000008007d54                _fini
 .fini          0x0000000008007d58        0x8 c:/st/stm32cubeide_1.11.0/stm32cubeide/plugins/com.st.stm32cube.ide.mcu.externaltools.gnu-tools-for-stm32.10.3-2021.10.win32_1.0.100.202210260954/tools/bin/../lib/gcc/arm-none-eabi/10.3.1/thumb/v7e-m+fp/hard/crtn.o
                0x0000000008007d60                . = ALIGN (0x4)
                0x0000000008007d60                _etext = .

.vfp11_veneer   0x0000000008007d60        0x0
 .vfp11_veneer  0x0000000008007d60        0x0 linker stubs

.v4_bx          0x0000000008007d60        0x0
 .v4_bx         0x0000000008007d60        0x0 linker stubs

.iplt           0x0000000008007d60        0x0
 .iplt          0x0000000008007d60        0x0 c:/st/stm32cubeide_1.11.0/stm32cubeide/plugins/com.st.stm32cube.ide.mcu.externaltools.gnu-tools-for-stm32.10.3-2021.10.win32_1.0.100.202210260954/tools/bin/../lib/gcc/arm-none-eabi/10.3.1/thumb/v7e-m+fp/hard/crtbegin.o

.rodata         0x0000000008007d60      0x254
                0x0000000008007d60                . = ALIGN (0x4)
 *(.rodata)
 *(.rodata*)
 .rodata.CRC4_Lookup4
                0x0000000008007d60       0x10 ./Application/User/aspep.o
 .rodata.CRC4_Lookup8
                0x0000000008007d70      0x100 ./Application/User/aspep.o
 .rodata.CTL_BOARD
                0x0000000008007e70        0xd ./Application/User/mc_configuration_registers.o
                0x0000000008007e70                CTL_BOARD
 *fill*         0x0000000008007e7d        0x3 
 .rodata.FIRMWARE_NAME
                0x0000000008007e80       0x14 ./Application/User/mc_configuration_registers.o
                0x0000000008007e80                FIRMWARE_NAME
 .rodata.M1_ApplicationConfig_reg
                0x0000000008007e94        0xe ./Application/User/mc_configuration_registers.o
 *fill*         0x0000000008007ea2        0x2 
 .rodata.M1_MotorConfig_reg
                0x0000000008007ea4       0x3c ./Application/User/mc_configuration_registers.o
                0x0000000008007ea4                M1_MotorConfig_reg
 .rodata.M1_PWR_BOARD
                0x0000000008007ee0        0xd ./Application/User/mc_configuration_registers.o
 *fill*         0x0000000008007eed        0x3 
 .rodata.M1_SixStepConfig_reg
                0x0000000008007ef0        0xa ./Application/User/mc_configuration_registers.o
 *fill*         0x0000000008007efa        0x2 
 .rodata.globalConfig_reg
                0x0000000008007efc        0xa ./Application/User/mc_configuration_registers.o
                0x0000000008007efc                globalConfig_reg
 *fill*         0x0000000008007f06        0x2 
 .rodata.Bemf_ADC_ParamsM1
                0x0000000008007f08       0x2c ./Application/User/mc_parameters.o
                0x0000000008007f08                Bemf_ADC_ParamsM1
 .rodata.SixPwm_ParamsM1
                0x0000000008007f34       0x10 ./Application/User/mc_parameters.o
                0x0000000008007f34                SixPwm_ParamsM1
 .rodata.CSWTCH.25
                0x0000000008007f44       0x11 ./Application/User/register_interface.o
 *fill*         0x0000000008007f55        0x3 
 .rodata.CHANNEL_OFFSET_TAB
                0x0000000008007f58        0x6 ./Application/User/usart_aspep_driver.o
 *fill*         0x0000000008007f5e        0x2 
 .rodata.AHBPrescTable
                0x0000000008007f60       0x10 ./Drivers/CMSIS/system_stm32g4xx.o
                0x0000000008007f60                AHBPrescTable
 .rodata.APBPrescTable
                0x0000000008007f70        0x8 ./Drivers/CMSIS/system_stm32g4xx.o
                0x0000000008007f70                APBPrescTable
 .rodata.CSWTCH.60
                0x0000000008007f78        0x3 ./Drivers/STM32G4xx_HAL_Driver/stm32g4xx_hal_uart.o
 *fill*         0x0000000008007f7b        0x1 
 .rodata.CSWTCH.61
                0x0000000008007f7c        0xd ./Drivers/STM32G4xx_HAL_Driver/stm32g4xx_hal_uart.o
 *fill*         0x0000000008007f89        0x3 
 .rodata.UARTPrescTable
                0x0000000008007f8c       0x18 ./Drivers/STM32G4xx_HAL_Driver/stm32g4xx_hal_uart.o
                0x0000000008007f8c                UARTPrescTable
 .rodata.denominator.0
                0x0000000008007fa4        0x8 ./Drivers/STM32G4xx_HAL_Driver/stm32g4xx_hal_uart_ex.o
 .rodata.numerator.1
                0x0000000008007fac        0x8 ./Drivers/STM32G4xx_HAL_Driver/stm32g4xx_hal_uart_ex.o
                0x0000000008007fb4                . = ALIGN (0x4)

.ARM.extab      0x0000000008007fb4        0x0
                0x0000000008007fb4                . = ALIGN (0x4)
 *(.ARM.extab* .gnu.linkonce.armextab.*)
                0x0000000008007fb4                . = ALIGN (0x4)

.ARM            0x0000000008007fb4        0x8
                0x0000000008007fb4                . = ALIGN (0x4)
                0x0000000008007fb4                __exidx_start = .
 *(.ARM.exidx*)
 .ARM.exidx     0x0000000008007fb4        0x8 c:/st/stm32cubeide_1.11.0/stm32cubeide/plugins/com.st.stm32cube.ide.mcu.externaltools.gnu-tools-for-stm32.10.3-2021.10.win32_1.0.100.202210260954/tools/bin/../lib/gcc/arm-none-eabi/10.3.1/thumb/v7e-m+fp/hard\libgcc.a(_udivmoddi4.o)
                0x0000000008007fbc                __exidx_end = .
                0x0000000008007fbc                . = ALIGN (0x4)

.rel.dyn        0x0000000008007fbc        0x0
 .rel.iplt      0x0000000008007fbc        0x0 c:/st/stm32cubeide_1.11.0/stm32cubeide/plugins/com.st.stm32cube.ide.mcu.externaltools.gnu-tools-for-stm32.10.3-2021.10.win32_1.0.100.202210260954/tools/bin/../lib/gcc/arm-none-eabi/10.3.1/thumb/v7e-m+fp/hard/crtbegin.o

.preinit_array  0x0000000008007fbc        0x0
                0x0000000008007fbc                . = ALIGN (0x4)
                0x0000000008007fbc                PROVIDE (__preinit_array_start = .)
 *(.preinit_array*)
                0x0000000008007fbc                PROVIDE (__preinit_array_end = .)
                0x0000000008007fbc                . = ALIGN (0x4)

.init_array     0x0000000008007fbc        0x4
                0x0000000008007fbc                . = ALIGN (0x4)
                0x0000000008007fbc                PROVIDE (__init_array_start = .)
 *(SORT_BY_NAME(.init_array.*))
 *(.init_array*)
 .init_array    0x0000000008007fbc        0x4 c:/st/stm32cubeide_1.11.0/stm32cubeide/plugins/com.st.stm32cube.ide.mcu.externaltools.gnu-tools-for-stm32.10.3-2021.10.win32_1.0.100.202210260954/tools/bin/../lib/gcc/arm-none-eabi/10.3.1/thumb/v7e-m+fp/hard/crtbegin.o
                0x0000000008007fc0                PROVIDE (__init_array_end = .)
                0x0000000008007fc0                . = ALIGN (0x4)

.fini_array     0x0000000008007fc0        0x4
                0x0000000008007fc0                . = ALIGN (0x4)
                [!provide]                        PROVIDE (__fini_array_start = .)
 *(SORT_BY_NAME(.fini_array.*))
 *(.fini_array*)
 .fini_array    0x0000000008007fc0        0x4 c:/st/stm32cubeide_1.11.0/stm32cubeide/plugins/com.st.stm32cube.ide.mcu.externaltools.gnu-tools-for-stm32.10.3-2021.10.win32_1.0.100.202210260954/tools/bin/../lib/gcc/arm-none-eabi/10.3.1/thumb/v7e-m+fp/hard/crtbegin.o
                [!provide]                        PROVIDE (__fini_array_end = .)
                0x0000000008007fc4                . = ALIGN (0x4)
                0x0000000008007fc4                _sidata = LOADADDR (.data)

.data           0x0000000020000000      0x454 load address 0x0000000008007fc4
                0x0000000020000000                . = ALIGN (0x4)
                0x0000000020000000                _sdata = .
 *(.data)
 *(.data*)
 .data.Bemf_ADC_M1
                0x0000000020000000      0x1dc ./Application/User/mc_config.o
                0x0000000020000000                Bemf_ADC_M1
 .data.BusVoltageSensor_M1
                0x00000000200001dc       0x2c ./Application/User/mc_config.o
                0x00000000200001dc                BusVoltageSensor_M1
 .data.PIDSpeedHandle_M1
                0x0000000020000208       0x2c ./Application/User/mc_config.o
                0x0000000020000208                PIDSpeedHandle_M1
 .data.PWM_Handle_M1
                0x0000000020000234       0x4c ./Application/User/mc_config.o
                0x0000000020000234                PWM_Handle_M1
 .data.RevUpControlM1
                0x0000000020000280       0x58 ./Application/User/mc_config.o
                0x0000000020000280                RevUpControlM1
 .data.SpeednTorqCtrlM1
                0x00000000200002d8       0x30 ./Application/User/mc_config.o
                0x00000000200002d8                SpeednTorqCtrlM1
 .data.TempSensor_M1
                0x0000000020000308       0x28 ./Application/User/mc_config.o
                0x0000000020000308                TempSensor_M1
 .data.VirtualSpeedSensorM1
                0x0000000020000330       0x38 ./Application/User/mc_config.o
                0x0000000020000330                VirtualSpeedSensorM1
 .data.pSTC     0x0000000020000368        0x4 ./Application/User/mc_config.o
                0x0000000020000368                pSTC
 .data.pTemperatureSensor
                0x000000002000036c        0x4 ./Application/User/mc_config.o
                0x000000002000036c                pTemperatureSensor
 .data.ApplicationConfig_reg
                0x0000000020000370        0x4 ./Application/User/mc_configuration_registers.o
                0x0000000020000370                ApplicationConfig_reg
 .data.MotorConfig_reg
                0x0000000020000374        0x4 ./Application/User/mc_configuration_registers.o
                0x0000000020000374                MotorConfig_reg
 .data.PWR_BOARD_NAME
                0x0000000020000378        0x4 ./Application/User/mc_configuration_registers.o
                0x0000000020000378                PWR_BOARD_NAME
 .data.SixStepConfig_reg
                0x000000002000037c        0x4 ./Application/User/mc_configuration_registers.o
                0x000000002000037c                SixStepConfig_reg
 .data.MCPA_UART_A
                0x0000000020000380       0x2c ./Application/User/mcp_config.o
                0x0000000020000380                MCPA_UART_A
 .data.MCP_Over_UartA
                0x00000000200003ac       0x10 ./Application/User/mcp_config.o
                0x00000000200003ac                MCP_Over_UartA
 .data.UASPEP_A
                0x00000000200003bc       0x14 ./Application/User/mcp_config.o
 .data.aspepOverUartA
                0x00000000200003d0       0x74 ./Application/User/mcp_config.o
                0x00000000200003d0                aspepOverUartA
 .data.SystickDividerCounter.0
                0x0000000020000444        0x1 ./Application/User/stm32g4xx_mc_it.o
 *fill*         0x0000000020000445        0x3 
 .data.SystemCoreClock
                0x0000000020000448        0x4 ./Drivers/CMSIS/system_stm32g4xx.o
                0x0000000020000448                SystemCoreClock
 .data.uwTickFreq
                0x000000002000044c        0x4 ./Drivers/STM32G4xx_HAL_Driver/stm32g4xx_hal.o
                0x000000002000044c                uwTickFreq
 .data.uwTickPrio
                0x0000000020000450        0x4 ./Drivers/STM32G4xx_HAL_Driver/stm32g4xx_hal.o
                0x0000000020000450                uwTickPrio
 *(.RamFunc)
 *(.RamFunc*)
                0x0000000020000454                . = ALIGN (0x4)
                0x0000000020000454                _edata = .

.igot.plt       0x0000000020000454        0x0 load address 0x0000000008008418
 .igot.plt      0x0000000020000454        0x0 c:/st/stm32cubeide_1.11.0/stm32cubeide/plugins/com.st.stm32cube.ide.mcu.externaltools.gnu-tools-for-stm32.10.3-2021.10.win32_1.0.100.202210260954/tools/bin/../lib/gcc/arm-none-eabi/10.3.1/thumb/v7e-m+fp/hard/crtbegin.o
                0x0000000020000454                . = ALIGN (0x4)

.bss            0x0000000020000454     0x1508 load address 0x0000000008008418
                0x0000000020000454                _sbss = .
                0x0000000020000454                __bss_start__ = _sbss
 *(.bss)
 .bss           0x0000000020000454       0x1c c:/st/stm32cubeide_1.11.0/stm32cubeide/plugins/com.st.stm32cube.ide.mcu.externaltools.gnu-tools-for-stm32.10.3-2021.10.win32_1.0.100.202210260954/tools/bin/../lib/gcc/arm-none-eabi/10.3.1/thumb/v7e-m+fp/hard/crtbegin.o
 *(.bss*)
 .bss.hadc1     0x0000000020000470       0x6c ./Application/User/main.o
                0x0000000020000470                hadc1
 .bss.hadc2     0x00000000200004dc       0x6c ./Application/User/main.o
                0x00000000200004dc                hadc2
 .bss.hdma_usart2_rx
                0x0000000020000548       0x60 ./Application/User/main.o
                0x0000000020000548                hdma_usart2_rx
 .bss.hdma_usart2_tx
                0x00000000200005a8       0x60 ./Application/User/main.o
                0x00000000200005a8                hdma_usart2_tx
 .bss.htim1     0x0000000020000608       0x4c ./Application/User/main.o
                0x0000000020000608                htim1
 .bss.htim4     0x0000000020000654       0x4c ./Application/User/main.o
                0x0000000020000654                htim4
 .bss.huart2    0x00000000200006a0       0x90 ./Application/User/main.o
                0x00000000200006a0                huart2
 .bss.Mci       0x0000000020000730       0x1c ./Application/User/mc_config.o
                0x0000000020000730                Mci
 .bss.RealBusVoltageSensorFilterBufferM1
                0x000000002000074c        0xc ./Application/User/mc_config.o
 .bss.SixStepVars
                0x0000000020000758        0x8 ./Application/User/mc_tasks.o
 .bss.bMCBootCompleted
                0x0000000020000760        0x1 ./Application/User/mc_tasks.o
 *fill*         0x0000000020000761        0x1 
 .bss.hBootCapDelayCounterM1
                0x0000000020000762        0x2 ./Application/User/mc_tasks.o
 .bss.hMFTaskCounterM1
                0x0000000020000764        0x2 ./Application/User/mc_tasks.o
 .bss.hStopPermanencyCounterM1
                0x0000000020000766        0x2 ./Application/User/mc_tasks.o
 .bss.pwmcHandle
                0x0000000020000768        0x4 ./Application/User/mc_tasks.o
 .bss.MCPAsyncBuffUARTA_A
                0x000000002000076c      0x806 ./Application/User/mcp_config.o
 *fill*         0x0000000020000f72        0x2 
 .bss.MCPAsyncBuffUARTA_B
                0x0000000020000f74      0x806 ./Application/User/mcp_config.o
 *fill*         0x000000002000177a        0x2 
 .bss.MCPSyncRXBuff
                0x000000002000177c       0x82 ./Application/User/mcp_config.o
 *fill*         0x00000000200017fe        0x2 
 .bss.MCPSyncTxBuff
                0x0000000020001800       0x86 ./Application/User/mcp_config.o
 *fill*         0x0000000020001886        0x2 
 .bss.MCP_UserCallBack
                0x0000000020001888        0x8 ./Application/User/mcp_config.o
                0x0000000020001888                MCP_UserCallBack
 .bss.dataPtrTableA
                0x0000000020001890       0x28 ./Application/User/mcp_config.o
                0x0000000020001890                dataPtrTableA
 .bss.dataPtrTableBuffA
                0x00000000200018b8       0x28 ./Application/User/mcp_config.o
                0x00000000200018b8                dataPtrTableBuffA
 .bss.dataSizeTableA
                0x00000000200018e0        0xa ./Application/User/mcp_config.o
                0x00000000200018e0                dataSizeTableA
 *fill*         0x00000000200018ea        0x2 
 .bss.dataSizeTableBuffA
                0x00000000200018ec        0xa ./Application/User/mcp_config.o
                0x00000000200018ec                dataSizeTableBuffA
 *fill*         0x00000000200018f6        0x2 
 .bss.pMCI      0x00000000200018f8        0x4 ./Application/User/motorcontrol.o
                0x00000000200018f8                pMCI
 .bss.nullData16.0
                0x00000000200018fc        0x2 ./Application/User/register_interface.o
 *fill*         0x00000000200018fe        0x2 
 .bss.RCM_CB_array
                0x0000000020001900       0x20 ./Application/User/regular_conversion_manager.o
 .bss.RCM_NoInj_array
                0x0000000020001920       0x18 ./Application/User/regular_conversion_manager.o
 .bss.RCM_UserConvHandle
                0x0000000020001938        0x1 ./Application/User/regular_conversion_manager.o
 .bss.RCM_UserConvState
                0x0000000020001939        0x1 ./Application/User/regular_conversion_manager.o
 .bss.RCM_UserConvValue
                0x000000002000193a        0x2 ./Application/User/regular_conversion_manager.o
 .bss.RCM_currentHandle
                0x000000002000193c        0x1 ./Application/User/regular_conversion_manager.o
 *fill*         0x000000002000193d        0x3 
 .bss.RCM_handle_array
                0x0000000020001940       0x10 ./Application/User/regular_conversion_manager.o
 .bss.HAL_RCC_ADC12_CLK_ENABLED
                0x0000000020001950        0x4 ./Application/User/stm32g4xx_hal_msp.o
 .bss.uwTick    0x0000000020001954        0x4 ./Drivers/STM32G4xx_HAL_Driver/stm32g4xx_hal.o
                0x0000000020001954                uwTick
 .bss.GLOBAL_TIMESTAMP
                0x0000000020001958        0x4 ./Middlewares/MotorControl/mcpa.o
                0x0000000020001958                GLOBAL_TIMESTAMP
 *(COMMON)
                0x000000002000195c                . = ALIGN (0x4)
                0x000000002000195c                _ebss = .
                0x000000002000195c                __bss_end__ = _ebss

._user_heap_stack
                0x000000002000195c      0x604 load address 0x0000000008008418
                0x0000000020001960                . = ALIGN (0x8)
 *fill*         0x000000002000195c        0x4 
                [!provide]                        PROVIDE (end = .)
                0x0000000020001960                PROVIDE (_end = .)
                0x0000000020001b60                . = (. + _Min_Heap_Size)
 *fill*         0x0000000020001960      0x200 
                0x0000000020001f60                . = (. + _Min_Stack_Size)
 *fill*         0x0000000020001b60      0x400 
                0x0000000020001f60                . = ALIGN (0x8)

/DISCARD/
 libc.a(*)
 libm.a(*)
 libgcc.a(*)

.ARM.attributes
                0x0000000000000000       0x30
 *(.ARM.attributes)
 .ARM.attributes
                0x0000000000000000       0x1e c:/st/stm32cubeide_1.11.0/stm32cubeide/plugins/com.st.stm32cube.ide.mcu.externaltools.gnu-tools-for-stm32.10.3-2021.10.win32_1.0.100.202210260954/tools/bin/../lib/gcc/arm-none-eabi/10.3.1/thumb/v7e-m+fp/hard/crti.o
 .ARM.attributes
                0x000000000000001e       0x34 c:/st/stm32cubeide_1.11.0/stm32cubeide/plugins/com.st.stm32cube.ide.mcu.externaltools.gnu-tools-for-stm32.10.3-2021.10.win32_1.0.100.202210260954/tools/bin/../lib/gcc/arm-none-eabi/10.3.1/thumb/v7e-m+fp/hard/crtbegin.o
 .ARM.attributes
                0x0000000000000052       0x21 ./Application/Startup/startup_stm32g431cbux.o
 .ARM.attributes
                0x0000000000000073       0x30 ./Application/User/aspep.o
 .ARM.attributes
                0x00000000000000a3       0x30 ./Application/User/main.o
 .ARM.attributes
                0x00000000000000d3       0x30 ./Application/User/mc_api.o
 .ARM.attributes
                0x0000000000000103       0x30 ./Application/User/mc_app_hooks.o
 .ARM.attributes
                0x0000000000000133       0x30 ./Application/User/mc_config.o
 .ARM.attributes
                0x0000000000000163       0x30 ./Application/User/mc_configuration_registers.o
 .ARM.attributes
                0x0000000000000193       0x30 ./Application/User/mc_interface.o
 .ARM.attributes
                0x00000000000001c3       0x30 ./Application/User/mc_parameters.o
 .ARM.attributes
                0x00000000000001f3       0x30 ./Application/User/mc_tasks.o
 .ARM.attributes
                0x0000000000000223       0x30 ./Application/User/mcp_config.o
 .ARM.attributes
                0x0000000000000253       0x30 ./Application/User/motorcontrol.o
 .ARM.attributes
                0x0000000000000283       0x30 ./Application/User/register_interface.o
 .ARM.attributes
                0x00000000000002b3       0x30 ./Application/User/regular_conversion_manager.o
 .ARM.attributes
                0x00000000000002e3       0x30 ./Application/User/stm32g4xx_hal_msp.o
 .ARM.attributes
                0x0000000000000313       0x30 ./Application/User/stm32g4xx_mc_it.o
 .ARM.attributes
                0x0000000000000343       0x30 ./Application/User/usart_aspep_driver.o
 .ARM.attributes
                0x0000000000000373       0x30 ./Drivers/CMSIS/system_stm32g4xx.o
 .ARM.attributes
                0x00000000000003a3       0x30 ./Drivers/STM32G4xx_HAL_Driver/stm32g4xx_hal.o
 .ARM.attributes
                0x00000000000003d3       0x30 ./Drivers/STM32G4xx_HAL_Driver/stm32g4xx_hal_adc.o
 .ARM.attributes
                0x0000000000000403       0x30 ./Drivers/STM32G4xx_HAL_Driver/stm32g4xx_hal_adc_ex.o
 .ARM.attributes
                0x0000000000000433       0x30 ./Drivers/STM32G4xx_HAL_Driver/stm32g4xx_hal_cortex.o
 .ARM.attributes
                0x0000000000000463       0x30 ./Drivers/STM32G4xx_HAL_Driver/stm32g4xx_hal_dma.o
 .ARM.attributes
                0x0000000000000493       0x30 ./Drivers/STM32G4xx_HAL_Driver/stm32g4xx_hal_gpio.o
 .ARM.attributes
                0x00000000000004c3       0x30 ./Drivers/STM32G4xx_HAL_Driver/stm32g4xx_hal_pwr_ex.o
 .ARM.attributes
                0x00000000000004f3       0x30 ./Drivers/STM32G4xx_HAL_Driver/stm32g4xx_hal_rcc.o
 .ARM.attributes
                0x0000000000000523       0x30 ./Drivers/STM32G4xx_HAL_Driver/stm32g4xx_hal_rcc_ex.o
 .ARM.attributes
                0x0000000000000553       0x30 ./Drivers/STM32G4xx_HAL_Driver/stm32g4xx_hal_tim.o
 .ARM.attributes
                0x0000000000000583       0x30 ./Drivers/STM32G4xx_HAL_Driver/stm32g4xx_hal_tim_ex.o
 .ARM.attributes
                0x00000000000005b3       0x30 ./Drivers/STM32G4xx_HAL_Driver/stm32g4xx_hal_uart.o
 .ARM.attributes
                0x00000000000005e3       0x30 ./Drivers/STM32G4xx_HAL_Driver/stm32g4xx_hal_uart_ex.o
 .ARM.attributes
                0x0000000000000613       0x30 ./Middlewares/MotorControl/bus_voltage_sensor.o
 .ARM.attributes
                0x0000000000000643       0x30 ./Middlewares/MotorControl/g4xx_bemf_ADC_fdbk.o
 .ARM.attributes
                0x0000000000000673       0x30 ./Middlewares/MotorControl/mcp_sixstep.o
 .ARM.attributes
                0x00000000000006a3       0x30 ./Middlewares/MotorControl/mcpa.o
 .ARM.attributes
                0x00000000000006d3       0x30 ./Middlewares/MotorControl/ntc_temperature_sensor.o
 .ARM.attributes
                0x0000000000000703       0x30 ./Middlewares/MotorControl/pid_regulator.o
 .ARM.attributes
                0x0000000000000733       0x30 ./Middlewares/MotorControl/pwm_common_sixstep.o
 .ARM.attributes
                0x0000000000000763       0x30 ./Middlewares/MotorControl/pwmc_6pwm.o
 .ARM.attributes
                0x0000000000000793       0x30 ./Middlewares/MotorControl/r_divider_bus_voltage_sensor.o
 .ARM.attributes
                0x00000000000007c3       0x30 ./Middlewares/MotorControl/revup_ctrl_sixstep.o
 .ARM.attributes
                0x00000000000007f3       0x30 ./Middlewares/MotorControl/speed_ctrl.o
 .ARM.attributes
                0x0000000000000823       0x30 ./Middlewares/MotorControl/speed_pos_fdbk.o
 .ARM.attributes
                0x0000000000000853       0x30 ./Middlewares/MotorControl/virtual_speed_sensor.o
 .ARM.attributes
                0x0000000000000883       0x34 c:/st/stm32cubeide_1.11.0/stm32cubeide/plugins/com.st.stm32cube.ide.mcu.externaltools.gnu-tools-for-stm32.10.3-2021.10.win32_1.0.100.202210260954/tools/bin/../lib/gcc/arm-none-eabi/10.3.1/../../../../arm-none-eabi/lib/thumb/v7e-m+fp/hard\libc_nano.a(lib_a-init.o)
 .ARM.attributes
                0x00000000000008b7       0x34 c:/st/stm32cubeide_1.11.0/stm32cubeide/plugins/com.st.stm32cube.ide.mcu.externaltools.gnu-tools-for-stm32.10.3-2021.10.win32_1.0.100.202210260954/tools/bin/../lib/gcc/arm-none-eabi/10.3.1/../../../../arm-none-eabi/lib/thumb/v7e-m+fp/hard\libc_nano.a(lib_a-memcpy-stub.o)
 .ARM.attributes
                0x00000000000008eb       0x34 c:/st/stm32cubeide_1.11.0/stm32cubeide/plugins/com.st.stm32cube.ide.mcu.externaltools.gnu-tools-for-stm32.10.3-2021.10.win32_1.0.100.202210260954/tools/bin/../lib/gcc/arm-none-eabi/10.3.1/../../../../arm-none-eabi/lib/thumb/v7e-m+fp/hard\libc_nano.a(lib_a-memset.o)
 .ARM.attributes
                0x000000000000091f       0x1e c:/st/stm32cubeide_1.11.0/stm32cubeide/plugins/com.st.stm32cube.ide.mcu.externaltools.gnu-tools-for-stm32.10.3-2021.10.win32_1.0.100.202210260954/tools/bin/../lib/gcc/arm-none-eabi/10.3.1/thumb/v7e-m+fp/hard\libgcc.a(_aeabi_uldivmod.o)
 .ARM.attributes
                0x000000000000093d       0x34 c:/st/stm32cubeide_1.11.0/stm32cubeide/plugins/com.st.stm32cube.ide.mcu.externaltools.gnu-tools-for-stm32.10.3-2021.10.win32_1.0.100.202210260954/tools/bin/../lib/gcc/arm-none-eabi/10.3.1/thumb/v7e-m+fp/hard\libgcc.a(_udivmoddi4.o)
 .ARM.attributes
                0x0000000000000971       0x1e c:/st/stm32cubeide_1.11.0/stm32cubeide/plugins/com.st.stm32cube.ide.mcu.externaltools.gnu-tools-for-stm32.10.3-2021.10.win32_1.0.100.202210260954/tools/bin/../lib/gcc/arm-none-eabi/10.3.1/thumb/v7e-m+fp/hard\libgcc.a(_dvmd_tls.o)
 .ARM.attributes
                0x000000000000098f       0x1e c:/st/stm32cubeide_1.11.0/stm32cubeide/plugins/com.st.stm32cube.ide.mcu.externaltools.gnu-tools-for-stm32.10.3-2021.10.win32_1.0.100.202210260954/tools/bin/../lib/gcc/arm-none-eabi/10.3.1/thumb/v7e-m+fp/hard/crtn.o
OUTPUT(b-g431b-6step-hal.elf elf32-littlearm)
LOAD linker stubs
LOAD c:/st/stm32cubeide_1.11.0/stm32cubeide/plugins/com.st.stm32cube.ide.mcu.externaltools.gnu-tools-for-stm32.10.3-2021.10.win32_1.0.100.202210260954/tools/bin/../lib/gcc/arm-none-eabi/10.3.1/../../../../arm-none-eabi/lib/thumb/v7e-m+fp/hard\libc.a
LOAD c:/st/stm32cubeide_1.11.0/stm32cubeide/plugins/com.st.stm32cube.ide.mcu.externaltools.gnu-tools-for-stm32.10.3-2021.10.win32_1.0.100.202210260954/tools/bin/../lib/gcc/arm-none-eabi/10.3.1/../../../../arm-none-eabi/lib/thumb/v7e-m+fp/hard\libm.a
LOAD c:/st/stm32cubeide_1.11.0/stm32cubeide/plugins/com.st.stm32cube.ide.mcu.externaltools.gnu-tools-for-stm32.10.3-2021.10.win32_1.0.100.202210260954/tools/bin/../lib/gcc/arm-none-eabi/10.3.1/thumb/v7e-m+fp/hard\libgcc.a

.debug_line     0x0000000000000000    0x3af8d
 .debug_line    0x0000000000000000       0x90 ./Application/Startup/startup_stm32g431cbux.o
 .debug_line    0x0000000000000090     0x169f ./Application/User/aspep.o
 .debug_line    0x000000000000172f     0x155d ./Application/User/main.o
 .debug_line    0x0000000000002c8c      0xcae ./Application/User/mc_api.o
 .debug_line    0x000000000000393a      0x8de ./Application/User/mc_app_hooks.o
 .debug_line    0x0000000000004218      0xb3e ./Application/User/mc_config.o
 .debug_line    0x0000000000004d56      0x9a7 ./Application/User/mc_configuration_registers.o
 .debug_line    0x00000000000056fd     0x1108 ./Application/User/mc_interface.o
 .debug_line    0x0000000000006805      0xb2f ./Application/User/mc_parameters.o
 .debug_line    0x0000000000007334     0x14e8 ./Application/User/mc_tasks.o
 .debug_line    0x000000000000881c      0x99c ./Application/User/mcp_config.o
 .debug_line    0x00000000000091b8      0xb67 ./Application/User/motorcontrol.o
 .debug_line    0x0000000000009d1f     0x1ae8 ./Application/User/register_interface.o
 .debug_line    0x000000000000b807     0x154c ./Application/User/regular_conversion_manager.o
 .debug_line    0x000000000000cd53     0x113f ./Application/User/stm32g4xx_hal_msp.o
 .debug_line    0x000000000000de92     0x121b ./Application/User/stm32g4xx_mc_it.o
 .debug_line    0x000000000000f0ad      0xf07 ./Application/User/usart_aspep_driver.o
 .debug_line    0x000000000000ffb4      0x80b ./Drivers/CMSIS/system_stm32g4xx.o
 .debug_line    0x00000000000107bf      0xc28 ./Drivers/STM32G4xx_HAL_Driver/stm32g4xx_hal.o
 .debug_line    0x00000000000113e7     0x2e3f ./Drivers/STM32G4xx_HAL_Driver/stm32g4xx_hal_adc.o
 .debug_line    0x0000000000014226     0x28f5 ./Drivers/STM32G4xx_HAL_Driver/stm32g4xx_hal_adc_ex.o
 .debug_line    0x0000000000016b1b      0xd8b ./Drivers/STM32G4xx_HAL_Driver/stm32g4xx_hal_cortex.o
 .debug_line    0x00000000000178a6     0x13da ./Drivers/STM32G4xx_HAL_Driver/stm32g4xx_hal_dma.o
 .debug_line    0x0000000000018c80      0xd05 ./Drivers/STM32G4xx_HAL_Driver/stm32g4xx_hal_gpio.o
 .debug_line    0x0000000000019985     0x1029 ./Drivers/STM32G4xx_HAL_Driver/stm32g4xx_hal_pwr_ex.o
 .debug_line    0x000000000001a9ae     0x143e ./Drivers/STM32G4xx_HAL_Driver/stm32g4xx_hal_rcc.o
 .debug_line    0x000000000001bdec     0x1515 ./Drivers/STM32G4xx_HAL_Driver/stm32g4xx_hal_rcc_ex.o
 .debug_line    0x000000000001d301     0x68d7 ./Drivers/STM32G4xx_HAL_Driver/stm32g4xx_hal_tim.o
 .debug_line    0x0000000000023bd8     0x26eb ./Drivers/STM32G4xx_HAL_Driver/stm32g4xx_hal_tim_ex.o
 .debug_line    0x00000000000262c3     0x6e35 ./Drivers/STM32G4xx_HAL_Driver/stm32g4xx_hal_uart.o
 .debug_line    0x000000000002d0f8     0x1477 ./Drivers/STM32G4xx_HAL_Driver/stm32g4xx_hal_uart_ex.o
 .debug_line    0x000000000002e56f      0x98d ./Middlewares/MotorControl/bus_voltage_sensor.o
 .debug_line    0x000000000002eefc     0x1ce5 ./Middlewares/MotorControl/g4xx_bemf_ADC_fdbk.o
 .debug_line    0x0000000000030be1      0xdda ./Middlewares/MotorControl/mcp_sixstep.o
 .debug_line    0x00000000000319bb     0x109d ./Middlewares/MotorControl/mcpa.o
 .debug_line    0x0000000000032a58      0xb13 ./Middlewares/MotorControl/ntc_temperature_sensor.o
 .debug_line    0x000000000003356b      0xde5 ./Middlewares/MotorControl/pid_regulator.o
 .debug_line    0x0000000000034350      0xb42 ./Middlewares/MotorControl/pwm_common_sixstep.o
 .debug_line    0x0000000000034e92     0x1d67 ./Middlewares/MotorControl/pwmc_6pwm.o
 .debug_line    0x0000000000036bf9      0xd47 ./Middlewares/MotorControl/r_divider_bus_voltage_sensor.o
 .debug_line    0x0000000000037940      0xeca ./Middlewares/MotorControl/revup_ctrl_sixstep.o
 .debug_line    0x000000000003880a      0xe26 ./Middlewares/MotorControl/speed_ctrl.o
 .debug_line    0x0000000000039630      0xae0 ./Middlewares/MotorControl/speed_pos_fdbk.o
 .debug_line    0x000000000003a110      0xe7d ./Middlewares/MotorControl/virtual_speed_sensor.o

.debug_info     0x0000000000000000    0x3fa60
 .debug_info    0x0000000000000000       0x22 ./Application/Startup/startup_stm32g431cbux.o
 .debug_info    0x0000000000000022     0x1323 ./Application/User/aspep.o
 .debug_info    0x0000000000001345     0x2bf2 ./Application/User/main.o
 .debug_info    0x0000000000003f37      0xeb1 ./Application/User/mc_api.o
 .debug_info    0x0000000000004de8      0x1da ./Application/User/mc_app_hooks.o
 .debug_info    0x0000000000004fc2     0x19cc ./Application/User/mc_config.o
 .debug_info    0x000000000000698e      0x57b ./Application/User/mc_configuration_registers.o
 .debug_info    0x0000000000006f09     0x1304 ./Application/User/mc_interface.o
 .debug_info    0x000000000000820d      0x7a6 ./Application/User/mc_parameters.o
 .debug_info    0x00000000000089b3     0x3474 ./Application/User/mc_tasks.o
 .debug_info    0x000000000000be27      0xb76 ./Application/User/mcp_config.o
 .debug_info    0x000000000000c99d      0xc95 ./Application/User/motorcontrol.o
 .debug_info    0x000000000000d632     0x2df0 ./Application/User/register_interface.o
 .debug_info    0x0000000000010422     0x16b8 ./Application/User/regular_conversion_manager.o
 .debug_info    0x0000000000011ada     0x1e50 ./Application/User/stm32g4xx_hal_msp.o
 .debug_info    0x000000000001392a     0x24d1 ./Application/User/stm32g4xx_mc_it.o
 .debug_info    0x0000000000015dfb     0x13aa ./Application/User/usart_aspep_driver.o
 .debug_info    0x00000000000171a5      0x5b8 ./Drivers/CMSIS/system_stm32g4xx.o
 .debug_info    0x000000000001775d      0xbfd ./Drivers/STM32G4xx_HAL_Driver/stm32g4xx_hal.o
 .debug_info    0x000000000001835a     0x367b ./Drivers/STM32G4xx_HAL_Driver/stm32g4xx_hal_adc.o
 .debug_info    0x000000000001b9d5     0x2f7d ./Drivers/STM32G4xx_HAL_Driver/stm32g4xx_hal_adc_ex.o
 .debug_info    0x000000000001e952     0x1041 ./Drivers/STM32G4xx_HAL_Driver/stm32g4xx_hal_cortex.o
 .debug_info    0x000000000001f993      0xadf ./Drivers/STM32G4xx_HAL_Driver/stm32g4xx_hal_dma.o
 .debug_info    0x0000000000020472      0x86b ./Drivers/STM32G4xx_HAL_Driver/stm32g4xx_hal_gpio.o
 .debug_info    0x0000000000020cdd      0x9f5 ./Drivers/STM32G4xx_HAL_Driver/stm32g4xx_hal_pwr_ex.o
 .debug_info    0x00000000000216d2      0xf48 ./Drivers/STM32G4xx_HAL_Driver/stm32g4xx_hal_rcc.o
 .debug_info    0x000000000002261a      0xe2d ./Drivers/STM32G4xx_HAL_Driver/stm32g4xx_hal_rcc_ex.o
 .debug_info    0x0000000000023447     0x5252 ./Drivers/STM32G4xx_HAL_Driver/stm32g4xx_hal_tim.o
 .debug_info    0x0000000000028699     0x26c9 ./Drivers/STM32G4xx_HAL_Driver/stm32g4xx_hal_tim_ex.o
 .debug_info    0x000000000002ad62     0x7713 ./Drivers/STM32G4xx_HAL_Driver/stm32g4xx_hal_uart.o
 .debug_info    0x0000000000032475     0x142a ./Drivers/STM32G4xx_HAL_Driver/stm32g4xx_hal_uart_ex.o
 .debug_info    0x000000000003389f      0x327 ./Middlewares/MotorControl/bus_voltage_sensor.o
 .debug_info    0x0000000000033bc6     0x2a0c ./Middlewares/MotorControl/g4xx_bemf_ADC_fdbk.o
 .debug_info    0x00000000000365d2      0xdd0 ./Middlewares/MotorControl/mcp_sixstep.o
 .debug_info    0x00000000000373a2      0x72f ./Middlewares/MotorControl/mcpa.o
 .debug_info    0x0000000000037ad1      0x7a8 ./Middlewares/MotorControl/ntc_temperature_sensor.o
 .debug_info    0x0000000000038279      0x9bf ./Middlewares/MotorControl/pid_regulator.o
 .debug_info    0x0000000000038c38      0x7f2 ./Middlewares/MotorControl/pwm_common_sixstep.o
 .debug_info    0x000000000003942a     0x35ee ./Middlewares/MotorControl/pwmc_6pwm.o
 .debug_info    0x000000000003ca18      0x8ac ./Middlewares/MotorControl/r_divider_bus_voltage_sensor.o
 .debug_info    0x000000000003d2c4      0xff0 ./Middlewares/MotorControl/revup_ctrl_sixstep.o
 .debug_info    0x000000000003e2b4      0xa05 ./Middlewares/MotorControl/speed_ctrl.o
 .debug_info    0x000000000003ecb9      0x5be ./Middlewares/MotorControl/speed_pos_fdbk.o
 .debug_info    0x000000000003f277      0x7e9 ./Middlewares/MotorControl/virtual_speed_sensor.o

.debug_abbrev   0x0000000000000000     0x747c
 .debug_abbrev  0x0000000000000000       0x12 ./Application/Startup/startup_stm32g431cbux.o
 .debug_abbrev  0x0000000000000012      0x3eb ./Application/User/aspep.o
 .debug_abbrev  0x00000000000003fd      0x3b8 ./Application/User/main.o
 .debug_abbrev  0x00000000000007b5      0x238 ./Application/User/mc_api.o
 .debug_abbrev  0x00000000000009ed       0x9a ./Application/User/mc_app_hooks.o
 .debug_abbrev  0x0000000000000a87      0x224 ./Application/User/mc_config.o
 .debug_abbrev  0x0000000000000cab      0x109 ./Application/User/mc_configuration_registers.o
 .debug_abbrev  0x0000000000000db4      0x2e6 ./Application/User/mc_interface.o
 .debug_abbrev  0x000000000000109a      0x127 ./Application/User/mc_parameters.o
 .debug_abbrev  0x00000000000011c1      0x4d5 ./Application/User/mc_tasks.o
 .debug_abbrev  0x0000000000001696      0x1c5 ./Application/User/mcp_config.o
 .debug_abbrev  0x000000000000185b      0x226 ./Application/User/motorcontrol.o
 .debug_abbrev  0x0000000000001a81      0x454 ./Application/User/register_interface.o
 .debug_abbrev  0x0000000000001ed5      0x398 ./Application/User/regular_conversion_manager.o
 .debug_abbrev  0x000000000000226d      0x2f9 ./Application/User/stm32g4xx_hal_msp.o
 .debug_abbrev  0x0000000000002566      0x3de ./Application/User/stm32g4xx_mc_it.o
 .debug_abbrev  0x0000000000002944      0x2ca ./Application/User/usart_aspep_driver.o
 .debug_abbrev  0x0000000000002c0e      0x11c ./Drivers/CMSIS/system_stm32g4xx.o
 .debug_abbrev  0x0000000000002d2a      0x2cb ./Drivers/STM32G4xx_HAL_Driver/stm32g4xx_hal.o
 .debug_abbrev  0x0000000000002ff5      0x35d ./Drivers/STM32G4xx_HAL_Driver/stm32g4xx_hal_adc.o
 .debug_abbrev  0x0000000000003352      0x3ce ./Drivers/STM32G4xx_HAL_Driver/stm32g4xx_hal_adc_ex.o
 .debug_abbrev  0x0000000000003720      0x35a ./Drivers/STM32G4xx_HAL_Driver/stm32g4xx_hal_cortex.o
 .debug_abbrev  0x0000000000003a7a      0x2a6 ./Drivers/STM32G4xx_HAL_Driver/stm32g4xx_hal_dma.o
 .debug_abbrev  0x0000000000003d20      0x1fb ./Drivers/STM32G4xx_HAL_Driver/stm32g4xx_hal_gpio.o
 .debug_abbrev  0x0000000000003f1b      0x26b ./Drivers/STM32G4xx_HAL_Driver/stm32g4xx_hal_pwr_ex.o
 .debug_abbrev  0x0000000000004186      0x349 ./Drivers/STM32G4xx_HAL_Driver/stm32g4xx_hal_rcc.o
 .debug_abbrev  0x00000000000044cf      0x2c2 ./Drivers/STM32G4xx_HAL_Driver/stm32g4xx_hal_rcc_ex.o
 .debug_abbrev  0x0000000000004791      0x3b5 ./Drivers/STM32G4xx_HAL_Driver/stm32g4xx_hal_tim.o
 .debug_abbrev  0x0000000000004b46      0x3af ./Drivers/STM32G4xx_HAL_Driver/stm32g4xx_hal_tim_ex.o
 .debug_abbrev  0x0000000000004ef5      0x498 ./Drivers/STM32G4xx_HAL_Driver/stm32g4xx_hal_uart.o
 .debug_abbrev  0x000000000000538d      0x354 ./Drivers/STM32G4xx_HAL_Driver/stm32g4xx_hal_uart_ex.o
 .debug_abbrev  0x00000000000056e1      0x10d ./Middlewares/MotorControl/bus_voltage_sensor.o
 .debug_abbrev  0x00000000000057ee      0x484 ./Middlewares/MotorControl/g4xx_bemf_ADC_fdbk.o
 .debug_abbrev  0x0000000000005c72      0x222 ./Middlewares/MotorControl/mcp_sixstep.o
 .debug_abbrev  0x0000000000005e94      0x252 ./Middlewares/MotorControl/mcpa.o
 .debug_abbrev  0x00000000000060e6      0x1e5 ./Middlewares/MotorControl/ntc_temperature_sensor.o
 .debug_abbrev  0x00000000000062cb      0x1ae ./Middlewares/MotorControl/pid_regulator.o
 .debug_abbrev  0x0000000000006479      0x16d ./Middlewares/MotorControl/pwm_common_sixstep.o
 .debug_abbrev  0x00000000000065e6      0x3a0 ./Middlewares/MotorControl/pwmc_6pwm.o
 .debug_abbrev  0x0000000000006986      0x26e ./Middlewares/MotorControl/r_divider_bus_voltage_sensor.o
 .debug_abbrev  0x0000000000006bf4      0x2a6 ./Middlewares/MotorControl/revup_ctrl_sixstep.o
 .debug_abbrev  0x0000000000006e9a      0x238 ./Middlewares/MotorControl/speed_ctrl.o
 .debug_abbrev  0x00000000000070d2      0x184 ./Middlewares/MotorControl/speed_pos_fdbk.o
 .debug_abbrev  0x0000000000007256      0x226 ./Middlewares/MotorControl/virtual_speed_sensor.o

.debug_aranges  0x0000000000000000     0x1908
 .debug_aranges
                0x0000000000000000       0x28 ./Application/Startup/startup_stm32g431cbux.o
 .debug_aranges
                0x0000000000000028       0x68 ./Application/User/aspep.o
 .debug_aranges
                0x0000000000000090       0x30 ./Application/User/main.o
 .debug_aranges
                0x00000000000000c0       0xb8 ./Application/User/mc_api.o
 .debug_aranges
                0x0000000000000178       0x20 ./Application/User/mc_app_hooks.o
 .debug_aranges
                0x0000000000000198       0x18 ./Application/User/mc_config.o
 .debug_aranges
                0x00000000000001b0       0x18 ./Application/User/mc_configuration_registers.o
 .debug_aranges
                0x00000000000001c8       0xf0 ./Application/User/mc_interface.o
 .debug_aranges
                0x00000000000002b8       0x18 ./Application/User/mc_parameters.o
 .debug_aranges
                0x00000000000002d0       0xa8 ./Application/User/mc_tasks.o
 .debug_aranges
                0x0000000000000378       0x18 ./Application/User/mcp_config.o
 .debug_aranges
                0x0000000000000390       0x20 ./Application/User/motorcontrol.o
 .debug_aranges
                0x00000000000003b0       0x38 ./Application/User/register_interface.o
 .debug_aranges
                0x00000000000003e8       0x68 ./Application/User/regular_conversion_manager.o
 .debug_aranges
                0x0000000000000450       0x58 ./Application/User/stm32g4xx_hal_msp.o
 .debug_aranges
                0x00000000000004a8       0x60 ./Application/User/stm32g4xx_mc_it.o
 .debug_aranges
                0x0000000000000508       0x48 ./Application/User/usart_aspep_driver.o
 .debug_aranges
                0x0000000000000550       0x28 ./Drivers/CMSIS/system_stm32g4xx.o
 .debug_aranges
                0x0000000000000578      0x128 ./Drivers/STM32G4xx_HAL_Driver/stm32g4xx_hal.o
 .debug_aranges
                0x00000000000006a0       0xe0 ./Drivers/STM32G4xx_HAL_Driver/stm32g4xx_hal_adc.o
 .debug_aranges
                0x0000000000000780       0xd0 ./Drivers/STM32G4xx_HAL_Driver/stm32g4xx_hal_adc_ex.o
 .debug_aranges
                0x0000000000000850       0xa8 ./Drivers/STM32G4xx_HAL_Driver/stm32g4xx_hal_cortex.o
 .debug_aranges
                0x00000000000008f8       0x78 ./Drivers/STM32G4xx_HAL_Driver/stm32g4xx_hal_dma.o
 .debug_aranges
                0x0000000000000970       0x58 ./Drivers/STM32G4xx_HAL_Driver/stm32g4xx_hal_gpio.o
 .debug_aranges
                0x00000000000009c8      0x128 ./Drivers/STM32G4xx_HAL_Driver/stm32g4xx_hal_pwr_ex.o
 .debug_aranges
                0x0000000000000af0       0x90 ./Drivers/STM32G4xx_HAL_Driver/stm32g4xx_hal_rcc.o
 .debug_aranges
                0x0000000000000b80       0x98 ./Drivers/STM32G4xx_HAL_Driver/stm32g4xx_hal_rcc_ex.o
 .debug_aranges
                0x0000000000000c18      0x290 ./Drivers/STM32G4xx_HAL_Driver/stm32g4xx_hal_tim.o
 .debug_aranges
                0x0000000000000ea8      0x1c0 ./Drivers/STM32G4xx_HAL_Driver/stm32g4xx_hal_tim_ex.o
 .debug_aranges
                0x0000000000001068      0x1f0 ./Drivers/STM32G4xx_HAL_Driver/stm32g4xx_hal_uart.o
 .debug_aranges
                0x0000000000001258       0x80 ./Drivers/STM32G4xx_HAL_Driver/stm32g4xx_hal_uart_ex.o
 .debug_aranges
                0x00000000000012d8       0x38 ./Middlewares/MotorControl/bus_voltage_sensor.o
 .debug_aranges
                0x0000000000001310       0xd0 ./Middlewares/MotorControl/g4xx_bemf_ADC_fdbk.o
 .debug_aranges
                0x00000000000013e0       0x28 ./Middlewares/MotorControl/mcp_sixstep.o
 .debug_aranges
                0x0000000000001408       0x30 ./Middlewares/MotorControl/mcpa.o
 .debug_aranges
                0x0000000000001438       0x50 ./Middlewares/MotorControl/ntc_temperature_sensor.o
 .debug_aranges
                0x0000000000001488       0xe8 ./Middlewares/MotorControl/pid_regulator.o
 .debug_aranges
                0x0000000000001570       0xa8 ./Middlewares/MotorControl/pwm_common_sixstep.o
 .debug_aranges
                0x0000000000001618       0x80 ./Middlewares/MotorControl/pwmc_6pwm.o
 .debug_aranges
                0x0000000000001698       0x40 ./Middlewares/MotorControl/r_divider_bus_voltage_sensor.o
 .debug_aranges
                0x00000000000016d8       0xa8 ./Middlewares/MotorControl/revup_ctrl_sixstep.o
 .debug_aranges
                0x0000000000001780       0xa0 ./Middlewares/MotorControl/speed_ctrl.o
 .debug_aranges
                0x0000000000001820       0x68 ./Middlewares/MotorControl/speed_pos_fdbk.o
 .debug_aranges
                0x0000000000001888       0x80 ./Middlewares/MotorControl/virtual_speed_sensor.o

.debug_str      0x0000000000000000    0xfd398
 .debug_str     0x0000000000000000       0x8c ./Application/Startup/startup_stm32g431cbux.o
 .debug_str     0x000000000000008c    0xeac7b ./Application/User/aspep.o
                                      0xec61d (size before relaxing)
 .debug_str     0x00000000000ead07     0x2212 ./Application/User/main.o
                                      0xee25b (size before relaxing)
 .debug_str     0x00000000000ecf19      0xf28 ./Application/User/mc_api.o
                                      0xe90ca (size before relaxing)
 .debug_str     0x00000000000ede41       0x91 ./Application/User/mc_app_hooks.o
                                      0xe78f6 (size before relaxing)
 .debug_str     0x00000000000eded2      0x954 ./Application/User/mc_config.o
                                      0xedd95 (size before relaxing)
 .debug_str     0x00000000000ee826     0x30be ./Application/User/mc_configuration_registers.o
                                      0xef6db (size before relaxing)
 .debug_str     0x00000000000f18e4      0x232 ./Application/User/mc_interface.o
                                      0xed21e (size before relaxing)
 .debug_str     0x00000000000f1b16       0x50 ./Application/User/mc_parameters.o
                                      0xecb17 (size before relaxing)
 .debug_str     0x00000000000f1b66      0xd43 ./Application/User/mc_tasks.o
                                      0xef3c1 (size before relaxing)
 .debug_str     0x00000000000f28a9      0x190 ./Application/User/mcp_config.o
                                      0xecbb3 (size before relaxing)
 .debug_str     0x00000000000f2a39       0x81 ./Application/User/motorcontrol.o
                                      0xed6f9 (size before relaxing)
 .debug_str     0x00000000000f2aba     0x3204 ./Application/User/register_interface.o
                                      0xf4489 (size before relaxing)
 .debug_str     0x00000000000f5cbe      0x3d8 ./Application/User/regular_conversion_manager.o
                                      0xe8b68 (size before relaxing)
 .debug_str     0x00000000000f6096      0x314 ./Application/User/stm32g4xx_hal_msp.o
                                      0xedd02 (size before relaxing)
 .debug_str     0x00000000000f63aa      0xb4b ./Application/User/stm32g4xx_mc_it.o
                                      0xee5c1 (size before relaxing)
 .debug_str     0x00000000000f6ef5      0x159 ./Application/User/usart_aspep_driver.o
                                      0xe747b (size before relaxing)
 .debug_str     0x00000000000f704e      0x10f ./Drivers/CMSIS/system_stm32g4xx.o
                                      0xd1480 (size before relaxing)
 .debug_str     0x00000000000f715d      0x5b8 ./Drivers/STM32G4xx_HAL_Driver/stm32g4xx_hal.o
                                      0xd1f9d (size before relaxing)
 .debug_str     0x00000000000f7715      0xada ./Drivers/STM32G4xx_HAL_Driver/stm32g4xx_hal_adc.o
                                      0xd24d6 (size before relaxing)
 .debug_str     0x00000000000f81ef      0x4b5 ./Drivers/STM32G4xx_HAL_Driver/stm32g4xx_hal_adc_ex.o
                                      0xd244c (size before relaxing)
 .debug_str     0x00000000000f86a4      0x335 ./Drivers/STM32G4xx_HAL_Driver/stm32g4xx_hal_cortex.o
                                      0xd1c48 (size before relaxing)
 .debug_str     0x00000000000f89d9      0x2c1 ./Drivers/STM32G4xx_HAL_Driver/stm32g4xx_hal_dma.o
                                      0xd185f (size before relaxing)
 .debug_str     0x00000000000f8c9a      0x10f ./Drivers/STM32G4xx_HAL_Driver/stm32g4xx_hal_gpio.o
                                      0xd1610 (size before relaxing)
 .debug_str     0x00000000000f8da9      0x4ce ./Drivers/STM32G4xx_HAL_Driver/stm32g4xx_hal_pwr_ex.o
                                      0xd1973 (size before relaxing)
 .debug_str     0x00000000000f9277      0x505 ./Drivers/STM32G4xx_HAL_Driver/stm32g4xx_hal_rcc.o
                                      0xd1b7e (size before relaxing)
 .debug_str     0x00000000000f977c      0x444 ./Drivers/STM32G4xx_HAL_Driver/stm32g4xx_hal_rcc_ex.o
                                      0xd1b7f (size before relaxing)
 .debug_str     0x00000000000f9bc0      0xeb9 ./Drivers/STM32G4xx_HAL_Driver/stm32g4xx_hal_tim.o
                                      0xd2973 (size before relaxing)
 .debug_str     0x00000000000faa79      0x83d ./Drivers/STM32G4xx_HAL_Driver/stm32g4xx_hal_tim_ex.o
                                      0xd25f7 (size before relaxing)
 .debug_str     0x00000000000fb2b6      0x9ed ./Drivers/STM32G4xx_HAL_Driver/stm32g4xx_hal_uart.o
                                      0xd2429 (size before relaxing)
 .debug_str     0x00000000000fbca3      0x283 ./Drivers/STM32G4xx_HAL_Driver/stm32g4xx_hal_uart_ex.o
                                      0xd1bfc (size before relaxing)
 .debug_str     0x00000000000fbf26       0xbc ./Middlewares/MotorControl/bus_voltage_sensor.o
                                      0xe79ef (size before relaxing)
 .debug_str     0x00000000000fbfe2      0x33d ./Middlewares/MotorControl/g4xx_bemf_ADC_fdbk.o
                                      0xe8c60 (size before relaxing)
 .debug_str     0x00000000000fc31f       0xbd ./Middlewares/MotorControl/mcp_sixstep.o
                                      0xf058e (size before relaxing)
 .debug_str     0x00000000000fc3dc       0xd4 ./Middlewares/MotorControl/mcpa.o
                                      0xedae8 (size before relaxing)
 .debug_str     0x00000000000fc4b0       0xe6 ./Middlewares/MotorControl/ntc_temperature_sensor.o
                                      0xe7bf7 (size before relaxing)
 .debug_str     0x00000000000fc596      0x22f ./Middlewares/MotorControl/pid_regulator.o
                                      0xe7ce1 (size before relaxing)
 .debug_str     0x00000000000fc7c5      0x182 ./Middlewares/MotorControl/pwm_common_sixstep.o
                                      0xe7dde (size before relaxing)
 .debug_str     0x00000000000fc947      0x32b ./Middlewares/MotorControl/pwmc_6pwm.o
                                      0xe8354 (size before relaxing)
 .debug_str     0x00000000000fcc72       0xed ./Middlewares/MotorControl/r_divider_bus_voltage_sensor.o
                                      0xe7c5c (size before relaxing)
 .debug_str     0x00000000000fcd5f      0x230 ./Middlewares/MotorControl/revup_ctrl_sixstep.o
                                      0xe83fe (size before relaxing)
 .debug_str     0x00000000000fcf8f      0x16f ./Middlewares/MotorControl/speed_ctrl.o
                                      0xe7fd0 (size before relaxing)
 .debug_str     0x00000000000fd0fe      0x12a ./Middlewares/MotorControl/speed_pos_fdbk.o
                                      0xe7b87 (size before relaxing)
 .debug_str     0x00000000000fd228      0x170 ./Middlewares/MotorControl/virtual_speed_sensor.o
                                      0xe7d47 (size before relaxing)

.debug_ranges   0x0000000000000000     0x5058
 .debug_ranges  0x0000000000000000       0x20 ./Application/Startup/startup_stm32g431cbux.o
 .debug_ranges  0x0000000000000020      0x1f8 ./Application/User/aspep.o
 .debug_ranges  0x0000000000000218      0x4d0 ./Application/User/main.o
 .debug_ranges  0x00000000000006e8       0xa8 ./Application/User/mc_api.o
 .debug_ranges  0x0000000000000790       0x10 ./Application/User/mc_app_hooks.o
 .debug_ranges  0x00000000000007a0       0xf8 ./Application/User/mc_interface.o
 .debug_ranges  0x0000000000000898      0x300 ./Application/User/mc_tasks.o
 .debug_ranges  0x0000000000000b98       0x10 ./Application/User/motorcontrol.o
 .debug_ranges  0x0000000000000ba8      0x668 ./Application/User/register_interface.o
 .debug_ranges  0x0000000000001210      0x198 ./Application/User/regular_conversion_manager.o
 .debug_ranges  0x00000000000013a8      0x130 ./Application/User/stm32g4xx_hal_msp.o
 .debug_ranges  0x00000000000014d8      0x208 ./Application/User/stm32g4xx_mc_it.o
 .debug_ranges  0x00000000000016e0      0x390 ./Application/User/usart_aspep_driver.o
 .debug_ranges  0x0000000000001a70       0x18 ./Drivers/CMSIS/system_stm32g4xx.o
 .debug_ranges  0x0000000000001a88      0x118 ./Drivers/STM32G4xx_HAL_Driver/stm32g4xx_hal.o
 .debug_ranges  0x0000000000001ba0      0x7a0 ./Drivers/STM32G4xx_HAL_Driver/stm32g4xx_hal_adc.o
 .debug_ranges  0x0000000000002340      0x680 ./Drivers/STM32G4xx_HAL_Driver/stm32g4xx_hal_adc_ex.o
 .debug_ranges  0x00000000000029c0      0x190 ./Drivers/STM32G4xx_HAL_Driver/stm32g4xx_hal_cortex.o
 .debug_ranges  0x0000000000002b50      0x120 ./Drivers/STM32G4xx_HAL_Driver/stm32g4xx_hal_dma.o
 .debug_ranges  0x0000000000002c70       0x60 ./Drivers/STM32G4xx_HAL_Driver/stm32g4xx_hal_gpio.o
 .debug_ranges  0x0000000000002cd0      0x118 ./Drivers/STM32G4xx_HAL_Driver/stm32g4xx_hal_pwr_ex.o
 .debug_ranges  0x0000000000002de8       0xf8 ./Drivers/STM32G4xx_HAL_Driver/stm32g4xx_hal_rcc.o
 .debug_ranges  0x0000000000002ee0       0xd8 ./Drivers/STM32G4xx_HAL_Driver/stm32g4xx_hal_rcc_ex.o
 .debug_ranges  0x0000000000002fb8      0x730 ./Drivers/STM32G4xx_HAL_Driver/stm32g4xx_hal_tim.o
 .debug_ranges  0x00000000000036e8      0x260 ./Drivers/STM32G4xx_HAL_Driver/stm32g4xx_hal_tim_ex.o
 .debug_ranges  0x0000000000003948      0x920 ./Drivers/STM32G4xx_HAL_Driver/stm32g4xx_hal_uart.o
 .debug_ranges  0x0000000000004268       0xd8 ./Drivers/STM32G4xx_HAL_Driver/stm32g4xx_hal_uart_ex.o
 .debug_ranges  0x0000000000004340       0x28 ./Middlewares/MotorControl/bus_voltage_sensor.o
 .debug_ranges  0x0000000000004368      0x3f0 ./Middlewares/MotorControl/g4xx_bemf_ADC_fdbk.o
 .debug_ranges  0x0000000000004758       0x18 ./Middlewares/MotorControl/mcp_sixstep.o
 .debug_ranges  0x0000000000004770       0x20 ./Middlewares/MotorControl/mcpa.o
 .debug_ranges  0x0000000000004790       0x40 ./Middlewares/MotorControl/ntc_temperature_sensor.o
 .debug_ranges  0x00000000000047d0       0xd8 ./Middlewares/MotorControl/pid_regulator.o
 .debug_ranges  0x00000000000048a8       0x98 ./Middlewares/MotorControl/pwm_common_sixstep.o
 .debug_ranges  0x0000000000004940      0x418 ./Middlewares/MotorControl/pwmc_6pwm.o
 .debug_ranges  0x0000000000004d58       0x58 ./Middlewares/MotorControl/r_divider_bus_voltage_sensor.o
 .debug_ranges  0x0000000000004db0      0x118 ./Middlewares/MotorControl/revup_ctrl_sixstep.o
 .debug_ranges  0x0000000000004ec8       0xc8 ./Middlewares/MotorControl/speed_ctrl.o
 .debug_ranges  0x0000000000004f90       0x58 ./Middlewares/MotorControl/speed_pos_fdbk.o
 .debug_ranges  0x0000000000004fe8       0x70 ./Middlewares/MotorControl/virtual_speed_sensor.o

.debug_loc      0x0000000000000000    0x291f2
 .debug_loc     0x0000000000000000     0x1d89 ./Application/User/aspep.o
 .debug_loc     0x0000000000001d89       0x6f ./Application/User/mc_api.o
 .debug_loc     0x0000000000001df8      0x68e ./Application/User/mc_interface.o
 .debug_loc     0x0000000000002486      0x57d ./Application/User/mc_tasks.o
 .debug_loc     0x0000000000002a03     0x33e4 ./Application/User/register_interface.o
 .debug_loc     0x0000000000005de7      0x9dd ./Application/User/regular_conversion_manager.o
 .debug_loc     0x00000000000067c4      0x159 ./Application/User/stm32g4xx_hal_msp.o
 .debug_loc     0x000000000000691d      0x713 ./Application/User/stm32g4xx_mc_it.o
 .debug_loc     0x0000000000007030      0xcc2 ./Application/User/usart_aspep_driver.o
 .debug_loc     0x0000000000007cf2       0xbd ./Drivers/CMSIS/system_stm32g4xx.o
 .debug_loc     0x0000000000007daf      0x2cd ./Drivers/STM32G4xx_HAL_Driver/stm32g4xx_hal.o
 .debug_loc     0x000000000000807c     0x2a21 ./Drivers/STM32G4xx_HAL_Driver/stm32g4xx_hal_adc.o
 .debug_loc     0x000000000000aa9d     0x25df ./Drivers/STM32G4xx_HAL_Driver/stm32g4xx_hal_adc_ex.o
 .debug_loc     0x000000000000d07c      0x775 ./Drivers/STM32G4xx_HAL_Driver/stm32g4xx_hal_cortex.o
 .debug_loc     0x000000000000d7f1      0x9bd ./Drivers/STM32G4xx_HAL_Driver/stm32g4xx_hal_dma.o
 .debug_loc     0x000000000000e1ae      0x409 ./Drivers/STM32G4xx_HAL_Driver/stm32g4xx_hal_gpio.o
 .debug_loc     0x000000000000e5b7      0x96c ./Drivers/STM32G4xx_HAL_Driver/stm32g4xx_hal_pwr_ex.o
 .debug_loc     0x000000000000ef23      0x892 ./Drivers/STM32G4xx_HAL_Driver/stm32g4xx_hal_rcc.o
 .debug_loc     0x000000000000f7b5      0xad1 ./Drivers/STM32G4xx_HAL_Driver/stm32g4xx_hal_rcc_ex.o
 .debug_loc     0x0000000000010286     0x7801 ./Drivers/STM32G4xx_HAL_Driver/stm32g4xx_hal_tim.o
 .debug_loc     0x0000000000017a87     0x2768 ./Drivers/STM32G4xx_HAL_Driver/stm32g4xx_hal_tim_ex.o
 .debug_loc     0x000000000001a1ef     0x750c ./Drivers/STM32G4xx_HAL_Driver/stm32g4xx_hal_uart.o
 .debug_loc     0x00000000000216fb      0xe6c ./Drivers/STM32G4xx_HAL_Driver/stm32g4xx_hal_uart_ex.o
 .debug_loc     0x0000000000022567       0xd4 ./Middlewares/MotorControl/bus_voltage_sensor.o
 .debug_loc     0x000000000002263b     0x1547 ./Middlewares/MotorControl/g4xx_bemf_ADC_fdbk.o
 .debug_loc     0x0000000000023b82      0x3e8 ./Middlewares/MotorControl/mcp_sixstep.o
 .debug_loc     0x0000000000023f6a      0x52c ./Middlewares/MotorControl/mcpa.o
 .debug_loc     0x0000000000024496      0x29e ./Middlewares/MotorControl/ntc_temperature_sensor.o
 .debug_loc     0x0000000000024734      0x5d9 ./Middlewares/MotorControl/pid_regulator.o
 .debug_loc     0x0000000000024d0d      0x228 ./Middlewares/MotorControl/pwm_common_sixstep.o
 .debug_loc     0x0000000000024f35     0x2520 ./Middlewares/MotorControl/pwmc_6pwm.o
 .debug_loc     0x0000000000027455      0x49e ./Middlewares/MotorControl/r_divider_bus_voltage_sensor.o
 .debug_loc     0x00000000000278f3      0x99c ./Middlewares/MotorControl/revup_ctrl_sixstep.o
 .debug_loc     0x000000000002828f      0x504 ./Middlewares/MotorControl/speed_ctrl.o
 .debug_loc     0x0000000000028793      0x468 ./Middlewares/MotorControl/speed_pos_fdbk.o
 .debug_loc     0x0000000000028bfb      0x5f7 ./Middlewares/MotorControl/virtual_speed_sensor.o

.debug_macro    0x0000000000000000    0x29dc5
 .debug_macro   0x0000000000000000      0x2f9 ./Application/User/aspep.o
 .debug_macro   0x00000000000002f9      0xa8a ./Application/User/aspep.o
 .debug_macro   0x0000000000000d83       0x22 ./Application/User/aspep.o
 .debug_macro   0x0000000000000da5       0x8e ./Application/User/aspep.o
 .debug_macro   0x0000000000000e33       0x51 ./Application/User/aspep.o
 .debug_macro   0x0000000000000e84      0x103 ./Application/User/aspep.o
 .debug_macro   0x0000000000000f87       0x6a ./Application/User/aspep.o
 .debug_macro   0x0000000000000ff1      0x1df ./Application/User/aspep.o
 .debug_macro   0x00000000000011d0       0x22 ./Application/User/aspep.o
 .debug_macro   0x00000000000011f2       0x10 ./Application/User/aspep.o
 .debug_macro   0x0000000000001202       0x2e ./Application/User/aspep.o
 .debug_macro   0x0000000000001230       0x28 ./Application/User/aspep.o
 .debug_macro   0x0000000000001258       0x1c ./Application/User/aspep.o
 .debug_macro   0x0000000000001274       0x22 ./Application/User/aspep.o
 .debug_macro   0x0000000000001296       0xfb ./Application/User/aspep.o
 .debug_macro   0x0000000000001391     0x1011 ./Application/User/aspep.o
 .debug_macro   0x00000000000023a2      0x11f ./Application/User/aspep.o
 .debug_macro   0x00000000000024c1    0x11396 ./Application/User/aspep.o
 .debug_macro   0x0000000000013857       0x6d ./Application/User/aspep.o
 .debug_macro   0x00000000000138c4      0x161 ./Application/User/aspep.o
 .debug_macro   0x0000000000013a25     0x3554 ./Application/User/aspep.o
 .debug_macro   0x0000000000016f79      0x174 ./Application/User/aspep.o
 .debug_macro   0x00000000000170ed       0x5c ./Application/User/aspep.o
 .debug_macro   0x0000000000017149     0x141d ./Application/User/aspep.o
 .debug_macro   0x0000000000018566      0x535 ./Application/User/aspep.o
 .debug_macro   0x0000000000018a9b      0x1b6 ./Application/User/aspep.o
 .debug_macro   0x0000000000018c51      0x288 ./Application/User/aspep.o
 .debug_macro   0x0000000000018ed9      0x41d ./Application/User/aspep.o
 .debug_macro   0x00000000000192f6      0x18b ./Application/User/aspep.o
 .debug_macro   0x0000000000019481       0x43 ./Application/User/aspep.o
 .debug_macro   0x00000000000194c4      0x23d ./Application/User/aspep.o
 .debug_macro   0x0000000000019701     0x10fd ./Application/User/aspep.o
 .debug_macro   0x000000000001a7fe      0x72e ./Application/User/aspep.o
 .debug_macro   0x000000000001af2c      0x391 ./Application/User/aspep.o
 .debug_macro   0x000000000001b2bd      0x211 ./Application/User/aspep.o
 .debug_macro   0x000000000001b4ce      0x401 ./Application/User/aspep.o
 .debug_macro   0x000000000001b8cf      0x107 ./Application/User/aspep.o
 .debug_macro   0x000000000001b9d6      0x122 ./Application/User/aspep.o
 .debug_macro   0x000000000001baf8      0x3d1 ./Application/User/aspep.o
 .debug_macro   0x000000000001bec9      0xbbe ./Application/User/aspep.o
 .debug_macro   0x000000000001ca87      0x47e ./Application/User/aspep.o
 .debug_macro   0x000000000001cf05      0x67e ./Application/User/aspep.o
 .debug_macro   0x000000000001d583       0xa6 ./Application/User/aspep.o
 .debug_macro   0x000000000001d629      0x306 ./Application/User/aspep.o
 .debug_macro   0x000000000001d92f      0x182 ./Application/User/aspep.o
 .debug_macro   0x000000000001dab1      0x5f7 ./Application/User/aspep.o
 .debug_macro   0x000000000001e0a8      0x28c ./Application/User/aspep.o
 .debug_macro   0x000000000001e334      0xcf8 ./Application/User/aspep.o
 .debug_macro   0x000000000001f02c      0x169 ./Application/User/aspep.o
 .debug_macro   0x000000000001f195      0x40f ./Application/User/aspep.o
 .debug_macro   0x000000000001f5a4      0x3b9 ./Application/User/aspep.o
 .debug_macro   0x000000000001f95d      0x63e ./Application/User/aspep.o
 .debug_macro   0x000000000001ff9b      0x24e ./Application/User/aspep.o
 .debug_macro   0x00000000000201e9      0x1c9 ./Application/User/aspep.o
 .debug_macro   0x00000000000203b2      0x181 ./Application/User/aspep.o
 .debug_macro   0x0000000000020533      0x130 ./Application/User/aspep.o
 .debug_macro   0x0000000000020663       0x43 ./Application/User/aspep.o
 .debug_macro   0x00000000000206a6      0x1bc ./Application/User/aspep.o
 .debug_macro   0x0000000000020862       0x97 ./Application/User/aspep.o
 .debug_macro   0x00000000000208f9      0x1f0 ./Application/User/aspep.o
 .debug_macro   0x0000000000020ae9       0x46 ./Application/User/aspep.o
 .debug_macro   0x0000000000020b2f       0x52 ./Application/User/aspep.o
 .debug_macro   0x0000000000020b81       0x3a ./Application/User/aspep.o
 .debug_macro   0x0000000000020bbb      0x18b ./Application/User/aspep.o
 .debug_macro   0x0000000000020d46       0x1c ./Application/User/aspep.o
 .debug_macro   0x0000000000020d62       0x7c ./Application/User/aspep.o
 .debug_macro   0x0000000000020dde      0x3bd ./Application/User/main.o
 .debug_macro   0x000000000002119b      0x188 ./Application/User/main.o
 .debug_macro   0x0000000000021323       0x40 ./Application/User/main.o
 .debug_macro   0x0000000000021363      0x11f ./Application/User/main.o
 .debug_macro   0x0000000000021482       0x10 ./Application/User/main.o
 .debug_macro   0x0000000000021492       0x9d ./Application/User/main.o
 .debug_macro   0x000000000002152f       0xd6 ./Application/User/main.o
 .debug_macro   0x0000000000021605      0x389 ./Application/User/mc_api.o
 .debug_macro   0x000000000002198e       0x3a ./Application/User/mc_api.o
 .debug_macro   0x00000000000219c8       0xca ./Application/User/mc_api.o
 .debug_macro   0x0000000000021a92      0x29d ./Application/User/mc_app_hooks.o
 .debug_macro   0x0000000000021d2f      0x3cf ./Application/User/mc_config.o
 .debug_macro   0x00000000000220fe      0x311 ./Application/User/mc_configuration_registers.o
 .debug_macro   0x000000000002240f      0x4be ./Application/User/mc_configuration_registers.o
 .debug_macro   0x00000000000228cd      0x3ce ./Application/User/mc_interface.o
 .debug_macro   0x0000000000022c9b      0x3c1 ./Application/User/mc_parameters.o
 .debug_macro   0x000000000002305c      0x46a ./Application/User/mc_tasks.o
 .debug_macro   0x00000000000234c6       0x16 ./Application/User/mc_tasks.o
 .debug_macro   0x00000000000234dc       0x52 ./Application/User/mc_tasks.o
 .debug_macro   0x000000000002352e      0x331 ./Application/User/mcp_config.o
 .debug_macro   0x000000000002385f      0x3cf ./Application/User/motorcontrol.o
 .debug_macro   0x0000000000023c2e      0x4bf ./Application/User/register_interface.o
 .debug_macro   0x00000000000240ed       0x52 ./Application/User/register_interface.o
 .debug_macro   0x000000000002413f       0x1e ./Application/User/register_interface.o
 .debug_macro   0x000000000002415d       0x3c ./Application/User/register_interface.o
 .debug_macro   0x0000000000024199       0x34 ./Application/User/register_interface.o
 .debug_macro   0x00000000000241cd       0x16 ./Application/User/register_interface.o
 .debug_macro   0x00000000000241e3       0x43 ./Application/User/register_interface.o
 .debug_macro   0x0000000000024226       0x34 ./Application/User/register_interface.o
 .debug_macro   0x000000000002425a       0x10 ./Application/User/register_interface.o
 .debug_macro   0x000000000002426a       0x58 ./Application/User/register_interface.o
 .debug_macro   0x00000000000242c2       0x71 ./Application/User/register_interface.o
 .debug_macro   0x0000000000024333       0x1c ./Application/User/register_interface.o
 .debug_macro   0x000000000002434f      0x12a ./Application/User/register_interface.o
 .debug_macro   0x0000000000024479      0x341 ./Application/User/register_interface.o
 .debug_macro   0x00000000000247ba       0x10 ./Application/User/register_interface.o
 .debug_macro   0x00000000000247ca       0x35 ./Application/User/register_interface.o
 .debug_macro   0x00000000000247ff       0x20 ./Application/User/register_interface.o
 .debug_macro   0x000000000002481f      0x363 ./Application/User/regular_conversion_manager.o
 .debug_macro   0x0000000000024b82      0x3bd ./Application/User/stm32g4xx_hal_msp.o
 .debug_macro   0x0000000000024f3f      0x415 ./Application/User/stm32g4xx_mc_it.o
 .debug_macro   0x0000000000025354      0x155 ./Application/User/stm32g4xx_mc_it.o
 .debug_macro   0x00000000000254a9      0x28e ./Application/User/usart_aspep_driver.o
 .debug_macro   0x0000000000025737      0x1f1 ./Drivers/CMSIS/system_stm32g4xx.o
 .debug_macro   0x0000000000025928      0x23f ./Drivers/STM32G4xx_HAL_Driver/stm32g4xx_hal.o
 .debug_macro   0x0000000000025b67      0x20e ./Drivers/STM32G4xx_HAL_Driver/stm32g4xx_hal_adc.o
 .debug_macro   0x0000000000025d75      0x1fd ./Drivers/STM32G4xx_HAL_Driver/stm32g4xx_hal_adc_ex.o
 .debug_macro   0x0000000000025f72      0x1f1 ./Drivers/STM32G4xx_HAL_Driver/stm32g4xx_hal_cortex.o
 .debug_macro   0x0000000000026163      0x1f1 ./Drivers/STM32G4xx_HAL_Driver/stm32g4xx_hal_dma.o
 .debug_macro   0x0000000000026354      0x1f8 ./Drivers/STM32G4xx_HAL_Driver/stm32g4xx_hal_gpio.o
 .debug_macro   0x000000000002654c      0x21b ./Drivers/STM32G4xx_HAL_Driver/stm32g4xx_hal_pwr_ex.o
 .debug_macro   0x0000000000026767      0x233 ./Drivers/STM32G4xx_HAL_Driver/stm32g4xx_hal_rcc.o
 .debug_macro   0x000000000002699a      0x21b ./Drivers/STM32G4xx_HAL_Driver/stm32g4xx_hal_rcc_ex.o
 .debug_macro   0x0000000000026bb5      0x1f9 ./Drivers/STM32G4xx_HAL_Driver/stm32g4xx_hal_tim.o
 .debug_macro   0x0000000000026dae      0x1f7 ./Drivers/STM32G4xx_HAL_Driver/stm32g4xx_hal_tim_ex.o
 .debug_macro   0x0000000000026fa5      0x21c ./Drivers/STM32G4xx_HAL_Driver/stm32g4xx_hal_uart.o
 .debug_macro   0x00000000000271c1      0x1fd ./Drivers/STM32G4xx_HAL_Driver/stm32g4xx_hal_uart_ex.o
 .debug_macro   0x00000000000273be      0x29d ./Middlewares/MotorControl/bus_voltage_sensor.o
 .debug_macro   0x000000000002765b      0x2e9 ./Middlewares/MotorControl/g4xx_bemf_ADC_fdbk.o
 .debug_macro   0x0000000000027944      0x3e7 ./Middlewares/MotorControl/mcp_sixstep.o
 .debug_macro   0x0000000000027d2b      0x4c4 ./Middlewares/MotorControl/mcp_sixstep.o
 .debug_macro   0x00000000000281ef      0x38c ./Middlewares/MotorControl/mcpa.o
 .debug_macro   0x000000000002857b      0x2ab ./Middlewares/MotorControl/ntc_temperature_sensor.o
 .debug_macro   0x0000000000028826      0x2a1 ./Middlewares/MotorControl/pid_regulator.o
 .debug_macro   0x0000000000028ac7      0x2a2 ./Middlewares/MotorControl/pwm_common_sixstep.o
 .debug_macro   0x0000000000028d69      0x2c0 ./Middlewares/MotorControl/pwmc_6pwm.o
 .debug_macro   0x0000000000029029      0x2b5 ./Middlewares/MotorControl/r_divider_bus_voltage_sensor.o
 .debug_macro   0x00000000000292de      0x2e4 ./Middlewares/MotorControl/revup_ctrl_sixstep.o
 .debug_macro   0x00000000000295c2      0x2bf ./Middlewares/MotorControl/speed_ctrl.o
 .debug_macro   0x0000000000029881      0x29d ./Middlewares/MotorControl/speed_pos_fdbk.o
 .debug_macro   0x0000000000029b1e      0x2a7 ./Middlewares/MotorControl/virtual_speed_sensor.o

.comment        0x0000000000000000       0x50
 .comment       0x0000000000000000       0x50 ./Application/User/aspep.o
                                         0x51 (size before relaxing)
 .comment       0x0000000000000050       0x51 ./Application/User/main.o
 .comment       0x0000000000000050       0x51 ./Application/User/mc_api.o
 .comment       0x0000000000000050       0x51 ./Application/User/mc_app_hooks.o
 .comment       0x0000000000000050       0x51 ./Application/User/mc_config.o
 .comment       0x0000000000000050       0x51 ./Application/User/mc_configuration_registers.o
 .comment       0x0000000000000050       0x51 ./Application/User/mc_interface.o
 .comment       0x0000000000000050       0x51 ./Application/User/mc_parameters.o
 .comment       0x0000000000000050       0x51 ./Application/User/mc_tasks.o
 .comment       0x0000000000000050       0x51 ./Application/User/mcp_config.o
 .comment       0x0000000000000050       0x51 ./Application/User/motorcontrol.o
 .comment       0x0000000000000050       0x51 ./Application/User/register_interface.o
 .comment       0x0000000000000050       0x51 ./Application/User/regular_conversion_manager.o
 .comment       0x0000000000000050       0x51 ./Application/User/stm32g4xx_hal_msp.o
 .comment       0x0000000000000050       0x51 ./Application/User/stm32g4xx_mc_it.o
 .comment       0x0000000000000050       0x51 ./Application/User/usart_aspep_driver.o
 .comment       0x0000000000000050       0x51 ./Drivers/CMSIS/system_stm32g4xx.o
 .comment       0x0000000000000050       0x51 ./Drivers/STM32G4xx_HAL_Driver/stm32g4xx_hal.o
 .comment       0x0000000000000050       0x51 ./Drivers/STM32G4xx_HAL_Driver/stm32g4xx_hal_adc.o
 .comment       0x0000000000000050       0x51 ./Drivers/STM32G4xx_HAL_Driver/stm32g4xx_hal_adc_ex.o
 .comment       0x0000000000000050       0x51 ./Drivers/STM32G4xx_HAL_Driver/stm32g4xx_hal_cortex.o
 .comment       0x0000000000000050       0x51 ./Drivers/STM32G4xx_HAL_Driver/stm32g4xx_hal_dma.o
 .comment       0x0000000000000050       0x51 ./Drivers/STM32G4xx_HAL_Driver/stm32g4xx_hal_gpio.o
 .comment       0x0000000000000050       0x51 ./Drivers/STM32G4xx_HAL_Driver/stm32g4xx_hal_pwr_ex.o
 .comment       0x0000000000000050       0x51 ./Drivers/STM32G4xx_HAL_Driver/stm32g4xx_hal_rcc.o
 .comment       0x0000000000000050       0x51 ./Drivers/STM32G4xx_HAL_Driver/stm32g4xx_hal_rcc_ex.o
 .comment       0x0000000000000050       0x51 ./Drivers/STM32G4xx_HAL_Driver/stm32g4xx_hal_tim.o
 .comment       0x0000000000000050       0x51 ./Drivers/STM32G4xx_HAL_Driver/stm32g4xx_hal_tim_ex.o
 .comment       0x0000000000000050       0x51 ./Drivers/STM32G4xx_HAL_Driver/stm32g4xx_hal_uart.o
 .comment       0x0000000000000050       0x51 ./Drivers/STM32G4xx_HAL_Driver/stm32g4xx_hal_uart_ex.o
 .comment       0x0000000000000050       0x51 ./Middlewares/MotorControl/bus_voltage_sensor.o
 .comment       0x0000000000000050       0x51 ./Middlewares/MotorControl/g4xx_bemf_ADC_fdbk.o
 .comment       0x0000000000000050       0x51 ./Middlewares/MotorControl/mcp_sixstep.o
 .comment       0x0000000000000050       0x51 ./Middlewares/MotorControl/mcpa.o
 .comment       0x0000000000000050       0x51 ./Middlewares/MotorControl/ntc_temperature_sensor.o
 .comment       0x0000000000000050       0x51 ./Middlewares/MotorControl/pid_regulator.o
 .comment       0x0000000000000050       0x51 ./Middlewares/MotorControl/pwm_common_sixstep.o
 .comment       0x0000000000000050       0x51 ./Middlewares/MotorControl/pwmc_6pwm.o
 .comment       0x0000000000000050       0x51 ./Middlewares/MotorControl/r_divider_bus_voltage_sensor.o
 .comment       0x0000000000000050       0x51 ./Middlewares/MotorControl/revup_ctrl_sixstep.o
 .comment       0x0000000000000050       0x51 ./Middlewares/MotorControl/speed_ctrl.o
 .comment       0x0000000000000050       0x51 ./Middlewares/MotorControl/speed_pos_fdbk.o
 .comment       0x0000000000000050       0x51 ./Middlewares/MotorControl/virtual_speed_sensor.o

.debug_frame    0x0000000000000000     0x4834
 .debug_frame   0x0000000000000000      0x144 ./Application/User/aspep.o
 .debug_frame   0x0000000000000144       0x5c ./Application/User/main.o
 .debug_frame   0x00000000000001a0      0x164 ./Application/User/mc_api.o
 .debug_frame   0x0000000000000304       0x30 ./Application/User/mc_app_hooks.o
 .debug_frame   0x0000000000000334      0x220 ./Application/User/mc_interface.o
 .debug_frame   0x0000000000000554      0x230 ./Application/User/mc_tasks.o
 .debug_frame   0x0000000000000784       0x2c ./Application/User/motorcontrol.o
 .debug_frame   0x00000000000007b0       0xa0 ./Application/User/register_interface.o
 .debug_frame   0x0000000000000850      0x100 ./Application/User/regular_conversion_manager.o
 .debug_frame   0x0000000000000950      0x140 ./Application/User/stm32g4xx_hal_msp.o
 .debug_frame   0x0000000000000a90       0xe8 ./Application/User/stm32g4xx_mc_it.o
 .debug_frame   0x0000000000000b78       0xbc ./Application/User/usart_aspep_driver.o
 .debug_frame   0x0000000000000c34       0x30 ./Drivers/CMSIS/system_stm32g4xx.o
 .debug_frame   0x0000000000000c64      0x280 ./Drivers/STM32G4xx_HAL_Driver/stm32g4xx_hal.o
 .debug_frame   0x0000000000000ee4      0x324 ./Drivers/STM32G4xx_HAL_Driver/stm32g4xx_hal_adc.o
 .debug_frame   0x0000000000001208      0x340 ./Drivers/STM32G4xx_HAL_Driver/stm32g4xx_hal_adc_ex.o
 .debug_frame   0x0000000000001548      0x164 ./Drivers/STM32G4xx_HAL_Driver/stm32g4xx_hal_cortex.o
 .debug_frame   0x00000000000016ac      0x19c ./Drivers/STM32G4xx_HAL_Driver/stm32g4xx_hal_dma.o
 .debug_frame   0x0000000000001848       0xe4 ./Drivers/STM32G4xx_HAL_Driver/stm32g4xx_hal_gpio.o
 .debug_frame   0x000000000000192c      0x2a4 ./Drivers/STM32G4xx_HAL_Driver/stm32g4xx_hal_pwr_ex.o
 .debug_frame   0x0000000000001bd0      0x1b8 ./Drivers/STM32G4xx_HAL_Driver/stm32g4xx_hal_rcc.o
 .debug_frame   0x0000000000001d88      0x1b0 ./Drivers/STM32G4xx_HAL_Driver/stm32g4xx_hal_rcc_ex.o
 .debug_frame   0x0000000000001f38      0xb58 ./Drivers/STM32G4xx_HAL_Driver/stm32g4xx_hal_tim.o
 .debug_frame   0x0000000000002a90      0x650 ./Drivers/STM32G4xx_HAL_Driver/stm32g4xx_hal_tim_ex.o
 .debug_frame   0x00000000000030e0      0x750 ./Drivers/STM32G4xx_HAL_Driver/stm32g4xx_hal_uart.o
 .debug_frame   0x0000000000003830      0x1ac ./Drivers/STM32G4xx_HAL_Driver/stm32g4xx_hal_uart_ex.o
 .debug_frame   0x00000000000039dc       0x50 ./Middlewares/MotorControl/bus_voltage_sensor.o
 .debug_frame   0x0000000000003a2c      0x244 ./Middlewares/MotorControl/g4xx_bemf_ADC_fdbk.o
 .debug_frame   0x0000000000003c70       0x48 ./Middlewares/MotorControl/mcp_sixstep.o
 .debug_frame   0x0000000000003cb8       0x84 ./Middlewares/MotorControl/mcpa.o
 .debug_frame   0x0000000000003d3c       0x90 ./Middlewares/MotorControl/ntc_temperature_sensor.o
 .debug_frame   0x0000000000003dcc      0x1d0 ./Middlewares/MotorControl/pid_regulator.o
 .debug_frame   0x0000000000003f9c      0x130 ./Middlewares/MotorControl/pwm_common_sixstep.o
 .debug_frame   0x00000000000040cc      0x12c ./Middlewares/MotorControl/pwmc_6pwm.o
 .debug_frame   0x00000000000041f8       0x94 ./Middlewares/MotorControl/r_divider_bus_voltage_sensor.o
 .debug_frame   0x000000000000428c      0x188 ./Middlewares/MotorControl/revup_ctrl_sixstep.o
 .debug_frame   0x0000000000004414      0x178 ./Middlewares/MotorControl/speed_ctrl.o
 .debug_frame   0x000000000000458c       0xb8 ./Middlewares/MotorControl/speed_pos_fdbk.o
 .debug_frame   0x0000000000004644      0x11c ./Middlewares/MotorControl/virtual_speed_sensor.o
 .debug_frame   0x0000000000004760       0x2c c:/st/stm32cubeide_1.11.0/stm32cubeide/plugins/com.st.stm32cube.ide.mcu.externaltools.gnu-tools-for-stm32.10.3-2021.10.win32_1.0.100.202210260954/tools/bin/../lib/gcc/arm-none-eabi/10.3.1/../../../../arm-none-eabi/lib/thumb/v7e-m+fp/hard\libc_nano.a(lib_a-init.o)
 .debug_frame   0x000000000000478c       0x28 c:/st/stm32cubeide_1.11.0/stm32cubeide/plugins/com.st.stm32cube.ide.mcu.externaltools.gnu-tools-for-stm32.10.3-2021.10.win32_1.0.100.202210260954/tools/bin/../lib/gcc/arm-none-eabi/10.3.1/../../../../arm-none-eabi/lib/thumb/v7e-m+fp/hard\libc_nano.a(lib_a-memcpy-stub.o)
 .debug_frame   0x00000000000047b4       0x20 c:/st/stm32cubeide_1.11.0/stm32cubeide/plugins/com.st.stm32cube.ide.mcu.externaltools.gnu-tools-for-stm32.10.3-2021.10.win32_1.0.100.202210260954/tools/bin/../lib/gcc/arm-none-eabi/10.3.1/../../../../arm-none-eabi/lib/thumb/v7e-m+fp/hard\libc_nano.a(lib_a-memset.o)
 .debug_frame   0x00000000000047d4       0x2c c:/st/stm32cubeide_1.11.0/stm32cubeide/plugins/com.st.stm32cube.ide.mcu.externaltools.gnu-tools-for-stm32.10.3-2021.10.win32_1.0.100.202210260954/tools/bin/../lib/gcc/arm-none-eabi/10.3.1/thumb/v7e-m+fp/hard\libgcc.a(_aeabi_uldivmod.o)
 .debug_frame   0x0000000000004800       0x34 c:/st/stm32cubeide_1.11.0/stm32cubeide/plugins/com.st.stm32cube.ide.mcu.externaltools.gnu-tools-for-stm32.10.3-2021.10.win32_1.0.100.202210260954/tools/bin/../lib/gcc/arm-none-eabi/10.3.1/thumb/v7e-m+fp/hard\libgcc.a(_udivmoddi4.o)
